:020000040800F2
:10000000C806002079020008F3130008BF12000898
:10001000F11300087F0300089F150008000000008E
:10002000000000000000000000000000F7130008BE
:100030008103000800000000F5130008F913000810
:10004000930200089302000893020008930200083C
:10005000930200089302000893020008930200082C
:10006000930200089302000893020008930200081C
:10007000930200089302000893020008930200080C
:100080009302000800000000930200089302000899
:1000900093020008930200089302000893020008EC
:1000A00093020008930200089302000893020008DC
:1000B00093020008930200087514000893020008D8
:1000C00093020008930200089302000893020008BC
:1000D00093020008930200089302000893020008AC
:1000E000930200089302000893020008930200089C
:1000F0009302000893020008930200080000000029
:1001000000000000930200080000000093020008B5
:100110009302000800000000930200089302000808
:10012000930200089302000893020008930200085B
:100130009302000800000000000000009302000885
:100140009302000893020008000000000000000075
:10015000000000000000000000000000000000009F
:1001600000000000000000000000000093020008F2
:1001700093020008000000000000000000000000E2
:1001800000000000930200080000000000000000D2
:10019000000000000000000000000000000000005F
:1001A0000000000000000000930200089302000815
:1001B0009302000893020008930200080000000068
:1001C0000000000093020008000000000000000092
:1001D000930200089302000800F002F800F03CF8D7
:1001E0000AA090E8000C82448344AAF10107DA4592
:1001F00001D100F031F8AFF2090EBAE80F0013F0A8
:10020000010F18BFFB1A43F00103184798140000B0
:10021000B8140000103A24BF78C878C1FAD8520741
:1002200024BF30C830C144BF04680C607047000070
:100230000023002400250026103A28BF78C1FBD8EF
:10024000520728BF30C148BF0B6070471FB501F08F
:100250001BFA1FBD10B510BD00F058F81146FFF78E
:10026000F5FF01F0FFF900F076F803B4FFF7F2FFB5
:1002700003BC00F07DF800000948804709480047AA
:10028000FEE7FEE7FEE7FEE7FEE7FEE7FEE7FEE746
:10029000FEE7FEE704480549054A064B70470000A3
:1002A00065140008D9010008C8000020C806002015
:1002B000C8020020C80200204FF0000200B513461B
:1002C00094469646203922BFA0E80C50A0E80C5076
:1002D000B1F12001BFF4F7AF090728BFA0E80C5027
:1002E00048BF0CC05DF804EB890028BF40F8042B20
:1002F00008BF704748BF20F8022B11F0804F18BF8D
:1003000000F8012B7047704770477047754600F042
:100310002BF8AE4605006946534620F00700854697
:1003200018B020B5FFF7B6FFBDE820404FF000063B
:100330004FF000074FF000084FF0000B21F00701CD
:10034000AC46ACE8C009ACE8C009ACE8C009ACE810
:10035000C0098D46704710B50446AFF300802046B3
:10036000BDE81040FFF781BF0048704768000020DB
:1003700001491820ABBEFEE7260002007047FEE7E9
:10038000704772B6FEE700002DE9FC4FDFF8A0A130
:10039000002301250AF1040B03244FF00F0C0BF18D
:1003A000040EBDE005FA03F632406FD04F68012F0E
:1003B00005D0022F03D0112F01D0122F17D1D0F862
:1003C00008905F0004FA07F829EA08090097D1F8B5
:1003D0000C8008FA07F848EA0908C0F8088047685E
:1003E000B7430E79C6F300169E403E434660C6688A
:1003F0004FEA430804FA08F7BE4301978F6807FAEB
:1004000008F73743C7604E68022E01D0122E13D171
:10041000DE0800EB86060096366A5F07FF0E0CFAD0
:1004200007F926EA0906D1F8109009FA07F949EA0E
:100430000609009EC6F820900668019FBE430F790A
:1004400007F0030707FA08F7374307604E68F6001E
:1004500065D5384E376E47F001073766366E23F0A4
:10046000030706F001060096334E3E44B146B668D7
:100470009F074FEA17780CFA08F7BE43B0F1904F88
:1004800005D02E4FB84204D1012717E047E00027DE
:1004900014E02B4FB84201D102270FE0294FB84298
:1004A00001D103270AE0284FB84201D1042705E013
:1004B000264FB84201D1052700E0062707FA08F7C2
:1004C0003743C9F80870DAF800605746D1F804805D
:1004D00096435FEAC83800D516433E60DBF80060FB
:1004E0005F46D1F8048096435FEA883800D516430A
:1004F0003E60DEF800607746D1F8048096435FEAFC
:10050000C82800D516433E60094F0C373E68D1F825
:10051000048096435FEA882800D516433E605B1C42
:100520000A6832FA03F67FF43DAFBDE8FC8F0000A5
:100530000004014000100240000001400004004897
:1005400000080048000C0048001000480014004853
:100550000069084000D0012070470AB181617047EE
:1005600081627047014880687047000000000020E9
:100570000248816842681144816070470000002091
:1005800010B50024032000F073F80F2000F008F8E5
:1005900008B1012401E000F025F8204610BD00005C
:1005A00070B50E4E05460024706898B14FF47A710C
:1005B000B1FBF0F00A490968B1FBF0F000F0FCFB78
:1005C00040B9102D06D200222946501E00F030F806
:1005D000356000E00124204670BD000000000020CE
:1005E0000C0000200A4882B0016E41F00101016652
:1005F000016E01F001010091816D41F08051816532
:10060000806D00F08050009002B000F0A1B80000B2
:1006100000100240002809DB00F01F020121914078
:100620004009800000F1E020C0F800117047000090
:10063000F0B40E4B1B680C46C3F30223C3F107054D
:10064000042D00D90425191D072901D2002300E03B
:10065000DB1E012606FA05F1491E214099409E4005
:10066000761E16403143F0BC00F09ABF0CED00E05E
:10067000064900F0070208684FF6FF03184040EAF9
:100680000220034A10430860704700000CED00E0B0
:100690000000FA052B492C4B0A6832214A432B49AA
:1006A00040B1B0F5007F086829D020F4C06040F464
:1006B00080602CE00868C0F34120022804D051F883
:1006C000800F20F4807022E0D1F8800020F4807048
:1006D000C1F88000086820F4C06040F40070086031
:1006E000B2FBF3F0401C00E0401E4A69520501D500
:1006F0000028F9D1486940050AD503207047C0F3A6
:100700004120022806D051F8800F40F48070086024
:1007100000207047D1F8800040F48070C1F880005C
:10072000086820F4C06040F400700860B2FBF3F089
:10073000401C00E0401E4A695205DBD50028F9D173
:10074000D8E700000C00002040420F00007000407D
:100750000248816841F48041816070470070004028
:100760002DE9F0470E4605004FF0000725D0DFF8D1
:10077000AC81D8F8000000F00F00B0420CD2D8F8DD
:10078000001021F00F013143C8F80010D8F8000024
:1007900000F00F00B04210D12968614CC80741F247
:1007A000883A5AD06868DFF87C91032808D002287C
:1007B00020682DD0400500282CDB0120BDE8F08703
:1007C00020688001F9D5E06800F00302E068C0F31A
:1007D0000310401C032A19D0534A00BFB2FBF0F0AB
:1007E000E268C2F306225043E268C2F34162521C3F
:1007F0005200B0FBF2F0484517D9A06810F0F00F96
:100800000CD0880711D5A86840B10EE0474AE5E74B
:100810008003D0E700F092F8484506D9A06820F0A0
:10082000F00040F08000A0608027A068696820F098
:1008300003000843A060FFF795FE814606E000BF75
:10084000FFF790FEA0EB090151453AD8A06869680E
:1008500000F00C00B0EB810FF2D12868810714D5AD
:10086000400703D5A06840F4E060A0602878000746
:1008700005D5A06820F4605040F4E060A060A06856
:10088000A96820F0F000084304E0802F03D1A0689D
:1008900020F0F000A060D8F80010404601F00F01F1
:1008A000B14216D9016821F00F0131430160FFF711
:1008B00059FE074607E000BFFFF754FEC11B514534
:1008C00001D903207AE7D8F8000000F00F00B04209
:1008D000F2D12878400705D5A068E96820F4E060E7
:1008E0000843A0602878000706D5A068296920F48D
:1008F000605040EAC100A06000F020F8A1680C4AF6
:10090000C1F30311515C01F01F01C840094908609F
:1009100009480068BDE8F047FFF742BE00200240EA
:100920000010024000B4C4040024F40000366E013C
:10093000921600080C00002000000020184910B595
:100940008868C0F381021748012A0BD08A68164BC9
:10095000C2F38102022A06D08A68C2F38102032A06
:1009600003D0002010BD184610BDCA6802F0030471
:10097000CA68C2F30312521C032C02D0B0FBF2F07F
:1009800001E0B3FBF2F0CA68C968C2F30622504323
:10099000C1F34161491C4900B0FBF1F010BD0000FA
:1009A000001002400024F40000366E012DE9F843E7
:1009B00004007AD02078FA4DC00747D0A868E968CB
:1009C00000F00C0001F003010C2802D0082817D019
:1009D00001E0032914D06068B0F5803F17D0B0F56E
:1009E000A02F286817D020F480302860286820F4D1
:1009F000802028606068E0B1FFF7B4FD064614E08F
:100A00002868800322D560680028D2D01EE02868BC
:100A100040F48030EDE740F480202860F7E700BF25
:100A2000FFF7A0FD801B642870D828688003F7D5E5
:100A30000CE0FFF797FD064605E000BFFFF792FDCB
:100A4000801B6428F0D828688003F7D420788007BA
:100A50004CD5A868E96800F00C0001F003010C28EF
:100A600002D004280DD001E002290AD0E068002855
:100A700028682BD040F480702860FFF773FD06468D
:100A800019E02868400502D5E068002891D0686820
:100A9000217C20F0FE4040EA01606860C1480068A7
:100AA000FFF77EFD002800D120E076E1FFF75AFD38
:100AB000801B0228B8D828684005F7D56868217CD3
:100AC00020F0FE4040EA016068600FE020F4807092
:100AD0002860FFF747FD064605E000BFFFF742FD2F
:100AE000801B0228A0D828684005F7D4207800078A
:100AF00029D560690028D5F8940013D040F0010092
:100B0000C5F89400FFF72EFD064606E090E000BF12
:100B1000FFF728FD801B022886D8D5F894008007AF
:100B2000F6D510E020F00100C5F89400FFF71AFD9B
:100B3000064604E0FFF716FD801B022878D8D5F89A
:100B400094008007F6D42078400761D5A86D002670
:100B5000C00008D4A86D40F08050A865A86D01269B
:100B600000F08050009090480168C90511D40168D8
:100B7000804641F480710160FFF7F4FC074604E011
:100B8000FFF7F0FCC01B022852D8D8F80000C005BF
:100B9000F6D5A068012815D00528D5F8900016D004
:100BA00020F00100C5F89000D5F8900020F0040076
:100BB000C5F89000A06841F28838B8B1FFF7D2FCC0
:100BC00007460EE0D5F8900040F00100F0E740F055
:100BD0000400C5F89000F5E7FFF7C4FCC11B4145D0
:100BE00026D8D5F890008007F6D50CE0FFF7BAFCC0
:100BF000074604E0FFF7B6FCC11B414518D8D5F8FD
:100C000090008007F6D41EB1A86D20F08050A86532
:100C10002078800629D5A0690028D5F8980013D03F
:100C200040F00100C5F89800FFF79CFC064606E07E
:100C300077E000BFFFF796FC801B022877D8D5F835
:100C400098008007F6D510E020F00100C5F8980064
:100C5000FFF788FC064604E0FFF784FC801B0228AF
:100C600065D8D5F898008007F6D4E069F0B3A96894
:100C7000C1F38101032961D00228286820F0807027
:100C800028600BD0E86820F00300E860E868474976
:100C90000840E860FFF766FC04464BE0FFF762FCA3
:100CA000064604E0FFF75EFC801B02283FD8286858
:100CB0008001F7D4F4E908016FF00F0202EB011193
:100CC0000843218A5204490802EB4151A26841EAD3
:100CD00002210843217D4FF07E42490802EB416129
:100CE0000843217B40EAC160E96800E062E0304AE5
:100CF00011400843E860286840F080702860E86888
:100D000040F08070E860FFF72DFC044605E000BF6E
:100D1000FFF728FC001B022809D828688001F7D5B6
:100D200048E004E0FFF71EFC001B022802D9032064
:100D3000BDE8F88328688001F4D43BE00128F7D0AF
:100D4000E868226A00F00301914226D1616A00F04E
:100D5000F0020901103991421FD1A26A00F4FE414C
:100D6000B1EB022F19D194F82C2000F07841B1EBAF
:100D7000C26F12D1218E00F4C00249084905A1F5C5
:100D80000011914209D194F8341000F0C060490874
:100D90004906A1F1007181420CD00120C8E7000092
:100DA000001002400000002000700040FFFFEEFE37
:100DB0000C809F010020BBE710B5401EB0F1807F82
:100DC00001D3012010BD4FF0E02460610F216017B6
:100DD00000F0E6FB0020A06107202061002010BD8C
:100DE000704770477047704770477047F0B590F88C
:100DF0003C20012A3AD0012580F83C50022280F89C
:100E00003D2003685A689C68194E1A4FB34201D0BE
:100E1000BB4204D122F4700C4A6842EA0C02DFF8AB
:100E200058C002EA0C02D1F800C04CEA020CC3F828
:100E300004C00268B2420DD0B2F1804F0AD00F4B0D
:100E40009A4207D00E4B9A4204D0BA4202D00D4BC0
:100E50009A4204D1896824F080031943916080F894
:100E60003D50002180F83C100846F0BD0220F0BD46
:100E7000002C0140003401408FFFFFFD00040040C2
:100E80000008004000400140704710B5040003D046
:100E900094F83D0010B107E0012010BD002084F857
:100EA0003C00204600F022F8022084F83D00211D7D
:100EB000206800F0E5FA012084F8480084F83E003C
:100EC00084F83F0084F8400084F8410084F8420030
:100ED00084F8430084F8440084F8450084F8460010
:100EE00084F8470084F83D00002010BD08B5006874
:100EF0000B49884212D10B48816D41F00401816594
:100F0000806D002200F00400009011461E20FFF7C3
:100F10008FFBBDE808401E20FFF77CBB08BD00002A
:100F2000000800400010024090F83D10012901D057
:100F300001207047022180F83D100168CA6842F024
:100F40000102CA600068104988420ED0B0F1804F9B
:100F50000BD00E49884208D00D49884205D00D4972
:100F6000884202D00C49884207D181680B4A11405F
:100F7000062906D0B1F5803F03D0016841F0010198
:100F80000160002070470000002C01400004004078
:100F9000000800400034014000400140070001000B
:100FA00070B5044690F83C00012814D0012584F85F
:100FB0003C50022084F83D0022689068344B184071
:100FC00020F47F4090600868702827D010DC10F073
:100FD0000F0F03D04AE04FF0020070BD4FEA20121D
:100FE000072A43D2DFE802F0505050504831390010
:100FF000284BC21A984247D009DCB0F5805F35D043
:10100000B0F5005F15D0B0F1101F2FD13CE0102AD1
:101010003AD0202A38D0502A28D135E0CB68D1E9FF
:101020000121206800F084FA2068816841F077018E
:1010300009E0CB68D1E90121206800F079FA206845
:10104000816841F48041816010E0CA684968206885
:1010500000F082FA5021206806E0CA6849682068DA
:1010600000F08BFA6021206800F06CFA84F83D50A3
:10107000002084F83C0070BDCA684968206800F010
:101080006BFA40212068EFE7226801461046EBE743
:1010900088FFCEFF20001000704770B5044600683E
:1010A00001694FF00005C943890715D4C168C943D8
:1010B000890711D4E91E0161012020772068806929
:1010C0008007204602D0FFF7E7FF04E000F0E3F8D6
:1010D000204600F0E1F8257720680169C9434907F7
:1010E00017D4C168C943490713D46FF004010161E3
:1010F000022020772068806910F4407F204602D0CB
:10110000FFF7CAFF04E000F0C6F8204600F0C4F87C
:10111000257720680169C943090716D4C168C94306
:10112000090712D46FF008010161042020772068BC
:10113000C0698007204602D0FFF7AEFF04E000F050
:10114000AAF8204600F0A8F8257720680169C9436D
:10115000C90617D4C168C943C90613D46FF010017A
:101160000161082020772068C06910F4407F204684
:1011700002D0FFF791FF04E000F08DF8204600F068
:101180008BF8257720680169C943C90708D1C16870
:10119000C943C90704D1891E0161204600F07EF8C9
:1011A00020680169C943090609D4C168C943090611
:1011B00005D46FF0800101612046FFF712FE206820
:1011C0000169C943C90509D4C168C943090605D4E1
:1011D0006FF4807101612046FFF702FE206801690B
:1011E000C943490609D4C168C943490605D46FF00B
:1011F00040010161204600F061F820680169C9439F
:10120000890609D4C168C943890605D46FF0200155
:1012100001612046FFF7E6FD20680169C943C90264
:1012200009D4C168C943C90205D46FF480110161B2
:101230002046FFF7D9FD20680169C943890209D416
:10124000C168C943890205D46FF4001101612046C9
:10125000FFF7C9FD20680169C943490209D4C16883
:10126000C943490205D46FF4800101612046FFF7AC
:10127000BCFD20680169C94309020BD4C168C94398
:10128000090207D46FF4000101612046BDE87040F7
:10129000FFF7FABD70BD7047704700000068054950
:1012A000884206D104480179002902D08168491C8E
:1012B0008160704700080040100000207047FEE782
:1012C0002DE9F04186B014216846FEF7F5FF2A4863
:1012D000C16C41F02001C164C16C01F02001059195
:1012E000C16C41F00201C164C16C01F002010591C1
:1012F000C16C41F00401C164C16C01F004010591AD
:10130000C16C41F00101C164C16C01F001010591A2
:10131000C16C41F00801C164C06C012200F00800FA
:10132000164F1602059031463846FFF716F9DFF8DA
:101330005080012204214046FFF70FF901250024C7
:10134000CDE9005469460F480295FFF71DF8009655
:10135000CDE90154694638460394FFF715F8042097
:101360000090CDE90154694640460394FFF70CF81C
:1013700006B0BDE8F08100000010024000080048FF
:10138000000C00480004004810B588B0002417483D
:1013900000940194029403940494059412490694D1
:1013A000016040F21F31C0E901146321C0E9031458
:1013B0008461FFF76AFD08B1FEF7E3FF4FF4805048
:1013C000009069460948FFF7EBFD08B1FEF7D9FF29
:1013D000049404A905480694FFF708FD002801D0ED
:1013E000FEF7CFFF08B010BD000800401C00002031
:1013F000FEE7FEE770477047FFF7BAB810B594B044
:1014000038216846FEF758FF14210EA8FEF754FF56
:101410004FF40070FFF73EF90120009000040190A6
:1014200002200324CDE907041421CDE90A100C9011
:101430000D9009946846FFF7B9FA08B172B6FEE755
:101440000F20CDE90E04002010901190129002217F
:101450000EA8FFF785F9002801D072B6FEE714B098
:1014600010BD00000248016841F47001016070473E
:1014700088ED00E00148FFF710BE00001C000020CE
:101480002DE9F0430268234B234D244E244C4FF0AA
:101490008049984207D0484505D0A84203D0B042C1
:1014A00001D0A04203D122F070074A683A431D4F91
:1014B000DFF874C0DFF8748098420DD048450BD037
:1014C000A84209D0B04207D0A04205D0B84203D00C
:1014D000604501D0404503D122F44075CA682A43D3
:1014E0004D6922F080022A4302608A68C2620A685B
:1014F0008262984207D0A04205D0B84203D060452E
:1015000001D0404501D10969016301214161BDE874
:10151000F0830000002C014000040040000800405F
:1015200000340140004001400044014000480140B7
:1015300010B5846842EA032224F47F440A4322431C
:10154000826010BD8268034B1A400A4342F00701D3
:10155000816070478FFFCFFF10B5036A046A24F0E3
:1015600001040462846924F0F00444EA021423F0C4
:101570000A020A438461026210BD10B5036A23F0B7
:10158000100303628369046A23F4704343EA02325E
:1015900024F0A00343EA01118261016210BDFEE75D
:1015A0000907090E002804DB00F1E02080F8001490
:1015B000704700F00F0000F1E02080F8141D704724
:1015C000164810B50168164CA278891A0A2914D356
:1015D0000068A07001211348FEF7BAFF20706278FE
:1015E0004FF0000150EA020308D0AAB100220242E3
:1015F00001D02171A1602078607010BD01202071A0
:10160000A068B0F57A6FF6D3A160E07880F00100B1
:10161000E07000F009F8EEE70122E8E7080000209A
:10162000100000200004004870B50C4D0446012253
:1016300004212846FEF791FF09484FF4807154B108
:101640005FF00002FEF789FF2846BDE870400022E7
:101650000421FEF782BF0122F4E70000000C0048DD
:1016600000080048FEF78CFFFFF7C8FEFFF728FED2
:10167000FFF78AFE0348FFF757FC00BFFFF7A0FF04
:10168000FCE700001C0000204FF04070E1EE100A63
:10169000704700000000000000000102030406077C
:1016A00008090000C4160008000000201C0000000B
:1016B00014020008E01600081C000020AC06000020
:1016C00030020008100000000100000000000000CF
:1016D0000024F400000000000000000000000000F2
:04000005080001D915
:00000001FF
