:020000040800F2
:1000000038AF0020CD0100089F2E0008E120000835
:100010009D2E0008D9030008A5320008000000004A
:10002000000000000000000000000000A32E0008F7
:10003000A304000800000000A12E0008A52E00085F
:10004000E7010008E7010008E7010008E7010008F0
:10005000E7010008E7010008E7010008E7010008E0
:10006000E7010008E7010008E70100083104000883
:100070003D04000849040008E70100085504000891
:10008000610400086D040008E7010008E7010008AA
:100090009932000819040008E7010008E701000888
:1000A000E7010008E7010008E7010008E701000890
:1000B000E7010008E7010008E7010008E701000880
:1000C000E7010008E7010008E7010008E701000870
:1000D000E7010008E7010008E7010008E701000860
:1000E000E7010008E7010008E7010008E701000850
:1000F000E7010008E7010008E7010008E701000840
:10010000E7010008E7010008E7010008E70100082F
:10011000E7010008E7010008E7010008E70100081F
:10012000E7010008E7010008E7010008E70100080F
:1001300000F002F800F03AF80AA090E8000C8244BF
:100140008344AAF10107DA4501D100F02FF8AFF29C
:10015000090EBAE80F0013F0010F18BFFB1A43F0A5
:100160000103184780440000A0440000103A24BF57
:1001700078C878C1FAD8520724BF30C830C144BF0C
:1001800004680C607047000000230024002500264E
:10019000103A28BF78C1FBD8520728BF30C148BFEA
:1001A0000B6070471FB51FBD10B510BD00F058F8AB
:1001B0001146FFF7F7FF03F0B7FC00F076F803B441
:1001C000FFF7F2FF03BC00F07DF80000094880470C
:1001D00009480047FEE7FEE7FEE7FEE7FEE7FEE729
:1001E000FEE7FEE7FEE7FEE704480549054A064B41
:1001F00070470000072F00083101000838A90020CF
:1002000038AF002038AB002038AB00204FF00002A0
:1002100000B5134694469646203922BFA0E80C50FC
:10022000A0E80C50B1F12001BFF4F7AF090728BFD7
:10023000A0E80C5048BF0CC05DF804EB890028BF53
:1002400040F8042B08BF704748BF20F8022B11F07C
:10025000804F18BF00F8012B7047704770477047F8
:10026000754600F02BF8AE4605006946534620F06F
:100270000700854618B020B5FFF7B6FFBDE820405F
:100280004FF000064FF000074FF000084FF0000B52
:1002900021F00701AC46ACE8C009ACE8C009ACE805
:1002A000C009ACE8C0098D46704710B50446AFF3ED
:1002B00000802046BDE81040FFF781BF004870472E
:1002C000D4A8002001491820ABBEFEE7260002009A
:1002D000704700214171017081704170C1700171DE
:1002E0008171C1714173017281724172C172017376
:1002F0008173C1734175017481744174C174017556
:100300008175C1754177017681764176C176017735
:100310008177C17780F8251080F8201080F82210AE
:1003200080F8211080F8231080F8241080F826101F
:1003300080F82710704700000749064808238A699B
:100340000260C9694160014601224FF4827000F0E9
:1003500015B800003C000020AAA80020064B00B5FC
:1003600019215981B0F5417F05D103F1260003F031
:10037000C7FB0020D88000BD74A8002030B589B02C
:10038000002402940090CDE9034308788DF818000A
:1003900048788DF8190088788DF81A00C8788DF89B
:1003A0001B0008798DF81C0048798DF81D008879AC
:1003B0008DF81E00C8798DF81F00012A06D108AB00
:1003C0006946044806AA00F081F8054609B02846A7
:1003D00030BD000058000020FEE7000000B58BB0E3
:1003E0000020012103900490CDE9081001900290B3
:1003F0000090CDE9060105906946064800F0CEF868
:100400000221044800F050F8024800F0A7FB0BB0AE
:1004100000BD000058000020014800F0B1B9000004
:10042000580000200149FFF799BF00003400002068
:10043000014800F05FBC0000F4020020014800F019
:1004400059BC0000A0010020014800F053BC00008E
:10045000E4010020014800F04DBC0000280200200B
:10046000014800F047BC0000B0020020014800F045
:1004700041BC00006C02002030B590F840500124CF
:10048000AC40C56B6C60046863604368102B036804
:1004900003D099600068C26030BD9A600068C16096
:1004A00030BD704772B6FEE790F82020012A07D0D1
:1004B000022A05D0416A41F480214162012070473F
:1004C000006842690A43426100207047F0B590F825
:1004D00020500468A468012D05D0022D03D0416A84
:1004E00041F4802157E014F0406F01D1E5004FD571
:1004F000C4F301640125A5401D608D684FF4C073ED
:100500009DB1CE6835434E6845EAC605066803EBE3
:100510000417F5514FF4C275076805EB04150E6911
:100520007E51097D012905D009E00E88CD6845EA94
:100530004655EBE701684E5946F480764E511179E5
:10054000D579567941EA056195792D0445EA062564
:1005500029434FF4C676056806EB0416A9511178B5
:10056000D57841EA0561957852782D0445EA022252
:1005700011434FF4C475026805EB0415515100682E
:1005800003EB0411425842F0010242500020F0BD3A
:10059000416A41F4001141620120F0BD10B590F8AC
:1005A00020300268012B07D0022B05D0416A41F4AC
:1005B00080214162012010BDD2F8000240F001000C
:1005C000C2F80002087D00F01F0301209840D2F815
:1005D0001C328343C2F81C32CB69B3B9D2F80C3257
:1005E0008343C2F80C328C894B6864F31F434C6917
:1005F00002EBC404C4F840320C890B6864F31F4357
:100600004C6902EBC404C4F84432CB69012B16D107
:10061000D2F80C320343C2F80C320C884B6864F3F6
:100620001F434C6902EBC404C4F840320C89CB6808
:1006300064F31F434C6902EBC404C4F844328B6971
:10064000002BD2F804320FD053EA0003C2F8043270
:100650000B69002BD2F8143208D00343C2F81432CD
:10066000096A012904D008E08343EFE78343F5E7F3
:10067000D2F81C120143C2F81C12D2F8000220F07A
:100680000100C2F80002002010BD704770B590F85C
:100690002040012C05D0022C03D0416A41F4802176
:1006A00028E0046809B32469A40720D04FF4D87463
:1006B000056804EB01142D5915F0040595600568D3
:1006C0002D591AD0ED08556005682C5904F0020424
:1006D000D4604FF4DA74056804EB01142E5906F067
:1006E0000F06082E0CD308250DE0E468DCE7416A0C
:1006F00041F400114162012070BD6D0D1560E3E70A
:100700002D5905F00F05156105682D59C5F307250D
:10071000956105682C59240C54614FF4DC7204680F
:1007200002EB0112A4581C700468A458240A5C70DF
:100730000468A458240C9C700468A258120EDA7045
:100740004FF4DE72046802EB0112A4581C710468B5
:10075000A458240A5C710468A458240C9C71046891
:10076000A258120EDA71006829B1016941F0200126
:100770000161002070BDC16841F02001C160F8E74F
:100780002DE9F05F0546006800244669D0F8049022
:100790008768D0F80CB0D0F810A0D0F81880F10716
:1007A00048D0F90714D001218160B80703D5284645
:1007B00000F001FA0CE0780702D54FF4006407E07E
:1007C000380702D54FF4805402E0284600F0F2F9D1
:1007D000F80516D529684FF480708860B80503D5F0
:1007E000284600F0EAF90CE0780502D544F40054FC
:1007F00007E0380502D544F4804402E0284600F0C2
:10080000DBF9F80316D529684FF480308860B80307
:1008100003D5284600F0D3F90CE0780302D544F460
:10082000004407E0380302D544F4803402E028464F
:1008300000F0C4F9300707D55FEACB6004D529681A
:10084000102044F40074C86070074FF0080707D503
:100850005FEA0B7004D52868C760284600F062F98B
:10086000B00706D52868C068800702D0284600F087
:100870005BF9700607D55FEACA6004D529681020C5
:1008800044F480640861B00607D55FEA0A7004D5B5
:1008900028680761284600F05DF9F00606D528684B
:1008A0000069800702D0284600F055F9B00308D54A
:1008B0005FEAC96005D5296810204860284600F025
:1008C0004BF9F00307D55FEA097004D52868476043
:1008D000284600F075F9300446D55FEA497040D5E6
:1008E000F00504D55FEAC87001D044F00104B005FA
:1008F00004D55FEA887001D544F00204700504D580
:100900005FEA487001D544F00404300529D518F099
:10091000700F26D008F07000402815D006DC102893
:1009200009D020280AD0302816D10AE050280ED04D
:10093000602811D10EE044F008040DE044F01004EA
:100940000AE044F0200407E044F0400404E044F0EE
:10095000800401E044F480742868816921F070010A
:100960008161296804204860002C05D0686A204312
:1009700068622846FFF789FEBDE8F09F70B5040065
:1009800003D094F8200010B104E0012070BD20468F
:1009900000F082F82068016841F00101016000F078
:1009A00057FC0546052604E000F052FC401B0A28CF
:1009B00011D820684068C007F6D02068016821F08F
:1009C0000201016000F044FC05460BE000F040FC31
:1009D000401B0A2806D9606A40F40030606284F83F
:1009E0002060D2E7206840688007EFD4207E01288D
:1009F000206801683DD021F080010160607E0128FF
:100A00002068016838D021F040010160A07E0128F3
:100A10002068016833D021F020010160E07E0128C8
:100A2000206801682ED041F010010160207F01286C
:100A30002068016829D021F008010160607F012849
:100A40002068016824D021F004010160D4E902018A
:100A50000843D4E90412114308436168491E08435E
:100A60002168C86100206062012084F82000002015
:100A700070BD41F08001C0E741F04001C5E741F0A1
:100A80002001CAE721F01001CFE741F00801D4E7C7
:100A900041F00401D9E7000010B586B000210091B3
:100AA00001910291039100681B49884232D11B4891
:100AB000C16941F00071C161C16901F00071049127
:100AC000816941F0040181618069154C00F00400E6
:100AD00004904FF4006000906946204600F0B6FA9A
:100AE000A014009002200190032003906946204644
:100AF00000F0ACFA00221146142000F015FC14207E
:100B000000F004FC00220521152000F00DFC15204A
:100B100000F0FCFB06B010BD006400400010024075
:100B2000000801407047000010B5074902688A427A
:100B300009D1064B064A0021FFF7A8FD04480349E6
:100B40000068FFF76FFC10BD006400403400002017
:100B500058A80020704770477047000070B50446E1
:100B600090F82000012804D0606A40F40020606200
:100B700018E0022084F820002068016821F00101BB
:100B8000016000F065FB05460EE000BF00F060FB71
:100B9000401B0A2808D9606A40F4003060620520D2
:100BA00084F82000012070BD20684068C007EDD1A6
:100BB000606270BD704770477047704770477047FC
:100BC000704700002DE9F05F90F821100024022901
:100BD00003D004218163012485E001680A6822F0C2
:100BE0000E020A6001680A6822F001020A603F4EA4
:100BF0003E4FB215DFF8F4C0DFF8F090DFF8ECA05C
:100C0000DFF8E8B0DFF8E4E00168783F130115028F
:100C1000ACF1640CA9F15009AAF13C0AABF1280B24
:100C2000AEF1140E4FF48018B14227D9B9420ED05C
:100C3000614512D049451DD0514518D0594518D0AD
:100C4000714501D1424615E0294EB14201D1012240
:100C500010E0274E1436B14201D110220AE0244E92
:100C60002836B14206D0224A3C32914201D11A467E
:100C700000E02A461E49091F0A602BE0B94213D042
:100C8000614517D0494522D051451DD059451DD049
:100C9000714501D142461AE0B14202D14FF0807253
:100CA00015E0134EB14201D1012210E0104E14366E
:100CB000B14201D110220AE00D4E2836B14206D0D1
:100CC0000B4A3C32914201D11A4600E02A460749BC
:100CD00080394A60012180F82110002180F820101D
:100CE000416B01B188472046BDE8F09F800002407B
:100CF000080402402DE9F05FC16B0A6801680B68C7
:100D0000046C4FF0040808FA04F8844D844E854FB3
:100D1000DFF814C2DFF81492DFF814A2DFF814B27F
:100D2000DFF814E218EA020F65D05FEA437862D573
:100D30000A68920603D40A6822F004020A60DFF807
:100D4000F0814FF48062016808F114081301140265
:100D5000414524D9A9420DD0B1420FD0B9421AD091
:100D6000614515D0494515D0514501D1120312E016
:100D7000594501D104220EE0714501D140220AE01B
:100D80006D4D1435A94206D06B4A2832914201D1EB
:100D90001A4600E022466749091F0A6029E0A94275
:100DA00013D0B14215D0B94220D061451BD049457E
:100DB0001BD0514502D14FF4800217E0414502D1CA
:100DC0004FF0806212E0594501D104220EE07145D6
:100DD00001D140220AE0584D1435A94206D0564AA6
:100DE0002832914201D11A4600E022464B49083987
:100DF0004A60C16A71E04FF0020808FA04F818EA84
:100E0000020F70D05FEA83786DD50A68920606D427
:100E10000A6822F00A020A60012180F82110DFF836
:100E200010814FF40072016808F1140813011402D4
:100E3000414524D9A9420DD0B1420FD0B9421AD0B0
:100E4000614515D0494515D0514501D1120312E035
:100E5000594501D102220EE0714501D120220AE05C
:100E6000354D1435A94206D0334A2832914201D17A
:100E70001A4600E022462F49091F0A6029E0A942CC
:100E800013D0B14215D0B94220D061451BD049459D
:100E90001BD0514502D14FF4001217E0414502D159
:100EA0004FF0007212E0594501D102220EE0714567
:100EB00001D120220AE0204D1435A94206D01E4A55
:100EC0002832914201D11A4600E0224613490839DE
:100ED0004A60002180F82010816A00291CD0BDE8FA
:100EE000F05F0847FFE70825A540154214D01A0710
:100EF00012D50A6822F00E020A6090F84020C36BF7
:100F0000012101FA02F25A60816380F82110002168
:100F100080F82010016BE0E7BDE8F09F0800024078
:100F20001C000240300002404400024058000240D1
:100F30006C000240080402401C04024030B560B15D
:100F40001A4B026814219A4209D2194B1344B3FB7D
:100F5000F1F18900016417490AE0012030BD134B0B
:100F60005B421344B3FBF1F1890001640F49083976
:100F7000C163022180F82110136843F6F0718B439E
:100F8000F0E901142143D0E902452C4321430469CF
:100F9000214344692143846921431943116000219D
:100FA0004163012242770177084630BD08040240C0
:100FB000F8FFFDBF0000024070B5044690F8200025
:100FC000002501280CD0012084F8200094F821602D
:100FD0000020012E06D084F820000225284670BD8E
:100FE000022070BD022684F82160A0632068066894
:100FF00026F0010606602046FFF73EFAE06A002868
:101000002068016802D041F00E0106E021F00401E1
:1010100001602068016841F00A01016020680168F0
:1010200041F001010160D9E770B5044600F010F904
:101030000546601C02D004480078044400F008F91A
:10104000401BA042FAD370BD140000202DE9F84FD8
:10105000DFF8C8910024A9F1040B23460F2709F1FA
:10106000040AABF1040ED1E00125A54006EA050211
:10107000AA4276D1DFF8A8C14E68A6EB0C086645F7
:101080002BD00DDC032E34D005DC36B3012E19D065
:10109000022E2FD11BE0112E16D0122E2AD119E0CC
:1010A000B8F5881F19D006DCB8F5803F15D0B8F523
:1010B000801F1FD111E0B8F5001F0ED0B8F5041F36
:1010C00018D10AE0CB6815E0CB681B1D12E0CB6895
:1010D00008330FE0CB680C330CE08B682BB1012B8D
:1010E0004FF0080303D0456104E0042302E00561EA
:1010F00000E00023FF2A01D8064601E000F10406C3
:101100004FEA840501D9A5F12005D6F8008007FA39
:1011100005FC28EA0C0803FA05F548EA0508C6F8B4
:1011200000804D68ED0070D53E4DAE6946F0010679
:10113000AE61AD6924F0030605F0010500953A4D56
:1011400006EB050CDCF80850A607360F07FA06F880
:1011500025EA0805DFF8D480404503D14FF00008A8
:1011600025E052E0DFF8C880404502D14FF0010889
:101170001DE0DFF8C080404502D14FF0020816E0C4
:10118000DFF8B480404502D14FF003080FE0DFF8EC
:10119000AC80404502D14FF0040808E0DFF8A080A1
:1011A000404502D14FF0050801E04FF0060808FA6B
:1011B00006F848EA0508CCF808804D68D9F80060C0
:1011C000ED024D4601D5164300E096432E604D6872
:1011D000DAF80060AD02554601D5164300E09643AB
:1011E0002E604D68DBF80060AD035D4601D5164307
:1011F00000E096432E604D68DEF80060ED03754612
:1012000001D5164300E096432E60641C0A6816461A
:10121000E2407FF429AFBDE8F88F000008040140E8
:1012200000001110001002400000014000080140C1
:10123000000C014000100140001401400018014062
:10124000001C01408068084000D001207047000069
:10125000014880687047000014000020024881683F
:10126000027811448160704714000020074810B5CF
:10127000016841F010010160032000F075F80F20B3
:1012800000F006F800F024F8002010BD0020024015
:1012900070B50D4D04464FF47A712878B1FBF0F02B
:1012A0000A490968B1FBF0F000F0BCFA48B9102C0B
:1012B00007D200222146501E00F036F800206C6054
:1012C00070BD012070BD000014000020200000202F
:1012D0000C4808B5816941F001018161816901F023
:1012E00001010091C16941F08051C161C06900F004
:1012F000805000900448416821F0E06141F00071A5
:10130000416008BD0010024000000140002809DBD8
:1013100000F01F02012191404009800000F1E0200F
:10132000C0F8001170470000F0B40E4B1B680C466B
:10133000C3F30223C3F10705042D00D90425191DA9
:10134000072901D2002300E0DB1E012606FA05F181
:10135000491E214099409E40761E16403143F0BC04
:1013600002F0C7BA0CED00E0064900F00702086879
:101370004FF6FF03184040EA0220034A104308607A
:10138000704700000CED00E00000FA052DE9F04781
:101390000F46050061D0434E306800F00700B842A8
:1013A00009D2306820F0070038433060306800F020
:1013B0000700B84251D128683B4C810712D540073D
:1013C00003D5606840F4E06060602878000703D5CA
:1013D000606840F4605060606068A96820F0F000C8
:1013E000084360602878C00728D06868012810D0BA
:1013F0002168022810D0890700292EDA616821F0BF
:10140000030101436160FFF723FF804641F2883901
:101410000DE021688903EFE78901EDE7FFF718FF89
:10142000A0EB0801494502D90320BDE8F0876068B8
:10143000696800F00C00B0EB810FEFD1306800F06C
:101440000700B8420BD9306820F0070038433060FD
:10145000306800F00700B84201D00120E5E72878A5
:10146000400705D56068E96820F4E06008436060E3
:101470002878000706D56068296920F4605040EAA2
:10148000C100606000F018F86168084AC1F30311F8
:10149000515CC8400649086006480068FFF7F8FE3E
:1014A0000020C2E70020024000100240D44500089E
:1014B00020000020180000200E4A51680E4801F05C
:1014C0000C03042B11D0082B0FD10C48C1F383431C
:1014D000C903C05C0AD55168084AC1F34041921E55
:1014E000515C054A5043B0FBF1F070470449484352
:1014F000704700000010024000127A00C445000846
:1015000000093D002DE9F84F040070D02078C04D4F
:10151000C00749D06868C0F38100012807D0686817
:10152000C0F38100022809D16868C00306D5286885
:10153000800339D560680028E7D035E06068B0F5F1
:10154000803F0BD010B1B0F5A02F11D0286820F447
:1015500080302860286820F4802002E0286840F469
:1015600080302860606890B1FFF772FE06460AE09E
:10157000286840F480202860F0E700BFFFF768FE8D
:10158000801B642873D828688003F7D50CE0FFF728
:101590005FFE064605E000BFFFF75AFE801B642889
:1015A000F0D828688003F7D420789A4E80074FF04F
:1015B00001094FF0000839D5686810F00C0F07D00A
:1015C0006868C0F38100022809D16868C00306D4A6
:1015D0002868800714D52069012808D110E0206907
:1015E000B0B1C6F80090FFF733FE074605E00AE108
:1015F000FFF72EFEC01B0228C4D828688007F7D545
:101600002868616920F0F80040EAC10028600DE018
:10161000C6F80080FFF71CFE074604E0FFF718FE3F
:10162000C01B022823D828688007F7D42078000739
:101630002CD57948A169D9B1C0F80090FFF708FE10
:10164000074604E0FFF704FEC01B02280FD8686AB3
:101650008007F7D571484FF4FA510068B0FBF1F0FC
:10166000009000BF0098411E0091FAD20EE080E089
:10167000C0F80080FFF7ECFD074604E0FFF7E8FD47
:10168000C01B022875D8686A8007F7D42078400705
:1016900060D5E8690027C00008D4E86940F08050B0
:1016A000E861E869012700F0805000905C4801681B
:1016B000C90513D40168834641F480710160FFF7C6
:1016C000C7FD824606E000BFFFF7C2FDA0EB0A009F
:1016D00064284ED8DBF80000C005F5D5E068012885
:1016E0000AD008B1052813D0286A20F0010028622A
:1016F000286A20F0040002E0286A40F00100286215
:10170000E06841F2883B98B1FFF7A2FD82460BE00A
:10171000286A40F004002862EEE700BFFFF798FD5A
:10172000A0EB0A0159455AD8286A8007F6D50CE083
:10173000FFF78EFD824605E0FFF78AFDA0EB0A0168
:1017400059454CD8286A8007F6D41FB1E86920F0C3
:101750008050E861E06988B36968C1F381010229BA
:1017600044D00228C6F8608004D0FFF771FD04461B
:1017700038E034E0FFF76CFD074604E0FFF768FD52
:10178000C01B02282BD828688001F7D4206AB0F546
:10179000803F05D16868A16820F400300843686084
:1017A000D4E908010843696821F4741108436860AA
:1017B000C6F86090FFF74CFD044606E025E000BF48
:1017C000FFF746FD001B022809D828688001F7D5DD
:1017D0001BE000BFFFF73CFD001B022802D90320DD
:1017E000BDE8F88F28688001F4D40EE00128F7D016
:1017F0006868226A00F48031914204D1616A00F481
:101800007010884201D00120EAE70020E8E70000DC
:1018100000100240000042428004424220000020AA
:101820000070004010B5401EB0F1807F01D3012050
:1018300010BD4FF0E02460610F21601702F059F8ED
:101840000020A06107202061002010BD10B590F895
:101850003C20012A22D0012280F83C20CA688C68F2
:1018600022F4407222434C6822F4806222430C68C6
:1018700022F4006222430C6922F4805222434C6914
:1018800022F400522243C969002322F480420A4311
:1018900001684A6480F83C30002010BD022010BD71
:1018A00070B590F83C20012A2CD0012480F83C40EF
:1018B000022280F83D2003685A689D6822F0700675
:1018C0000A6832435A60104B02689A420ED00F4B9E
:1018D0009A420BD0B2F1804F08D00D4B9A4205D0FE
:1018E0000C4B9A4202D00C4B9A4204D1496825F025
:1018F00080031943916080F83D40002180F83C103E
:10190000084670BD022070BD002C0140003401402B
:101910000004004000080040000C004010B5040026
:1019200003D094F83D0010B107E0012010BD002065
:1019300084F83C00204600F01FF8022084F83D00A7
:10194000211D206801F0E0FA012084F8460084F8A7
:101950003E0084F83F0084F8400084F8410084F899
:10196000420084F8430084F8440084F8450084F879
:101970003D00002010BD00002DE9F84F80220446F4
:10198000DFF804C10568414B00275600D000202134
:101990004FF010084FF4805E654533D19D6945F4E2
:1019A00000659D619B693B4D03F400630093384BD8
:1019B000C5E900380023C5E902328346C5E9046B56
:1019C000C5E9061E92460F46F1462846FFF7B6FACD
:1019D00008B1FEF767FD65626C622E4D2C484435F8
:1019E0001430C5E900080020C5E9020AC5E9046B06
:1019F000C5E906792846FFF7A1FA08B1FEF752FDBE
:101A0000A5623DE0B5F1804F3BD1DD6945F00105B0
:101A1000DD61DB691F4D03F0010300931C4B88352A
:101A20003C339146064605F1100C9A158B46C5F8D5
:101A30001CE08CE84408C5E90038C5E90279F246A3
:101A40002846FFF77BFA08B1FEF72CFD65626C6251
:101A5000104D0F48CC356430C5E9000805F1100180
:101A60008015C5F81CA081E84108C5E9027928461F
:101A7000FFF764FA08B1FEF715FDA5626C622563F5
:101A80006C62BDE8F88F0000002C0140001002409D
:101A90001C000240A001002070B5044690F83C00F4
:101AA0000025012817D0012684F83C60022084F824
:101AB0003D002068826822F0770222F47F42826033
:101AC0000868502838D00DDC20284FD005DC90B3B2
:101AD000102811D14AE0022070BD302846D040289D
:101AE0000AD13BE060282FD070280DD0B0F5805F80
:101AF00003D0B0F5005F12D0012584F83D600020CE
:101B000084F83C00284670BDCB68D1E901212068EB
:101B100001F0CAFA2068816841F0770109E0CB68DA
:101B2000D1E90121206801F0BFFA2068816841F401
:101B300080418160E1E719E0CA684968206801F0E6
:101B400087FB5021206806E0CA684968206801F0D8
:101B500090FB6021206801F0B1FACEE7CA684968BD
:101B6000206801F075FB40212068F4E722680146F7
:101B70001046F0E77047000010B586B000210091D4
:101B80000191029103912A4C03682A4902222A48B2
:101B9000A3420AD18B6943F004038B61896901F088
:101BA000040104914FF4407129E0B3F1804F1DD03E
:101BB000224C4020A3422AD18B6943F010038B6151
:101BC0008969CDE9000201F01001CDE903216946E0
:101BD0001B48FFF73BFA1B48416821F4406141F084
:101BE000E06141F44061416006B010BD8B6943F093
:101BF00004038B61896901F0040104910321CDE99B
:101C000000126946CDF80C20FFF720FAECE70E4CE5
:101C1000A342E9D18B6943F008038B618969CDE95F
:101C2000000201F00801CDE9032169460748EBE70E
:101C3000002C014000100240000801400004004058
:101C4000001001400000014000080040000C01406D
:101C500070B5044690F83C0000260D4601280FD0D0
:101C6000012084F83C006AB1042A1DD0082A2FD034
:101C70000C2A3FD00126002084F83C00304670BD7D
:101C8000022070BD206801F021FA2068816941F0CE
:101C9000080181612068816921F004018161206867
:101CA00081692A69114311E0206801F03FFA206838
:101CB000816941F4006181612068816921F480615A
:101CC0008161206881692A6941EA02218161D2E744
:101CD000206801F061FA2068C16941F00801C16122
:101CE0002068C16921F00401C1612068C1692A69C5
:101CF000114311E0206801F083FA2068C16941F4C2
:101D00000061C1612068C16921F48061C1612068FE
:101D1000C1692A6941EA0221C161ACE710B504003A
:101D200003D094F83D0010B107E0012010BD002061
:101D300084F83C00204600F01FF8022084F83D00A3
:101D4000211D206801F0E0F8012084F8460084F8A5
:101D50003E0084F83F0084F8400084F8410084F895
:101D6000420084F8430084F8440084F8450084F875
:101D70003D00002010BD00002DE9F04F85B0002788
:101D800000970197029703970546304A016830484B
:101D900080264FF010084FF480794FF4806A4FF09E
:101DA000200B91421DD1C16941F00201C161C0699E
:101DB000294C00F0020004902648A760C4E90008FE
:101DC0008014C4E906B004F10C01204681E8400605
:101DD000FFF7B4F808B1FEF765FB6C626562AC63AF
:101DE0002FE01E4A91422DD1C16941F00401C16129
:101DF000C16901F004010491816941F00801816128
:101E00008069694600F0080004900220CDE9006076
:101E100003901348FFF71AF90F4C0E484434643806
:101E2000A760C4E900088014C4E906B004F10C01FD
:101E3000204681E84006FFF781F808B1FEF732FB43
:101E40006C62656205B0BDE8F08F000000040040E0
:101E5000001002406C000240B00200200008004068
:101E6000000C0140704770472DE9F04117460D0006
:101E700004464FF000060CD0042D11D0082D16D0CA
:101E800094F84100022819D094F84100012818D094
:101E90007CE094F83E00022810D094F83E00F5E76C
:101EA00094F83F00022809D094F83F00EEE794F838
:101EB0004000022802D094F84000E7E70220BDE885
:101EC000F081002F62D0002B60D04A494A4ADFF8E7
:101ED0002CC102204DB1042D18D0082D27D084F834
:101EE00041000C2D44D0012681E084F83E00606A58
:101EF0008162606A3946C262606AC0F830C0226896
:101F0000606A3432FFF758F888BB21E084F83F005C
:101F1000A06A8162A06A3946C262A06AC0F830C075
:101F20002268A06A3832FFF747F800BB15E084F852
:101F30004000E06A8162E06A3946C262E06AC0F845
:101F400030C02268E06A3C32FFF736F878B909E021
:101F50002068C16841F400711EE02068C16841F446
:101F6000806119E02068C16841F4006114E00DE06F
:101F7000206B8162206B3946C262206BC0F830C092
:101F80002268206B4032FFF717F808B1012096E76E
:101F90002068C16841F48051C1600122294620684F
:101FA00001F000F816492068164A884201D0904294
:101FB00003D1436C43F400434364206888420DD04E
:101FC00090420BD0B0F1804F08D00F49884205D025
:101FD0000E49884202D00E49884204D1816801F03E
:101FE0000701062903D0016841F001010160304674
:101FF00065E70000BF2F00081D30000855300008BD
:10200000002C014000340140000400400008004062
:10201000000C004070B50D0004464FF0000607D0DC
:10202000042D0CD0082D11D00C2D16D0012648E01F
:102030002068C16821F40071C160606A13E0206803
:10204000C16821F48061C160A06A0CE02068C168A9
:1020500021F40061C160E06A05E02068C16821F4F4
:102060008051C160206BFEF7ADFD0022294620683B
:1020700000F098FF184B41F2111120688A10984225
:1020800002D0164B984209D1036A0B4206D1036A6B
:10209000134203D1436C23F4004343642068036A72
:1020A0000B4206D1016A114203D1016821F00101FE
:1020B000016001203DB1042D08D0082D09D084F81D
:1020C0004100304670BD84F83E00FAE784F83F00D6
:1020D000F7E784F84000F4E7002C014000340140A9
:1020E000FEE700002DE9F8431F4600939046134693
:1020F00089460A46FE4D0020B5F9021001F00AFC9F
:10210000009743464A46B5F90210282001F002FC28
:10211000009743464A46B5F90210502001F0FAFBF9
:10212000009743464A46B5F90210782001F0F2FBC9
:10213000009743464A46B5F90210A02001F0EAFB99
:10214000009743464A46B5F90210C82001F0E2FB69
:10215000F320E84EA88000BFB5F90400F52817DA8F
:1021600000233A464146484601F09DF89840000257
:1021700001D51E2000E00F20B5F9041001EB41014C
:1021800003EBC1015B1CDBB226F81100182BE8D36E
:10219000A888401C00B2A880F528DDDBFA20A880C2
:1021A000B5F90400FE2817DA00233A4641464846AE
:1021B00001F079F89840000201D51E2000E00F20C0
:1021C000B5F9041001EB410103EBC1015B1CDBB26B
:1021D00026F81100182BE8D3A888401C00B2A8806C
:1021E000FE28DDDB4FF48070A880831DB5F9040064
:1021F000984217DC00243A464146484601F053F81D
:10220000A040000201D51E2000E00F20B5F9041007
:1022100001EB410104EBC101641CE4B226F811009A
:10222000182CE8D3A888401C00B2A8809842DDDDB5
:102230004FF48470A880841CB5F90400A04217DA1A
:1022400000233A464146484601F02DF898400002E6
:1022500001D51E2000E00F20B5F9041001EB41016B
:1022600003EBC1015B1CDBB226F81100182BE8D38D
:10227000A888401C00B2A880A042DDDB40F20F100D
:10228000A880C41CB5F90400A04217DA00233A461E
:102290004146484601F007F89840000201D51E204B
:1022A00000E00F20B5F9041001EB410103EBC1017F
:1022B0005B1CDBB226F81100182BE8D3A888401C61
:1022C00000B2A880A042DDDB40F21710A880C41D38
:1022D000B5F90400A04217DC00233A4641464846BF
:1022E00000F0E1FF9840000201D51E2000E00F2021
:1022F000B5F9041001EB410103EBC1015B1CDBB23A
:1023000026F81100182BE8D3A888401C00B2A8803A
:10231000A042DDDD4FF49070A880041DB5F90400E3
:10232000A04217DC00233A464146484600F0BBFF76
:102330009840000201D51E2000E00F20B5F90410DE
:1023400001EB410103EBC1015B1CDBB226F811007C
:10235000182BE8D3A888401C00B2A880A042DDDD7D
:102360004FF49470A880841CB5F90400A04217DAD9
:1023700000233A464146484600F095FF9840000247
:1023800001D51E2000E00F20B5F9041001EB41013A
:1023900003EBC1015B1CDBB226F81100182BE8D35C
:1023A000A888401C00B2A880A042DDDB40F22B10C0
:1023B000A880441CB5F90400A04217DC00233A466B
:1023C0004146484600F06FFF9840000201D51E20AC
:1023D00000E00F20B5F9041001EB410103EBC1014E
:1023E0005B1CDBB226F81100182BE8D3A888401C30
:1023F00000B2A880A042DDDD4FF49870A880841C54
:10240000B5F90400A04217DA00233A46414648468F
:1024100000F049FF9840000201D51E2000E00F2087
:10242000B5F9041001EB410103EBC1015B1CDBB208
:1024300026F81100182BE8D3A888401C00B2A88009
:10244000A042DDDB4FF49A70A880841CB5F904002B
:10245000A04217DA00233A464146484600F023FFDF
:102460009840000201D51E2000E00F20B5F90410AD
:1024700001EB410103EBC1015B1CDBB226F811004B
:10248000182BE8D3A888401C00B2A880A042DDDB4E
:102490004FF49C70A880841CB5F90400A04217DAA0
:1024A00000233A464146484600F0FDFE98400002AF
:1024B00001D51E2000E00F20B5F9041001EB410109
:1024C00003EBC1015B1CDBB226F81100182BE8D32B
:1024D000A888401C00B2A880A042DDDB40F23D107D
:1024E000A880441CB5F90400A0421CDC002303E0D2
:1024F00024000020380300203A464146484600F0B8
:10250000D2FE9840000201D51E2000E00F20B5F950
:10251000041001EB410103EBC1015B1CDBB226F8A7
:102520001100182BE3D3A888401C00B2A880A04259
:10253000D8DDBDE8F84300F0AFBF00002DE9F84F4B
:102540008A46914698460025FE484FF48077C07F22
:10255000052809D040B1012812D0022815D003283F
:1025600018D004281BD023E000223D4611469620B7
:1025700001F097F900221146962000F099FF17E02C
:1025800027203825112300900DE02C2068250C23EE
:10259000009008E0312098250923009003E03320C3
:1025A000C8250523009000221146962000F0A8FFC0
:1025B000E54CC5F580760020E44DA080B4F9040018
:1025C0004FF00003864217DC42464946504600F071
:1025D0006AFE9840000201D51E2100E00F21B4F9E7
:1025E000040000EB400003EBC0005B1CDBB225F8ED
:1025F0001010182BE8D316E000221146104600F008
:1026000052FE9840000201D51E2100E00F21B4F9CE
:10261000040000EB400003EBC0005B1CDBB225F8BC
:102620001010182BE8D3A088401C00B2A080FF280F
:10263000C4DDA7804FF48376B4F90400B04217DC00
:10264000002342464946504600F02DFE98400002C5
:1026500001D51E2000E00F20B4F9041001EB410168
:1026600003EBC1015B1CDBB225F81100182BE8D38A
:10267000A088401C00B2A080B042DDDD4FF4847021
:10268000A080861CB4F90400B04217DA0023424649
:102690004946504600F007FE9840000201D51E2032
:1026A00000E00F20B4F9041001EB410103EBC1017C
:1026B0005B1CDBB225F81100182BE8D3A088401C66
:1026C00000B2A080B042DDDB40F20F10A080C61C3B
:1026D000B4F90400B04217DA002342464946504696
:1026E00000F0E1FD9840000201D51E2000E00F201F
:1026F000B4F9041001EB410103EBC1015B1CDBB237
:1027000025F81100182BE8D3A088401C00B2A08047
:10271000B042DDDB40F21710A080C61DB4F9040002
:10272000B04217DC002342464946504600F0BBFD4C
:102730009840000201D51E2000E00F20B4F90410DB
:1027400001EB410103EBC1015B1CDBB225F8110079
:10275000182BE8D3A088401C00B2A080B042DDDD79
:102760004FF49070A080061DB4F90400B04217DC4D
:10277000002342464946504600F095FD984000022D
:1027800001D51E2100E00F21B4F9040000EB400048
:1027900003EBC0005B1CDBB225F81010182BE8D34C
:1027A000A088401C00B2A080B042DDDD4FF49470E0
:1027B000A080861CB4F90400B04217DA0023424618
:1027C0004946504600F06FFD9840000201D51E209A
:1027D00000E00F20B4F9041001EB410103EBC1014B
:1027E0005B1CDBB225F81100182BE8D3A088401C35
:1027F00000B2A080B042DDDB40F22B10A080461C6E
:10280000B4F90400B04217DC002342464946504662
:1028100000F049FD9840000201D51E2100E00F2183
:10282000B4F9040000EB400003EBC0005B1CDBB21A
:1028300025F81010182BE8D3A088401C00B2A08007
:10284000B042DDDD4FF49870A080861CB4F904001E
:10285000B04217DA002342464946504600F023FDB5
:102860009840000201D51E2000E00F20B4F90410AA
:1028700001EB410103EBC1015B1CDBB225F8110048
:10288000182BE8D3A088401C00B2A080B042DDDB4A
:102890004FF49A70A080861CB4F90400B04217DA95
:1028A000002342464946504600F0FDFC9840000295
:1028B00001D51E2100E00F21B4F9040000EB400017
:1028C00003EBC0005B1CDBB225F81010182BE8D31B
:1028D000A088401C00B2A080B042DDDB4FF49C70A9
:1028E000A080861CB4F90400B04217DA00234246E7
:1028F0004946504600F0D7FC9840000201D51E2002
:1029000000E00F20B4F9041001EB410103EBC10119
:102910005B1CDBB225F81100182BE8D3A088401C03
:1029200000B2A080B042DDDB40F23D10A080461C2A
:10293000B4F90400B0421FDC002342464946504629
:1029400006E0000082A800202400002038030020B8
:1029500000F0A9FC9840000201D51E2000E00F20E5
:10296000B4F9041001EB410103EBC1015B1CDBB2C4
:1029700025F81100182BE0D3A088401C00B2A080DD
:10298000B042D5DDBDE8F88F2DE9F043234C8946F0
:102990004FF480700021224E9046A180C0F58077D0
:1029A000B4F904004FF00005874217DC1A4641468F
:1029B000484600F078FCA840000201D51E2100E046
:1029C0000F21B4F9040000EB400005EBC0006D1CC2
:1029D000EDB226F81010182DE8D316E000221146AB
:1029E000104600F060FCA840000201D51E2100E066
:1029F0000F21B4F9040000EB400005EBC0006D1C92
:102A0000EDB226F81010182DE8D3A088401C00B2B3
:102A1000A080FF28C4DDBDE8F08300002400002072
:102A20003803002070B52D490020C97F052909D041
:102A300041B1012909D0022909D0032909D004296B
:102A400009D009E04FF4807006E0382004E06820E7
:102A500002E0982000E0C820214B0021214D998000
:102A6000C0F58076B3F904004FF00004864217DC0D
:102A700000221146104600F016FCA040000201D5CD
:102A80001E2100E00F21B3F9040000EB400004EB2D
:102A9000C000641CE4B225F81010182CE8D316E02E
:102AA00000221146104600F0FEFBA040000201D5B6
:102AB0001E2000E00F20B3F9041001EB410104EBEC
:102AC000C101641CE4B225F81100182CE8D39888E1
:102AD000401C00B29880FF28C4DD70BD82A8002091
:102AE00024000020380300200F4810B50D49016074
:102AF0000421416000214FF480228160C0E903126B
:102B0000D20042610176417601228276C176017758
:102B10004277FDF733FF002803D0BDE81040FDF7F2
:102B2000C1BC10BD00640040580000201D4808B51D
:102B3000416941F0010141614069002200F001005A
:102B4000009011460B20FEF7EFFB0B20FEF7DEFB9B
:102B5000002211460C20FEF7E7FB0C20FEF7D6FB07
:102B6000002211460D20FEF7DFFB0D20FEF7CEFB05
:102B7000002211460F20FEF7D7FB0F20FEF7C6FB01
:102B8000002211461020FEF7CFFB1020FEF7BEFBFF
:102B9000002211461120FEF7C7FBBDE808401120B6
:102BA000FEF7B4BB0010024070B586B000241F4889
:102BB00001940394816941F010018161816901F000
:102BC00010010491816941F020018161816901F066
:102BD00020010491816941F004018161816901F062
:102BE00004010491816941F0080181618069012536
:102BF00000F00800049046F29F300090694602956C
:102C00000B48FEF723FA0420CDE90004094E69467B
:102C100030460294FEF71AFAF0208DE8310069463A
:102C20003046FEF713FA06B070BD000000100240F7
:102C3000001001400008014010B596B000240F9428
:102C400010941194129413941C2168461494FDF767
:102C5000DDFA202107A8FDF7D9FA2D482B4901609C
:102C60000121C0E901142C21C0E9031444618461ED
:102C7000FEF754FE08B1FDF715FC4FF480500F909D
:102C80000FA92348FEF708FF08B1FDF70BFC204809
:102C9000FFF744F808B1FDF705FC139413A91C488D
:102CA0001494FEF7FDFD08B1FDF7FCFB60200090D9
:102CB0001420CDE90104039404940594002269468C
:102CC00013480694FEF7C4FF08B1FDF7EBFB04229E
:102CD00069460F480194FEF7BBFF08B1FDF7E2FB20
:102CE0000794089409944FF400500A94CDE90B40DE
:102CF00007A907480E94FEF7A9FD08B1FDF7D2FB1E
:102D00000348FEF739FF16B010BD0000002C01404B
:102D10008000002010B58EB0002407940894099418
:102D20000A940B941C2168460C94FDF76FFA224814
:102D30004FF0804101600121C0E901142C21C0E95C
:102D400003148461FEF7EAFD08B1FDF7ABFB4FF415
:102D50008050079007A91848FEF79EFE08B1FDF7BE
:102D6000A1FB1548FEF7DAFF08B1FDF79BFB0B94BA
:102D70000BA911480C94FEF793FD08B1FDF792FBE7
:102D8000602000900F20CDE90104002269460A4826
:102D90000494FEF75DFF08B1FDF784FB0422694649
:102DA00005480194FEF754FF08B1FDF77BFB02488C
:102DB000FEF7E2FE0EB010BDC800002010B58AB0CC
:102DC000002407941C2168460894FDF71FFA164852
:102DD000144901600121C0E901142C21C0E9031448
:102DE0008461FEF79BFF08B1FDF75CFB079407A920
:102DF0000D480894FEF754FD08B1FDF753FB602021
:102E000000901420CDE9010400226946064804948C
:102E1000FEF71EFF08B1FDF745FB0348FEF7ACFEC9
:102E20000AB010BD000400401001002010B58AB0A7
:102E3000002407941C2168460894FDF7E7F916481A
:102E4000144901600121C0E901142D21C0E90314D6
:102E50008461FEF763FF08B1FDF724FB079407A91F
:102E60000D480894FEF71CFD08B1FDF71BFB602020
:102E7000CDE9000402940022694607480494FEF755
:102E8000E7FE08B1FDF70EFB0348FEF775FE0AB03A
:102E900010BD00000008004058010020FEE7FEE7DA
:102EA00070477047FEF7DAB930B58FB02821684611
:102EB000FDF7ACF914210AA8FDF7A8F901210804CF
:102EC000CDE900100024029402250491CDE90750B9
:102ED0004FF4E01009906846FEF714FB08B172B693
:102EE000FEE70F20CDE90A054FF48060CDE90C40E4
:102EF00002210AA80E94FEF749FA002801D072B602
:102F0000FEE70FB030BD7047F0B50268204C214D90
:102F1000214E224F224B4FF0804CA04209D09842C4
:102F200007D0604505D0A84203D0B04201D0B842D6
:102F300004D122F0700E4A6842EA0E02A04209D083
:102F4000984207D0604505D0A84203D0B04201D0D6
:102F5000B84203D122F44075CA682A434D6922F071
:102F600080022A4302608A68C2620A688262A042C2
:102F700001D0984201D109690163012141610169D0
:102F8000C90703D0016921F001010161F0BD000012
:102F9000002C01400004004000080040000C0040EC
:102FA0000034014010B501F01F030121046A99406B
:102FB0008C430462016A9A401143016210BD10B54E
:102FC000446A0121626A824205D121778069F8B999
:102FD00084F83E101CE0A26A824206D102222277C7
:102FE0008069A8B984F83F1012E0E26A824206D1F3
:102FF00004222277806958B984F8401008E0226BD7
:10300000824205D108222277806908B984F84110EC
:103010002046FEF727FF0020207710BD10B5446A38
:10302000616A814201D101200DE0A16A814201D192
:10303000022008E0E16A814201D1042003E0216B13
:10304000814201D1082020772046FEF70CFF0020A6
:10305000207710BD10B5446A0121626A824203D113
:10306000217784F83E1019E0A26A824204D102203E
:10307000207784F83F1011E0E26A824204D10420F4
:10308000207784F8401009E0226B824204D10820A6
:10309000207784F8411001E084F83D102046FEF7C7
:1030A00069FD0020207710BD10B5846842EA032234
:1030B00024F47F440A432243826010BD826822F0D8
:1030C00070020A4342F0070181607047F0B5036A5D
:1030D000026A22F00102026242688469124E24F000
:1030E00073050C682C4323F002058B682B430D4DB0
:1030F000A84201D0B04205D123F00807CB683B437A
:1031000023F00403A84201D0B04205D14D6922F456
:10311000407215438A692A43426084614968416369
:103120000362F0BD002C014000340140F0B5026A9A
:10313000036A23F010030362436884690D6824F472
:10314000E64444EA05248D6822F0200242EA051292
:103150000F4D104EA84201D0B04206D1CF6822F0E8
:10316000800242EA071222F04002A84201D0B04297
:1031700007D14D6923F4406343EA85038D6943EA2F
:10318000850343608461496881630262F0BD000089
:10319000002C014000340140F0B5026A036A23F4B8
:1031A000807303624368C46922F4007224F07305DB
:1031B0000C68124E2C438D6842EA05220E4DA8423F
:1031C00001D0B04206D1CF6822F4006242EA072261
:1031D00022F48062A84201D0B04207D14D6923F4A5
:1031E000405343EA05138D6943EA05134360C46104
:1031F0004968C1630262F0BD002C01400034014007
:1032000030B5046A026A22F4805202624268C369DD
:103210000D6823F4E64343EA05238D6824F4005443
:1032200044EA0534084DA84202D0084DA84204D112
:103230004D6922F4804242EA85124260C3614968C6
:103240000164046230BD0000002C014000340140E4
:1032500010B5036A046A24F001040462846924F04E
:10326000F00444EA021423F00A020A438461026271
:1032700010BD10B5036A046A24F010040462846966
:1032800023F0A00324F4704444EA023243EA01111B
:103290008261016210BD00000148FDF771BA0000B3
:1032A00058000020FEE7090441EA0020104370475F
:1032B0002DE9F04116468846B0F5A07F16D20C4F96
:1032C000002400EB40051A4631464046FFF7EBFF6D
:1032D000A040000201D51E2000E00F2004EBC50134
:1032E000641CE4B227F81100182CECD3BDE8F0817F
:1032F000380300202DE9F04116468846B0F5897F55
:1033000016D80C4F002400EB40051A4631464046C3
:10331000FFF7C9FFA040000201D51E2000E00F20EA
:1033200004EBC501641CE4B227F81100182CECD39F
:10333000BDE8F081386600202DE9F0411646884648
:103340003B2816D20C4F002400EB40051A463146AC
:103350004046FFF7A8FFA040000201D51E2000E074
:103360000F2004EBC501641CE4B227F81100182CEF
:10337000ECD3BDE8F0810000889B00202DE9F041EE
:10338000164688465C2816D20C4F002400EB4005F8
:103390001A4631464046FFF786FFA040000201D59D
:1033A0001E2000E00F2004EBC501641CE4B227F8E6
:1033B0001100182CECD3BDE8F08100003853002038
:1033C0002DE9F04116468846582816D20C4F0024A5
:1033D00000EB40051A4631464046FFF764FFA04027
:1033E000000201D51E2000E00F2004EBC501641C83
:1033F000E4B227F81100182CECD3BDE8F0810000EE
:10340000F840002000210B4A0F2341F6C81000BFEE
:1034100022F81130491C89B28142F9D3002341F6C8
:10342000A82100BF22F81030401C80B28842F9D396
:1034300000F002B83866002041F6A823024A0021B5
:103440000248FEF711BD000038660020C8000020C9
:103450004FF4CD63024A04210248FEF705BD000087
:10346000889B0020800000204FF41863024A04214A
:103470000248FEF7F9BC000038530020C8000020C5
:103480004FF41263024A00210248FEF7EDBC00002F
:10349000F8400020100100204FF4F753024A0021A9
:1034A0000248FEF7E1BC0000380300208000002045
:1034B0002DE9F04115460E46074600242B463246BC
:1034C00039462046FFF738FF641CA4B23B2CF5D3E5
:1034D000BDE8F041FFF7BCBF2DE9F04115460E46AF
:1034E000074600242B46324639462046FFF746FF62
:1034F000641CA4B25C2CF5D3BDE8F041FFF7B4BF67
:103500002DE9F04116460F4680461C46069D07E011
:1035100033463A4641462046FFF70EFF641CA4B2EC
:10352000AC42F5D3BDE8F041FFF792BF2DE9F04181
:1035300015460E46074600242B463246394620469D
:10354000FFF73EFF641CA4B2582CF5D3BDE8F04150
:10355000FFF796BFF0B587B000246B460D0601D586
:103560001E2500E00F251D554906641C090EA4B256
:10357000082CF3D30021040601D51E2400E00F24FB
:103580005D184006491C000E89B22C720829F2D33E
:103590000020110601D51E2100E00F211C18401C3F
:1035A000217451060A0E80B20828F2D3114A002174
:1035B0004FF4A075002001EB41041E5C00EBC40732
:1035C000401C80B222F817601828F6D3491C89B233
:1035D000A942EFD34FF4F05000214FF4F75300BF4E
:1035E00022F81010401C80B29842F9D3FFF754FF24
:1035F00007B0F0BD380300202DE9F04116460F4614
:10360000804600244FF4A07533463A464146204692
:10361000FFF74EFE641CA4B2AC42F5D3BDE8F04106
:10362000FFF73ABF70B50646144613460D460A46E4
:1036300000203146FFF75EFE0C2023462A46314625
:10364000FFF758FE192023462A463146FFF752FE5F
:10365000262023462A463146FFF74CFE32202346D9
:103660002A463146FFF746FE3D2023462A4631468C
:10367000FFF740FE482023462A463146FFF73AFE30
:10368000542023462A463146FFF734FE5F20234666
:103690002A463146FFF72EFE692023462A46314648
:1036A000FFF728FE732023462A463146FFF722FE05
:1036B0007D2023462A463146FFF71CFE87202346FD
:1036C0002A463146FFF716FE902023462A46314609
:1036D000FFF710FE982023462A463146FFF70AFEE0
:1036E000A12023462A463146FFF704FEAA2023469E
:1036F0002A463146FFF7FEFDB22023462A463146D0
:10370000FFF7F8FDB92023462A463146FFF7F2FDC0
:10371000E62023462A463146FFF7ECFDE12023460A
:103720002A463146FFF7E6FDF02023462A46314679
:10373000FFF7E0FDC02023462A463146FFF7DAFDB9
:10374000EB2023462A463146FFF7D4FDBDE8704002
:10375000FFF772BE2DE9F04116460F468046F5246C
:103760004FF4827533463A4641462046FFF7C2FD84
:10377000641CA4B2AC42F5D3BDE8F041FFF75CBED7
:103780002DE9F04115460E460746AA242B4632463F
:1037900039462046FFF7AEFD641CA4B2C82CF5D311
:1037A000BDE8F041FFF748BE2DE9F04115460E4651
:1037B000074687242B46324639462046FFF79AFDB6
:1037C000641CA4B2AA2CF5D3BDE8F041FFF734BEC7
:1037D0002DE9F04116460F4680464FF482744FF4AF
:1037E000867533463A4641462046FFF783FD641C02
:1037F000A4B2AC42F5D3BDE8F041FFF71DBE2DE900
:10380000F04115460E46074600242B4632463946FF
:103810002046FFF76FFD641CA4B2322CF5D3BDE83F
:10382000F041FFF709BE2DE9F04115460E46074667
:10383000E1242B46324639462046FFF75BFD641CE7
:10384000A4B2F52CF5D3BDE8F041FFF7F5BD2DE9A5
:10385000F04115460E460746C8242B4632463946E7
:103860002046FFF747FD641CA4B2E12CF5D3BDE868
:10387000F041FFF7E1BD2DE9F0414FF486741646A3
:103880000F468046251D33463A4641462046FFF7FF
:1038900031FD641CA4B2AC42F5D3BDE8F041FFF7A2
:1038A000CBBD2DE9F04115460E4607465F242B4659
:1038B000324639462046FFF71DFD641CA4B2872C12
:1038C000F5D3BDE8F041FFF7B7BD2DE9F04115464E
:1038D0000E46074632242B46324639462046FFF72D
:1038E00009FD641CA4B25F2CF5D3BDE8F041FFF7DD
:1038F000A3BD0907090E002804DB00F1E02080F8D1
:103900000014704700F00F0000F1E02080F8141D53
:10391000704700002DE9F04798460346764DC01CDD
:10392000DDF820A09146A8805F1D744E1BE017DAD9
:103930000024524641464846FFF7B5FCA04000022D
:1039400001D51E2100E00F21B5F9040000EB400075
:1039500004EBC000641CE4B226F81010182CE8D365
:10396000A888401CA880B5F90400B842DFDB03F149
:103970000A00A88003F10E071CE018DA4FF00004DB
:10398000524641464846FFF78EFCA040000201D552
:103990001E2000E00F20B5F9041001EB410104EBFB
:1039A000C101641CE4B226F81100182CE8D3A888E1
:1039B000401CA880B5F90400B842DEDB03F1110019
:1039C000A88003F117071CE018DA4FF000045246F4
:1039D00041464846FFF767FCA040000201D51E2083
:1039E00000E00F20B5F9041001EB410104EBC10127
:1039F000641CE4B226F81100182CE8D3A888401CF7
:103A0000A880B5F90400B842DEDB03F11800A880F5
:103A100003F11B071CE018DA4FF000045246414640
:103A20004846FFF740FCA040000201D51E2000E000
:103A30000F20B5F9041001EB410104EBC101641C36
:103A4000E4B226F81100182CE8D3A888401CA880FE
:103A5000B5F90400B842DEDB03F11D00A88003F1D4
:103A600022071CE018DA4FF000045246414648464F
:103A7000FFF719FCA040000201D51E2000E00F2036
:103A8000B5F9041001EB410104EBC101641CE4B27F
:103A900026F81100182CE8D3A888401CA880B5F996
:103AA0000400B842DEDB03F12600A88003F12804FD
:103AB0001CE018DA4FF00003524641464846FFF733
:103AC000F2FB9840000201D51E2100E00F21B5F95C
:103AD000040000EB400003EBC0005B1CDBB226F8E7
:103AE0001010182BE8D3A888401CA880B5F9040052
:103AF000A042DEDBBDE8F087240000203803002070
:103B000008490A7802704A7842708A788270CA78C6
:103B1000C2700A7902714A7942718A798271C979CF
:103B2000C171704734000020FDF7A0FBFFF7BCF91E
:103B3000FFF73AF8FEF7FAFFFEF7D6FFFFF7EAF8CD
:103B4000FFF73CF9FFF778F8FFF770F9FCF746FC50
:103B50004FF4FA60FDF768FAF948FCF7BAFB002267
:103B600011461046FFF7B8FC002211461046FFF739
:103B70009FFC002211461046FFF7ECFC0022114684
:103B80001046FFF7D3FCFFF73DFC00231A46194609
:103B90001846FEF7A7FADFF8AC83EB4CDFF8A0B3CA
:103BA000EA4F4FF0000A08F10A09E068401C1421AE
:103BB00090FBF1F2E06001FB120038B9FCF7BCFBAE
:103BC0004FF07E51206900F0D9FB2061E048E168A8
:103BD000814201D1C4F80CA0DE4E4FF400513046B2
:103BE000FDF730FB88F8000045464FF48041304631
:103BF000FDF728FB687001213046FDF723FBA87014
:103C000002213046FDF71EFBE87004213046FDF727
:103C100019FB287108213046FDF714FBCE4E687160
:103C200010213046FDF70EFBA87120213046FDF72C
:103C300009FBE87140213046FDF704FB2872802122
:103C40003046FDF7FFFA6872B87F0028ADD1387FA3
:103C50008BF818009BF819105D46884234D0A4F800
:103C600004A00022A4F806A05646A4F808A0114615
:103C70001046FFF731FC002211461046FFF718FCF2
:103C8000002211461046FFF765FC0022114610463F
:103C9000FFF74CFCEE76AE76EE77FFF7B3FB89F8D4
:103CA000006089F8016089F8026089F8036089F88A
:103CB000046089F8056089F8066089F8076089F86A
:103CC000086089F809602680287E6876F87ED0BB77
:103CD000F87FE0B3062846D005285BD000231A46BB
:103CE00096211846FEF72AFC002211461046FFF7DF
:103CF000F3FB002211461046FFF718FC0022114684
:103D00001046FFF7D5FBFFF77DFB85F81BA085F874
:103D10001AA085F81FA089F800A089F801A089F8E9
:103D200002A089F803A089F804A089F805A089F801
:103D300006A089F807A089F808A089F809A0A4F8C6
:103D400000A0A4F808A0287E01282ED0A6E1FFE755
:103D5000002211461046FFF7BFFB00221146104615
:103D6000FFF7F8FBC5E7002211461046FFF7B4FB4A
:103D7000002211461046FFF7EDFB002211461046C7
:103D8000FFF7D4FB002211461046FFF791FBFFF727
:103D900039FBD8E7002211469620FFF789FB002265
:103DA00011469620FFF728FCCDE7A87E002859D1C0
:103DB000E87E002878D1F87E01287FF4F6AE002155
:103DC00096220846FFF72EFC002196220846FFF7B0
:103DD0007CFD002196220846FFF739FD002196223E
:103DE0000846FFF7F5FC2088322801D8401C2080C7
:103DF00080B21E280FD80022962311461046FEF7E7
:103E000071F9002196220846FFF790FB00219622C7
:103E10000846FFF761FB2088322809D304214F4868
:103E2000FEF7F8F800214E48FEF7F4F83320208022
:103E300098F80000B8B198F80110404699B181781F
:103E400089B1C17879B1017969B1417959B1817983
:103E500049B1C17939B1017A29B198F8090010B195
:103E6000A4F808A092E00126AE762089401C2081AB
:103E7000FFF7C8FA208970B398F800104046A1B146
:103E80004178B1B18178B9B1C178C1B10179C9B115
:103E90004179D1B18179D9B1C179E9B1017AF1B171
:103EA00098F80900F0B11FE078E0484689F8006012
:103EB0001EE089F8016017E089F8026014E089F8D3
:103EC000036011E089F804600EE089F805600BE0FA
:103ED00089F8066008E059E089F8076004E089F88D
:103EE000086001E089F8096099F80010484621B19E
:103EF000417849B189F801A048E0417821B1817841
:103F000049B189F802A041E0817821B1C17849B175
:103F100089F803A03AE0C17821B1017949B189F863
:103F200004A033E0017921B14179D9B189F805A024
:103F30002CE04179B1B18179D9B189F806A025E0A9
:103F4000AAA80020440000200000002082A8002031
:103F5000A08601000010014000080140C8000020B8
:103F600010010020817921B1C17949B189F807A0F8
:103F70000CE0C17921B1017A41B189F808A005E0CE
:103F8000017A19B1417A09B189F809A0A87E0128FE
:103F900004D1387E10B9F87E012803D0E87E0128CC
:103FA00007D07BE00120E876A4F800A0A4F802A0E6
:103FB00001E0387EF0BB0022962311461046FEF742
:103FC000BDFA002196220846FFF772FA99F8000020
:103FD0004E46012804D1002196220846FFF70FFC27
:103FE0007078012804D1002196220846FFF76DFC65
:103FF000B078012804D1002196220846FFF751FC31
:10400000F078012804D1002196220846FFF7CCFB66
:104010003079012804D1002196220846FFF7B0FB31
:104020007079012804D1002196220846FFF70FFC81
:10403000B07900E032E0012804D100219622084640
:10404000FFF7F1FBF079012804D100219622084600
:10405000FFF780FB307A012804D100219622084620
:10406000FFF7B6FB707A012818D100219622084686
:10407000FFF701FC002196220846FFF76BFB0021A9
:1040800096220846FFF7E3FB002196220846FFF739
:104090008BFB002196220846FFF717FC287E00289C
:1040A0007FF483ADA87E002854D1E87E002873D128
:1040B000F87E0128F4D1002211469620FFF7B2FACB
:1040C000002211469620FFF700FC002211469620A0
:1040D000FFF7BDFB002211469620FFF779FB2088F1
:1040E000462801D8401C208080B228280BD8002305
:1040F0001A4696211846FEF795FC00231A4696218B
:104100001846FDF7EFFF2088462809D30421994877
:10411000FDF780FF00219848FDF77CFF47202080B5
:1041200098F80000B8B198F80110404699B181782C
:1041300089B1C17879B1017969B1417959B1817990
:1041400049B1C17939B1017A29B198F8090010B1A2
:10415000A4F808A080E00126AE762089401C2081CA
:10416000FFF750F9208970B398F800104046A1B1CC
:104170004178B1B18178B9B1C178C1B10179C9B122
:104180004179D1B18179D9B1C179E9B1017AF1B17E
:1041900098F80900F0B11FE066E0484689F8006031
:1041A0001EE089F8016017E089F8026014E089F8E0
:1041B000036011E089F804600EE089F805600BE007
:1041C00089F8066008E047E089F8076004E089F8AC
:1041D000086001E089F8096099F80010484621B1AB
:1041E000417849B189F801A036E0417821B1817860
:1041F00049B189F802A02FE0817821B1C17849B195
:1042000089F803A028E0C17821B1017949B189F882
:1042100004A021E0017921B1417949B189F805A0D3
:104220001AE0417921B1817949B189F806A013E0FA
:10423000817921B1C17949B189F807A00CE0C17930
:1042400021B1017A41B189F808A005E0017A19B1DC
:10425000417A09B189F809A0A87E012804D1387EE5
:1042600010B9F87E01281CD0E87E01287FF49DACAF
:10427000387E0028FAD100231A4696211846FEF708
:1042800083FB00221146FF20FFF726F9002211468A
:104290009620FFF70DF999F800004D46012807D048
:1042A0000BE00120E876A4F800A0A4F802A0E2E761
:1042B000002211469620FFF7A2FA6878012804D15F
:1042C000002211469620FFF700FBA878012804D1B0
:1042D000002211469620FFF7E4FAE878012804D17D
:1042E000002211469620FFF75FFA2879012804D1B1
:1042F000002211469620FFF743FA6879012804D17D
:10430000002211469620FFF7A2FAA879012804D1CD
:10431000002211469620FFF786FAE879012804D199
:10432000002211469620FFF715FA287A012804D1B9
:10433000002211469620FFF74BFA687A012895D1A2
:10434000002211469620FFF796FA00221146962089
:10435000FFF700FA002211469620FFF778FA0022B4
:1043600011469620FFF720FA002211469620FFF70B
:10437000ACFA1AE4C80000201001002090EA010FF6
:1043800048BF81F0004100F1AE80421A3CBF801A64
:1043900089184FEAD0524FF07F4C1CEA410FA2EB34
:1043A000D15318BF9CEA026F00F03B804FF0004CE5
:1043B0004CEA00204CEA012121FA03FC10EB0C0C22
:1043C0001ED202F1FF325FEA1C2040EBC25038BF20
:1043D00070471CF07F0F4FEA400C18BFBCF17F4FB5
:1043E00038BF7047C3F12003994008BF20F0010097
:1043F000BCF17F4F38BF7047A0F1C04000F066B8F5
:104400004FEA3C00000A40EBC25028BF1CF0FF0FEF
:104410004FEA400CE6D018BFBCF17F4F38BF704761
:10442000EAE79CEA026F05D010EA5C0F08BF00F0D3
:104430000040704710B500F003F800BF64FBBE3EBB
:104440000EF1020E2EF0030E5EF8044B244204D44B
:104450004FEA4102B2F17F4F11D84FEA4003B3F166
:104460007F4F0CD80ED14FEAD07CB2F17F4F0CEBCE
:104470004C0C0CF1020C08BF4CEBD17C04E04FF06B
:10448000080C01E04FEAD17C0CEB4C0324FA03F456
:1044900004F00704B4F1040C06D20EEB840CBDE862
:1044A00010404CF0010C6047DFE80CF007080202F6
:1044B0004FF00040A0F5800010BD0846420018BF34
:1044C000D2F1807288BF00F0004010BDFF2141EAA8
:1044D000D050C0057047000090EA010F48BF81F03E
:1044E00000413FF552AF421A04D882F00042A0EBDF
:1044F000020011444FEAD0524FF07F4C1CEA410FAA
:10450000A2EBD15318BF9CEA026F4AD04FF0004C87
:104510004CEA00204CEA012121FA03FCB0EB0C0C20
:104520000FD412F0FE0F36D05FEA4C001DD50012FA
:1045300040EBC25038BF70471CF03F0F18BF7047A8
:104540000BE0A2F101025FEA1C2040EBC25038BF31
:1045500070471CF07F0F18BF7047C3F120039940CC
:1045600014BF401E20F00100704780084FEA12235C
:1045700008BF7047B0FA80FCA2EB0C02CCF1280C0B
:1045800060FA0CF093EA122F04BF00EBC2507047A0
:104590004FEAC3707047130A5FEADC1008BF704728
:1045A000F6E79CEA026F04D010EA5C0F08BF002017
:1045B000704710B5FFF744FF40DFF63E81F0004042
:1045C0007047010202030405060708090A0B0C0DD7
:1045D0000E0F101000000000000000000102030494
:1045E00006070809044600080000002044000000F7
:1045F0006C0100084846000844000020F4AE0000AA
:104600008801000800000000000000000000000019
:104610000000000000000000010000001000000089
:10462000000000000024F400000000000000000072
:10463000000000000000000000000000000000007A
:08464000000000000000000072
:0400000508000131BD
:00000001FF
