:020000040800F2
:10000000C85D002029030008DF3D00084F340008C8
:10001000DD3D0008A1060008B562000800000000F0
:10002000000000000000000000000000690200085D
:10003000510D000800000000C50200080942000838
:100040004303000843030008430300084303000878
:100050004303000843030008430300084303000868
:100060004303000843030008430300084303000858
:100070004303000843030008430300084303000848
:10008000710C00087D0C00084303000843030008BE
:100090004303000843030008430300084303000828
:1000A0004303000843030008430300084303000818
:1000B0004303000843030008430300084303000808
:1000C00043030008430300084303000843030008F8
:1000D00043030008B9470008C54700084303000868
:1000E00043030008430300084303000843030008D8
:1000F000430300084303000843030008890C000879
:1001000043030008430300084303000843030008B7
:10011000430300084303000843030008D9420008D2
:100120004303000843030008950C0008430300083C
:100130004303000843030008430300084303000887
:100140004303000843030008430300084303000877
:100150004303000843030008A10C00084303000800
:100160004303000843030008ED3D0008E13D00089B
:1001700043030008F93D00084303000800000000A5
:10018000430300084303000800F002F800F05CF8A5
:100190000AA090E8000C82448344AAF10107DA45E2
:1001A00001D100F051F8AFF2090EBAE80F0013F0D8
:1001B000010F18BFFB1A43F001031847FC71000040
:1001C0001C7200000A444FF0000C10F8013B13F0C1
:1001D000070408BF10F8014B1D1108BF10F8015BA0
:1001E000641E05D010F8016B641E01F8016BF9D193
:1001F00013F0080F1EBF10F8014BAD1C0C1B09D1EA
:100200006D1E58BF01F801CBFAD505E014F8016B5B
:1002100001F8016B6D1EF9D59142D6D370470000ED
:100220000023002400250026103A28BF78C1FBD8FF
:10023000520728BF30C148BF0B6070471FB506F09A
:10024000A1FE1FBD10B510BD00F0A6F91146FFF7C5
:10025000F5FF06F040F800F0C4F903B4FFF7F2FF31
:1002600003BC00F0CBF900002C4B19680868B0E81B
:10027000F04F80F30988BFF36F8F4FF0000080F3D9
:10028000118870470000000008480068006880F38B
:1002900008884FF0000080F3148862B661B6BFF39F
:1002A0004F8FBFF36F8F00DF00BF00BF08ED00E08E
:1002B000DFF80C00016841F470010160704700BF75
:1002C00088ED00E0EFF30980BFF36F8F134B1A68DE
:1002D0001EF0100F08BF20ED108A20E9F04F1060CB
:1002E00009B44FF0500080F31188BFF34F8FBFF374
:1002F0006F8F06F05FFC4FF0000080F3118809BC9F
:1003000019680868B0E8F04F1EF0100F08BFB0EC95
:10031000108A80F30988BFF36F8F7047A000002018
:10032000EFF30580704700000948804709480047FF
:10033000FEE7FEE7FEE7FEE7FEE7FEE7FEE7FEE795
:10034000FEE7FEE704480549054A064B70470000F2
:10035000C942000889010008C8570020C85D002074
:10036000C8590020C859002053EA020C00F06980E7
:100370002DE9F04B4FF00006002B1FBFB3FA83F5B9
:1003800003FA05F424FA05F65E4012BF1643B2FAEA
:1003900082F502FA05F4C5F120051EBF22FA05FC1C
:1003A00044EA0C04203556EA044C4FEA144418BFC2
:1003B000641C4FF000084FF00009904271EB030CF1
:1003C00039D3002919BFB1FA81F701FA07F6B0FA5B
:1003D00080F700FA07F6C7F120071EBF20FA07FCD6
:1003E00046EA0C062037B6FBF4FCA7EB0507103FE6
:1003F00007F01F0BCBF120060CFA0BFB2CFA06F6CC
:1004000044BFB3460026202FA4BF5E464FF0000B2A
:100410005BEA060C08BF4FF0010B19EB0B09ABFBB5
:10042000027C48EB0608C01B06FB02CC0BFB03CC8E
:1004300071EB0C01C1E70B46024641464846BDE858
:10044000F08B13B54FF000004FF00001AFF30080C8
:10045000BDE81C407047032A40F2308010F0030CC6
:1004600000F0158011F8013BBCF1020F624498BF07
:1004700011F801CB00F8013B38BF11F8013BA2F1A4
:10048000040298BF00F801CB38BF00F8013B11F01F
:10049000030300F02580083AC0F0088051F8043BBF
:1004A000083A51F804CBA0E80810F5E7121D5CBF2C
:1004B00051F8043B40F8043BAFF30080D20724BF5F
:1004C00011F8013B11F801CB48BF11F8012B24BFF3
:1004D00000F8013B00F801CB48BF00F8012B704742
:1004E00010B5203AC0F00B80B1E81850203AA0E8CF
:1004F0001850B1E81850A0E81850BFF4F5AF5FEA03
:10050000027C24BFB1E81850A0E8185044BF18C9B5
:1005100018C0BDE810405FEA827C24BF51F8043B5C
:1005200040F8043B08BF7047D20728BF31F8023BB0
:1005300048BF11F8012B28BF20F8023B48BF00F844
:10054000012B70474FF0000200B5134694469646C3
:10055000203922BFA0E80C50A0E80C50B1F12001D6
:10056000BFF4F7AF090728BFA0E80C5048BF0CC084
:100570005DF804EB890028BF40F8042B08BF7047E2
:1005800048BF20F8022B11F0804F18BF00F8012B54
:100590007047704770477047754600F02BF8AE46BD
:1005A00005006946534620F00700854618B020B57F
:1005B000FFF7C8FEBDE820404FF000064FF00007EF
:1005C0004FF000084FF0000B21F00701AC46ACE8FB
:1005D000C009ACE8C009ACE8C009ACE8C0098D4668
:1005E000704710B50446AFF300802046BDE81040C8
:1005F000FFF733BE004870476857002001491820B4
:10060000ABBEFEE726000200704700002DE9F04176
:10061000DFF8308005464FF4806600244FF6FF7700
:10062000E80701D0012200E000223146404600F0F8
:10063000D0FF641C6D08E4B207EA4606032CEFD332
:10064000BDE8F08100080240FEB5134C0126334698
:1006500094F83E0094F83D10009600EB012085B21E
:100660003D20CDE90140002248F205014FF6FF7020
:1006700000F00EFA094FB8802178A52908D1A842C8
:1006800006D14022611CB81DFFF7E5FE3E70FEBD9D
:1006900000203870FEBD0000254700202A01002000
:1006A000FEE7000010B503F021F9012000F0C8F8C2
:1006B0000402022000F0C4F820440402032000F0E9
:1006C000BFF802492044086010BD0000140100205A
:1006D00070B503F00BF9012000F0B2F8064D0402EA
:1006E0002870022000F0ACF820440402032000F03F
:1006F000A7F82044686070BD0801002010B503F021
:10070000F5F8012000F0C4F80402022000F0C0F85F
:1007100020440402032000F0BBF802492044000AF0
:10072000488010BD0801002070B503F0DFF8174DB8
:100730004FF4805400222146284600F04AFF01224F
:100740002146284600F045FFFF21042000F0C8F8AC
:100750000021052000F0C4F80021062000F0C0F8B8
:100760000021072000F0BCF80121002000F0B8F8BB
:10077000FF21012000F0B4F8FF21022000F0B0F8C2
:10078000BDE87040FF21032000F0AAB80018024025
:1007900070B503F0ABF8174D4FF48054002221469A
:1007A000284600F016FF01222146284600F011FFDE
:1007B000FF21042000F0BEF80021052000F0BAF867
:1007C0000021062000F0B6F80021072000F0B2F862
:1007D0000121002000F0AEF8FF21012000F0AAF86E
:1007E000FF21022000F0A6F8BDE87040FF210320A1
:1007F00000F0A0B80018024010B50446FF21042004
:1008000000F06EF82146BDE81040002000F068B806
:1008100010B50446FF21042000F062F82146BDE82F
:100820001040002000F05CB810B50446FF21042001
:1008300000F080F82146BDE81040002000F07AB8B2
:1008400070B50122114D0646D4032146284600F01A
:10085000C0FE3046FFF7DAFE01229102284600F082
:10086000B8FE0022A111284600F0B3FE0022214666
:10087000284600F0AEFE304600F07CF90646012224
:100880002146284600F0A5FE304670BD0018024003
:1008900070B50122114D0646D4022146284600F0CB
:1008A00098FE3046FFF7B2FE01229102284600F082
:1008B00090FE0022A110284600F08BFE0022214667
:1008C000284600F086FE304600F054F90646012224
:1008D0002146284600F07DFE304670BD00180240DB
:1008E0002DE9F0410122124D0F460646D403214660
:1008F000284600F06EFE3046FFF788FE384600F0CE
:1009000057F900226111284600F063FE01225102CE
:10091000284600F05EFE00222146284600F059FEDF
:1009200021462846BDE8F041012200F052BE0000F9
:10093000001802402DE9F0410122124D0F460646F3
:10094000D4022146284600F044FE3046FFF75EFE02
:10095000384600F02DF900226110284600F039FEDB
:1009600001225102284600F034FE0022214628468A
:1009700000F02FFE21462846BDE8F041012200F09C
:1009800028BE00000018024070B5174D4FF4805487
:1009900000222146284600F01CFE0122214628465E
:1009A00000F017FEFF210420FFF79AFF0021052029
:1009B000FFF796FF00210620FFF792FF0021072096
:1009C000FFF78EFF01210020FFF78AFFFF210120A2
:1009D000FFF786FFFF210220FFF782FFBDE870408E
:1009E000FF210320FFF77CBF0018024044F60100FE
:1009F00000F016B870B5054644F6010000F010F896
:100A000000244FF4C046285D06EB4421084480B220
:100A100000F006F8641CE4B20C2CF4D370BD0000A6
:100A20001CB54FF47A7100918DF80400010A01237E
:100A300001AA024800F09CFE1CBD000078050020C1
:100A400070B500F0D5F8104C0025256000F01EFAB6
:100A50000E490122887810280DD2DFE800F00C083A
:100A60000D0C0C0C0C0C0C0C0C0C0C0C0C120320B4
:100A700020600A704A7070BD042323600A704870B9
:100A800070BD0D7070BD000024010020000000202A
:100A90002DE9F0479846DDE9095791460126DDF832
:100AA00020A026E015F8012BB8F1000F11D0144654
:100AB000002213465FEAC47C07D0C3F1070C06FA94
:100AC0000CFC4CEA020C0CF0FF0264085B1C082BC7
:100AD000F0DB80EA022000224FF6FF73040403D506
:100AE00081EA400080B201E003EA4000521C082A7B
:100AF000F4DB7F1ED6D25FEA0A010FD00246002047
:100B000001463346D40705D0C1F10F0403FA04F6B9
:100B10000643B0B25208491C1029F3DB80EA0900F1
:100B2000BDE8F087002070470020704710B5012114
:100B30000C4804F031F90C4908600A48D0F8BC129E
:100B400040220A48FFF787FCFFF77EFD0849002096
:100B50000870044803F0E1FE10B14FF0FF3010BD03
:100B6000002010BDE8490020C001002025470020DA
:100B7000B84E00202DE9F04102F0DAFF8026002473
:100B80000A4F25466006040E3146384600F01CFD2B
:100B9000012801D1641CE4B26D1C7608EDB2082D69
:100BA000F0D302F0E3FF2046BDE8F081000C0240E4
:100BB0002DE9F0410126DFF83080054600244FF68C
:100BC000FF77E80701D0012200E0002231464046CD
:100BD00000F0FFFC641C6D08E4B207EA4606082C2E
:100BE000EFD3BDE8F0810000000C0240FFF733BCFA
:100BF00030B50021174C164A0B46651F02EB011059
:100C0000491C0370C46003724560C9B24370202957
:100C1000F4D3012002F8100F0F49D1600D21117299
:100C20000E4951600221517011740D49D161107645
:100C30000C4951615074032182F820100A49D16295
:100C400082F8280009485062042082F8210030BD53
:100C5000E84700201E010020184600200A0100205D
:100C600010010020080100201101002014010020C3
:100C7000014800F0AFB9000020080020014800F052
:100C8000A9B9000080080020014800F0A3B90000C5
:100C900078060020014800F09DB9000060070020A0
:100CA000014800F097B90000C00700200168182330
:100CB000CAB2103AB2FBF3F2054B6FF30901032AF3
:100CC0009B5CC36500D9091D81650846704700001B
:100CD000BC72000810B5014600208B698A6A4FF08B
:100CE000C07453B1B3F5005F15D072B1012A0CD0B6
:100CF000022A0AD0032A09D104E01AB1012A06D037
:100D0000022A03D1C96AC90100D5012010BDC96AF0
:100D1000A142FAD010BD002AF7D0012AF2D0022A4F
:100D2000F3D0032AF3D010BD30B50468256825F44C
:100D300080252560046863608368402B036803D0C6
:100D400099600068C26030BD9A600068C16030BDC3
:100D500070470000FFF7E8FCFFF71AFDFFF746FEBB
:100D6000174D184E184C0F20FFF752FDFFF7B0FC3F
:100D7000FFF7C4FC00221021284600F02AFC307B3B
:100D8000C043C0B2FFF750FD01221021284600F0F9
:100D900020FC142005F0C4FA0C210A48FFF72AFEB3
:100DA000142005F0BDFA094800F078FD142005F084
:100DB000B7FA064800F0D4FD2078401C2070D2E736
:100DC0000010024018460020040000207805002092
:100DD0004FF47A74204605F0A3FAFBE7FFF7D4FD41
:100DE000074CFFF75FFC0020FFF706FD01220821FA
:100DF000204600F0EEFB032005F092FAF1E7000038
:100E000000100240012005F08BFAFBE7012005F0FD
:100E100087FAFBE7012005F083FAFBE7012005F0E4
:100E20007FFAFBE7012005F07BFAFBE7012005F0E4
:100E300077FAFBE7012005F073FAFBE7012005F0E4
:100E40006FFAFBE7012005F06BFAFBE7012005F0E4
:100E500067FAFBE7012005F063FAFBE705F058FDB0
:100E6000142005F05DFA0549054805F01BFD4022F8
:100E70000349044803F066FDF2E7000058570020DC
:100E800050000020E849002072B6FEE770B5134D0F
:100E90004FF48051284600F097FB114CA17808448C
:100EA0004000A0704FF40051284600F08DFBA1785F
:100EB00001444800A0704FF48041284600F084FBB4
:100EC000A17801444800A0704FF40041284600F08A
:100ED0007BFBA1780844A07070BD000000140240A4
:100EE0000000002070B50B480168001D0568001D5A
:100EF0000068084400280CD0074C0822A11C02F00E
:100F0000D9FB04F112012846BDE87040042202F02A
:100F1000D1BB70BD107AFF1FA40100202DE9F04164
:100F20000446876D00F05AFB054694F8350000260C
:100F3000022806D08020606584F834600120BDE876
:100F4000F0812068016821F0160101602068416984
:100F500021F080014161206C08B9A06C20B12068AB
:100F6000016821F0080101602068016821F0010199
:100F700001600CE000F032FB401B052807D920205F
:100F80006065032084F8350084F83460D7E7206872
:100F90000068C007EED194F85C103F208840B8602C
:100FA000012084F8350084F834600020C7E790F809
:100FB0003510022903D080214165012070470521A9
:100FC00080F835100068016821F0010101600020FF
:100FD000704700002DE9F84304464FF00009CDF8B2
:100FE000009063484FF41651A56D0068B0FBF1F70F
:100FF0002E6894F85C20082101FA02F030420FD0EC
:101000002068026852070BD5026822F004020260D1
:1010100094F85C008140A960606D40F0010060655B
:1010200094F85C104FF0010808FA01F0304208D043
:1010300021684969090604D5A860606D40F0020086
:10104000606594F85C1004208840304208D0216824
:101050000968890704D5A860606D40F004006065E8
:1010600094F85C1010208840304218D0216809683C
:10107000090714D5A86020680168490304D50068F1
:10108000000308D5A16C07E00168C90503D4016815
:1010900021F008010160216C09B12046884794F8CD
:1010A0005C1020208840304231D021680968C90690
:1010B0002DD5A86094F8350005282068016806D071
:1010C000490347D5006800031DD4616C1CE021F082
:1010D000160101602068416921F080014161206CA6
:1010E00008B9A06C20B12068016821F008010160F6
:1010F00094F85C103F208840A86084F8358084F81C
:101100003490216D1FE0E16B09B120468847606D86
:1011100000282BD0606DC00714D0052084F835005E
:101120002068016821F0010101600098401C0090D6
:10113000B84203D820680068C007F6D184F835802B
:1011400084F83490E16C002910D001B02046BDE84D
:10115000F04308470168C905D5D4016821F01001A2
:10116000016084F8358084F83490CCE7BDE8F883DA
:101170009C0000202DE9F041044600F02FFA0546BE
:101180005CB1022084F83500002684F834602068C1
:10119000016821F0010101600DE00120BDE8F0814E
:1011A00000F01CFA401B052805D9202060650320AB
:1011B00084F83500F2E720680068C007F0D12168A4
:1011C0000A6820480240D4E901031843D4E90335F2
:1011D0002B43184363691843A3691843E369184311
:1011E000236A18431043626A042A03D1D4E90B230B
:1011F0001A431043086020684069656A20F00701BF
:1012000028460D43012704280CD1A06A0543E06A53
:1012100040B12046FFF75EFD20B14020606584F8B4
:101220003570BAE7206845612046FFF73FFD94F826
:101230005C203F2191408160666584F83570002014
:10124000ACE700003F8010F02DE9F0410446866DC8
:1012500090F83400002501280DD0012084F83400D6
:1012600094F835700020012F07D084F8340002254F
:101270002846BDE8F0810220FBE7022784F835709C
:1012800060652046FFF750FD94F85C103F208840D1
:10129000B0602068016841F016010160206C20B147
:1012A0002068016841F0080101602068016841F090
:1012B00001010160DCE7000070B5044600F08EF922
:1012C0000546601C02D004480078044400F086F90A
:1012D000401BA042FAD370BD900000202DE9F04FD2
:1012E000DFF8ECA0894600224FF0010B4FF00F0C05
:1012F0000BFA02F609EA0603B34264D122F00304B2
:101300005444D4F8081895072F0F0CFA07F505EA8E
:1013100001083049884201D1002123E02E4988424A
:1013200001D101211EE02D49884201D1022119E09D
:101330002B49884201D1032114E02A49884201D176
:1013400004210FE02849884201D105210AE02749FC
:10135000884201D1062105E02549884201D10721B3
:1013600000E00821B940414514D1224F3968994322
:1013700039603F1D3968994339603F1D3968994389
:1013800039603F1D396899433960D4F80818A9437A
:10139000C4F80818036854000321A1408B4303607C
:1013A000D30800EB83031D6A5407E70E0CFA07F419
:1013B000A5431D62C3688B43C3604368B343436066
:1013C00083688B438360521C102A91D3BDE8F08F51
:1013D00000300140000002400004024000080240CA
:1013E000000C0240001002400014024000180240AD
:1013F000001C0240003C01402DE9F84FDFF89C91B1
:10140000002209F1040A0AF1040B03274FF00F0C24
:101410000BF1040E01250B6895402B40AB426ED1B9
:101420000C7904F00304012C01D0022C15D186683C
:10143000540007FA04F826EA0806D1F80C8008FAE6
:1014400004F848EA0608C0F808804468AC430D79FF
:10145000C5F300159540254345600C79E443A40786
:1014600008D0C568540007FA04F6B5438E68A64054
:101470002E43C6600C7904F00304022C11D1D40869
:1014800000EB8406356A5407E40E0CFA04F825EAEA
:101490000805D1F8108008FA04F848EA0508C6F8EB
:1014A00020800568540007FA04F6B5430E7906F06B
:1014B0000306A6402E4306604C6814F4403F66D0F5
:1014C000374C256845F480452560246822F00305E3
:1014D00004F480440094334C05EB0408D8F8085811
:1014E0009407260F0CFA06F4A5432F4CA04201D115
:1014F000002424E02D4CA04202D101241FE046E04C
:101500002B4CA04201D1022419E02A4CA04201D167
:10151000032414E0284CA04201D104240FE0274CFE
:10152000A04201D105240AE0254CA04201D10624A5
:1015300005E0244CA04201D1072400E00824B44077
:101540002C43C8F80848D9F800404D464E689C43E3
:10155000F60300D51C432C60DAF8004055464E686F
:101560009C43B60300D51C432C60DBF800405D466D
:101570004E689C43F60200D51C432C60DEF8004008
:1015800075464E689C43B60200D51C432C60521C25
:10159000102AFFF43FAFBDE8F88F0000003C014087
:1015A0004438024000300140000002400004024084
:1015B00000080240000C02400010024000140240EB
:1015C00000180240001C02400069084000D00120C1
:1015D00070470AB1816170470904FBE701488068E0
:1015E000704700009000002070B5040025D094F8EA
:1015F0003D00002520B984F83C50204600F0B0F9A9
:10160000242084F83D002068016821F00101016078
:101610002068016841F4004101602068016821F4FC
:101620000041016001F058F84D4B6168994201D8C2
:101630004C4900E04C49884201D2012070BD4B4921
:101640002268B0FBF1F1566826F03F060E43566063
:1016500062689A4206D94FF4967251434FF47A72F7
:10166000B1FBF2F12268491C166A26F03F063143AD
:1016700011626168994210D84900401EB0FBF1F236
:10168000521CC2F30B02042A01D2042022E0B0FB58
:10169000F1F0401CC0F30B001CE0A268F2B301EBB8
:1016A000C10303EB0116431EB3FBF6F35B1C43F4CB
:1016B00080431B0549D092B301EBC10202EB01113B
:1016C000401EB0FBF1F0401CC0F30B0040F4804022
:1016D00040F400402168CA694CF6FF739A431043F6
:1016E000C861D4E9071001432068026822F0C002F3
:1016F00011430160D4E9030101432068826848F284
:10170000FF339A4311438160D4E9051001432068F7
:10171000C26822F0FF021143C16001E00EE016E052
:101720002068016841F0010101602564202084F8EF
:101730003D00256384F83E50002070BD01EB41065A
:10174000431EB3FBF6F35B1CB3E70120C2E701EBDA
:101750004101401EB0FBF1F0401CC0F30B00B7E7A5
:10176000A086010080841E0000093D0040420F0059
:101770002DE9F84F1F4690468A460446DDF828902A
:10178000FFF72CFF054694F83D0020287FD1192350
:10179000012240492046009501F0E6FE002876D15E
:1017A00094F83C00012872D0012084F83C002068A5
:1017B0000168C90703D1016841F001010160206897
:1017C000016821F400610160212084F83D001020AF
:1017D00084F83E0000262664C4F824806785608D66
:1017E00020852D48E0622B464A465146204601F0AE
:1017F00047FE90B9206841698069009036E02A462A
:101800004946204601F030FF50B1206C042804D135
:101810002068016841F4007101600120BDE8F88F83
:10182000606A216800780861626A521C6262608D99
:10183000401E6085208D401E80B2208521684B6946
:10184000DB435B070BD450B110780861606A401C21
:101850006062608D401E6085208D401E20852A4676
:101860004946204601F05AFE0028CED1208D00289E
:10187000C5D154F83D0B016841F40071016020208E
:1018800004F81E09E67766770020C7E7FFE7022025
:10189000C4E70000020010000000FFFF70B50268FE
:1018A000294828498515294C461586B08A420AD10F
:1018B000016821F40011016029462046FFF70EFD62
:1018C0003146204639E022498A4229D1016821F473
:1018D00080010160151529462046FFF7FFFC6E00C8
:1018E00031462046FFF7FAFC14216846FEF72AFE2F
:1018F000012229462046FFF76CFE01223146204690
:10190000FFF767FE4FF44061009101210020CDE90F
:101910000210019169462046FFF76EFD06B070BDCA
:101920000C498A42FAD1016821F400010160314674
:101930000948FFF7D3FC0948294606B0BDE87040C6
:10194000FFF7CCBC00540040403802400004024085
:1019500000580040005C00400008024000000240C7
:101960002DE9F04F87B0044614216846FEF7EAFDE2
:101970002168494C474B0027474812250326474A10
:1019800010344FF480794FF004084FF4007B4FF08F
:10199000010A994224D1016841F002010160006806
:1019A000CDF800900396CDE9015700F00200CDE993
:1019B0000480694617461046FFF71EFDCDF800B0BB
:1019C000CDE9015ACDE9036869463846FFF714FDB1
:1019D000206840F400102060206800F4001026E029
:1019E0002F4B994227D10168B94641F002010160AD
:1019F0000068694600F00200059018158DE8210482
:101A0000CDE9036817461046FFF7F6FC4FF4006077
:101A10008DE82102CDE9036869463846FFF7ECFC02
:101A2000206840F480002060206800F48000059069
:101A300007B0BDE8F08F1B4A9142F9D1016841F02F
:101A400004010160016801F004010591016841F0A1
:101A5000010101600068CDF800B000F00100CDE99F
:101A600004800396CDE9015769460F48FFF7C4FC8F
:101A7000CDF80090CDE90157CDE9036869460B48E0
:101A8000FFF7BAFC206840F400002060206800F4F2
:101A90000000CCE70054004030380240000402400F
:101AA00000580040005C0040000802400000024076
:101AB00002488168027811448160704790000020DC
:101AC0000B4810B5016841F400710160016841F4F0
:101AD00080610160016841F480710160032000F0C1
:101AE0008DF80F2000F006F800F03EF8002010BD41
:101AF000003C024010B5014688B00022372000F0BB
:101B00005DF8372000F04CF813480024016841F0DC
:101B100020010160006805A900F0200006906846D9
:101B200000F0B4FD00F0D8FD0C494000B0FBF1F12D
:101B30000C480B4A491E026040F2E732C0E9032418
:101B4000C0E9011401F072F810B1012008B010BD15
:101B5000044801F099F8F9E74038024040420F008C
:101B600000140040E00800200C4882B0016841F4F5
:101B700080410160006800F4804000900748001F29
:101B8000016841F0805101600068002200F080503F
:101B900000900F21901E02B000F010B844380240AF
:101BA000002809DB00F01F0201219140400980005C
:101BB00000F1E020C0F8001170470000F0B40E4BB7
:101BC0001B68C3F30223C3F10704042C00D90424C7
:101BD0001D1D072D01D2002300E0DB1E012606FAA1
:101BE00004F56D1E0D409D409E40761E164045EA50
:101BF0000601F0BC04F05FBB0CED00E0064A00F00B
:101C0000070110684FF6FF03184040EA012003491E
:101C100008431060704700000CED00E00000FA057A
:101C200070470068416200207047F0B50368586A49
:101C300039B19C6A4FF4827500EB144400204E1EAB
:101C40000AE040EA024098620FE005EB8007DF59A6
:101C5000401C04EB1744C0B2B042F6D344EA024041
:101C60004FF4807202EB810158500020F0BDD0F893
:101C7000040403F025BAC1EBC10200EB8202D0F8E4
:101C80000404926C03F086B9C1EBC10200EB82023E
:101C9000D0F80404D2F8082203F0DAB9D0F804042A
:101CA00003F010BA70B504460B0601F00F00C0EB4C
:101CB000C00104EB81014FF001024FF0000503D594
:101CC00081F83D203C3103E081F8FD5101F5FE71C2
:101CD000087094F8BC03012808D084F8BC2320685D
:101CE00003F01CFE84F8BC53002070BD022070BDC0
:101CF00070B5044601F00F006268904201D90120DE
:101D000070BD0B0601F00F01C1EBC10104EB8101B5
:101D10004FF001024FF0000503D581F83D203C3122
:101D200003E081F8FD5101F5FE718D70087094F8A3
:101D3000BC03012808D084F8BC23206803F0EAFF24
:101D400084F8BC53002070BD022070BD01F00F016B
:101D5000C1EBC10100EB8100D0F8140270472DE9FE
:101D6000F04104460F0601F00F00C0EBC00104EB88
:101D700081014FF001064FF0000503D581F83D6069
:101D80003C3103E081F8FD5101F5FE7108708A6075
:101D9000CB704A7802B1C880022B00D10D7194F843
:101DA000BC03012809D084F8BC63206803F00EFD51
:101DB000284684F8BC53BDE8F0810220FBE770B5EB
:101DC0000D4601F00F04C4EBC40100EB8101C1F822
:101DD0001032C1F808220023C1F8143281F8FD3115
:101DE00081F8FC41036901F5FE71012B00D10A6104
:101DF0002A07027C006803D003F0E4FF002070BDD6
:101E000003F0D0FEFAE770B504460D4601F00F006E
:101E10006168884201D9012070BD29064FF0000693
:101E20004FF0010207D5C0EBC00104EB810181F83E
:101E30003D203C3107E0C5EBC50104EB810181F891
:101E4000FD6101F5FE718A70087094F8BC030128E9
:101E500007D084F8BC23206803F088FF280702D04D
:101E600007E0022070BD217C04F57172206803F048
:101E700025FF84F8BC63002070BD70B50D4601F0ED
:101E80000F04C4EBC40100EB81010B658A640023DD
:101E90004B65012381F83D3001F83C4F0369012B6C
:101EA00000D10A612A07027C006803D003F08AFF90
:101EB000002070BD03F076FEFAE700002DE9F84F30
:101EC00005680446284604F0ACF800287ED1206856
:101ED00004F0D3F8002879D0206804F0CEF8800709
:101EE00004D52068416901F002014161206804F0D5
:101EF000C4F8C10604F57170009034D5206881697A
:101F000021F0100181612F6A07F00F00C0EBC000C3
:101F100004EB8006C7F3434006F5FE76022802D0A4
:101F2000062811D01AE047F6F070074216D0C7F322
:101F30000A1217462846F16804F0A3F8F0683844FE
:101F4000F060B069384408E008222846009904F09F
:101F500098F8B069C7F30A110844B0612068816934
:101F600041F010018161206804F087F800034FF010
:101F7000010B5AD50026206804F05EF88046DFF891
:101F800064A34FE05FEAC87049D0F1B2206804F062
:101F90006CF80746C00707D005EB4611C1F808BB2F
:101FA0003146204601F02EFF380722D505EB4611B9
:101FB0000820C1F8080B2068D0F8409000EB4610CC
:101FC000D0F8081BD14507D9090400E087E103D503
:101FD0004FF40041C0F8081B204600F07CFAD145C0
:101FE00007D92069012804D120680121009A03F053
:101FF00065FEF80604D505EB46111020C1F8080B64
:10200000B80604D505EB46112020C1F8080BB8042A
:1020100005D505EB46114FF40050C1F8080B4FEA07
:102020005808761CB8F1000FACD1206804F025F8F0
:1020300040034FF000095BD5206803F0F6FF8046AF
:10204000002652E05FEAC8704CD0F1B2206803F07D
:10205000FAFF0746C00723D006F00F010BFA01F084
:10206000D5F834188143C5F8341805EB4610C0F88C
:1020700008B9206901280FD1C6EBC60004EB800027
:10208000D0E911211144816436B9206D20B920684E
:102090000121009A03F012FEF1B22046FFF7EBFD9A
:1020A000380704D505EB46110820C1F80809F806E1
:1020B00004D505EB46111020C1F80809780604D5AF
:1020C00005EB46114020C1F80809B80704D505EB17
:1020D00046110220C1F80809380603D531462046CA
:1020E00001F0F6FE4FEA5808761CB8F1000FA9D1AE
:1020F000206803F0C2FF002811DAD5F8040820F0A8
:102100000100C5F8040894F8F403012829D02046FA
:1021100000F0C5F92068416901F000414161206883
:1021200003F0ABFF00050BD5D5F80808C00702D0B7
:10213000204600F0F9F92068416901F4006141612D
:10214000206803F09AFFC00468D5D5F8040820F091
:102150000100C5F804081021206803F03FFF0021AA
:1021600027E084F8F49300212046FFF759FDD1E7DA
:1021700005EB41104FF67F32C0F80829D0F800393E
:1021800023F40013C0F80039D0F8003943F000639D
:10219000C0F80039C0F8082BD0F8002B22F4001248
:1021A000C0F8002BD0F8002B42F00062C0F8002BE2
:1021B000491C60688842DBD8D5F81C0840F0011043
:1021C000C5F81C08206B60B1D5F8840840F00B00FE
:1021D000C5F88408D5F8440840F00B00C5F8440859
:1021E0000CE0D5F8140842F22B010843C5F8140896
:1021F000D5F8100840F00B00C5F81008D5F8000815
:1022000020F4FE60C5F80008217C2068009A03F0E5
:1022100055FD2068416901F480514161206803F057
:102220002CFF800415D5206803F010FB206803F014
:10223000EBFEE06000F04AFA0146227B206803F0E2
:102240007FFF204600F014F92068416901F4005135
:102250004161206803F011FF000707D5204600F018
:1022600022F92068416901F008014161206803F00A
:1022700004FFC00208D50021204600F035F8206890
:10228000416901F480114161206803F0F6FE80028B
:1022900008D50021204600F02BF82068416901F4A0
:1022A00000114161206803F0E8FE400007D5204698
:1022B000FFF7DDFC2068416901F080414161206841
:1022C00003F0DBFE40070AD520684568680702D5A1
:1022D0002046FFF7E3FC2068416829434160BDE8E0
:1022E000F88F00000A30544FD0F8040402F041BFC8
:1022F000D0F8040402F04EBF2DE9F0418AB004008A
:1023000005D094F8BD032668002520B108E001201F
:102310000AB0BDE8F08184F8BC53204600F05EF8B6
:10232000032084F8BD03F06BC00500D4256120684C
:1023300003F032FC04F11001282288466846FEF7BB
:10234000CFF894E80F0003F08FFA0227C8BB0021F2
:10235000206803F0B5FE002101260EE0C1EBC100AC
:1023600004EB800080F83D6000F83C1FC180C57020
:102370008560C560491CC9B2456160688842EDD876
:10238000002111E0C1EBC10004EB800080F8FD5199
:1023900080F8FC1180F8FF51C0F80452C0F80852D0
:1023A000491CC9B2C0F8105260688842EAD8282295
:1023B00041466846FEF794F894E80F0003F032FBBC
:1023C00010B184F8BD73A2E784F8385084F8BD6377
:1023D000206803F019FB00209AE7000010B586B0D2
:1023E0000021019102910391049105910068A0F1EF
:1023F0008041B1F5802135D11B4C206840F00200AE
:102400002060206800F0020000904FF440400190EE
:1024100002200290032004900C20059001A913488B
:10242000FEF7EAFF206840F000502060206800F0CE
:1024300000500090002205214A20FFF7BFFB4A20F0
:10244000FFF7AEFB002205214B20FFF7B7FB4B2027
:10245000FFF7A6FB002205214D20FFF7AFFB4D2023
:10246000FFF79EFB06B010BD30380240000402406A
:1024700070B504460125E06800280ED0022801D07E
:10248000FEF702FD2946D4F8040402F0F2FED4F867
:102490000404BDE8704002F0A3BE0025F2E7D0F8C6
:1024A000040402F0CBBED0F8040402F0D1BE10B593
:1024B000044690F8BC0301280BD0012084F8BC032B
:1024C00084F83810206803F029FE002084F8BC034B
:1024D00010BD022010BDD0F8042400F57171104623
:1024E00002F0D3BE10B50446006894F8BC1301296D
:1024F00006D0012184F8BC13A16A012902D008E0AA
:10250000022010BDA169012903D0816B41F4803103
:102510008163206803F048FD206803F067FA00201B
:1025200084F8BC0310BD000010B50446D4F80404C0
:1025300002F0EFFE2068D0F8001E41F00101C0F863
:10254000001E206A002804D00248016841F00601FC
:10255000016010BD10ED00E02DE9F0470D460400CC
:1025600065D0DFF81491D9F80000EFB200F0070051
:10257000A84207D289F80070D9F8000000F00700DF
:10258000A84254D120683D4E810712D5400703D59B
:10259000306840F4E05030602078000703D53068A0
:1025A00040F4604030603068A16820F0F0000843DB
:1025B00030602078C0072DD0304960680839012884
:1025C00012D0022813D0032811D0096889070029E6
:1025D0002DDA316821F0030101433160FEF7FEFF7F
:1025E000804641F2883A0EE009688903EFE70968FE
:1025F0008901ECE7FEF7F2FFA0EB0801514502D993
:102600000320BDE8F0873068616800F00C00B0EB93
:10261000810FEFD1D9F80010484601F00701A94217
:1026200007D90770006800F00700A84201D0012018
:10263000E7E72078400705D53068E16820F4E050EE
:10264000084330602078000706D53068216920F4FF
:10265000604040EAC100306000F05EF83168084A2E
:10266000C1F30311515CC840064908600648006880
:10267000FFF740FA0020C4E7003C0240083802405F
:10268000C47200089C000020940000200F22026009
:102690000C4A136803F003034360136803F0F0036C
:1026A0008360136803F4E053C36012684FF4E0538F
:1026B00003EAD20202610448006800F007000860E3
:1026C0007047000008380240003C024001480068A2
:1026D000704700009C000020044805490068096814
:1026E000044AC1F38221515CC84070479C0000201D
:1026F00008380240D4720008044805490068096897
:10270000044AC1F34231515CC84070479C0000202C
:1027100008380240D4720008154810B5006810F05F
:102720000C01144813D0431004290FD008290ED1EE
:102730000F4C241F216801F03F022168490207D590
:102740002068C0F38810A0FB030106E0184610BD06
:102750002168C1F38811A1FB00010023FDF704FEED
:102760002168C1F30141491C4900B0FBF1F010BDE3
:10277000083802400024F4002DE9F84F040075D019
:102780002078DFF838A3C007AAF1040548D00AF181
:1027900004000168C1F38101012908D00068C0F379
:1027A000810002280AD1DAF80000400206D5286824
:1027B000800335D560680028E1D031E06068B0F56D
:1027C000803F10D0B0F5A02F286810D020F48030C2
:1027D0002860286820F4802028606068A0B1FEF797
:1027E000FDFE06460CE0286840F48030F4E740F433
:1027F00080202860F7E7FEF7F1FE801B642871D87F
:1028000028688003F7D50BE0FEF7E8FE064604E0F3
:10281000FEF7E4FE801B6428F1D828688003F7D413
:102820002078DFF89C9280074FF0000B3DD5A3483D
:10283000001D016811F00C0F08D00068C0F3810082
:1028400002280AD1DAF80000400206D4286880077E
:1028500015D5E068012809D111E0E068B8B1012080
:10286000C9F80000FEF7BAFE064605E022E1FEF7D1
:10287000B5FE801B0228C2D828688007F7D52868D3
:10288000216920F0F80040EAC10028600DE0C9F895
:1028900000B0FEF7A3FE064604E0FEF79FFE801B95
:1028A00002281FD828688007F7D42078000722D58F
:1028B000824F84486169703771B101210160FEF770
:1028C0008DFE064604E0FEF789FE801B022809D82B
:1028D00038688007F7D50EE0C0F800B0FEF77EFE3E
:1028E000064605E082E0FEF779FE801B02287DD8CF
:1028F00038688007F7D42078400765D56F484FF0D7
:1029000000083C300068C0000BD46C483C300168C3
:1029100041F08051016000684FF0010800F08050E4
:102920000090694F3868C0050FD4386840F4807053
:102930003860FEF753FE064604E0FEF74FFE801BAC
:10294000022853D83868C005F7D55C4FA0686C37AB
:1029500001280FD00528386810D020F00100386019
:10296000386820F004003860A068B0B1FEF736FE89
:1029700006460EE0386840F00100F4E740F004003D
:102980003860F7E7FEF72AFE811B41F2883081426A
:1029900063D838688007F5D50DE0FEF71FFE0646C0
:1029A00006E0FEF71BFE811B41F28830814254D8BD
:1029B00038688007F5D4B8F1000F05D03F483C30A7
:1029C000016821F080510160A069B8B33B49091D3D
:1029D0000968C1F38101022946D00228584606D071
:1029E000C9F86000FEF7FAFD044639E035E04F46CD
:1029F000C9F86000FEF7F2FD064604E0FEF7EEFDC2
:102A0000801B022829D828688001F7D4D4E907015F
:102A10000843A16A2D4A490802EB0141626A41EA72
:102A20008211084394F82C1040EA0161CAF80010A2
:102A300001203866FEF7D2FD044605E03CE0FEF7D3
:102A4000CDFD001B022808D828688001F7D533E0A7
:102A5000FEF7C4FD001B022802D90320BDE8F88F51
:102A600028688001F4D427E00128F7D0DAF80000C4
:102A7000E26900F4800191421CD1226A00F03F011A
:102A8000914217D147F6C071626A0140B1EB821FD3
:102A900010D1A26A4FF0FF3300F4403103EB520231
:102AA000B1EB024F06D194F82C1000F07060B0EB3F
:102AB000016F01D00120D1E70020CFE704380240A8
:102AC00000004742800E4742007000400000FFFFB8
:102AD00070B5040009D0606A002540B125616561C8
:102AE000A56294F8510040B10CE0012070BD60680F
:102AF000B0F5827FF4D0E561F2E784F850502046CB
:102B000000F044F8022084F851002068016821F0A8
:102B100040010160A088218900F4827001F4044121
:102B20000843A18901F400610843217C01F00201FE
:102B30000843217D01F001010843218B01F400715C
:102B40000843217F01F03801084394F8201001F078
:102B500080010843218D01F4005108432168086079
:102B6000A069042101EA104094F8241001F010013A
:102B70000843216848602068C16921F40061C1618F
:102B80006565012084F85100002070BD70B586B0E5
:102B9000064614216846FDF7D5FC1E493068884278
:102BA00036D11D480025016841F4004101600068EC
:102BB00000F40040059018481038016841F0020107
:102BC00001600068694600F002000590282000902E
:102BD0000220CDE9010503200390062004900F4850
:102BE000FEF70AFC0F4C0E48C4E900054020C4E97A
:102BF00002050001C4E90405A561E56125622046DE
:102C00006562FEF7B7FA08B1FEF73EF9B464A66351
:102C100006B070BD003C0040403802400004024055
:102C2000B8600240780600207047704710B5040075
:102C300003D094F83D0010B107E0012010BD002042
:102C400084F83C00204600F01EF8022084F83D0085
:102C5000211D206801F046FB012084F8460084F81D
:102C60003E0084F83F0084F8400084F8410084F876
:102C7000420084F8430084F8440084F8450084F856
:102C80003D00002010BD704790F83D10012901D093
:102C900001207047022180F83D100168CA6842F0A7
:102CA0000102CA6000681149884214D0B0F1804F17
:102CB00011D00F4988420ED00E4988420BD00E49E0
:102CC000884208D00D49884205D00D49884202D07B
:102CD0000C49884204D1816801F00701062903D01C
:102CE000016841F0010101600020704700000140CF
:102CF0000004004000080040000C004000040140B7
:102D00000040014000180040704770B5044600685C
:102D100001694FF00005C943890715D4C168C9434B
:102D2000890711D4E91E016101202077206880699C
:102D30008007204602D0FFF7E7FF04E000F098F894
:102D4000204600F096F8257720680169C9434907B5
:102D500017D4C168C943490713D46FF00401016156
:102D6000022020772068806910F4407F204602D03E
:102D7000FFF7CAFF04E000F07BF8204600F079F886
:102D8000257720680169C943090716D4C168C9437A
:102D9000090712D46FF00801016104202077206830
:102DA000C0698007204602D0FFF7AEFF04E000F0C4
:102DB0005FF8204600F05DF8257720680169C94377
:102DC000C90617D4C168C943C90613D46FF01001EE
:102DD0000161082020772068C06910F4407F2046F8
:102DE00002D0FFF791FF04E000F042F8204600F027
:102DF00040F8257720680169C943C90708D1C1682F
:102E0000C943C90704D1891E0161204600F032F888
:102E100020680169C943090609D4C168C943090684
:102E200005D46FF0800101612046FFF7FDFE2068A8
:102E30000169C943490609D4C168C943490605D493
:102E40006FF040010161204600F01EF82068016922
:102E5000C94389060BD4C168C943890607D46FF0FA
:102E6000200101612046BDE87040FFF7DEBE70BD65
:102E70007047704700680349884201D1FEF718BEC9
:102E800070470000001400407047704710B50446BA
:102E90000068406994F83D10C0F3C010212911D199
:102EA00080B12068143050E8001F21F0800140E814
:102EB0000012002AF5D1606B08B1FEF72FF820460A
:102EC00001F03CFB2068406994F83E10C0F380108C
:102ED000222911D180B12068143050E8001F21F060
:102EE000400140E80012002AF5D1A06B08B1FEF7BE
:102EF00015F8204601F0FBFA002010BD70470000D5
:102F0000F8B5016804460868CA684B6910F00F0FED
:102F10004FF0000559D003F0010602F490773743D3
:102F200065D0C10705D0D10503D5216C41F0010161
:102F30002164410705D5D90703D0216C41F0020176
:102F40002164810705D5D90703D0216C41F0040124
:102F50002164010707D502F02001314303D0216C21
:102F600041F008012164216C00293AD0800604D583
:102F7000900602D5204601F0EFFA20684069216CE6
:102F8000C0F38010090700D460B3204601F0AFFA07
:102F900020684069400621D52068143050E8001FA1
:102FA00021F0400140E80012002AF5D1A06BA8B141
:102FB0006C490165A06BFDF7FAFF002811D0A06BEA
:102FC000016D01B0BDE8F040084783060FD59306B8
:102FD0000DD52046BDE8F84001F0BEBA2046FFF707
:102FE0008DFFF8BD2046FFF789FF2564F8BD266BED
:102FF0002023012E79D1C60677D5D60675D5086867
:10300000486800904869400640D5A16B0868406850
:103010000004000CEAD0A28D8242E7D9E085C8699D
:10302000B0F5807F2DD020680C3050E8001F21F4CF
:10303000807140E80012002AF5D12068143050E871
:10304000001F21F0010140E80012002AF5D120689C
:10305000143050E8001F21F0400140E80012002A1F
:10306000F5D184F83E30256320680C3050E8001F0D
:1030700021F0100140E80012002AF5D1A06BFDF705
:103080004DFFA08DE18D401A81B229E0A08DE18D28
:10309000401A81B2E08D0028A8D00029A6D020686F
:1030A0000C3050E8002F22F4907240E80026002EE9
:1030B000F5D12068143050E8002F22F0010240E8DA
:1030C0000026002EF5D184F83E30256320680C30B0
:1030D00050E8002F22F0100240E80023002BF5D129
:1030E0002046FFF7D2FEF8BDFFE705062BD51506F3
:1030F00029D594F83D002128F5D1A068B0F5805F6E
:1031000001D12069B0B1206A411C21622168007898
:103110004860E08C401E0004000CE084E3D120688D
:10312000C16821F08001C1602068C16841F04001A0
:10313000C160D8E7206A0088C0F308004860206AB0
:10314000801C2062E5E74006CDD55006CBD5CA6885
:10315000204622F04002CA6084F83D3000F062F957
:10316000C1E70000AD43000870B5040004D094F836
:103170003D00002510B106E0012070BD84F83C50F0
:10318000204600F023F8242084F83D002068C16820
:1031900021F40051C160204601F03EFA2068016927
:1031A00021F4904101612068416921F02A014161C7
:1031B0002068C16841F40051C1602564202084F872
:1031C0003D0084F83E00002070BD00002DE9F0476E
:1031D00086B0044614216846FDF7B4F9DFF868C1EB
:1031E00002212668594803220723DFF8648100255D
:1031F0008F064FF0400A4FF4806966454DD1534E1B
:103200001436D6F800C04CF0100CC6F800C0366872
:1032100006F010060596066846F00106066000688E
:1032200000F00100059050028DE8230069464046F9
:10323000CDE90323FEF7E0F8474E4648C846306024
:10324000C6E90175C6E903597561B561F561356275
:1032500030467562FDF78EFF08B1FDF715FEA663D7
:10326000B4633D4E3B4860367830C6E9035875611B
:10327000B561F5613562756286E881043046FDF717
:1032800079FF08B1FDF700FE6663002205212520C5
:10329000B463FEF793FC252051E0DFF8C0C066451B
:1032A0004FD12A4E1036D6F800C04CF4003CC6F878
:1032B00000C0366806F400360596066846F001063A
:1032C0000660006800F0010005900C208DE82300E6
:1032D00069464046CDE90323FEF78EF81E4E20488E
:1032E000C036B8463060C6E90175C6E90359756154
:1032F000B561F56135624F4630467562FDF73AFFBC
:1033000008B1FDF7C1FDA663B463164E1448C6E9C3
:1033100003577561B561F56135621830756286E8ED
:1033200001053046FDF726FF08B1FDF7ADFD6663E8
:10333000002205212620B463FEF740FC2620FEF77C
:103340002FFC06B0BDE8F087001001403038024085
:10335000000002404064024060070020004400403A
:10336000886002408008002090F83E30202B0ED16B
:1033700059B152B190F83C30012B08D0012380F8AC
:103380003C300023036301F0CDB9012070470220D7
:103390007047704770470000F7B5044690F83D004D
:1033A000202837D1019991B38AB394F83C000128C1
:1033B00030D0012084F83C002162A284E284002500
:1033C0002564212084F83D00636B1348D863636B48
:1033D00012481864636B1248D864606B1346056525
:1033E0002668606B321DFDF72FFF21686FF04000EB
:1033F000086084F83C502068143050E8001F41F009
:10340000800140E80012002AF5D10020FEBDFFE750
:103410000120FBE70220F9E7A3440008E544000887
:10342000BD4300080649884208D106490022887831
:10343000401C887002210448FEF7CBB8704700009A
:103440001C0700202A010020000002407047FEE710
:1034500001684A69D24352050FD46FF480624A6111
:10346000002140F8301F202242738173026942F02C
:1034700004020261017301207047002070470000C0
:10348000F8B50446C06A1E460D461746082807D000
:10349000012805D010F5803F02D0206B122804D1FE
:1034A0002068016841F480710160134600224FF0EA
:1034B00001112046009600F057F840B120680068DE
:1034C000C00502D54FF4007020640320F8BD2069C8
:1034D000B0F5804F0ED00620216800EAD51040F0EC
:1034E000F000086133463A460B49204600F070F878
:1034F00078B902E005F0FE0000E0E8B2216808615A
:10350000054933463A46891F204600F061F80028F5
:10351000DCD00120F8BD00000800010070B516469F
:103520000D4604460DE02046FFF792FF08B101204A
:1035300070BD681C05D0FEF751F8801BA84207D863
:1035400035B120684069C0434007ECD4002070BD0D
:10355000002044F8300F20216173A073216941F0ED
:10356000200121612073E2E72DE9F0471D469046D6
:103570000E460446C1F30747DDF8209008E0681CBA
:1035800006D0FEF72BF8A0EB0900A8420FD875B1C2
:103590002068012F18D0806926EA00000004000C82
:1035A00014D000204045EAD00020BDE8F08700207C
:1035B00044F8300F20216173A073216941F020018C
:1035C000216120730120F0E74069E5E70120E9E788
:1035D0002DE9F047984615460E4604464FF000097F
:1035E0004FF0200AC1F3074723E020684069C04339
:1035F000400515D42068016841F40071016021681C
:103600006FF480604861C4F8309084F83DA084F87D
:103610003E90216C41F00401216484F83C901EE04E
:10362000681C06D0FDF7DAFFA0EB0800A8420AD814
:103630004DB12068012F15D0806926EA00000004F2
:10364000000C0DD0D1E744F8309F84F80DA084F829
:103650000E90216941F02001216184F80C90012035
:10366000BDE8F0874069E8E770B516460D460446A8
:103670000DE02046FFF7ECFE08B1012070BD681C8C
:1036800005D0FDF7ABFF801BA84207D835B12068F5
:103690004069C0430006ECD4002070BD002044F80F
:1036A000300F20216173A073216941F02001216155
:1036B0002073E2E7F0B40023002A18D90A24302549
:1036C00037269C46B4EB107F04D905EB107701F840
:1036D000137003E006EB107701F81370000101EBA3
:1036E000430787F801C05B1CDBB29342EAD3F0BC0E
:1036F000704700001D4808B5016841F400110160E1
:10370000016801F400110091016841F48001016039
:103710000068002200F48000009005211020FEF7D0
:103720004DFA1020FEF73CFA002205211120FEF789
:1037300045FA1120FEF734FA002205212F20FEF76A
:103740003DFA2F20FEF72CFA002205213A20FEF741
:1037500035FA3A20FEF724FA002205214620FEF72A
:103760002DFABDE808404620FEF71ABA303802406C
:1037700030B595B01C2258496846FCF7B1FE0021CF
:10378000684602F0DAFD554C554D60602878C00758
:103790000AD051491C221C310EA8FCF7A1FE0021C1
:1037A0000EA802F0CAFDA060287880070AD54A4911
:1037B0001C2238310EA8FCF793FE00210EA802F05F
:1037C000BCFDA060287840070AD543491C2254312B
:1037D0000EA8FCF785FE00210EA802F0AEFD2061C8
:1037E000287800070AD53C491C2270310EA8FCF746
:1037F00077FE00210EA802F0A0FD60612878C006C7
:103800000AD535491C228C310EA8FCF769FE00212F
:103810000EA802F092FDA061287880060AD52E49F4
:103820001C22A8310EA8FCF75BFE00210EA802F0B6
:1038300084FDE061287840060AD527491C22C4315E
:103840000EA8FCF74DFE00210EA802F076FD2062C6
:10385000287800060AD520491C22E0310EA8FCF782
:103860003FFE00210EA802F068FD60622888C005B6
:103870000AD519491C22FC310EA8FCF731FE0021A3
:103880000EA802F05AFDA0621C22164907A8FCF7F8
:1038900027FE002107A802F050FD206412484FF0D7
:1038A0001C02007801280BD00E490EA83831FCF715
:1038B00017FE00210EA802F040FDA06415B030BD37
:1038C00008490EA81C31FCF70BFE00210EA802F0DF
:1038D00034FD6064F2E70000906F000804000020EF
:1038E00024010020A87000080000002030B587B037
:1038F00014216846FCF726FE1B480024016841F0AD
:1039000001010160016801F001010591016841F0C8
:1039100004010160016801F004010591016841F0B2
:10392000080101600068694600F0080005904FF446
:103930000040CDE900040D480294FDF75DFD4FF411
:10394000E0500125CDE90005694602940848FDF7DD
:1039500053FD7720CDE90005694602940548FDF73F
:103960004BFD07B030BD000030380240000002407F
:1039700000080240000C02402DE9F04F87B01421EE
:103980006846FCF7DFFD62480024016841F0100141
:103990000160016801F010010591016841F08001AA
:1039A0000160016801F080010591016841F00101A9
:1039B0000160016801F001010591016841F02001F9
:1039C0000160016801F020010591016841F00201E8
:1039D0000160016801F002010591016841F00401F4
:1039E0000160016801F004010591016841F00801DE
:1039F0000160016801F008010591016841F0400192
:103A000001600068002200F04000059078214148E4
:103A1000FDF7DFFDDFF80081002202214046FDF7BF
:103A2000D8FDDFF8F8904FF4E856002231464846BA
:103A3000FDF7CFFDDFF8E8A00022FF215046FDF79B
:103A4000C8FDDFF8E0B04FF47E4700223946584603
:103A5000FDF7BFFD0022C0213348FDF7BAFD7820F5
:103A600000900125CDE9015469462A480394FDF7E9
:103A7000C3FC02200090CDE90154694640460394FE
:103A8000FDF7BAFC4FF470408DE8310069462748D5
:103A9000FDF7B2FC0096CDE901546946484603940F
:103AA000FDF7AAFCE803CDE900046946404602940C
:103AB000FDF7A2FCFF200090CDE901546946504675
:103AC0000394FDF799FC0097CDE9015469465846E7
:103AD0000394FDF791FC1020CDE9000469461248DB
:103AE0000294FDF789FCC0200090CDE9015469469D
:103AF0000D480394FDF780FC0320CDE900046946DE
:103B000004480294FDF778FC07B0BDE8F08F000090
:103B1000303802400010024000000240000802401D
:103B2000000C024000180240000402400014024051
:103B300000B587B014216846FCF704FD0948002150
:103B4000026842F0080202600068029100F008007A
:103B50000590FF20CDE9000169460348FDF74CFCC4
:103B600007B000BD30380240000C024030B587B0CD
:103B700014216846FCF7E6FC0D480024016841F07A
:103B80000801016000680B4D00F008000590224616
:103B9000FF212846FDF71DFDFF2000900120CDE903
:103BA0000104694628460394FDF726FC07B030BDA2
:103BB00030380240000C02400D4810B50B4901603E
:103BC0000C49416000214FF480428160C0E903123A
:103BD00041618161C1610162FDF706FD002803D0EA
:103BE000BDE81040FDF750B910BD00000054004082
:103BF00024050020A08601000D4810B50B49016086
:103C000041F28831416000214FF480428160C0E977
:103C1000031241618161C1610162FDF7E5FC002889
:103C200003D0BDE81040FDF72FB910BD005800408B
:103C3000780500200D4810B50B4901600C49416022
:103C400000214FF480428160C0E90312416181612B
:103C5000C1610162FDF7C8FC002803D0BDE8104037
:103C6000FDF712B910BD0000005C0040CC0500203B
:103C7000A0860100104810B50E4901604FF4827112
:103C80004160002102228160C0E9031201224261E9
:103C9000520282610822C0E90721416281620A2141
:103CA000C162FEF715FF002803D0BDE81040FDF704
:103CB000EBB810BD003C0040200600200C4810B5B9
:103CC0000A4901604FF4E1314160002181600C221A
:103CD000C160C0E904128161C161FFF745FA0028A3
:103CE00003D0BDE81040FDF7CFB810BD0010014073
:103CF000D80600200C4810B50A4901604FF4E131A4
:103D00004160002181600C22C160C0E90412816120
:103D1000C161FFF729FA002803D0BDE81040FDF784
:103D2000B3B810BD004400401C07002010B50122AC
:103D30000F49104801F008F908B1FDF7A5F80E4940
:103D40000C4801F011FB08B1FDF79EF80B4909483A
:103D500000F0F0FD08B1FDF797F8064801F0C2FB4E
:103D6000002803D0BDE81040FDF78EB810BD00005C
:103D700070010020E8490020FC010020E80100203B
:103D800070B5114C2078A5281DD160780F4D05EB3A
:103D900000121178884216D150780E4E401CC2B2E3
:103DA0000B4871780844611C401CFCF71FFF6078C9
:103DB00005EB001041787078401C0844064970708B
:103DC00000200870207070BD25460020E8470020C4
:103DD000654700202A01002028010020FEE7FEE7B9
:103DE0000148FEF76BB80000504F00200148FEF775
:103DF00065B80000504F00200148FEF75FB8000092
:103E0000504F00202DE9F04106680D460446316C04
:103E100006EB4510D0F8083BD4F810C04FF400472B
:103E20004FF0200E04F57172BCF1010F08D0DFF8DD
:103E300098C0614538D1190431D5C0F8087B3FE0FE
:103E4000224E5FEA037C04D5B14239D91904F4D477
:103E500036E05FEA836C02D5C0F808EB30E013F07F
:103E6000280F2DD1B14201D91904E6D4C5EBC50103
:103E700004EB8101D0F8100BD1F80432C0F312002A
:103E8000181AC1F81402D1F808021844C1F808023F
:103E900095B9D4F8100278B9012120680AE0990692
:103EA0000AD5C0F808EB07E035B9D4F8100218B904
:103EB0000021304601F002FFE9B22046FDF7E4FEA2
:103EC0000020BDE8F08100000A31544F0A30544F01
:103ED0002DE9F84F0E46C1EBC60100EB8104814687
:103EE000D0F80080D4E914103C34884202D9012073
:103EF000BDE8F88F081AA168814200D20846C01CAC
:103F0000870808EB461A15E0451AA068A84200D2B7
:103F10000546E81C870899F810000090ABB2F2B291
:103F20004046E16802F080F9E0682844E060A0695A
:103F30002844A061DAF8180980B2B84205D3D4E960
:103F40000501814201D20028DED1D4E90501884271
:103F500008D806F00F0101208840D8F834188143B2
:103F6000C8F834180020C3E700F02EF800F0A6F8D7
:103F7000052002F0D5F9F9E700F040F80D4C0E4F9E
:103F80000E4E0025012002F0CBF920780128F9D14E
:103F9000012202213846FDF71CFB012002F0C0F986
:103FA000327807490748FFF7F7F9012002F0B8F91E
:103FB0002570E7E7280100200000024018010020DA
:103FC000E54600201C07002010B501220221084808
:103FD000FDF7FFFA07480068C16841F01001C160B1
:103FE000BDE81040402204490248FFF7BDB9000077
:103FF000000002401C0700202546002010B50022CA
:1040000002210848FDF7E5FA07480068C16841F059
:104010001001C160BDE81040402204490248FFF78A
:10402000A3B90000000002401C07002065460020E4
:104030002DE9F0411B4D1C49002028700A781B4EC9
:10404000A52A2CD14B7853B319481A4A0124006889
:10405000C7071ED0A3421CD102EB04173F78A7422A
:1040600017D102EB0417891C3A7AF868FCF7BEFDF9
:104070001148A52100F8011B00F8014B7A787968F6
:10408000FCF7B4FD7878001D287001203070BDE881
:10409000F081641C4008E4B2202CD9D9F7E73070D5
:1040A0002870F4E718010020654600202801002050
:1040B00024010020E8470020E54600202DE9FE4FBE
:1040C0003C480121002441703B48A523394E04702F
:1040D0004370DFF8E8803A4FB61DA1468A469B46FA
:1040E00036E007EB00110978814237D10122022125
:1040F0003448FDF76EFA344800F801BB315D07EB38
:104100000111097A491CCAB23119FCF76FFD2F4918
:1041100081F80090305D2C4907EB0010027A2C48A2
:10412000121DFFF739F988F800A0022502E00A20E5
:1041300002F0F6F898F80000012802D16D1EEDB2E9
:10414000F5D2305D641C07EB0010007A2044C4B245
:10415000305D18B1FF2801D03C2CC2D3164C3D2154
:10416000601C84F801B0CDF800A0CDE901015646ED
:104170000123002248F205014FF6FF70FCF788FC8E
:104180000C4D010A134AA88084F83E1084F83F00C1
:104190006978FF20214448704021204602F04AFB04
:1041A00009496E7081F80090084981F80090BDE8D7
:1041B000FE8F00002A010020654700202801002012
:1041C000E847002000000240A546002025460020C8
:1041D0001C07002058570020FFF7A8FD094D4FF499
:1041E0009674002210212846FDF7F3F9204602F0CC
:1041F00097F8012210212846FDF7EBF9204602F03E
:104200008FF8EEE70010024010B5502080F31188BF
:10421000BFF34F8FBFF36F8F02F0E4FD18B1044975
:104220004FF080500860002080F3118810BD00001E
:1042300004ED00E030B593B030216846FCF782F918
:1042400014210CA8FCF77EF91D480025016841F0F7
:1042500080510160006800F0805011901948016899
:1042600041F4804101600068022400F48040119014
:1042700001200090000401908001CDE90640042057
:104280000890A820CDE9090407200B906846FEF7A6
:1042900073FA08B172B6FEE70CA90F2081E831006D
:1042A0004FF4A0500F904FF48050109005210CA8AF
:1042B000FEF752F9002801D072B6FEE713B030BD08
:1042C00040380240007000400248016841F470012B
:1042D0000160704788ED00E00148FEF716BD000060
:1042E000E0080020F0B50268254D264E264FDFF885
:1042F0009CC0274B4FF0804EA84209D0704507D094
:10430000B04205D0B84203D0604501D0984203D1F5
:1043100022F070044A682243A8421BD0704519D08D
:10432000B04217D0B84215D0604513D0984211D092
:10433000184CA0420ED0184CA0420BD0174CA042F3
:1043400008D0174CA04205D0164CA04202D0164C03
:10435000A04203D122F44074CA6822434C6922F07F
:104360008002224302608A68C2620A688262A842AE
:1043700001D0984201D10969016301214161F0BD79
:10438000000001400004004000080040000C004014
:104390000004014000400140004401400048014049
:1043A00000180040001C00400020004010B5806B49
:1043B0000021C185C184FEF7A1FD10BD70B5846BDD
:1043C0002068406994F83D10C0F3C01000252129F1
:1043D00004D118B1E584204600F0B0F820684069A7
:1043E00094F83E10C0F38010222904D118B1E5855D
:1043F000204600F07CF8206C40F01000206420463D
:10440000FEF77CFD70BD10B50146806B0968096838
:10441000C9052FD40021C18501680C3151E8002F56
:1044200022F4807241E80023002BF5D10168143199
:1044300051E8002F22F0010241E80023002BF5D1C2
:104440000168143151E8002F22F0400241E80023B6
:10445000002BF5D1202180F83E10016B012909D1F4
:1044600001680C3151E8002F22F0100241E80023CE
:10447000002BF5D1016B012902D0FEF78AFF10BD98
:10448000818DFEF702FD10BD10B5806B016B012917
:1044900002D0FEF77FFF10BD818D4908FEF7F5FCC5
:1044A00010BD10B50146806B09680968C90516D4AE
:1044B0000021C1840168143151E8002F22F08002EC
:1044C00041E80023002BF5D101680C3151E8002FA1
:1044D00042F0400241E80023002BF5D110BDFEF769
:1044E000A1FF10BD10B5806BFEF7B0FF10BD0168D5
:1044F0000C3151E8002F22F4907241E80023002B88
:10450000F5D10168143151E8002F22F0010241E891
:104510000023002BF5D1016B012909D101680C3171
:1045200051E8002F22F0100241E80023002BF5D1C2
:10453000202180F83E1000210163704701680C3192
:1045400051E8002F22F0C00241E80023002BF5D1F2
:10455000202180F83D10704708B590F83E102229C0
:1045600001D0022008BD81684FF48053994201D1E7
:10457000026922B1826A99421BD049B10AE00268FD
:10458000816A5268C2F308020A80816A891C08E0C5
:10459000016971B10168496801F07F011170816A98
:1045A000491C8162C18D491E0904090CC18503D0D3
:1045B00019E001684968F1E70168CA6822F0200241
:1045C000CA600168CA6822F48072CA6001684A69D8
:1045D00022F001024A61202180F83E10016B01297E
:1045E00003D0FEF7D6FE002008BD0021016301685C
:1045F0000C3151E8002F22F0100241E80023002B7B
:10460000F5D101680A68D20602D50A6849680091A6
:10461000818DFEF73AFCE6E770B504460068016953
:10462000E26821F4405111430161A1682069E26907
:1046300001436069104301432068C26849F20C637A
:104640009A430A43C26020684169A26921F440711B
:104650001143416131492068884202D03049884283
:1046600002D1FEF749F801E0FEF736F8E2690023CF
:10467000192164253226B2F5004F626828D0A0FBCC
:104680000101930F9200FBF76FFE0146B0FBF5F0BE
:104690006FF01802504301EB800006EB0010B0FBF6
:1046A000F5F000F0F002B1FBF5F002EB0012B1FB07
:1046B000F5F06FF01803584301EB800006EB001093
:1046C000B0FBF5F000F00F0021681044886070BD69
:1046D000A0FB010192185B41FBF746FE0146B0FBCF
:1046E000F5F00201B1FBF5F06FF01803584301EB50
:1046F000800006EBC000B0FBF5F000F0F80002EB24
:104700004002B1FBF5F0584301EB800006EBC0001E
:10471000B0FBF5F000F00700D6E700000010014004
:104720000014014037B582B01346039A8262838534
:10473000002504460564222084F83E00A16B1B4836
:10474000C863A16B1A480864A16B1A48C864A06BBF
:1047500005652168A06B091DFCF776FD20680168DE
:104760004068009084F83C5020680C3050E8001FEE
:1047700041F4807140E80012002AF5D1206814301D
:1047800050E8001F41F0010140E80012002AF5D175
:104790002068143050E8001F41F0400140E800124A
:1047A000002AF5D105B0002030BD00000744000804
:1047B00089440008BD4300080148FEF7A1BB000082
:1047C000D806002010B5044801F042FDBDE81040B5
:1047D0000148FEF795BB00001C070020D0F8BC0282
:1047E000002180F850100020704710B5D0F8BC228E
:1047F000002A08D0D0F8C00251781378C268184651
:104800009047002010BD032010BD70B504468121E3
:10481000204600F0B6FB002525876587012120464C
:1048200000F0AFFBA4F87851A4F87A51D4F8BC0298
:1048300048B1D4F8C00280688047D4F8BC0200F0C8
:10484000C0FFC4F8BC52002070BD10B5D0F8BC4207
:10485000002C03D0E16C012902D00AE0032010BD36
:10486000D0F8C00223786178C268184690470020CB
:10487000E064002010BD00000A210180004870475C
:10488000C402002029210180004870473402002022
:104890002921018000487047600200202921018001
:1048A000004870478C0200202DE9F0410446542056
:1048B00000F088FF0546002635B3C4F8BC52217CC1
:1048C000052031B36087A4F87A01022303228121F5
:1048D000204600F070FC01272787022303220121D4
:1048E000204600F068FCA4F8787185F85060D4F890
:1048F000C0024068804740232A460121204600F03C
:1049000066FC0020BDE8F081C4F8BC620220BDE86E
:10491000F0816087A4F87A01D7E710B5D0F8BC22FF
:10492000002A05D04023012100F051FC002010BDD9
:10493000032010BD002903D0C0F8C012002070472A
:104940000320704710B51346D0F8BC22002A05D0CA
:1049500090F89CC2BCF1030F02D010E0032010BD00
:1049600092F850C0BCF1000F01D0012010BD4FF0F3
:10497000010C82F850C00A46812100F0D3FC0020CF
:1049800010BD000038B58446DCF8BC32002200259A
:10499000002000900024002B0BD0087810F060005D
:1049A00036D0202807D0604600F0B8F8032420460F
:1049B00038BD032038BD4878801E0A2823D2DFE89E
:1049C00000F0130822222222221A0F058878186488
:1049D000EDE7012203F14001604600F0C5F8E6E78B
:1049E0004888000A5864E2E7012203F14401604666
:1049F00000F0BAF8DBE70120D864CA88194660469F
:104A000000F098F8D3E7604600F088F80324CEE77A
:104A1000487806281CD003DC58B1012804D1C6E729
:104A20000A2830D00B283ED0604600F077F80324E7
:104A3000BDE79CF89C02032804D0604600F06EF8A5
:104A40000324B4E702226946604600F08DF8AEE721
:104A500048882223B3EB102F07D1CA88222A00D915
:104A60002222DCF8C002056808E02123B3EB102FF6
:104A700004D1134DCA88092A00D909222946604663
:104A800000F072F893E79CF89C02032804D060467B
:104A900000F044F803248AE7012203F1480160464C
:104AA00000F062F883E79CF89C02032804D060467B
:104AB00000F034F803247AE78878986477E70000F8
:104AC000B802002010B5D0F8B822002A01D05268F0
:104AD0009047002010BD90F89C22012A05D0022AA0
:104AE00003D0032A01D000F019B84988012904D164
:104AF0000021C0F8A41200F044B8704710B5134666
:104B00000A46002100F063FB002010BD10B51346DB
:104B10000A46002100F006FC002010BD10B5044636
:104B20008021204600F0E3FB2046BDE81040002134
:104B300000F0DDBB10B50323C0F89432C0F8582153
:104B4000C0F85C2113460A46002100F040FB00201B
:104B500010BD10B50521C0F8941200231A4619465D
:104B600000F035FB002010BD10B50223C0F89432D0
:104B70008261C26113460A46002100F0D3FB002087
:104B800010BD10B50421C0F8941200231A4619462E
:104B900000F0C8FB002010BDCA88012A01D0FFF731
:104BA000BDBF90F89C22012A05D0022A03D0032A17
:104BB00008D0FFF7B3BF00218160012200F1080196
:104BC000FFF7D2BF0122011DFFF7CEBF2DE9F84349
:104BD00004460F4600200090002600257888010A30
:104BE000082970D2DFE801F0AB040C22ABAB8B9A42
:104BF000D4F8B412207C0A68694690470646A3E0C0
:104C0000207C4FF0020840B1D4F8B802C16A68466F
:104C10008847064686F8018096E0D4F8B802816A93
:104C200068468847064686F801808DE0C0B20628AF
:104C30005FD2DFE800F0031221303F4FD4F8B40216
:104C4000426822B1207C6946904706467CE039469E
:104C50002046FFF763FF012576E0D4F8B4028268AE
:104C600022B1207C6946904706466DE039462046D1
:104C7000FFF754FF012567E0D4F8B402C26822B1FF
:104C8000207C6946904706465EE039462046FFF79D
:104C900045FF012558E0D4F8B402026922B1207C16
:104CA0006946904706464FE039462046FFF736FFF3
:104CB000012549E0D4F8B40242692AB1207C694652
:104CC0009047064640E03AE039462046FFF726FF87
:104CD000012539E0D4F8B402826922B1207C69460A
:104CE0009047064630E039462046FFF717FF01257A
:104CF0002AE039462046FFF711FF012524E0207CF9
:104D000028B139462046FFF709FF01251CE0D4F8F9
:104D1000B802416B68468847064615E0207C28B1FA
:104D200039462046FFF7FAFE01250DE0D4F8B80217
:104D3000016B6846884706460721717004E03946D2
:104D40002046FFF7EBFE0125002D0CD1FA8892B129
:104D5000BDF8000048B1824200D9024600923146B7
:104D60002046FFF701FFBDE8F88339462046FFF7EC
:104D7000D5FEBDE8F8832046FFF703FFBDE8F883C2
:104D800000210278002A05D0491CC9B2401C0278D3
:104D9000002AF9D10846704700F0A1B990F89C228A
:104DA000012A05D0022A03D0032A01D0FFF7B6BE9C
:104DB000CA88022A01D0FFF7B1BE0121C160D0F834
:104DC000A41209B10321C160022200F10C01FFF716
:104DD000CBBE70B50D46164600281BD004462046B3
:104DE000FFF7CEFF022101EB4000308030782870C1
:104DF000032068700222207800280BD00021207840
:104E0000A854641C501CC0B22954401CC2B2207863
:104E10000028F4D170BD01460020002906D00129E8
:104E200005D0022905D0032905D0032070470320AF
:104E300070470120704703207047000010B500281C
:104E400006D00A46054906A0FFF7C3FF034810BD78
:104E50000A46024902A0FFF7BCFFF7E7B84C002062
:104E6000437573746F6D2048494420436F6E6669C3
:104E70006700000012200880004870479001002061
:104E800010B5002806D00A46054906A0FFF7A1FF85
:104E9000034810BD0A46024902A0FFF79AFFF7E750
:104EA000B84C0020437573746F6D20484944204905
:104EB0006E746572666163650000000004200880FE
:104EC000004870478C01002010B50A46024903A033
:104ED000FFF77FFF004810BDB84C002053544D69C8
:104EE00063726F656C656374726F6E6963730000E3
:104EF00010B5002806D00A46054906A0FFF769FF4D
:104F0000034810BD0A46024902A0FFF762FFF7E717
:104F1000B84C002053544D333220437573746F6D79
:104F20002048756D616E20696E7465726661636597
:104F30000000000010B51A200880FBF7D3FF0148DD
:104F400010BD0000A401002000280FD00023C0F8ED
:104F5000B832C0F8C032C0F8CC3209B1C0F8B412CF
:104F6000012180F89C12027000F0BEB80320704747
:104F700010B5D0F8C402FCF7BBFEBDE81040FFF747
:104F80004ABF10B5D0F8C402FCF78CFEBDE8104053
:104F9000FFF741BF70B504461346002904D094F8CA
:104FA0009C0203284AD051E004F11400D4F8941272
:104FB0000025022938D18268C1688A420CD9521A68
:104FC000826019462046FFF7A1FD00231A461946C4
:104FD000204600F0FCF827E0914214D14068884256
:104FE00011D3D4F8981288420DD2002211462046DF
:104FF000FFF78CFDC4F8985200231A461946204644
:1050000000F0E5F810E094F89C02032805D1D4F8EC
:10501000B802C16809B1204688478021204600F0C7
:1050200066F92046FFF795FD94F8A00201280DD1FE
:10503000204600F0ABF984F8A05207E0D4F8B8029B
:1050400042691AB120469047002800D1002070BD67
:1050500010B5044608461146002804D094F89C1266
:10506000032922D02AE004F5AA70D4F89422032A56
:1050700024D18368C268934209D99A1A8260C068B1
:10508000824200D302462046FFF738FD16E094F82E
:105090009C02032805D1D4F8B802016909B1204661
:1050A00088472046FFF76DFD08E0D4F8B8128A69FA
:1050B00022B1014620469047002800D1002010BDB3
:1050C0000020704710B5012180F89C12D0F8B8225A
:1050D000002A02D0526801799047002010BDD0F814
:1050E000C402FCF733BE000010B50178012929D1B4
:1050F0001549C1F80404C0F8C41214480860062019
:1051000048600222CA60002008618A61C8610862A2
:105110004862C862086348630846FDF7EDF808B1C5
:10512000FBF7B2FE4FF400710748FCF77AFD8022CE
:1051300000210548FCF779FD4FF4BA7201210248BD
:10514000FCF773FD002010BD504F0020000004400C
:1051500011F0800F01F07F01D0F8C402C1EBC10152
:1051600000EB810002D090F83E00704790F8FE01FD
:10517000704710B5D0F8B822002A04D090F89C32BD
:10518000032B02D004E0032010BD126A02B1904745
:10519000002010BD10B5D0F8B822002A04D090F835
:1051A0009C32032B02D004E0032010BD526A02B1EE
:1051B0009047002010BD10B59C461346D0F8C4029D
:1051C0006246FCF7CCFDBDE81040FFF724BE10B5E9
:1051D000D0F8C402FCF7F3FDBDE81040FFF71BBE9A
:1051E00070B50446012584F89C520020C4F894024E
:1051F0006060C4F8A402D4F8B80200281CD0D4F827
:10520000BC1221B1426812B1002120469047002211
:10521000402311462046FFF7CEFFA4F864514026F4
:10522000C4F860614023002280212046FFF7C3FFBD
:10523000A5842662002070BD032070BD90F89C12EA
:10524000042903D190F89D1280F89C120020704729
:1052500010B5D0F8B812002904D090F89C22032A87
:1052600002D004E0032010BDC96901B188470020C5
:1052700010BD01740020704710B5D0F8C402FDF7CE
:1052800016F9BDE81040FFF7C6BD10B5044604F29C
:10529000AA2000F050F80120C4F89402B4F8B0023B
:1052A000C4F8980294F8AA1211F01F000AD001283D
:1052B0000FD0022814D02046BDE8104001F0800134
:1052C00000F015B804F2AA212046BDE8104000F015
:1052D0000BB904F2AA212046BDE8104000F03ABA0A
:1052E00004F2AA212046BDE8104000F03FB910B5F5
:1052F000D0F8C402FCF787FDBDE81040FFF78BBD76
:1053000010B5D0F8C402FDF7EDF8BDE81040FFF786
:1053100082BD90F89C1280F89D12042180F89C12A6
:105320000020704710B5D0F8C402FCF7A6FDBDE818
:105330001040FFF770BD0A780270491C0A7842706D
:10534000491C0A784B1C1B7842EA03224280891CC4
:105350000A784B1C1B7842EA032282808A78C9783B
:1053600042EA0121C180704738B504460020009010
:10537000002909D0C4F8B812C96A19B1684688472B
:10538000C4F8CC02002038BD032038BD002070478F
:1053900070B504468888002821D1C888F8B94888A3
:1053A00080281CD200F07F0594F89C0203280DD0C1
:1053B00084F89E5229462046FFF75EFF2046FFF7FD
:1053C000E0FB45B1022084F89C0270BD2046BDE898
:1053D0007040FFF7A3BB012084F89C0270BD2046FB
:1053E000BDE87040FFF79ABB03460320D3F8B8220C
:1053F000002A02D012681846104770472DE9F04184
:1054000004460E460025324FB1783970012906D97D
:1054100031462046FFF782FB0320BDE8F08194F877
:105420009C0202280DD0032823D031462046FFF7E6
:1054300075FB39782046FFF745FB03252846BDE874
:10544000F08191B161602046FFF7CEFF054628004C
:1054500004D031462046FFF761FBEFE72046FFF717
:1054600090FB032084F89C02E8E72046FFF789FBC5
:10547000E4E74FF00208C9B16068884224D0C1B2A5
:105480002046FFF71FFB397861602046FFF7ACFF2D
:105490000546280014D031462046FFF73FFB21790E
:1054A0002046FFF70FFB84F89C82C7E784F89C82B4
:1054B00061602046FFF706FB2046FFF762FBBDE771
:1054C0002046FFF75EFBB9E72046FFF75AFBB5E73A
:1054D000F80100204988012903D1C0F8A412FFF780
:1054E00050BB7047FFF70CBF10B503460024087887
:1054F00010F060020FD0202A06D0402A04D01846AF
:10550000FFF70CFB204610BDD3F8B802826818469E
:1055100090470446F6E748780A2823D2DFE800F0EF
:10552000161E221A22090522120D1846FFF74EFBFD
:10553000E8E71846FFF72CFFE4E71846FFF75EFFA1
:105540000446DFE71846FFF727FBDBE71846FFF7BF
:1055500025FCD7E71846FFF7BDFFD3E71846FFF74E
:10556000BAFACFE71846FFF7D9FACBE72DE9F041B1
:1055700004460D4600262979287810F0600012D0E4
:10558000202808D0402806D029462046FFF7C6FA32
:105590003046BDE8F081D4F8B8022946826820463A
:1055A00090470646F4E76878002860D001282FD09D
:1055B000032804D029462046FFF7B0FAE8E794F81C
:1055C0009C02022806D0032814D029462046FFF763
:1055D000A5FADDE749B1802907D02046FFF787FE0D
:1055E00080212046FFF783FED2E729462046FFF7B9
:1055F00095FACDE7688838B931B1802904D0E888B8
:1056000010B92046FFF773FE2046FFF7BAFABFE74E
:1056100094F89C02022806D0032814D0294620467C
:10562000FFF77CFAB4E749B1802907D02046FFF79D
:105630005EFE80212046FFF75AFEA9E72946204654
:10564000FFF76CFAA4E768880028A1D111F07F0F5A
:1056500002D02046FFF78CFC2046FFF792FAD4F8E0
:10566000B8022946826820469047064690E794F89B
:105670009C020027022806D0032826D0294620466F
:10568000FFF74CFA84E731B1802904D0294620463F
:10569000FFF744FA7CE711F0800F08D001F07F009B
:1056A00000EB800004EB800000F1140107E001F042
:1056B0007F0000EB800004EB800000F5AA710F6012
:1056C00002222046FFF750FA62E711F0800F0CD05B
:1056D00001F00F0000EB800004EB8000808C68B9C3
:1056E00029462046FFF71AFA52E701F00F0000EBB7
:1056F000800004EB8000B0F8640158B111F0800F15
:105700000DD001F07F0000EB800004EB800000F181
:1057100014050CE029462046FFF700FA38E701F0AF
:105720007F0000EB800004EB800000F5AA7541B11A
:10573000802906D02046FFF70BFD20B1012028600C
:1057400002E02F6000E02F60022229462046FFF78A
:105750000BFA1DE770B505460C460026207810F0C0
:10576000600209D0202A07D0402A05D021462846C9
:10577000FFF7D4F9304670BD95F89C22012A08D075
:10578000022A06D0032A04D021462846FFF7C6F98C
:10579000F0E7207901280FD8D5F8B80221468268B1
:1057A000284690470646E0880028E3D1002EE1D144
:1057B0002846FFF7E6F9DDE721462846FFF7AEF970
:1057C000D8E7704700487047F84E002070B50A7857
:1057D000012302F00F054E78AB401B4CD0F81C584B
:1057E000012E17D045EA0343C0F81C3800EB4210E5
:1057F000D0F8002B12040BD4D0F8002B0B89C978F9
:10580000C3F30A031A4344EA81410A43C0F8002B58
:10581000002070BD9BB21D43C0F81C5800EB421025
:10582000D0F800391B04F3D4D0F800390D89C978B9
:10583000C5F30A0589042B4341EA82510B432343F4
:10584000C0F80039E4E7000000800010D0F800192B
:105850006FF30A01C0F80019D0F8041841F4807100
:10586000C0F804180020704770B5044606980A9ED8
:10587000049D0D99012816D0E06840F04000E060DA
:10588000204600F02BF8A16B1EB321F48031A163F8
:10589000012D07D1A16841F00601A160A16841F086
:1058A0002001A16070BDA06B20F48030A063E0688F
:1058B000094A1040E060E06820F44010E0600129EF
:1058C00003D1E06840F48010E060204600F006F864
:1058D000DEE741F48031DAE7BFFFBDFF08B5002302
:1058E0000D4A00930099491C009191420CD801691E
:1058F0000029F7DA0093016941F001010161009983
:10590000491C0091914201D9032008BD0169C907D2
:10591000F5D1002008BD0000400D030070B54C78A3
:105920000A78012300EB4212012C2DD0D2F8004B53
:10593000002C0BDAD2F8004B44F00064C2F8004BA4
:10594000D2F8004B44F08044C2F8004BD0F83C48F9
:105950000D781E4605F00F05AB4024EA0343C0F85E
:105960003C38D0F81C48097801F00F0106FA01F321
:1059700024EA0341C0F81C18D2F8000B194908406A
:10598000C2F8000B002070BDD2F80049002C0BDAE1
:10599000D2F8004944F00064C2F80049D2F8004946
:1059A00044F08044C2F80049D0F83C480D7805F036
:1059B0000F061D46B3409BB29C43C0F83C48D0F84C
:1059C0001C48097801F00F0105FA01F399B28C43E4
:1059D000C0F81C48D2F8000903490840C2F8000981
:1059E000D0E700000078F3EF007833ECD0F8001E29
:1059F00021F00301C0F8001ED0F8041821F00201C4
:105A0000C0F8041800207047D0F8001E21F00301F0
:105A1000C0F8001ED0F8041841F00201C0F80418C4
:105A2000002070472DE9F04F0D46DDE90B1B0027E4
:105A30000446DDF824A0DDF8409038463E4604EBED
:105A40008002C2F80461401C0F28F8D3B9F1000F9E
:105A5000204615D0806B20F40012A263A06B40F4A6
:105A600000222046A263C4F8006ED4F80028C4F8CF
:105A70000028012916D0D0F8001841F0030116E0E3
:105A8000D0F8040840F00202C4F80428A06B40F4E7
:105A90000012A263A06B20F40022A263A06B20F48A
:105AA0008022DEE7D0F800180BB141F00101C0F808
:105AB0000018102100F092FA00B10127204600F0F2
:105AC00079FA00B10127C4F81068C4F81468C4F862
:105AD0001C6800204FF000634FF090424FF67F3C6F
