:020000040800F2
:10000000A84A002065030008A31F0008B91D0008C6
:10001000A11F0008B10700088923000800000000A4
:100020000000000000000000000000007102000855
:10003000C109000800000000CD020008CD22000820
:100040007F0300087F0300087F0300087F03000888
:100050007F0300087F0300087F0300087F03000878
:100060007F0300087F0300087F0300087F03000868
:100070007F0300087F0300087F0300087F03000858
:100080007F0300087F0300087F030008C107000802
:10009000B50700087F0300087F0300087F030008FE
:1000A0007F0300087F0300087F0300087F03000828
:1000B0007F0300087F0300087F0300087F03000818
:1000C0007F0300087F0300087F0300087F03000808
:1000D0007F0300087F0300087F0300087F030008F8
:1000E0007F0300087F0300087F0300087F030008E8
:1000F0007F0300087F0300087F0300087F030008D8
:100100007F0300087F0300087F0300087F030008C7
:100110007F0300087F0300087F0300087F030008B7
:100120007F0300087F0300087F0300087F030008A7
:100130007F0300087F0300087F030008D907000839
:10014000CD0700087F0300087F0300087F03000835
:100150007F0300087F0300087F0300087F03000877
:100160007F0300087F0300087F0300087F03000867
:100170007F0300087F0300087F03000800000000E1
:100180007F0300087F0300087F0300087F03000847
:100190007F0300087F0300087F0300087F03000837
:1001A00000000000000000007F03000800F002F8DB
:1001B00000F04EF80AA090E8000C82448344AAF1B3
:1001C0000107DA4501D100F043F8AFF2090EBAE8B1
:1001D0000F0013F0010F18BFFB1A43F0010318477B
:1001E000AC390000CC3900000A4410F8014B14F07F
:1001F0000F0508BF10F8015B240908BF10F8014B78
:100200006D1E05D010F8013B6D1E01F8013BF9D1C0
:10021000641E03D0641E01F8015BFBD19142E4D35C
:10022000704700000023002400250026103A28BF54
:1002300078C1FBD8520728BF30C148BF0B60704758
:100240001FB503F05CFC00F03AF91FBD10B510BDFE
:1002500000F09EF91146FFF7F3FF02F04EFB00F0AD
:10026000BCF903B4FFF7F2FF03BC00F0BFF90000D4
:100270002C4B19680868B0E8F04F80F30988BFF389
:100280006F8F4FF0000080F311887047000000006E
:1002900008480068006880F308884FF0000080F389
:1002A000148862B661B6BFF34F8FBFF36F8F00DF64
:1002B00000BF00BF08ED00E0DFF80C00016841F46A
:1002C00070010160704700BF88ED00E0EFF3098026
:1002D000BFF36F8F134B1A681EF0100F08BF20ED8D
:1002E000108A20E9F04F106009B44FF0500080F3FD
:1002F0001188BFF34F8FBFF36F8F03F07DF84FF07E
:10030000000080F3118809BC19680868B0E8F04F54
:100310001EF0100F08BFB0EC108A80F30988BFF3FD
:100320006F8F7047C4000020EFF305807047000016
:100330000B49D1F800C04A685CF8043B10681844C7
:1003400042F8040B8C4528BFA1F1DC0C8A4228BF7F
:10035000A1F1DC02C1F800C04A6020F00040704703
:100360003C4400200948804709480047FEE7FEE773
:10037000FEE7FEE7FEE7FEE7FEE7FEE7FEE7FEE755
:1003800004480549054A064B7047000079230008D8
:10039000AD010008A8440020A84A0020A84600207B
:1003A000A846002053EA020C00F069802DE9F04BCA
:1003B0004FF00006002B1FBFB3FA83F503FA05F4D4
:1003C00024FA05F65E4012BF1643B2FA82F502FA2D
:1003D00005F4C5F120051EBF22FA05FC44EA0C0411
:1003E000203556EA044C4FEA144418BF641C4FF001
:1003F00000084FF00009904271EB030C39D300293B
:1004000019BFB1FA81F701FA07F6B0FA80F700FADE
:1004100007F6C7F120071EBF20FA07FC46EA0C06C4
:100420002037B6FBF4FCA7EB0507103F07F01F0BC6
:10043000CBF120060CFA0BFB2CFA06F644BFB346B0
:100440000026202FA4BF5E464FF0000B5BEA060C8F
:1004500008BF4FF0010B19EB0B09ABFB027C48EB1B
:100460000608C01B06FB02CC0BFB03CC71EB0C0196
:10047000C1E70B46024641464846BDE8F08B13B53E
:100480004FF000004FF00001AFF30080BDE81C40CA
:10049000704700000B4910B5A1F17C020A4CC2E97B
:1004A0003712372106E000EB104342F82130074BAA
:1004B00000FB03400B1EA1F10101F4DC10BD012083
:1004C000E8E70000DC430020E119D666CD0D01000D
:1004D00010B5203AC0F00B80B1E81850203AA0E8DF
:1004E0001850B1E81850A0E81850BFF4F5AF5FEA13
:1004F000027C24BFB1E81850A0E8185044BF18C9C6
:1005000018C0BDE810405FEA827C24BF51F8043B6C
:1005100040F8043B08BF7047D20728BF31F8023BC0
:1005200048BF11F8012B28BF20F8023B48BF00F854
:10053000012B70474FF0000200B5134694469646D3
:10054000203922BFA0E80C50A0E80C50B1F12001E6
:10055000BFF4F7AF090728BFA0E80C5048BF0CC094
:100560005DF804EB890028BF40F8042B08BF7047F2
:1005700048BF20F8022B11F0804F18BF00F8012B64
:1005800070477047704770470048704744440020E8
:100590007546FFF7F9FFAE4605006946534620F061
:1005A0000700854618B020B5FFF7EAFEBDE82040F9
:1005B0004FF000064FF000074FF000084FF0000B1F
:1005C00021F00701AC46ACE8C009ACE8C009ACE8D2
:1005D000C009ACE8C0098D46704710B50446AFF3BA
:1005E00000802046BDE81040FFF73BBE01491820BF
:1005F000ABBEFEE72600020070470000164B10B5A8
:1006000019205871154800240068A0F2011005282F
:1006100008D2DFE800F003080E141A00104801F0B9
:1006200095FF1C7010BD0E48083001F08FFF5C7004
:1006300010BD0B48103001F089FF9C7010BD0848B8
:10064000183001F083FFDC7010BD0548203001F048
:100650007DFF1C7110BD0000A8000020FC050020DB
:100660000302002070B5394C394E2089401C80B2FD
:100670000525B0FBF5F1208105FB110058B9D6E93D
:100680000C01C4E90C010823012204F1300140F2FD
:10069000013000F05FF82089B0FBF5F105FB110097
:1006A00001280DD1D6F837002063D6F83B00274942
:1006B000606308230122303140F2023000F04AF832
:1006C0002089B0FBF5F105FB110002280DD1D6F809
:1006D0003E002063D6F842001C49606308230122D3
:1006E000303140F2033000F035F82089B0FBF5F1ED
:1006F00005FB110003280DD1D6F845002063D6F87C
:100700004900124960630823012230314FF44170DF
:1007100000F020F82089B0FBF5F105FB110004285A
:100720000BD1D6E91301C4E90C01084908230122C1
:10073000303140F2053000F00DF8208947F2305199
:10074000884201D30020208170BD000000000020FD
:10075000B001002030B589B0002402940090CDE9AA
:10076000034308788DF8180048788DF819008878C8
:100770008DF81A00C8788DF81B0008798DF81C00D8
:1007800048798DF81D0088798DF81E00C8798DF89C
:100790001F00012A06D108AB6946044806AA00F0EA
:1007A00024F9054609B0284630BD00009804002011
:1007B000FEE70000014800F078BA0000980400202D
:1007C000014800F072BA000098040020014800F0CF
:1007D0006CBA0000C0040020014800F066BA0000B6
:1007E000C004002070B50E4C15460646216000215D
:1007F0006160A160C4E903130123214600F0F5F80C
:1008000060B102232A462146304600F0EEF828B1B6
:1008100004232A462146304600F0E7F8002070BD48
:10082000800400209FED092A9FED091ADFED092AB7
:10083000F0EE423AB0EE413ADFED071ADFED070A7B
:100840009FED070A074802F0E9B9000000007A4668
:100850000000000000803B4600007A459A99993ECE
:1008600066661641180600200D4810B5B0F9520012
:100870009FED0C1B00EE100A0C48B8EEC00A01F008
:1008800091FB0B4800231A4680ED000ABDEEC00A1A
:10089000BDE8104010EE100A194600B201F0FEBC8F
:1008A000A405002000000000005089401806002028
:1008B000300100203E4DDFF8F090DFF8F0A03D4C15
:1008C00001272DED028BB7EE008A4FF0000B05F1EA
:1008D000230620782871E872A874687685F82000CD
:1008E000EF7094ED040A30EE080A10EE100A84ED61
:1008F000040A484503DD9FED300A84ED040A10EE3A
:10090000100A50450BDA85F803B085F80AB085F86F
:1009100011B085F818B085F81FB002F0F3FBF0783D
:10092000012800D1AF72F07A012800D16F74F07CF9
:10093000012800D12F76F07E012800D1EF77E078F2
:1009400006EBC000C17841B3217906EBC101CA783A
:100950001AB3627906EBC202D378F3B1A37906EB3E
:10096000C30393F803C0BCF1000F16D094F807C07E
:1009700006EBCC0C9CF80380B8F1000F0DD09FED76
:100980000F0A84ED040A8CF803B083F803B082F8F0
:1009900003B081F803B080F803B0FFF763FE1420C2
:1009A00002F006F995E7000000409C460000FA437B
:1009B000E0010020000000200000FA4300000000D9
:1009C000704772B6FEE790F82020012A07D0022A6D
:1009D00005D0416A41F480214162012070470068DE
:1009E00042690A43426100207047F0B590F82050F8
:1009F0000468A468012D05D0022D03D0416A41F49A
:100A000080214DE014F0406F01D1E50045D5C4F3DD
:100A100001640125A5401D608D684FF4C0739DB130
:100A2000CE6835434E6845EAC605066803EB0417F1
:100A3000F5514FF4C275076805EB04150E697E5138
:100A4000097D012905D009E00E88CD6845EA4655A3
:100A5000EBE701684E5946F480764E511179D2F891
:100A600005504FF4C67641EA0521056806EB0416E9
:100A7000A9511178D2F801204FF4C47541EA02213E
:100A8000026805EB04155151006803EB041142584C
:100A900042F0010242500020F0BD416A41F40011D1
:100AA00041620120F0BD000010B590F82020012A1D
:100AB00007D0022A05D0416A41F480214162012019
:100AC00010BD3B48D0F8002242F00102C0F80022DD
:100AD000D0F8002222F47C52C0F80022D0F8002284
:100AE0004B6A42EA0322C0F800220A7D02F01F038B
:100AF00001229A40D0F81C329343C0F81C32CB69D3
:100B0000B3B9D0F80C329343C0F80C328C894B68DF
:100B100064F31F434C6900EBC404C4F840320C89F1
:100B20000B6864F31F434C6900EBC404C4F84432FF
:100B3000CB69012B16D1D0F80C321343C0F80C321C
:100B40000C884B6864F31F434C6900EBC404C4F881
:100B500040320C89CB6864F31F434C6900EBC4043A
:100B6000C4F844328B69002BD0F804320ED0134302
:100B7000C0F804320B69002BD0F8143208D01343AC
:100B8000C0F81432096A012904D008E09343EFE762
:100B90009343F5E7D0F81C121143C0F81C12D0F8AB
:100BA000001221F00101C0F80012002010BD000069
:100BB00000640040704770B590F82040012C05D0CB
:100BC000022C03D0416A41F4802128E0046809B373
:100BD0002469A40720D04FF4D874056804EB0114ED
:100BE0002D5915F00405956005682D591AD0ED08AA
:100BF000556005682C5904F00204D4604FF4DA748F
:100C0000056804EB01142E5906F00F06082E0CD3CC
:100C100008250DE0E468DCE7416A41F40011416217
:100C2000012070BD6D0D1560E3E72D5905F00F052E
:100C3000156105682D59C5F30725956105682C597F
:100C4000240C54614FF4DC72046802EB0112A458C6
:100C50001C700468A458240A5C700468A458240C0E
:100C60009C700468A258120EDA704FF4DE720468A9
:100C700002EB0112A4581C710468A458240A5C7188
:100C80000468A458240C9C710468A258120EDA71EE
:100C9000006829B1016941F020010161002070BDA7
:100CA000C16841F02001C160F8E72DE9F05F054619
:100CB000006800244669D0F804908768D0F80CB02A
:100CC000D0F810A0D0F81880F10748D0F90714D058
:100CD00001218160B80703D5284600F06EFA0CE0C8
:100CE000780702D54FF4006407E0380702D54FF4C7
:100CF000805402E0284600F05FFAF80516D529680E
:100D00004FF480708860B80503D5284600F057FA84
:100D10000CE0780502D544F4005407E0380502D50C
:100D200044F4804402E0284600F048FAF80316D55F
:100D300029684FF480308860B80303D5284600F056
:100D400040FA0CE0780302D544F4004407E038038D
:100D500002D544F4803402E0284600F031FA30072E
:100D600007D55FEACB6004D52968102044F40074ED
:100D7000C86070074FF0080707D55FEA0B7004D50D
:100D80002868C760284600F0A9F9B00706D528688A
:100D9000C068800702D0284600F0A2F9700607D587
:100DA0005FEACA6004D52968102044F480640861B1
:100DB000B00607D55FEA0A7004D52868076128469F
:100DC00000F0CAF9F00606D528680069800702D04D
:100DD000284600F0C2F9B00308D55FEAC96005D51E
:100DE000296810204860284600F0B8F9F00307D5BC
:100DF0005FEA097004D528684760284600F0E2F9E8
:100E0000300446D55FEA497040D5F00504D55FEA65
:100E1000C87001D044F00104B00504D55FEA8870C1
:100E200001D544F00204700504D55FEA487001D58D
:100E300044F00404300529D518F0700F26D008F0CE
:100E40007000402815D006DC102809D020280AD0D0
:100E5000302816D10AE050280ED0602811D10EE0BB
:100E600044F008040DE044F010040AE044F02004CB
:100E700007E044F0400404E044F0800401E044F45E
:100E800080742868816921F07001816129680420DB
:100E90004860002C05D0686A204368622846FFF746
:100EA00089FEBDE8F09F70B5040003D094F82000DF
:100EB00010B104E0012070BD204600F081F82068E8
:100EC000016841F00101016000F0B0FA0546052615
:100ED00004E000F0ABFA401B0A2811D820684068F3
:100EE000C007F6D02068016821F00201016000F01F
:100EF0009DFA05460BE000F099FA401B0A2806D936
:100F0000606A40F40030606284F82060D2E72068B4
:100F100040688007EFD4207E0128206801683DD01A
:100F200021F080010160607E01282068016838D0CE
:100F300021F040010160A07E01282068016833D0C3
:100F400021F020010160E07E0128206801682ED098
:100F500041F010010160207F01282068016829D03C
:100F600021F008010160607F01282068016824D019
:100F700021F004010160D4E902010843D4E904121C
:100F8000114308436168491E08432168C861002075
:100F90006062012084F82000002070BD41F08001D3
:100FA000C0E741F04001C5E741F02001CAE721F068
:100FB0001001CFE741F00801D4E741F00401D9E77F
:100FC000F0B587B0044614216846FFF7B3FA3E4BEC
:100FD0003E48DFF8F0E01968D4F800C03B4A03252A
:100FE0000226092710300024491CF4452AD1196033
:100FF000012907D1016841F000710160006800F02B
:1010000000700590106840F0080010601068CDE98D
:10101000005600F00800CDE9047069462C48CDE97F
:10102000024500F0E3F800220521132000F070FAD9
:10103000132000F05FFA00220521142000F068FA66
:1010400014203BE0DFF88CE0F44539D1D0F800C043
:101050004CF0806CC0F800C0D0F800C001290CF042
:10106000806CCDF814C0196007D1016841F000719F
:101070000160006800F000700590106840F0020008
:101080001060106802AB00F0020005904FF4405071
:10109000CDE9000683E8B00069460F4800F0A6F8E5
:1010A000002205213F2000F033FA3F2000F022FA11
:1010B00000220521402000F02BFA402000F01AFA0F
:1010C00007B0F0BD0064004040000020303802400E
:1010D000000C02400068004000040240704700001D
:1010E00070B5044600681649164D884212D1164B59
:1010F0002A4600211548FFF75EFD2868A0F500701C
:10110000013803D1A5F1580001F0A0F90E49A868F3
:10111000FFF774FA0E492068884210D10A4B094A39
:1011200000210C48FFF747FD2868A0F50070013842
:1011300005D1BDE870400348583801F087B970BD4B
:1011400000640040FC050020AF000020980400204F
:1011500000680040C00400207047704770470000DE
:1011600070B5044690F82000012804D0606A40F46D
:101170000020606218E0022084F8200020680168E6
:1011800021F00101016000F051F905460EE000BFB9
:1011900000F04CF9401B0A2808D9606A40F400307E
:1011A0006062052084F82000012070BD206840683E
:1011B000C007EDD1606270BD7047704770477047DF
:1011C000704770477047000070B5044600F02EF974
:1011D0000546601C02D004480078044400F026F95B
:1011E000401BA042FAD370BDB80000202DE9F84F93
:1011F000DFF8F8A10022012403254FF00F090AF1BE
:10120000040BAAF1040E00BF0B6804FA02F6334087
:10121000B34270D10F7907F00307012F01D0022FDD
:1012200016D187684FEA420805FA08FC27EA0C073E
:10123000D1F80CC00CFA08FC4CEA070CC0F808C046
:101240004768B7430E79C6F3001696403E434660A2
:101250000E79F643B6070AD0C7684FEA420C05FA82
:101260000CF6B7438E6806FA0CF63E43C6600E795C
:1012700006F00306022E10D1D60800EB8608D8F837
:10128000206057074FEAD76C09FA0CF7BE430F6985
:1012900007FA0CF73743C8F8207006684FEA420C8B
:1012A00005FA0CF7BE430F7907F0030707FA0CF7AE
:1012B000374307604E6816F4403F1CD04C4E3768E9
:1012C00047F480473760366822F0030706F480460B
:1012D0000096484E07EB060CDCF8086897073F0FAE
:1012E00009FA07F826EA0806DFF80C81404503D121
:1012F0004FF0000841E072E0DFF80081404502D184
:101300004FF0010839E0DFF8F880404502D14FF096
:10131000020832E0DFF8EC80404502D14FF00308CC
:101320002BE0DFF8E480404502D14FF0040824E0D0
:10133000DFF8D880404502D14FF005081DE0DFF806
:10134000D080404502D14FF0060816E0DFF8C48097
:10135000404502D14FF007080FE0DFF8BC80404560
:1013600002D14FF0080808E0DFF8B080404502D114
:101370004FF0090801E04FF00A0808FA07F848EAB8
:101380000608CCF80888DAF800605746D1F804C09F
:101390009E435FEACC2C00D51E433E60DBF8006024
:1013A0005F46D1F804C09E435FEA8C2C00D51E43F3
:1013B0003E60DEF800607746D1F804C09E435FEAE5
:1013C0008C3C00D51E433E60084F083F3E68D1F874
:1013D00004C09E435FEACC3C00D51E433E60521CD5
:1013E000102AFFF411AFBDE8F88F0000083C01405F
:1013F0004438024000300140000002400004024036
:1014000000080240000C024000100240001402409C
:1014100000180240001C024000200240002402404C
:101420000AB1816170470904FBE700000148806848
:1014300070470000B800002002488168027811441B
:1014400081607047B80000200B4810B5016841F476
:1014500000710160016841F480610160016841F43C
:1014600080710160032000F073F80F2000F006F88F
:1014700000F024F8002010BD003C024070B50D4D76
:1014800004464FF47A712878B1FBF0F00A490968F4
:10149000B1FBF0F000F07CFC48B9102C07D2002220
:1014A0002146501E00F034F800206C6070BD012011
:1014B00070BD0000B8000020440000200C4882B03D
:1014C000016841F480410160006800F480400090B0
:1014D0000748001F016841F0805101600068002248
:1014E00000F0805000900F21901E02B000F010B864
:1014F00044380240002809DB00F01F02012191401E
:101500004009800000F1E020C0F8001170470000A1
:10151000F0B40E4B1B680C46C3F30223C3F107055E
:10152000042D00D90425191D072901D2002300E04C
:10153000DB1E012606FA05F1491E214099409E4016
:10154000761E16403143F0BC00F01FBF0CED00E0EA
:10155000064900F0070208684FF6FF03184040EA0A
:101560000220034A10430860704700000CED00E0C1
:101570000000FA052DE9F0470E46050065D0DFF8BA
:101580001481D8F80000F7B200F00F00B04207D283
:1015900088F80070D8F8000000F00F00B04254D175
:1015A00028683D4C810712D5400703D5206840F4D8
:1015B000E05020602878000703D5206840F46040A0
:1015C00020602068A96820F0F00008432060287897
:1015D000C0072DD0304968680839012812D0022888
:1015E00013D0032811D00968890700292DDA216852
:1015F00021F0030101432160FFF718FF814641F20A
:10160000883A0EE009688903EFE709688901ECE789
:10161000FFF70CFFA0EB0901514502D90320BDE8FB
:10162000F0872068696800F00C00B0EB810FEFD103
:10163000D8F80010404601F00F01B14207D90770F9
:10164000006800F00F00B04201D00120E7E72878E1
:10165000400705D52068E96820F4E0500843206081
:101660002878000706D52068296920F4604040EA00
:10167000C100206000F018F82168084AC1F3031186
:10168000515CC8400649086006480068FFF7F6FE4E
:101690000020C4E7003C0240083802404C3B0008F0
:1016A00044000020BC000020154810B5006810F070
:1016B0000C02144813D01449042A0FD0082A0ED162
:1016C0000F4C241F2268236802F03F025B0207D5FB
:1016D0002068C0F38810A0FB010106E0084610BD99
:1016E0002168C1F38811A1FB00010023FEF75AFE17
:1016F0002168C1F30141491C4900B0FBF1F010BD64
:10170000083802400024F400001BB7002DE9F84F10
:1017100004006ED02078DFF84C93C007A9F10405CF
:101720004AD009F104000168C1F38101012908D000
:101730000068C0F3810002280AD1D9F800004002F5
:1017400006D52868800337D560680028E1D033E0EB
:101750006068B0F5803F10D0B0F5A02F286810D099
:1017600020F480302860286820F480202860606899
:10177000A8B1FFF75BFE06460DE0286840F4803014
:10178000F4E740F480202860F7E700BFFFF74EFE43
:10179000801B642873D828688003F7D50CE0FFF716
:1017A00045FE064605E000BFFFF740FE801B6428AB
:1017B000F0D828688003F7D42078DFF8AC8280075F
:1017C0004FF0000A3ED5A748001D016811F00C0F2C
:1017D00008D00068C0F3810002280BD1D9F80000BE
:1017E000400207D42868800716D5E068012800D198
:1017F00012E033E1E068B8B10120C8F80000FFF75B
:1018000015FE064605E000BFFFF710FE801B02280C
:10181000C0D828688007F7D52868216920F0F8002B
:1018200040EAC10028600DE0C8F800A0FFF7FEFD07
:10183000064604E0FFF7FAFD801B02281FD828683F
:101840008007F7D42078000722D5864F8748616942
:10185000703771B101210160FFF7E8FD064604E031
:10186000FFF7E4FD801B022809D838688007F7D508
:101870000EE0C0F800A0FFF7D9FD064605E082E0C3
:10188000FFF7D4FD801B02287DD838688007F7D485
:101890002078400768D5DFF8CCB100270BF13C0B6E
:1018A000DBF80000C0000BD4DBF8001041F08051E1
:1018B000CBF80010DBF80000012700F0805000900A
:1018C0006B4E3068C00510D4306840F480703060D2
:1018D000FFF7ACFD009005E0FFF7A8FD0099401A66
:1018E000022850D83068C005F6D55E4EA0686C3628
:1018F00001280FD00528306810D020F0010030609A
:10190000306820F004003060A068B8B1FFF78EFDA9
:1019100000900FE0306840F00100F4E740F0040070
:101920003060F7E7FFF782FD0099411A41F28830F5
:10193000814266D830688007F4D50EE0FFF776FD67
:10194000009007E0FFF772FD0099411A41F28830DC
:10195000814256D830688007F4D42FB1DBF80010EC
:1019600021F08051CBF80010A069C8B33D49091D92
:101970000968C1F3810102294AD00228504607D0E4
:10198000C8F8600000E03CE0FFF750FD04463BE093
:101990004746C8F86000FFF749FD064605E000BF6E
:1019A000FFF744FD801B02282BD828688001F7D45C
:1019B000D4E907010843A16A2E4A490802EB014114
:1019C000626A41EA8211084394F82C1040EA0161EE
:1019D000C9F8001001203866FFF728FD044606E02C
:1019E0003EE000BFFFF722FD001B022809D828684F
:1019F0008001F7D534E000BFFFF718FD001B022877
:101A000002D90320BDE8F88F28688001F4D427E0CC
:101A10000128F7D0D9F80000E26900F48001914272
:101A20001CD1226A00F03F01914217D147F6C071E4
:101A3000626A0140B1EB821F10D1A26A4FF0FF33FE
:101A400000F4403103EB5202B1EB024F06D194F89F
:101A50002C1000F07060B0EB016F01D00120D1E7D5
:101A60000020CFE70438024000004742800E474282
:101A7000007000400000FFFF70B5040009D0606AEC
:101A8000002540B125616561A56294F8510040B11F
:101A90000CE0012070BD6068B0F5827FF4D0E56194
:101AA000F2E784F85050204600F044F8022084F811
:101AB00051002068016821F040010160A08821895F
:101AC00000F4827001F404410843A18901F400612B
:101AD0000843217C01F002010843217D01F001014E
:101AE0000843218B01F400710843217F01F0380184
:101AF000084394F8201001F080010843218D01F47F
:101B00000051084321680860A069042101EA1040DF
:101B100094F8241001F010010843216848602068FF
:101B2000C16921F40061C1616565012084F851003B
:101B3000002070BD10B586B0044614216846FEF73B
:101B4000F9FC14492068884221D113480021026819
:101B500042F480120260006800F4801005900E4884
:101B60001438026842F020020260006800F0200091
:101B700005904FF4607000900220CDE90101032030
:101B800003900520049069460448FFF72FFB06B038
:101B900010BD0000005001404438024000140240D3
:101BA0002DE9FF4F81B01D46934604464FF00109D1
:101BB0000E9EFFF73BFC074694F851006168012830
:101BC00006D0B1F5827F3CD1A168C9BB042838D1C9
:101BD0000298002871D0BBF1000FFBD0002DF9D086
:101BE00094F8500001282CD04FF0010A84F850A03E
:101BF00094F85100042802D0052084F851004FF0D9
:101C00000008C4F85480C4F838B0E587A587029965
:101C10002163E586A586C4F84080C4F84480206826
:101C20000168490603D4016841F040010160E068A1
:101C3000B0F5006F606808D0F0B3012D49D081E0A5
:101C4000FFE7022005B0BDE8F08F08B1012D39D1C2
:101C5000206B21680088C860206B801C2063E08EA8
:101C6000401EE0862EE02068816889070FD5E18E4E
:101C700069B1B9F1010F0AD1216B0988C160206BEC
:101C8000801C2063E08E401EE0864FF00009206833
:101C90008168C9070CD0E18F51B1C068A16B088081
:101CA000A06B801CA063E08F401EE0874FF001090D
:101CB000FFF7BCFBC01B01E00BE067E0B04201D3C3
:101CC000701C50D1E08E0028CDD1E08F0028CAD101
:101CD0003EE0206B216800780873206B401C206375
:101CE000E08E401EE0862DE02068816889070FD5D0
:101CF000E18E69B1B9F1010F0AD1216B0978017345
:101D0000206B401C2063E08E401EE0864FF00009EF
:101D100020688168C9070CD0E18F51B1C068A16B00
:101D20000870A06B401CA063E08F401EE0874FF05E
:101D30000109FFF77BFBC01BB04202D3701C01D02E
:101D400011E086B1E08E0028CED1E08F0028CBD103
:101D50003A463146204600F00DFA50B12020606529
:101D600084F8508012E084F851A084F85080032059
:101D700068E7A06818B92068C1688068009084F896
:101D800051A084F85080606D0028F1D0012059E7FF
:101D900010B5401EB0F1807F01D3012010BD4FF07F
:101DA000E02460610F21601700F0EFFA0020A061CD
:101DB00007202061002010BDFEE700000122402125
:101DC0000148FFF72DBB0000001402400022402113
:101DD0000148FFF725BB000000140240104810B571
:101DE0000E4901600321416000214FF4002281600F
:101DF000C0E903124FF4401242610176012242769B
:101E00008276C17601774177FFF74DF8002803D03D
:101E1000BDE81040FEF7D5BD10BD000000640040D5
:101E200098040020104810B50E490160032141605C
:101E300000214FF400228160C0E903124FF44012E8
:101E400042610176012242768276C176017741773E
:101E5000FFF729F8002803D0BDE81040FEF7B1BD18
:101E600010BD000000680040C004002010B58EB016
:101E70001C220B496846FEF72BFB0021684600F048
:101E8000A3FE084C06491C2220601C3107A8FEF75F
:101E90001FFB002107A800F097FE60600EB010BD88
:101EA000143B000838000020F0B587B014216846C4
:101EB000FEF740FB25480024016841F00101016064
:101EC000016801F001010591016841F0080101601C
:101ED000016801F008010591016841F0800101608D
:101EE000016801F080010591016841F02001016065
:101EF000016801F020010591016841F002010160D3
:101F00000068134E00F002000590012214213046B3
:101F1000FFF786FA0F4F002240213846FFF780FA7C
:101F200014200125CDE900050220CDE902406946D3
:101F30003046FFF75BF940200090CDE90154694637
:101F400038460394FFF752F907B0F0BD303802402D
:101F5000001C024000140240104810B50E490160F8
:101F60004FF482714160002102228160C0E90312B6
:101F700001224261520282613022C0E9072141629E
:101F800081620A21C162FFF777FD002803D0BDE816
:101F90001040FEF716BD10BD00500140E8040020BF
:101FA000FEE7FEE710B504462DED028BB0EE408A49
:101FB00051EC110B01F018FC00EE100A84ED140A2C
:101FC00030EE480A84ED158A84ED100AD4ED130A28
:101FD00070EE800AC4ED130AD4ED090A20EE800ADF
:101FE00084ED0D0A10EE100A01F018FD94ED001BAF
:101FF00053EC112B01F0DCFC06D294ED000B51ECFC
:10200000100B01F0F1FB606394ED000B51EC100B31
:1020100001F0DEFB41EC180B606B01F0FFFC53ECB0
:10202000182B01F035FC0BD294ED000B51EC100B8A
:1020300001F0DAFB00EE100AB1EE400A84ED0D0A61
:1020400094ED0A0AD4ED130A20EE200A84ED0E0A5C
:1020500010EE100A01F0E2FC94ED021B53EC112B80
:1020600001F0A6FC06D294ED020B51EC100B01F02E
:10207000BBFBA06394ED020B51EC100B01F0A8FB2D
:1020800041EC180BA06B01F0C9FC53EC182B01F0CC
:10209000FFFB0BD294ED020B51EC100B01F0A4FBF3
:1020A00000EE100AB1EE400A84ED0E0A94ED100A1B
:1020B000D4ED110A30EE600AD4ED0B0A20EE200AAE
:1020C00084ED0F0A10EE100A01F0A8FC94ED041B39
:1020D00053EC112B01F06CFC06D294ED040B51EC87
:1020E000100B01F081FBE06394ED040B51EC100B3D
:1020F00001F06EFB41EC180BE06B01F08FFC53EC30
:10210000182B01F0C5FB0BD294ED040B51EC100B16
:1021100001F06AFB00EE100AB1EE400A84ED0F0AEE
:1021200094ED0D0AD4ED0E0A30EE200AD4ED0F0A1C
:1021300070EE200AC4ED0C0A94ED080AF4EEC00A11
:10214000F1EE10FA01DD84ED0C0AD4ED0C0AB1EECB
:10215000400AF4EEC00AF1EE10FA01D284ED0C0A46
:1021600094ED100A84ED110A94ED0C0ABDEC028B7B
:1021700010BD0000F8B515460E460B460092044609
:102180000122022100F02CF8A0B91348134900687D
:10219000B0FBF1F04FF47A71484300906068B0F5FD
:1021A000827F0DD13346002280212046009500F029
:1021B00017F870B1606D40F0200060650320F8BD35
:1021C000009830B1401E009020688068C04300062F
:1021D000F6D50020F8BD00004400002000366E0156
:1021E0002DE9F8431E46914688460446089DFFF7B0
:1021F0001DF9401B351AFFF719F9074626480068F4
:10220000C0F3CB3068430AE0701C09D0FFF70EF929
:10221000C01BA8420FD275B10098B8B3401E009001
:102220002068816838EA010033D000214945EBD1AC
:102230000020BDE8F8832068416821F0E00141609A
:102240006068B0F5827F0BD1A068B0F5004F02D076
:10225000B0F5806F04D12068016821F04001016071
:10226000A06AB0F5005F09D12068016821F400512F
:1022700001602068016841F400510160012084F888
:102280005100002084F850000320D2E7FFE700252A
:10229000C6E70121CAE70000440000201CB5010A7E
:1022A0008DF800108DF8010008236A469901024854
:1022B000FEF798FA1CBD000098040020FEF7B2FA61
:1022C000FEF7D2FA012000F073FCF9E710B5FFF732
:1022D000B3F801F0A7F9012803D0BDE8104001F0E0
:1022E00033B910BD30B593B030216846FEF722F9FE
:1022F00014210CA8FEF71EF91D480025016841F0C5
:1023000080510160006800F0805011901948016808
:1023100041F4404101600068022400F44040119003
:1023200001200090000401908001CDE906400620C4
:102330000890A820CDE9090404200B906846FFF717
:10234000E5F908B172B6FEE70CA90F2081E831006B
:102350004FF4A0500F904FF48050109005210CA81E
:10236000FFF708F9002801D072B6FEE713B030BDC0
:1023700040380240007000400248016841F470019A
:102380000160704788ED00E0FEE70907090E0028AC
:1023900004DB00F1E02080F80014704700F00F002B
:1023A00000F1E02080F8141D70472DED020B01981C
:1023B00020F0004001909DED000B02B0704700003E
:1023C00010B500F017F80848FEF7CAFE0748FEF7F8
:1023D000C7FE02210448FEF7F6FABDE810400221CC
:1023E0000248FEF7F0BA000098040020C004002064
:1023F000FFF7E6BF00B58BB000200121CDE9060153
:102400000891009001900290039005900490694615
:102410000C48FEF749FB0B48FEF7A2FE02210948D3
:10242000FEF7D1FA0E200990059069460648FEF79E
:102430003BFB0548FEF794FE02210348FEF7C3FA72
:102440000BB000BD98040020C004002070B500212E
:1024500003680A4643603A4B1C8864BA0460046807
:102460004568641BC460C46814F5805F06DA846B39
:10247000641C8463C46804F500540BE0C468B4F5BC
:10248000805F06DD846B641E8463C468A4F5005419
:1024900000E0C468C4610468856B04EB4534846063
:1024A00004688569DFED270A641B00EE104A846B1F
:1024B000B8EEC00A60EE200A4FF4B4756C4300EE2B
:1024C000104A9FED211AB8EEC00A00EE810A80ED95
:1024D000110AC569047D00EB8406641C047535622D
:1024E000047D062C01D10024047500EB8104246ACC
:1024F000491C22440629F8DB062192FBF1F1C16355
:10250000016C00EE101AC16BB8EEC00AF0EEC00A02
:1025100000EE101AB8EEC00AB0EEC00AF4EEC00A1F
:10252000F1EE10FA01D2C16B0164598849BAA0F8E2
:102530005210998849BA20F84C1F9979017270BDE0
:10254000AF0000200000B4430000003908490A78B9
:1025500002704A7842708A788270CA78C2700A79AA
:1025600002714A7942718A798271C979C171704761
:10257000AF00002010B562482DED068BB0F90610B3
:10258000B0F908009FED5F8B9FED60AA604C0029B9
:102590005ADADFED609A9FED609A002822DA91FB0B
:1025A000F0F001F05EF941EC100BFFF7FEFE53EC8A
:1025B000182B51EC100B01F0FBF906D884ED01AAA1
:1025C000C4ED029A9FED550A26E09FED550A84ED71
:1025D000010AC4ED029A9FED530A84ED030A9FEDB0
:1025E000520A2EE01CDD91FBF0F001F03AF941ECCB
:1025F000100BFFF7DAFE53EC182B51EC100B01F027
:10260000D7F910D89FED490A84ED010A9FED480AD9
:1026100084ED020A9FED470A84ED030A84ED049AD3
:10262000BDEC068B10BD9FED440A84ED010A9FEDC1
:10263000430A84ED020A9FED420A84ED030A9FEDEE
:10264000410A84ED040AEBE7EADD00289FED3E9A9B
:102650002ADD91FBF0F001F004F941EC100BFFF7DB
:10266000A4FE53EC182B51EC100B01F0A1F90ED87D
:102670009FED360A84ED010A9FED350A84ED020ACA
:102680009FED340A84ED030A84ED04AAC8E79FEDA8
:10269000320A84ED010A9FED310A84ED020A84EDCD
:1026A000039A9FED2F0ACCE7BADA91FBF0F001F024
:1026B000D8F841EC100BFFF778FE53EC182B51ECD7
:1026C000100B01F075F90CD89FED260A84ED010A74
:1026D0009FED250A84ED020A84ED039A9FED230AFB
:1026E000AFE79FED230A84ED010A9FED220A84EDF6
:1026F000020A9FED210A84ED030A9FED200AA0E75C
:1027000040050020000000000000F03F14AE473EEE
:10271000480000208FC275BCBE9F7A3F04E78C3B07
:102720007B140E3FA69BC43B5839543FCBA145BEFA
:10273000BC7413BCA69BC4BBDF4F0DBF52499DBBED
:102740007F6A3CBC14D0543F70CE88BCFA7E7ABFFE
:102750006F12033C0AD7A3BCC8987BBF6F12033B20
:102760005B420E3FBE9F7ABFED0D3E3C14AE47BEAE
:10277000E17A54BF4260653CA69B44BC04560EBF40
:1027800010B530216A2000F0F1F90A20FEF71CFD97
:102790000D21242000F0EAF90A20FEF715FD0E2194
:1027A000282000F0E3F90A20FEF70EFD8E213120EB
:1027B00000F0DCF90A20FEF707FD01210B2000F0F4
:1027C0007BF80A20FEF700FD002000F059F81028E1
:1027D00001D0012010BD01210B2000F06DF80A206E
:1027E000FEF7F2FC00210A2000F066F80A2000F053
:1027F00047F808B1022010BD0A20FEF7E5FC0021D1
:102800000B2000F059F80B2000F03AF808B1032033
:1028100010BD0A20FEF7D8FC2421412000F04CF81E
:10282000412000F02DF8242801D0042010BD0A20FA
:10283000FEF7CAFCC021422000F03EF8422000F022
:102840001FF8C02801D0052010BD0A20FEF7BCFCEF
:1028500000212A2000F08AF90A20FEF7B5FC0021A9
:10286000342000F083F90A20FEF7AEFC0622032193
:102870000E2000F091F86420FEF7A6FC002010BDA9
:1028800010B50146322000F071F90A20FEF79CFCD9
:102890008021342000F06AF90A20FEF795FC3520EB
:1028A00000F014F904460021342000F05FF90A20FA
:1028B000FEF78AFC204610BD70B50D460446002187
:1028C0002A2000F053F90220FEF77EFC2146292041
:1028D00000F04CF90220FEF777FC2946642000F056
:1028E00045F90220FEF770FC81212A2000F03EF914
:1028F000BDE870400A20FEF767BCFEF7A5FDFFF7B4
:10290000F1FCFFF7D1FAFFF727FBFFF767FAFFF7B4
:1029100089FA00F00FF8FFF72DFEFFF769FDFFF7CA
:10292000A5FA00F04CF9FEE701460020842900D00A
:10293000C81C704730B585B06420FEF745FC752093
:1029400000F0C4F812490024142288701149684626
:10295000FDF7BEFD4FEA0D0505EB4400417815F883
:10296000140000F003F90120FEF72EFC641CE4B211
:102970000A2CF1D3032000F0F4F8022000F0ECF868
:10298000FFF7FEFE00F050F805B0002030BD00005B
:10299000480000205C3B000870B50E460446014626
:1029A0001546282000F0E2F80220FEF70DFC0A216F
:1029B000292000F0DBF80220FEF706FC012164204C
:1029C00000F0D4F80220FEF7FFFB44F08001252040
:1029D00000F0CCF80220FEF7F7FB3146262000F08D
:1029E000C5F80220FEF7F0FB0321342000F0BEF80A
:1029F0000220FEF7E9FB0321672000F0B7F8022070
:102A0000FEF7E2FB81212A2000F0B0F80620FEF755
:102A1000DBFB45F08001272000F0A8F8BDE87040FE
:102A20000220FEF7D1BB00002DE9F041264E002721
:102A300006F10E044FF496750E2223493B2000F058
:102A400065F83188A08A49BA0844A0827188E08A72
:102A500049BA0844E082B188208B49BA08442083EF
:102A60003189608B49BA084460837189A08B49BA67
:102A70000844A083B189E08B49BA0844E08305206B
:102A8000FEF7A2FB7F1CAF42D6DBB4F9140090FB2B
:102A9000F5F0A082B4F9160090FBF5F0E082B4F9ED
:102AA000180090FBF5F02083B4F91A0090FBF5F0C4
:102AB00000B2608390FBF5F0A083B4F91E0090FB98
:102AC000F5F0E083BDE8F0817405002038B50446D8
:102AD000FFF77CF944F080000A4C3725621C207017
:102AE0000123511E08480095FFF75AF8621C012384
:102AF000511E05480095FFF753F8FFF75FF960781E
:102B000038BD000048000020E8040020F8B5144655
:102B10000D460646FFF75AF90D4946F08000372664
:102B200008705231A1F1510208700123523909484D
:102B30000096FFF735F8064923462A4652310548E4
:102B40000096FFF72DF8FFF739F90020F8BD0000D7
:102B500048000020E8040020C006010E1C2000F000
:102B600005B8C006010E1B20AFF30080F8B50D4676
:102B70000446FFF72BF904F07F000B4C3726621C4C
:102B800020700123511E09480096FFF709F82570AF
:102B9000621C0123511E05480096FFF701F8FFF75C
:102BA0000DF90020F8BD000048000020E8040020D6
:102BB00010B500B9012000F0BBFB002010BD10B51E
:102BC00000F0DCFB002010BD7FB50D4604464169D6
:102BD000B0F9080081B1A16971B1FFF7A5FED4E990
:102BE00005128DE80700D4E900102B46226900F099
:102BF000EEFC039004B070BDFFF796FE03A9CDE98B
:102C00000001208A2B4682B2D4E9001000F0B2FC09
:102C1000012801D00020EDE70398EBE710B504464A
:102C20002DED068BB0EE438AF0EE628AF0EE619AEB
:102C3000C0ED083AB0EE419AB0EE60AAF0EE40AABC
:102C400012EE100A00F0EAFEC4E9000118EE900A44
:102C500000F0E4FEC4E9020118EE100A00F0DEFE06
:102C6000C4E9040119EE900A00F0D8FEC4E9060197
:102C7000C4ED09AA84ED0AAA9FED0C0A84ED0B9A13
:102C800084ED0C0A84ED0D0A84ED0E0A84ED0F0A22
:102C900084ED100A84ED110A84ED120A84ED140A01
:102CA00084ED150ABDEC068B10BD0000000000008D
:102CB0002DE9F041184C0F460546E6682068001DD6
:102CC00000F06EFA38B9206890F82C100120884086
:102CD000216981432161681C07D137B12168BDE8B2
:102CE000F0410E48091D00F09FBA20683544B542F6
:102CF0004560216805D2A06BBDE8F041091D00F0D8
:102D00007BBA606B091D00F077FAA06A854200D299
:102D1000A562BDE8F0810000C40000204C0700203F
:102D20002DE9F041054600F08BFA2E4CA068401CBE
:102D3000A06020682C4F10B1606940B32DE0256081
:102D4000A068012829D1002606EB860007EB800049
:102D500000F044FA761C072EF6D323488C3000F09E
:102D60003DFA2148A03000F039FA1F48B43000F095
:102D700035FA1D48C83000F031FA1B48DC3000F04D
:102D80002DFA19488C3060631430A06305E0206888
:102D9000E96AC06A884200D82560606A401C6062A7
:102DA000E96A0120226988401043206101EB81001B
:102DB00007EB8000291D00F037FA00F061FA606926
:102DC00000280CD02068E96AC06A884207D2074907
:102DD0004FF080500860BFF34F8FBFF36F8FBDE897
:102DE000F0810000C40000207006002004ED00E027
:102DF00010B5044690F8510058B101280CD00228B3
:102E00000FD0502080F31188BFF34F8FBFF36F8F27
:102E1000FEE7206B00F048FA2046BDE8104000F0C5
:102E200043BA10BD10484FF47051420706D0C01D80
:102E30000D4920F00700411AC1F570510B4A0023DB
:102E40000144C2E900030839183A21F00701116072
:102E50004B600B600B1AC0E9001393604FF0004009
:102E60005360506170470000600700201801002087
:102E7000144E154CA6F1C8074FF08058DFF84C905F
:102E800012E000BF00F0DCF9F068C568281D00F012
:102E900087F9A068401EA0606068401E606000F076
:102EA000EFF92846FFF7A4FF60680028EAD13868E8
:102EB0000128F9D9C9F80080BFF34F8FBFF36F8F96
:102EC000F2E7000038070020C400002004ED00E015
:102ED0002DE9F0479A46DDE9098481466FF0030346
:102EE000206B03EB82021044089E20F0070778074E
:102EF00007D0502080F31188BFF34F8FBFF36F8F3F
:102F0000FEE7002561B1002023180A5C83F8342015
:102F10000A5C12B1401C1028F6D384F8435001E03B
:102F200084F83450072E00D30626E662C4E9116502
:102F3000201D00F05EF904F1180000F05AF9246138
:102F4000C6F107006462A061E56484F850505246FF
:102F50004946384600F0C0F82060B8F1000F01D0B3
:102F6000C8F80040BDE8F08730B5114900E01146CF
:102F70000A688242FBD34B685C18844203D14068E4
:102F800018444860084643681C18944209D1084C0C
:102F9000183C2468A24209D052681A4442600A6868
:102FA00012680260814200D0086030BD0460F9E719
:102FB000180100200648416B096829B1416BC968B6
:102FC000C9684968816270474FF0FF31FAE7000035
:102FD000C400002008484068401C4FF0500080F3B7
:102FE000118804D0BFF34F8FBFF36F8FFEE7BFF39D
:102FF0004F8FBFF36F8FFEE7200100202DE9F041D6
:103000000546002700F0F0F9324E306808B9FFF7A6
:1030100009FF706905424ED1C5B3083568070ED067
:1030200005F00700C0F108000544680707D05020EC
:1030300080F31188BFF34F8FBFF36F8FFEE72DB37F
:103040007068854237D82348183001460C6801E083
:1030500020460C466168A94202D221680029F7D1B6
:1030600031688C4227D007682168016060680837A2
:10307000411B10290FD96019420708D0502080F356
:103080001188BFF34F8FBFF36F8FFEE713E04160EE
:103090006560FFF769FF61687068401A7060B26828
:1030A000904200D2B060706901430020C4E9000181
:1030B000F068401CF06000F029FB780707D0502032
:1030C00080F31188BFF34F8FBFF36F8FFEE7384651
:1030D000BDE8F0810001002010B5031F4FF080749F
:1030E0001C601B1F21F001011960191F044B0B60AC
:1030F00014390A60091F6FF0020244380A6010BDDB
:10310000D52F000870B5FDF713F9052590FBF5F1F3
:10311000224C05FB1100E070FDF70AF990FBF5F178
:1031200005FB11002071E178C0B28842F4D000BFE5
:10313000FDF7FEF890FBF5F105FB11006071C1B2DF
:10314000E0788142F4D020798142F1D0FDF7F0F8A7
:1031500090FBF5F105FB1100A071E178C0B2884247
:10316000F4D021798842F1D061798842EED000BF55
:10317000FDF7DEF890FBF5F105FB1100E071E17859
:10318000C0B28842F4D021798842F1D06179884276
:10319000EED0A1798842EBD070BD00000000002085
:1031A000D0E9013201699A60D0E901235A604A6886
:1031B000824201D182684A60002202610868401E92
:1031C0000860086870470000034B036003F1540077
:1031D00008608020106070472C02002000F1080178
:1031E0004FF0FF32C0E90112C160016100210160AE
:1031F000704700210161704730B50B685A1C02D03E
:1032000000F1080202E0026904E0224654682568E1
:103210009D42FAD953684B6099608A605160086199
:103220000168491C016030BD42684A6093688B6048
:1032300093685960916008610168491C016070479A
:10324000502080F31188BFF34F8FBFF36F8F0A496F
:103250004868401C486001280CD10848006810F0FC
:10326000FF0F07D0502080F31188BFF34F8FBFF3BB
:103270006F8FFEE7704700002001002004ED00E0A2
:103280000849486828B1401E486001D180F3118880
:103290007047502080F31188BFF34F8FBFF36F8FBB
:1032A000FEE700002001002070B500282AD0164D4E
:1032B000A0F1080460686969084207D1502080F3D2
:1032C0001188BFF34F8FBFF36F8FFEE722683AB1CB
:1032D000502080F31188BFF34F8FBFF36F8FFEE74D
:1032E0008843606000F080F860686968084468603E
:1032F0002046FFF739FE2869401C2861BDE8704070
:1033000000F004BA70BD0000000100204FF0E02082
:1033100000210161816105494FF47A720968B1FBAE
:10332000F2F1491E4161072101617047440000200C
:1033300010B5020014D00F48006B38B1502080F354
:103340001188BFF34F8FBFF36F8FFEE700F04CF88B
:1033500000211046FFF7ACFC00F0D8F9002807D197
:1033600005494FF080500860BFF34F8FBFF36F8F58
:1033700010BD0000C400002004ED00E010B586B0D0
:103380000024039405AA04A903A80494FFF71CFFD2
:10339000DDE903010094CDE9011000230EA11048DE
:1033A000059A00F014F90F490028C86211D0502086
:1033B00080F31188BFF34F8FBFF36F8F4FF0FF3053
:1033C000886201204861CC6006B0BDE8104000F082
:1033D00041B806B010BD000049444C450000000053
:1033E000712E0008C40000200248016B491C0163D3
:1033F00070470000C40000201448016B11B1012186
:10340000C16170470021C1610169B1FA81F1C1F167
:103410001F0101EB81020E4951F822306BB101EB23
:10342000820101F108034A6852684A609A4201D158
:1034300052684A60D16801607047502080F311885B
:10344000BFF34F8FBFF36F8FFEE70000C400002073
:10345000700600201CB537480168374A914207D1F1
:10346000502080F31188BFF34F8FBFF36F8FFEE7BB
:1034700000683149491E884207D1502080F31188E5
:10348000BFF34F8FBFF36F8FFEE72C490878019091
:10349000FF20087008788DF800009DF800009DF866
:1034A000002000F0F000904207D0502080F31188F7
:1034B000BFF34F8FBFF36F8FFEE79DF80000204CE6
:1034C00000F0500020700720A06005E09DF800206B
:1034D00052008DF80020401E9DF800201206F5D401
:1034E000A060032807D0502080F31188BFF34F8FCE
:1034F000BFF36F8FFEE74FF44070A0600198087033
:103500000C482030016841F470010160016841F00D
:1035100070410160FFF7FAFE00206060FCF7CCFE0E
:103520000848016841F040410160FCF7B1FE00200D
:103530001CBD000000ED00E071C20F4100E400E09E
:103540002001002034EF00E010B5502080F31188F6
:10355000BFF34F8FBFF36F8F00F072F818B10449BB
:103560004FF080500860002080F3118810BD0000EB
:1035700004ED00E02DE9FF5F8346DDE90E87994603
:1035800016468A469000FFF739FD05001CD05420EE
:10359000FFF734FD040014D00020256384F85100A7
:1035A000CDE90240CDE900874B46324651465846A8
:1035B000FFF78EFC2046FFF7B3FB012004B0BDE807
:1035C000F09F2846FFF770FE4FF0FF30F6E7F0B5AA
:1035D00085B0DDE90B640A9DA6B1DCB154270097E4
:1035E0002663022684F85160002604AFCDE9024626
:1035F000CDE90057FFF76CFC2046FFF791FB0498DC
:1036000005B0F0BD502080F31188BFF34F8FBFF39A
:103610006F8FFEE7502080F31188BFF34F8FBFF309
:103620006F8FFEE70548416919B1006B18B10020A2
:10363000704701207047022070470000C40000203E
:103640002DE9F0412F4C0026206B28B1A069401CC9
:10365000A0613046BDE8F081E5686D1CE56013D1DE
:10366000606B006838B1502080F31188BFF34F8F32
:10367000BFF36F8FFEE7606BA16B6163A063206A8D
:10368000401C2062FFF796FCA06ADFF87C80854230
:1036900009D3606B0068A0B1606BC068C7687868C8
:1036A000854211D2A0622068C06A00EB800158F800
:1036B0002100012800D90126E0690028C9D001268F
:1036C000C7E74FF0FF30EDE7381DFFF769FDB86A37
:1036D00018B107F11800FFF763FDF96A01202269AC
:1036E00088401043206101EB810108EB8100391D06
:1036F000FFF79AFDF86A2168C96A8842C9D3012692
:10370000C7E70000C4000020700600202DE9F04744
:103710002C4D00242746286B38B1FFF791FD286B0C
:10372000401E2863286B40B146E0502080F311888A
:10373000BFF34F8FBFF36F8FFEE7A968224E0120C2
:10374000D1B3A6F1B40980463068E8B1F068C46826
:1037500004F11800FFF724FD201DFFF721FDE06AAA
:103760002A6908FA00F11143296100EB800109EB95
:103770008100211DFFF758FDE06A2968C96A884267
:10378000E2D3C5F81C80DFE70CB1FFF713FCAC698E
:1037900044B14646FFF754FF00B1EE61641EF9D113
:1037A0000020A861E86938B1084901273807086096
:1037B000BFF34F8FBFF36F8FFFF762FD3846BDE851
:1037C000F0870000C40000202407002004ED00E082
:1037D00081F00041704780F00040704721F00041C7
:1037E000704720F00040704721F00042A2F1605283
:1037F000B2F5801F01F0004328BFD2F17F6C0BD9D6
:103800005FEA001C43EAC20242EB507018BF7047E7
:1038100028BF20F001007047B2F5801FBCBF1846DA
:1038200070474FEA410C1CF5001F02D2084600F019
:103830006BB970B500F068F800000089FFF7F6BFBB
:103840004FF00040A0F580007047491058BFC1F10B
:1038500040415B1058BFC3F140438B42EFF30080FF
:10386000704710F0004248BF4042B0FA80F310FAAF
:1038700003F10AD0C3F11D0303F580634FEA415001
:1038800002EB035202EBD12170474FF0000070476A
:1038900051EA030C17D41CF5801F58BFBCF5801FDC
:1038A00000F10680994218BF704708BF90427047E8
:1038B00007D711F5801F58BF13F5801F19D49942FF
:1038C0007047894270471CF5801F08D5BCF5801FE2
:1038D000F7D58B4218BF704708BF824270474FF43C
:1038E000001C1CEB410F38BF1CEB430F01D28B4275
:1038F000704770B500F008F8922449004FF000516D
:103900004FF08053FFF7A1BF0EF1020E2EF0030E11
:103910005EF8046B364205D4012A43EB030515F526
:10392000001F12D8012841EB010C1CF5001F0CD818
:103930000ED14FEAD17C15F5001F0CEB4C0C0CF1AD
:10394000020C08BF4CEBD37C04E04FF0080C01E004
:103950004FEAD37C0CEB4C0526FA05F606F0070679
:10396000B6F1040C06D20EEB860CBDE870404CF0AC
:10397000010C6047DFE80CF0090B02024FF0004138
:103980004FF00000A1F5002170BD19461046012836
:1039900051EB010418BFD4F5001484BF002001F0DE
:1039A000004170BD0808A0F500114FEA31017047D1
:1039B00053EA010C17D41CF5801F58BFBCF5801FBB
:1039C00000F106808B4218BF704708BF82427047E3
:1039D00007D713F5801F58BF11F5801F19D48B42EC
:1039E00070479B4270471CF5801F08D5BCF5801FAF
:1039F000F7D5994218BF704708BF904270474FF4FF
:103A0000001C1CEB430F38BF1CEB410F01D2994245
:103A100070470FB40CBC03BCFFF76BBF43004FEA09
:103A2000D30C4FEA3C0C43401FBF40070CF16051E0
:103A300013F0FE4F70471CF0006F03D100200CF014
:103A4000004170470CF0004343EA507010B540EA63
:103A5000CC0000F00EF800BF000000924FEA000119
:103A6000FFF7A0BF4FF000414FF00000A1F500218B
:103A700070470EF1020E2EF0030E5EF8044B244246
:103A800004D44FEA4102B2F17F4F11D84FEA40030C
:103A9000B3F17F4F0CD80ED14FEAD07CB2F17F4FFB
:103AA0000CEB4C0C0CF1020C08BF4CEBD17C04E08D
:103AB0004FF0080C01E04FEAD17C0CEB4C0324FAE8
:103AC00003F404F00704B4F1040C06D20EEB840CEA
:103AD000BDE810404CF0010C6047DFE80CF007082F
:103AE00002024FF00040A0F5800010BD08464200E1
:103AF00018BFD2F1807288BF00F0004010BD4FF0B7
:103B00004070E1EE100A7047FF2141EAD050C00535
:103B100070470000703B0008BD220008FDFF000058
:103B20000000000080000000000000000000000015
:103B3000803B0008B5080008FDFF00000000000001
:103B400080000000000000000000000000000000F5
:103B50000000000001020304060708096B806B03E4
:103B60006C001A041B181C101D026A2000000000C3
:103B7000436861737369735F5461736B0000000085
:103B8000646174615F747261696E0000AC3B00082F
:103B9000000000202C010000E8010008C83B0008DC
:103BA0002C0100207C49000024020008E10436803A
:103BB0004A448324F4034B803F021EFF4201026803
:083BC0001055AAAAAAAA0000F0
:04000005080001AD41
:00000001FF
