:020000040800F2
:100000008007002081020008DB1C00087B17000825
:10001000D91C00087F0500080F220008000000001E
:10002000000000000000000000000000F31F0008B6
:100030008105000800000000DD1C0008F51F000815
:100040009B0200089B0200089B0200089B0200081C
:100050009B0200089B0200089B0200089B0200080C
:100060009B0200089B0200089B0200089B020008FC
:100070009B0200089B0200089B0200089B020008EC
:100080009B020008000000009B0200089B02000881
:100090009B0200089B0200089B0200089B020008CC
:1000A0009B020008892000087D2000089B020008B0
:1000B000952000089B0200089B0200089B02000894
:1000C0009B0200089B0200089B0200089B0200089C
:1000D0009B0200089B0200089B0200089B0200088C
:1000E0009B0200089B0200089B0200089B0200087C
:1000F0009B0200089B0200089B0200080000000011
:10010000000000009B020008000000009B020008A5
:100110009B020008000000009B0200089B020008F0
:100120009B0200089B0200089B0200089B0200083B
:100130009B02000800000000000000009B02000875
:100140009B0200089B020008000000000000000065
:10015000000000000000000000000000000000009F
:100160000000000000000000000000009B020008EA
:100170009B020008000000000000000000000000DA
:10018000000000009B0200080000000000000000CA
:10019000000000000000000000000000000000005F
:1001A00000000000000000009B0200089B02000805
:1001B0009B0200089B0200089B0200080000000050
:1001C000000000009B02000800000000000000008A
:1001D0009B0200089B02000800F002F800F041F8C2
:1001E0000AA090E8000C82448344AAF10107DA4592
:1001F00001D100F036F8AFF2090EBAE80F0013F0A3
:10020000010F18BFFB1A43F001031847E03200004A
:1002100000330000103A24BF78C878C1FAD85207DA
:1002200024BF30C830C144BF04680C607047000070
:100230000023002400250026103A28BF78C1FBD8EF
:10024000520728BF30C148BF0B607047642900F0D7
:100250007F80002070471FB502F052F81FBD10B517
:1002600010BD00F052F91146FFF7F5FF02F020F83B
:1002700000F070F903B4FFF7F2FF03BC00F078F967
:100280000948804709480047FEE7FEE7FEE7FEE72A
:10029000FEE7FEE7FEE7FEE7FEE7FEE70448054966
:1002A000054A064B7047000061200008D90100088C
:1002B00080010020800700208003002080030020B0
:1002C0000FB41CB5074B06AA7B44694600900598FD
:1002D00000F003F90020694600F012F91CBC5DF83B
:1002E00014FB0000350200002DE9F0410E460446E3
:1002F000002020622046E168884730B3252805D0D9
:10030000D4E901219047206A401CF2E7E1682046C9
:1003100000278847050018D0A5F14100192802D808
:1003200020354FF400673246294620462760FFF704
:100330008DFF40B1012804D0F61D26F007060836CF
:10034000D8E7361DD6E72846DAE7206ABDE8F0810F
:100350002DE9F0410646002410687529314616A59E
:1003600010D0AFF30080002802DA404213A507E066
:1003700031688A0701D512A502E0490704D511A505
:10038000012401E0AFF3008000210A2206F12407D6
:1003900009E0B0FBF2FCB0FBF2F302FB1C003030D2
:1003A00078541846491C0028F3D123462A46304683
:1003B000BDE8F04100F032B8000000002D00000060
:1003C0002B000000200000004FF0000200B5134693
:1003D00094469646203922BFA0E80C50A0E80C5065
:1003E000B1F12001BFF4F7AF090728BFA0E80C5016
:1003F00048BF0CC05DF804EB890028BF40F8042B0F
:1004000008BF704748BF20F8022B11F0804F18BF7B
:1004100000F8012B70477047704770472DE9F0478F
:100420000D4699469246044600F124080168880664
:1004300004D5E06921F01001216000E00120A8420C
:1004400001DD471B00E00027A1697A1902EB0900D2
:10045000081AA0612078C00602D42046AFF30080BD
:10046000002608E0D4E901211AF806009047206A26
:10047000401C761C20624E45F4DB2078C0060AD56D
:100480002046AFF3008006E0D4E9012130209047F8
:10049000206A401C2062381EA7F10107F4DC07E047
:1004A000D4E9012118F805009047206A401C206219
:1004B000281EA5F10105F3DC2046AFF3008020786B
:1004C000000602D50220BDE8F0870120FBE700000E
:1004D00001694A1C02610878704700B58FB0CDE908
:1004E00001310021059105497944CDE903101146F8
:1004F0006846FFF7F9FE0FB000BD0000E5FFFFFF03
:100500000A6802F8010B0A607047754600F02CF883
:10051000AE4605006946534620F00700854618B0F0
:1005200020B5FFF7BBFEBDE820404FF000064FF0BE
:1005300000074FF000084FF0000B21F00701AC4618
:10054000ACE8C009ACE8C009ACE8C009ACE8C00937
:100550008D46704710B50446AFF300802046BDE8D5
:100560001040FFF787BE00000048704720010020C0
:1005700001491820ABBEFEE7260002007047FEE7E7
:100580007047002240F6B83306E00021491C89B2CA
:100590009942FBD3521C92B28242F6D3704772B694
:1005A000FEE7000070B5044600F0F2F80546601C56
:1005B00002D004484068044400F0EAF8401BA0421E
:1005C000FAD370BD000000202DE9FC4FDFF8A0A198
:1005D000002301250AF1040B03244FF00F0C0BF14B
:1005E000040EBDE005FA03F632406FD04F68012FCC
:1005F00005D0022F03D0112F01D0122F17D1D0F820
:1006000008905F0004FA07F829EA08090097D1F872
:100610000C8008FA07F848EA0908C0F8088047681B
:10062000B7430E79C6F300169E403E434660C66847
:100630004FEA430804FA08F7BE4301978F6807FAA8
:1006400008F73743C7604E68022E01D0122E13D12F
:10065000DE0800EB86060096366A5F07FF0E0CFA8E
:1006600007F926EA0906D1F8109009FA07F949EACC
:100670000609009EC6F820900668019FBE430F79C8
:1006800007F0030707FA08F7374307604E68F600DC
:1006900065D5384E376E47F001073766366E23F062
:1006A000030706F001060096334E3E44B146B66895
:1006B0009F074FEA17780CFA08F7BE43B0F1904F46
:1006C00005D02E4FB84204D1012717E047E000279C
:1006D00014E02B4FB84201D102270FE0294FB84256
:1006E00001D103270AE0284FB84201D1042705E0D1
:1006F000264FB84201D1052700E0062707FA08F780
:100700003743C9F80870DAF800605746D1F804801A
:1007100096435FEAC83800D516433E60DBF80060B8
:100720005F46D1F8048096435FEA883800D51643C7
:100730003E60DEF800607746D1F8048096435FEAB9
:10074000C82800D516433E60094F0C373E68D1F8E3
:10075000048096435FEA882800D516433E605B1C00
:100760000A6832FA03F67FF43DAFBDE8FC8F000063
:100770000004014000100240000001400004004855
:1007800000080048000C0048001000480014004811
:10079000014880687047000000000020024881681E
:1007A00042681144816070470000002010B50024A9
:1007B000032000F073F80F2000F008F808B10124BE
:1007C00001E000F025F8204610BD000070B50E4E87
:1007D00005460024706898B14FF47A71B1FBF0F0CF
:1007E0000A490968B1FBF0F000F0FCFB40B9102D9C
:1007F00006D200222946501E00F030F8356000E095
:100800000124204670BD0000000000200C000020E4
:100810000A4882B0016E41F001010166016E01F0EB
:1008200001010091816D41F080518165806D00F082
:100830008050009002B000F0A1B80000001002400B
:10084000002809DB00F01F020121914040098000CF
:1008500000F1E020C0F8001170470000F0B40E4B2A
:100860001B680C46C3F30223C3F10705042D00D90E
:100870000425191D072901D2002300E0DB1E0126F3
:1008800006FA05F1491E214099409E40761E164009
:100890003143F0BC01F0BCBC0CED00E0064900F0B7
:1008A000070208684FF6FF03184040EA0220034A97
:1008B00010430860704700000CED00E00000FA05EE
:1008C0002B492C4B0A6832214A432B4940B1B0F5E1
:1008D000007F086829D020F4C06040F480602CE0DC
:1008E0000868C0F34120022804D051F8800F20F49A
:1008F000807022E0D1F8800020F48070C1F8800080
:10090000086820F4C06040F400700860B2FBF3F0A7
:10091000401C00E0401E4A69520501D50028F9D16B
:10092000486940050AD503207047C0F341200228DA
:1009300006D051F8800F40F48070086000207047A6
:10094000D1F8800040F48070C1F88000086820F47D
:10095000C06040F400700860B2FBF3F0401C00E09F
:10096000401E4A695205DBD50028F9D1D8E70000BE
:100970000C00002040420F000070004002488168D7
:1009800041F4804181607047007000402DE9F047DC
:100990000E4605004FF0000725D0DFF8AC81D8F8EF
:1009A000000000F00F00B0420CD2D8F8001021F087
:1009B0000F013143C8F80010D8F8000000F00F0014
:1009C000B04210D12968614CC80741F2883A5AD028
:1009D0006868DFF87C91032808D0022820682DD0B1
:1009E000400500282CDB0120BDE8F087206880014D
:1009F000F9D5E06800F00302E068C0F30310401C82
:100A0000032A19D0534A00BFB2FBF0F0E268C2F3E8
:100A100006225043E268C2F34162521C5200B0FB0E
:100A2000F2F0484517D9A06810F0F00F0CD08807F5
:100A300011D5A86840B10EE0474AE5E78003D0E74A
:100A400000F092F8484506D9A06820F0F00040F088
:100A50008000A0608027A068696820F00300084338
:100A6000A060FFF795FE814606E000BFFFF790FE0D
:100A7000A0EB090151453AD8A068696800F00C0064
:100A8000B0EB810FF2D12868810714D5400703D558
:100A9000A06840F4E060A0602878000705D5A06851
:100AA00020F4605040F4E060A060A068A96820F0E5
:100AB000F000084304E0802F03D1A06820F0F0008C
:100AC000A060D8F80010404601F00F01B14216D9DD
:100AD000016821F00F0131430160FFF759FE07461D
:100AE00007E000BFFFF754FEC11B514501D90320A9
:100AF0007AE7D8F8000000F00F00B042F2D1287871
:100B0000400705D5A068E96820F4E0600843A060CC
:100B10002878000706D5A068296920F4605040EACB
:100B2000C100A06000F020F8A1680C4AC1F30311D5
:100B3000515C01F01F01C84009490860094800687C
:100B4000BDE8F047FFF742BE00200240001002401F
:100B500000B4C4040024F40000366E010A23000827
:100B60000C00002000000020184910B58868C0F370
:100B700081021748012A0BD08A68164BC2F3810202
:100B8000022A06D08A68C2F38102032A03D0002019
:100B900010BD184610BDCA6802F00304CA68C2F34B
:100BA0000312521C032C02D0B0FBF2F001E0B3FBA5
:100BB000F2F0CA68C968C2F306225043C1F341612A
:100BC000491C4900B0FBF1F010BD000000100240CC
:100BD0000024F40000366E012DE9F84304007AD0B9
:100BE0002078FA4DC00747D0A868E96800F00C00EB
:100BF00001F003010C2802D0082817D001E00329D6
:100C000014D06068B0F5803F17D0B0F5A02F2868E9
:100C100017D020F480302860286820F480202860D5
:100C20006068E0B1FFF7B4FD064614E02868800371
:100C300022D560680028D2D01EE0286840F48030B9
:100C4000EDE740F480202860F7E700BFFFF7A0FD44
:100C5000801B642870D828688003F7D50CE0FFF764
:100C600097FD064605E000BFFFF792FD801B642854
:100C7000F0D828688003F7D4207880074CD5A8687E
:100C8000E96800F00C0001F003010C2802D00428F0
:100C90000DD001E002290AD0E068002828682BD096
:100CA00040F480702860FFF773FD064619E028685D
:100CB000400502D5E068002891D06868217C20F0CA
:100CC000FE4040EA01606860C1480068FFF77EFDB1
:100CD000002800D120E076E1FFF75AFD801B0228B2
:100CE000B8D828684005F7D56868217C20F0FE4018
:100CF00040EA016068600FE020F480702860FFF730
:100D000047FD064605E000BFFFF742FD801B0228B5
:100D1000A0D828684005F7D42078000729D5606955
:100D20000028D5F8940013D040F00100C5F89400D5
:100D3000FFF72EFD064606E090E000BFFFF728FD16
:100D4000801B022886D8D5F894008007F6D510E0DD
:100D500020F00100C5F89400FFF71AFD064604E0F4
:100D6000FFF716FD801B022878D8D5F8940080077D
:100D7000F6D42078400761D5A86D0026C00008D4BD
:100D8000A86D40F08050A865A86D012600F0805045
:100D9000009090480168C90511D40168804641F46B
:100DA00080710160FFF7F4FC074604E0FFF7F0FCF8
:100DB000C01B022852D8D8F80000C005F6D5A0689C
:100DC000012815D00528D5F8900016D020F0010094
:100DD000C5F89000D5F8900020F00400C5F8900008
:100DE000A06841F28838B8B1FFF7D2FC07460EE0A0
:100DF000D5F8900040F00100F0E740F00400C5F89D
:100E00009000F5E7FFF7C4FCC11B414526D8D5F893
:100E100090008007F6D50CE0FFF7BAFC074604E027
:100E2000FFF7B6FCC11B414518D8D5F890008007E4
:100E3000F6D41EB1A86D20F08050A86520788006F9
:100E400029D5A0690028D5F8980013D040F00100FA
:100E5000C5F89800FFF79CFC064606E077E000BF67
:100E6000FFF796FC801B022877D8D5F898008007FA
:100E7000F6D510E020F00100C5F89800FFF788FCD7
:100E8000064604E0FFF784FC801B022865D8D5F8ED
:100E900098008007F6D4E069F0B3A968C1F3810136
:100EA000032961D00228286820F0807028600BD0C8
:100EB000E86820F00300E860E86847490840E86017
:100EC000FFF766FC04464BE0FFF762FC064604E0D1
:100ED000FFF75EFC801B02283FD828688001F7D40A
:100EE000F4E908016FF00F0202EB01110843218AB7
:100EF0005204490802EB4151A26841EA0221084329
:100F0000217D4FF07E42490802EB41610843217B7D
:100F100040EAC160E96800E062E0304A11400843FD
:100F2000E860286840F080702860E86840F08070D1
:100F3000E860FFF72DFC044605E000BFFFF728FC42
:100F4000001B022809D828688001F7D548E004E092
:100F5000FFF71EFC001B022802D90320BDE8F8831E
:100F600028688001F4D43BE00128F7D0E868226AC1
:100F700000F00301914226D1616A00F0F0020901FC
:100F8000103991421FD1A26A00F4FE41B1EB022F49
:100F900019D194F82C2000F07841B1EBC26F12D136
:100FA000218E00F4C00249084905A1F500119142C3
:100FB00009D194F8341000F0C06049084906A1F145
:100FC000007181420CD00120C8E7000000100240EF
:100FD0000000002000700040FFFFEEFE0C809F012B
:100FE0000020BBE710B5401EB0F1807F01D3012087
:100FF00010BD4FF0E02460610F21601701F008F987
:101000000020A06107202061002010BD70477047BC
:101010007047704770477047F0B590F83C20012A40
:101020003AD0012580F83C50022280F83D20036828
:101030005A689C68194E1A4FB34201D0BB4204D182
:1010400022F4700C4A6842EA0C02DFF858C002EA47
:101050000C02D1F800C04CEA020CC3F804C00268CC
:10106000B2420DD0B2F1804F0AD00F4B9A4207D056
:101070000E4B9A4204D0BA4202D00D4B9A4204D190
:10108000896824F080031943916080F83D50002165
:1010900080F83C100846F0BD0220F0BD002C014055
:1010A000003401408FFFFFFD0004004000080040B5
:1010B00000400140704710B5040003D094F83D0093
:1010C00010B107E0012010BD002084F83C0020464C
:1010D00000F022F8022084F83D00211D206800F075
:1010E000DFFF012084F8480084F83E0084F83F00C8
:1010F00084F8400084F8410084F8420084F84300FA
:1011000084F8440084F8450084F8460084F84700D9
:1011100084F83D00002010BD30B587B0044614218E
:101120006846FFF751F92468274D0021274802231C
:101130000122AC4220D1046E44F400340466046EF3
:1011400004F400340594C46C44F00204C464C06C1C
:1011500000F00200059010200090CDE90131CDE9AA
:10116000031269461A48FFF72FFA00221146192088
:10117000FFF774FB192022E0164DAC4221D1046E1A
:1011800044F480240466046E04F480240594C46C42
:1011900044F00104C464C06C00F00100059080209C
:1011A0000090CDE90131CDE9031269462804FFF72B
:1011B0000BFA002211461A20FFF750FB1A20FFF706
:1011C0003FFB07B030BD000000440140001002406A
:1011D00000040048004801402DE9F0410546006840
:1011E0004FF080480026124C124F40450CD1002190
:1011F000114800F0ACFA2060C8F8246000EB8000D1
:101200000001B7FBF0F060600C49286888420DD1FE
:1012100000210B4800F09BFA0849A06024310E60C1
:1012200000EB80000001B7FBF0F0E060BDE8F0816A
:101230001000002000B4C404280000200044014035
:10124000740000202DE9F041054690F83C000C4662
:10125000012836D0012085F83C008AB3042A42D008
:101260002868082A51D0D4E90023E168066A26F4E8
:1012700080560662C669076A26F4407646EA03236A
:101280004FF6FF7606EA013123F4704319434FF419
:10129000204627F4204306EA02321A43C161026263
:1012A0002868C16921F44061C1612868C169A268E8
:1012B00041EA0221C161002085F83C00BDE8F081CF
:1012C00001E00220FAE7D4E90012E368286800F0A0
:1012D0004DFF2868816921F00C01816128688169CE
:1012E000A26811430FE0D4E90012E368286800F017
:1012F00073FF2868816921F44061816128688169F0
:10130000A26841EA02218161D5E7D4E90027267B62
:10131000016A21F480710162C169036A21F003014D
:10132000394321F0F00731074FF4206647EA116195
:1013300023F4206306EA02221A43C161026228688C
:10134000C16921F00C01C1612868C169A26811431B
:10135000B0E710B5040003D094F83D0010B107E0E9
:10136000012010BD002084F83C00204600F022F847
:10137000022084F83D00211D206800F091FE01202C
:1013800084F8480084F83E0084F83F0084F8400068
:1013900084F8410084F8420084F8430084F8440053
:1013A00084F8450084F8460084F8470084F83D003E
:1013B000002010BD10B586B0044614216846FFF722
:1013C00003F82068B0F1804F27D11548816D41F0B6
:1013D00001018165816D01F001010591C16C41F050
:1013E0000101C164C06C694600F00100059048F23B
:1013F0000200009002200190002002900390012042
:1014000004904FF09040FFF7DFF8002211461C20B7
:10141000FFF724FA1C20FFF713FA06B010BD0000F6
:101420000010024010B5044679B1042912D00829F1
:1014300015D00C2918D0102919D094F8430000BFFA
:1014400094F84720012817D114E094F83E0094F84E
:101450004420F7E794F83F0094F84520F2E794F829
:10146000400094F84620EDE794F84100E8E794F84E
:101470004200E5E7012A01D0012010BD022071B130
:10148000042915D008291CD00C2948D0102949D08E
:1014900084F8430084F847000C291BD145E084F808
:1014A0003E0084F844002068C26842F0020210E066
:1014B00084F83F0084F845002068C26842F00402C6
:1014C00007E084F8400084F846002068C26842F0D3
:1014D0000802C2600122206800F03AFE1549206827
:1014E00088420ED0B0F1804F0BD01349884208D00B
:1014F0001249884205D01249884202D011498842D7
:1015000007D18168104A1140062906D0B1F5803F05
:1015100003D0016841F001010160002010BD84F892
:101520004100B7E784F84200B4E72068C26842F09F
:101530001002CEE7002C01400004004000080040EB
:1015400000340140004001400700010070B504462E
:10155000006801694FF00005C943890715D4C168C7
:10156000C943890711D4E91E016101202077206851
:1015700080698007204602D0FFF72EFE04E000F0CD
:10158000E3F8204600F0E1F8257720680169C943B7
:10159000490717D4C168C943490713D46FF0040140
:1015A0000161022020772068806910F4407F204686
:1015B00002D0FFF711FE04E000F0C6F8204600F06C
:1015C000C4F8257720680169C943090716D4C168A2
:1015D000C943090712D46FF0080101610420207784
:1015E0002068C0698007204602D0FFF7F5FD04E0BF
:1015F00000F0AAF8204600F0A8F8257720680169D5
:10160000C943C90617D4C168C943C90613D46FF0CA
:1016100010010161082020772068C06910F4407F24
:10162000204602D0FFF7D8FD04E000F08DF82046F8
:1016300000F08BF8257720680169C943C90708D1F4
:10164000C168C943C90704D1891E0161204600F061
:101650007DF820680169C943090609D4C168C943F6
:10166000090605D46FF0800101612046FFF7CFFC29
:1016700020680169C943C90509D4C168C94309067D
:1016800005D46FF4807101612046FFF7BFFC20682C
:101690000169C943490609D4C168C943490605D44B
:1016A0006FF040010161204600F066F82068016992
:1016B000C943890609D4C168C943890605D46FF0B6
:1016C000200101612046FFF7A3FC20680169C9439E
:1016D000C90209D4C168C943C90205D46FF4801195
:1016E00001612046FFF796FC20680169C943890221
:1016F00009D4C168C943890205D46FF4001101619E
:101700002046FFF786FC20680169C943490209D4D5
:10171000C168C943490205D46FF4800101612046C4
:10172000FFF779FC20680169C94309020BD4C1683D
:10173000C943090207D46FF4000101612046BDE8E6
:101740007040FFF7B7BC70BD7047704770470246E6
:10175000002041B1042909D008290AD00C2901D15F
:101760001068006C70471068406B70471068806BA1
:1017700070471068C06B70477047FEE700B585B0D2
:1017800014216846FEF720FE4FF6FF7000900020FF
:101790000321CDE90201019069460248FEF714FFDA
:1017A00005B000BD0008004800B585B014216846AA
:1017B000FEF70AFE4FF6FF70009001200190032013
:1017C00003900020029069460248FEF7FDFE05B036
:1017D00000BD0000000800482DE9F0410A4E804697
:1017E0003068002485B22146204600F01DF900F043
:1017F0005BF94FF49637404600F02AF9641CBC426E
:10180000F9D33560BDE8F0811408004830B587B0E1
:1018100014216846FEF7D8FD1E48C16C41F0040152
:10182000C164C16C01F004010591C16C41F001017A
:10183000C164C16C01F001010591C16C41F002016C
:10184000C164C06C012500F0020005904FF448709F
:10185000CDE9000500240394694602940E48FEF782
:10186000B3FE280203940090CDE901544FF0904458
:1018700069462046FEF7A8FEFFF796FFA06940F4F0
:101880008070A06104481830016841F4087101605B
:1018900007B030BD0010024000040048203AD2B228
:1018A000034B02EB420203EB021200F023B80000EC
:1018B0001A2300082DE9F043DFF8348081460E46F4
:1018C000D8F80000002587B240F23F1407E0214617
:1018D0004846FFF7E3FF103C6D1CA4B2761C32783B
:1018E0000AB1142DF3D3C8F80070BDE8F0830000EE
:1018F000140800482DE9F04791468A460026044620
:1019000000F092F8DFF84080012700BF00F0CCF82B
:101910005FF0000539F8160007FA05F10842404665
:1019200001D1408800E0008800F092F86D1C102D75
:10193000F0D3641CE4B25146204600F075F8761CE2
:10194000182EE3D3BDE8F0872000002070B50D4EBF
:10195000306885B2FFF75AFF002000F017F80A4CF4
:10196000A080A088A0F50241303907D000F040FAED
:10197000002000F00BF8A080356070BD00F0AFF9DA
:10198000F6E70000140800482000002070B51D494B
:101990000A6842F400720A600A6842F480720A60BF
:1019A000184C103C226842F020022260164A106057
:1019B000086840F02000086000BF00BF00BF20683A
:1019C00040F020002060206840F480702060FFF725
:1019D000D5FE4FF09041886A40F48070886200BF65
:1019E00000BF00BF0848001F006885B2886940F446
:1019F00080708861FFF7D8FE206840F40070206096
:101A0000284670BD280400481408004801B5044861
:101A10000168BDF8002089B2024B5A80016008BD00
:101A2000140800482000002010B50C460146202074
:101A300000F068F82146BDE81040212000F062B8AF
:101A400001B5BDF800000149088008BD2000002054
:101A5000134A116841F400711160114910390B6883
:101A600043F480730B600B6843F020030B600D4B55
:101A70001860106840F02000106000BF00BF00BF79
:101A8000086840F020000860086840F48070086032
:101A900000BF00BF00BF086840F4007008607047D6
:101AA00028040048140800481449086840F40070ED
:101AB0000860086840F480700860104810380268B8
:101AC00042F0200202600E4B22221A600A6842F0A5
:101AD00020020A6000BF00BF00BF016841F0200182
:101AE0000160016841F48071016000BF00BF00BF68
:101AF000016841F40071016070470000280400484B
:101B000014080048184B10B51A6842F400721A60A5
:101B10001A6842F480721A60134A103A146844F04A
:101B200020041460114C2060186840F020001860F8
:101B300000BF00BF00BF106840F0200010601068B8
:101B400040F4807010602160186840F02000186038
:101B500000BF00BF00BF106840F020001060106898
:101B600040F48070106010BD28040048140800483C
:101B70000D4808B5C16C41F02001C164C16C01F091
:101B800020010091C16C41F00101C164C16C01F000
:101B900001010091C16C41F00201C164C06C00F010
:101BA0000200009008BD0000001002401FB5002494
:101BB00015480094019402941249039401604F2146
:101BC000C0E901144FF6FF71C0E903144461846158
:101BD000FFF771FA08B1FEF7E2FC0B48FFF7B9FB1B
:101BE00008B1FEF7DCFC0120CDE9004002940022A0
:101BF000694605480394FFF725FB002801D0FEF74E
:101C0000CEFC1FBD00440140740000201FB500241D
:101C100015480094019402941249039401604F21E5
:101C2000C0E901144FF6FF71C0E9031444618461F7
:101C3000FFF741FA08B1FEF7B2FC0B48FFF789FB4A
:101C400008B1FEF7ACFC0120CDE90040029400226F
:101C5000694605480394FFF7F5FA002801D0FEF71E
:101C60009EFC1FBD00480140C000002010B588B098
:101C70000024184805940694049400940194029456
:101C80004FF08041039401604F21C0E90114611EAF
:101C9000C0E903148461FFF75CFB08B1FEF77FFC29
:101CA000049404A90B480694FFF7B6F908B1FEF7AF
:101CB00076FC0120CDE900400294002269460548E7
:101CC0000394FFF7BFFA002801D0FEF768FC08B0C4
:101CD00010BD000028000020FEE7FEE7704730B589
:101CE00001210020FFF70EFF4FF47A70FEF749FC48
:101CF00000210120FFF706FF41F290711020FFF74D
:101D000001FF4FF41C516020FFF7FCFE0121612010
:101D1000FFF7F8FE02214620FFF7F4FE48F210011B
:101D20001320FFF7EFFE48F2FE011220FFF7EAFE54
:101D30004FF4A0610220FFF7E5FE41F230010320DD
:101D4000FFF7E0FE40F2033421463020FFF7DAFED1
:101D500021463120FFF7D6FE21463220FFF7D2FE82
:101D6000E51E29463320FFF7CDFE03213420FFF77F
:101D7000C9FE21463520FFF7C5FE14213620FFF7A6
:101D8000C1FE21463720FFF7BDFE21463820FFF770
:101D9000B9FE21463920FFF7B5FE29463A20FFF764
:101DA000B1FE03213B20FFF7ADFE21463C20FFF7AB
:101DB000A9FE4FF4A0513D20FFF7A4FE4FF400719F
:101DC0009220FFF79FFE21469320FFF79BFE40F6EF
:101DD0000D019020FFF796FE41F218010320FFF756
:101DE00091FEBDE8304040F273110720FFF78ABE34
:101DF00010B543F20801E320FFF784FE1221E7202B
:101E0000FFF780FE41F23121EF20FFF77BFE00213A
:101E10000120FFF777FE4FF4E0610220FFF772FE2A
:101E200041F230010320FFF76DFE00210420FFF78F
:101E300069FE40F207210820FFF764FE0021092017
:101E4000FFF760FE00210A20FFF75CFE00210C2056
:101E5000FFF758FE00210D20FFF754FE00210F2050
:101E6000FFF750FE00211020FFF74CFE0721112044
:101E7000FFF748FE00211220FFF744FE0021132047
:101E8000FFF740FEC820FEF78DFB41F29061102065
:101E9000FFF738FE40F227211120FFF733FE3220F2
:101EA000FEF780FB1D211220FFF72CFE3220FEF7EB
:101EB00079FB4FF400611320FFF724FE1421292041
:101EC000FFF720FE0B212B20FFF71CFE3220FEF730
:101ED00069FB00212020FFF715FE00212120FFF7DC
:101EE00011FE07213020FFF70DFE40F2077131206F
:101EF000FFF708FE06213220FFF704FE40F20471CE
:101F00003520FFF7FFFD41F604713620FFF7FAFD9B
:101F100004213720FFF7F6FD00213820FFF7F2FDFE
:101F200040F206713920FFF7EDFD40F201713C20CF
:101F3000FFF7E8FD0F213D20FFF7E4FD00215020D1
:101F4000FFF7E0FDEF215120FFF7DCFD00215220DB
:101F5000FFF7D8FD40F23F115320FFF7D3FD4FF4B8
:101F60001C516020FFF7CEFD01216120FFF7CAFD63
:101F700000216A20FFF7C6FD00218020FFF7C2FD87
:101F800000218120FFF7BEFD00218220FFF7BAFD6E
:101F900000218320FFF7B6FD00218420FFF7B2FD6A
:101FA00000218520FFF7AEFD10219020FFF7AAFD4C
:101FB00000219220FFF7A6FD03219320FFF7A2FD49
:101FC0004FF488719520FFF79DFD00219720FFF7C2
:101FD00099FD00219820FFF795FD41F2180103209B
:101FE000FFF790FDBDE8104040F273110720FFF7A6
:101FF00089BD7047FEF7D2BB10B594B03821684652
:10200000FEF7E2F914210EA8FEF7DEF94FF4007096
:10201000FEF756FC012000900004019002200324EA
:10202000CDE907041421CDE90A100C900D90099414
:102030006846FEF7D1FD08B172B6FEE70F20CDE984
:102040000E04002010901190129002210EA8FEF7AD
:102050009DFC002801D072B6FEE714B010BD000050
:102060000548016841F47001016003494FF00060C8
:10207000803908607047000088ED00E00148FFF7F4
:1020800065BA0000C00000200148FFF75FBA0000F9
:10209000740000200148FFF759BA00002800002012
:1020A0002DE9F0430268234B234D244E244C4FF07E
:1020B0008049984207D0484505D0A84203D0B04295
:1020C00001D0A04203D122F070074A683A431D4F65
:1020D000DFF874C0DFF8748098420DD048450BD00B
:1020E000A84209D0B04207D0A04205D0B84203D0E0
:1020F000604501D0404503D122F44075CA682A43A7
:102100004D6922F080022A4302608A68C2620A682E
:102110008262984207D0A04205D0B84203D0604501
:1021200001D0404501D10969016301214161BDE848
:10213000F0830000002C0140000400400008004033
:10214000003401400040014000440140004801408B
:1021500010B501F01F030121046A99408C43046209
:10216000016A9A401143016210BD000070B5046A13
:1021700024F0010404628469056A124EB0420ED054
:10218000B0F1804F0BD0104EB04208D00F4EB0428D
:1021900005D00F4EB04202D00E4EB04203D124F013
:1021A0000304144301E044F001041A0724F0F0048E
:1021B00044EA126225F00A0301F00A011943826120
:1021C000016270BD002C0140000400400008004086
:1021D000003401400040014030B5046A24F010048E
:1021E00004628469056A24F4407444EA022222F4F9
:1021F00070444FF6FF7202EA03322243A02425F016
:10220000A00304EA011119438261016230BDFEE7B7
:102210000907090E002804DB00F1E02080F8001413
:10222000704700F00F0000F1E02080F8141D7047A7
:1022300010B50EA11248FEF743F811490020FFF730
:1022400039FB104C10A10E486268FEF739F80C49B2
:102250003020FFF72FFB11A10948E268FEF730F8A4
:10226000BDE8104006494820FFF724BB202020206D
:10227000202020207465737420202020202020003E
:102280000C010020100000202020202020202020F1
:10229000667265313A20256420202000202020200D
:1022A00020202020667265323A20256420202000FC
:1022B000FEF77CFAFFF7A0FEFFF75AFCFFF7D6FC0B
:1022C000FFF7A4FCFFF772FCFFF740FB0020FFF7CD
:1022D00083FA0020FFF79AFB4FF6FF70FFF7B0FB81
:1022E00000210548FFF79EF800210448FFF79AF8FF
:1022F000FFF79EFFFCE7000028000020740000208C
:102300004FF04070E1EE100A70470000000000003E
:102310000000010203040607080900000000000095
:1023200000000000000000000000000000000000AD
:10233000000000000000000000000000000000009D
:10234000000000000000000000000000800180018B
:102350008001800180018001800180018001800175
:1023600080018001800100000000800180010000E8
:102370000000000000000000000000000000CC0091
:10238000CC00CC00CC00CC00CC0000000000000051
:10239000000000000000000000000000000000003D
:1023A000000000000000000000000000000000002D
:1023B000000000000000600C600C600C300630066D
:1023C000FE1FFE1F300638071803FE1FFE1F1803EE
:1023D00018038C018C018C01000000008000E003D8
:1023E000F80F9C0E8C1C8C188C009800F801E007EC
:1023F000800E801C8C188C189C18B80CF00FE00311
:1024000080008000000000000000000000000000CC
:102410000E181B0C110C11061106110311039B0160
:102420008E01C038C06C604460443044304418446D
:10243000186C0C380000000000000000E001F00300
:102440003807180618063003F001F000F8009C3138
:102450000E33061E061C061C063FFC73F02100000E
:1024600000000000000000000000000000000C0060
:102470000C000C000C000C000C0000000000000020
:10248000000000000000000000000000000000004C
:102490000000000000000000000000000002000337
:1024A0008001C000C00060006000300030003000DB
:1024B0003000300030003000300060006000C000AC
:1024C000C000800100030002000000002000600046
:1024D000C000800180010003000300060006000622
:1024E0000006000600060006000600030003800147
:1024F0008001C0006000200000000000000000001B
:10250000000000000000C000C000D806F807E0018D
:102510003003380700000000000000000000000049
:1025200000000000000000000000000000000000AB
:102530000000000000008001800180018001800116
:10254000FC3FFC3F80018001800180018001000090
:10255000000000000000000000000000000000007B
:10256000000000000000000000000000000000006B
:102570000000000000000000000000008001800159
:1025800000010001800000000000000000000000C9
:10259000000000000000000000000000000000003B
:1025A0000000E007E007000000000000000000005D
:1025B000000000000000000000000000000000001B
:1025C000000000000000000000000000000000000B
:1025D000000000000000000000000000C000C0007B
:1025E000000000000000000000000000000C000CD3
:1025F00000060006000600030003000380038001BC
:1026000080018001C000C000C000600060000000C8
:10261000000000000000000000000000E003F007E0
:10262000380E180C0C180C180C180C180C180C1868
:102630000C180C180C18180C380EF007E0030000EA
:102640000000000000000000000000000001800108
:10265000C001F001980188018001800180018001A2
:1026600080018001800180018001800180010000E3
:10267000000000000000000000000000E003F80F70
:10268000180C0C180C1800180018000C0006000399
:102690008001C000600030001800FC1FFC1F00001B
:1026A000000000000000000000000000E001F8074A
:1026B000180E0C0C0C0C000C0006C003C007000C1C
:1026C000001800180C180C18180CF807E00300008C
:1026D000000000000000000000000000000C000EE0
:1026E000000F000F800DC00C600C600C300C180C3B
:1026F0000C0CFC3FFC3F000C000C000C000C00001C
:10270000000000000000000000000000F80FF80FBB
:10271000180018000C00EC03FC071C0E001C00182D
:10272000001800180C181C0C180EF807E003000025
:10273000000000000000000000000000C007F00FD3
:10274000381C181818000C00CC03EC0F3C0E1C1C95
:102750000C180C180C18181C380EF007E0030000B9
:10276000000000000000000000000000FC1FFC1F33
:10277000000C00060006000380038001C001C000B9
:10278000E0006000600070003000300030000000A9
:10279000000000000000000000000000E003F0075F
:1027A000380E180C180C180C3806F007F007180C27
:1027B0000C180C180C180C18380CF80FE00300005B
:1027C000000000000000000000000000E003F0072F
:1027D000380E1C0C0C180C180C181C1C381EF81B7E
:1027E000E0190018000C000C1C0EF807F0010000A6
:1027F00000000000000000000000000000000000D9
:1028000000000000000080018001000000000000C6
:1028100000000000000000000000800180010000B6
:1028200000000000000000000000000000000000A8
:102830000000000000008001800100000000000096
:102840000000000000000000000080018001000185
:1028500000018000000000000000000000000000F7
:10286000000000000000000000000010001C800FAD
:10287000E003F8001800F800E003800F001C0010CF
:102880000000000000000000000000000000000048
:1028900000000000000000000000F81F0000000021
:1028A0000000F81F00000000000000000000000011
:1028B0000000000000000000000000000000000018
:1028C0000000000000000000000008003800F001D7
:1028D000C007001F0018001FC007F00138000800E3
:1028E000000000000000000000000000E003F80FFE
:1028F000180C0C180C180018000C000600038001BE
:10290000C000C000C00000000000C000C000000007
:102910000000000000000000000000000000E007D0
:1029200018180420C229224A1144094409440944C0
:1029300009221113E20C024004201818E0070000DD
:102940000000000000000000000000008003800381
:10295000C006C006C006600C600C30183018301875
:10296000F83FF83F1C700C600C6006C006C0000009
:10297000000000000000000000000000FC03FC0F4D
:102980000C0C0C180C180C180C0CFC07FC0F0C1879
:102990000C300C300C300C300C18FC1FFC07000005
:1029A000000000000000000000000000C007F01F51
:1029B00038381C300C700660060006000600060061
:1029C0000600060006600C701C30F01FE0070000D7
:1029D000000000000000000000000000FE03FE0FE9
:1029E000060E061806180630063006300630063089
:1029F0000630063006180618060EFE0FFE0300000D
:102A0000000000000000000000000000FC3FFC3F50
:102A10000C000C000C000C000C00FC1FFC1F0C0038
:102A20000C000C000C000C000C00FC3FFC3F0000F4
:102A3000000000000000000000000000F83FF83F28
:102A400018001800180018001800F81FF81F1800C8
:102A500018001800180018001800180018000000CE
:102A6000000000000000000000000000E00FF83F40
:102A70003C780E6006E007C00300030003FE03FE7F
:102A800003C007C006C00EC03CF0F83FE00F0000D6
:102A90000000000000000000000000000C300C30BE
:102AA0000C300C300C300C300C30FC3FFC3F0C3048
:102AB0000C300C300C300C300C300C300C30000072
:102AC0000000000000000000000000008001800104
:102AD00080018001800180018001800180018001EE
:102AE000800180018001800180018001800100005F
:102AF00000000000000000000000000000060006CA
:102B00000006000600060006000600060006000695
:102B100000060006180618063807F003E00100005A
:102B20000000000000000000000000000630061851
:102B3000060C060606038601C60066007600DE0067
:102B40008E0106030606060C061806300660000015
:102B50000000000000000000000000001800180045
:102B600018001800180018001800180018001800A5
:102B700018001800180018001800F81FF81F0000AF
:102B80000000000000000000000000000EE01EF049
:102B90001EF01EF036D836D836D836D866CC66CC7D
:102BA00066CCC6C6C6C6C6C6C6C686C386C3000031
:102BB0000000000000000000000000000C301C308D
:102BC0003C303C306C306C30CC30CC308C310C3301
:102BD0000C330C360C360C3C0C3C0C380C30000022
:102BE000000000000000000000000000E007F81FE7
:102BF0001C380E70066003C003C003C003C003C0CE
:102C000003C003C006600E701C38F81FE007000008
:102C1000000000000000000000000000FC0FFC1F8E
:102C20000C380C300C300C300C300C18FC1FFC072E
:102C30000C000C000C000C000C000C000C00000040
:102C4000000000000000000000000000E007F81F86
:102C50001C380E70066003E003C003C003C003C04D
:102C600003C007E006630E3F1C3CF83FE0F700C0DE
:102C7000000000000000000000000000FE0FFE1F2A
:102C800006380630063006300638FE1FFE070603FB
:102C90000606060C06180618063006300660000008
:102CA000000000000000000000000000E003F80F3A
:102CB0001C0C0C180C180C001C00F803E00F001E74
:102CC0000038063006300E301C1CF80FE0070000FC
:102CD000000000000000000000000000FE7FFE7FFA
:102CE00080018001800180018001800180018001DC
:102CF000800180018001800180018001800100004D
:102D00000000000000000000000000000C300C304B
:102D10000C300C300C300C300C300C300C300C30D3
:102D20000C300C300C300C301818F81FE007000085
:102D300000000000000000000000000003600630FA
:102D4000063006300C180C180C18180C180C380E1D
:102D500030063006700760036003C001C001000048
:102D60000000000000000000000000000360C361DC
:102D7000C361C36166336633663366336633663375
:102D80006C1B6C1B6C1B2C1A3C1E380E380E000082
:102D90000000000000000000000000000FE00C70C8
:102DA00018303018700C600EC00780038003C00319
:102DB000E006700C301C18180C300E6007E00000A4
:102DC00000000000000000000000000003C00660DA
:102DD0000C301C383818300C6006E007C003800146
:102DE000800180018001800180018001800100005C
:102DF000000000000000000000000000FC7FFC7FDD
:102E0000006000300018000C000600038001C000C4
:102E10006000300018000C000600FE7FFE7F0000FE
:102E2000000000000000000000000000E003E003DC
:102E30006000600060006000600060006000600092
:102E40006000600060006000600060006000600082
:102E500060006000E003E00300000000300030008C
:102E6000600060006000C000C000C000C0018001C0
:102E7000800180010003000300030006000600003B
:102E8000000000000000000000000000E003E0037C
:102E9000000300030003000300030003000300031A
:102EA000000300030003000300030003000300030A
:102EB00000030003E003E003000000000000C00185
:102EC000C00160036003600330063006180C180C64
:102ED00000000000000000000000000000000000F2
:102EE00000000000000000000000000000000000E2
:102EF00000000000000000000000000000000000D2
:102F0000000000000000000000000000FFFFFFFFC5
:102F10000000000000000000000000000C000C0099
:102F20000C000C000C000C00000000000000000071
:102F30000000000000000000000000000000000091
:102F40000000000000000000000000000000000081
:102F5000000000000000F003F8071C0C0C0C000F30
:102F6000F00FF80C0C0C0C0C1C0FF80FF0180000F4
:102F70000000000000000000000000001800180021
:102F8000180018001800D803F80F380C1818181873
:102F90001818181818181818380CF80FD80300004B
:102FA0000000000000000000000000000000000021
:102FB000000000000000C003F007300E180C1800DD
:102FC000180018001800180C300EF007C00300009D
:102FD00000000000000000000000000000180018C1
:102FE000001800180018C01BF01F301C1818181803
:102FF0001818181818181818301CF01FC01B0000DB
:1030000000000000000000000000000000000000C0
:10301000000000000000C003F00F300C1818F81F6B
:10302000F81F180018003818301CF00FC0070000F7
:10303000000000000000000000000000800FC00F32
:10304000C000C000C000F007F007C000C000C00012
:10305000C000C000C000C000C000C000C000000030
:103060000000000000000000000000000000000060
:10307000000000000000E00DF80F180E0C0C0C0C06
:103080000C0C0C0C0C0C0C0C180EF80FE00D000CBA
:103090000C0C1C06F807F0010000000018001800D6
:1030A000180018001800D807F80F381C181818183E
:1030B00018181818181818181818181818180000C0
:1030C000000000000000000000000000C000C00080
:1030D000000000000000C000C000C000C000C00030
:1030E000C000C000C000C000C000C000C0000000A0
:1030F000000000000000000000000000C000C00050
:10310000000000000000C000C000C000C000C000FF
:10311000C000C000C000C000C000C000C000C000AF
:10312000C000C000F8007800000000000C000C0097
:103130000C000C000C000C0C0C060C038C01CC00D9
:103140006C00FC009C018C030C030C060C0C0000B2
:10315000000000000000000000000000C000C000EF
:10316000C000C000C000C000C000C000C000C0005F
:10317000C000C000C000C000C000C000C00000000F
:10318000000000000000000000000000000000003F
:103190000000000000007C3CFF7EC7E383C183C1C8
:1031A00083C183C183C183C183C183C183C1000043
:1031B000000000000000000000000000000000000F
:1031C0000000000000009807F80F381C18181818A5
:1031D000181818181818181818181818181800009F
:1031E00000000000000000000000000000000000DF
:1031F000000000000000C003F00F300C1818181871
:103200001818181818181818300CF00FC003000000
:1032100000000000000000000000000000000000AE
:10322000000000000000D803F80F380C1818181818
:103230001818181818181818380CF80FD803180090
:10324000180018001800180000000000000000001E
:10325000000000000000C01BF01F301C18181818D8
:103260001818181818181818301CF01FC01B001850
:1032700000180018001800180000000000000000EE
:10328000000000000000B007F003700030003000C4
:1032900030003000300030003000300030000000DE
:1032A000000000000000000000000000000000001E
:1032B000000000000000E003F003380E180C380096
:1032C000F003C007000C180C380EF007E0030000F4
:1032D000000000000000000000000000000080006E
:1032E000C000C000C000F007F007C000C000C00070
:1032F000C000C000C000C000C000C00780070000C0
:1033000000000000000000000000000000000000BD
:1033100000000000000018181818181818181818BD
:103320001818181818181818381CF01FE019000081
:10333000000000000000000000000000000000008D
:103340000000000000000C18180C180C180C3006B7
:1033500030063006600360036003C001C001000056
:10336000000000000000000000000000000000005D
:10337000000000000000C141C141C3616363636399
:1033800063633636363636361C1C1C1C1C1C00008B
:10339000000000000000000000000000000000002D
:1033A0000000000000001C38381C300C6006600370
:1033B0006003600360036006300C381C1C3800009A
:1033C00000000000000000000000000000000000FD
:1033D0000000000000001830301830187018600C21
:1033E000600CE00CC006C0068003800380038001EF
:1033F0008001C001F000700000000000000000002B
:10340000000000000000FC1FFC1F000C0006000371
:103410008001C000600030001800FC1FFC1F00008D
:103420000000000000000000000000000003800118
:10343000C000C000C000C000C000C000600060004C
:10344000300060004000C000C000C000C000C000EC
:10345000C000800100030000000000008001800126
:103460008001800180018001800180018001800154
:103470008001800180018001800180018001800144
:103480008001800180018001000000006000C00018
:10349000C0018001800180018001800100030003E0
:1034A000000600030001800180018001800180018D
:1034B0008001C0006000000000000000000000006B
:1034C00000000000000000000000F010F81F080FCE
:1034D00000000000000000000000000000000000EC
:1034E0000000000000000000000000000C35000893
:1034F00000000020280000001402000834350008F5
:1035000028000020580700003002000810000000CA
:1035100001000000000000000024F4000000000092
:103520000000000000000000000000000000FFFF9D
:043530000000000097
:04000005080001D915
:00000001FF
