:020000040800F2
:10000000E809002029020008370200083902000828
:100010003B0200083D0200083F020008000000000B
:100020000000000000000000000000004102000885
:1000300043020008000000004502000847020008D3
:100040004902000849020008490200084902000864
:100050004902000849020008490200084902000854
:100060004902000849020008490200084902000844
:1000700049020008490200084D080008490200082A
:100080004902000861080008DD0200084902000872
:10009000C10400085505000849020008490200088B
:1000A0004902000849020008490200084902000804
:1000B00049020008490200084902000849020008F4
:1000C00049020008490200084902000849020008E4
:1000D0004902000855150008E5150008F516000846
:1000E00049020008490200084902000849020008C4
:1000F00049020008490200084902000849020008B4
:100100004902000849020008AD140008490200082D
:100110004902000849020008490200082D1500089C
:1001200075080008010900084902000825090008AF
:100130004902000849020008490200084902000873
:10014000D9060008490200084902000849020008CF
:10015000490200084902000839090008490200085C
:100160004902000849020008490200084902000843
:100170004902000849020008490200084902000833
:10018000490200084902000800F002F800F03CF8BB
:100190000AA090E8000C82448344AAF10107DA45E2
:1001A00001D100F031F8AFF2090EBAE80F0013F0F8
:1001B000010F18BFFB1A43F001031847F41D00009C
:1001C000141E0000103A24BF78C878C1FAD852072C
:1001D00024BF30C830C144BF04680C6070470000C1
:1001E0000023002400250026103A28BF78C1FBD840
:1001F000520728BF30C148BF0B6070471FB501F0E0
:10020000D1FE1FBD10B510BD00F03AF81146FFF742
:10021000F5FF01F001FC00F058F803B4FFF7F2FF1E
:1002200003BC01F083FB00000B48016841F470013E
:1002300001600A480047FEE7FEE7FEE7FEE7FEE74B
:10024000FEE7FEE7FEE7FEE7FEE70000044805499B
:10025000034A054B7047000088ED00E08901000863
:10026000E8050020E8090020E805002070477047F5
:1002700070477047704700000048704784050020B1
:100280007546FFF7F9FFAE4605006946534620F074
:100290000700854618B020B5FFF7D8FFBDE820401D
:1002A0004FF000064FF000074FF000084FF0000B32
:1002B00021F00701AC46ACE8C009ACE8C009ACE8E5
:1002C000C009ACE8C0098D46704710B50446AFF3CD
:1002D00000802046BDE81040FFF79FBF10B50248E0
:1002E0000068804710BD0000880000202DE9FC4117
:1002F00004460D4617461E46DDF8208014B10DB1A8
:1003000007B116B90120BDE8FC81601EC4B2681EA9
:10031000C5B2781EC7B2701E86B26448006840F04D
:100320000100624908600120022100230A46CDE94C
:1003300000104FF4C0515E4800F02CFB09220B2145
:100340005B4800F007FB09220C21594800F002FB32
:1003500056481030006840F0007054491031086071
:100360000020544908600846006840F00100086019
:10037000084600680860084600680860084600688B
:1003800008600846006840F01000086008460068F1
:100390000860084600680860002046491C31086073
:1003A0000846006840EA887008600846006840EA2D
:1003B000046008600846006840EA05500860084686
:1003C000006840EA0740086008460068304308605B
:1003D0003948006840F00100374908600846006865
:1003E00040F40040086034481038006840F00100D4
:1003F0003149103908603048183800682E491839DA
:1004000008602D48083800682B49083908604FF407
:1004100082402949243108600021274828300160A2
:1004200025481038006840F400402349103908601E
:100430002148183800682049183908601E480838D3
:1004400000681D49083908604FF490611A489C30D3
:1004500001600021001D016017481C380068174921
:10046000084015491C39086012481430006840F0F3
:1004700002001049143108600846006840F010007E
:100480000860022314221946002000F0D7FD022341
:1004900015221946002000F0D1FD0648006820F022
:1004A00001000449086000202DE7000030380240B8
:1004B00000000240006400401C660040000E1C2A40
:1004C00000B51F4A1F49002000F012F9802D29D0E5
:1004D000B5F5207F24D0B5F5407F22D0B5F5607FFB
:1004E0002BD1042C1BDD092C19DA601F012101FA24
:1004F00000F0154909780843134908701048017B3A
:10050000C07A41EA00210E48807A41EA00410C4855
:10051000407A41EA0061601F0C4A42F820100CE06A
:100520000BE00AE00648807A0A2806D10120A040A4
:100530000749098808430649088000BF00BD00003C
:10054000D003002000640040C4000020AC04002060
:10055000C6000020704700002DE9FC4704460D4608
:1005600016461F46DDF828904FF0000814B10DB173
:1005700006B117B90120BDE8FC87601EC4B2681E31
:10058000C5B2701EC6B2781E87B25048006840F0EF
:1005900002004E4908600120022100230A46CDE9ED
:1005A00000104FF440514A4800F0F4F909220C21A0
:1005B000474800F0CFF909220D21454800F0CAF95B
:1005C00042481030006840F08060404910310860B7
:1005D0000020404908600846006840F001000860BB
:1005E00008E008F101001FFA80F8B8F1640F01DD9E
:1005F0000220C0E73748001D006800F00100002815
:10060000EFD0344800683349086008460068086045
:100610000846006808600846006840F0100008605E
:1006200008460068086008460068086000202949FC
:100630001C3108600846006840EA89700860084676
:10064000006840EA046008600846006840EA055017
:1006500008600846006840EA0640086008460068EE
:10066000384308601B48006820F001001949086001
:1006700009E008F101001FFA80F84FF6F07080459C
:1006800001DD032077E71348001D006800F001003A
:100690000028EED10F481430006840F002000D49E8
:1006A000143108600846006840F01000086002231A
:1006B00040220121002000F0C1FC0223412201213F
:1006C000002000F0BBFC002055E70000303802405D
:1006D000000402400068004000B5034A03490020BE
:1006E00000F006F800BD0000D003002000680040C4
:1006F00010B501F5D87303EB00131B68136001F507
:10070000D87303EB00135B68536001F5D87303EBF8
:1007100000139B68936001F5D87303EB0013DC684A
:10072000D46020B9CB6843F02003CB6005E00128FA
:1007300003D10B6943F020030B6110BD10B50246D5
:10074000002005E00C5C02F108031C54431CD8B2E5
:100750000828F7DB10BD30B5039C1AB9C1F30A01B4
:10076000490502E021F06041C900002505600568E7
:100770000D430560056845EA82050560056845EAA0
:100780004305056004F00F04456825F00F0545603A
:1007900045682543456030BD30B50246002305E07D
:1007A0005B1C2948834201D9FF2030BD906800F0CE
:1007B00080600028F4D0906800F0806008B10020CC
:1007C00008740D7C02F5C07000EB05100C68046025
:1007D0000C7C02F5C07000EB041040684FF6F0642A
:1007E00020400D7C02F5C07404EB051460600C7CA5
:1007F00002F5C07000EB041040684C6820430D7C8B
:1008000002F5C07404EB051460600D7C02F5C07045
:1008100000EB0510CC68C4600D7C02F5C07000EBE5
:1008200005108C6884600C7C02F5C07000EB04102D
:10083000006840F001040D7C02F5C07000EB05106B
:100840000460087CB1E7000020A10700034880682D
:1008500040F000600149886070470000006002407D
:100860000348C06840F400100149C86070470000A8
:10087000006002401C49096841F020011A4A1160D9
:1008800001211A4A11601A4AC2F88812194841789F
:10089000027841EA022109B2174A1180C1788278B0
:1008A00041EA022109B2144A51804179027941EAB0
:1008B000022109B2104A9180417A027A41EA02216A
:1008C000494209B20D4A5180C17A827A41EA022135
:1008D00009B20A4A1180417B027B41EA022109B236
:1008E000064A9180704700000864024088824142B5
:1008F00000804142BD040020E6000020DA00002014
:100900000648006840F40060044908600448008814
:1009100020F001000249088070470000086402408E
:10092000000001400348006840F000600149086091
:1009300070470000086402400448006840F000600E
:100940000249086001200249087070470C640240A7
:100950005E00002030B5CC1000F1200353F82430A5
:100960004C07E50E0F24AC40A343CD1000F120044A
:1009700044F82530CC1000F1200353F824304C0704
:10098000E40E02FA04F42343CD1000F1200444F8ED
:10099000253030BD2DE9F0470C46DDE90867002120
:1009A00000258C4600BF60E04FF0010808FA01F511
:1009B00004EA050CAC4557D1D0F800804FEA410A53
:1009C0004FF0030909FA0AF928EA0908C0F800807B
:1009D000D0F800804FEA410902FA09F948EA09080B
:1009E000C0F80080012A01D0022A27D1D0F808805F
:1009F0004FEA410A4FF0030909FA0AF928EA0908FF
:100A0000C0F80880D0F808804FEA410906FA09F9D1
:100A100048EA0908C0F80880D0F804904FF00108AF
:100A200008FA01F829EA0809C0F80490D0F804800F
:100A300003FA01F948EA0908C0F80480D0F80C80EC
:100A40004FEA410A4FF0030909FA0AF928EA0908AE
:100A5000C0F80C80D0F80C804FEA410907FA09F978
:100A600048EA0908C0F80C80491C10299CD3BDE84D
:100A7000F087000008B5082000231A4601210090E5
:100A80000D48FFF768FE082000231A460121009058
:100A90000A48FFF760FE0A490748FFF74FFE06497C
:100AA0000848FFF779FE06490448FFF747FE034967
:100AB0000548FFF771FE08BD84040020980400205B
:100AC000AC0000200064004000680040B7EE000A5F
:100AD000184880ED0A0ABFEE000A80ED0D0AB2EE5A
:100AE000080A80ED0C0ABAEE080A80ED0F0A9FEDA5
:100AF000120A80ED0B0A9FED110A80ED0E0AB7EE87
:100B0000000A0F4880ED0A0ABFEE000A80ED0D0AC8
:100B1000B2EE080A80ED0C0ABAEE080A80ED0F0A60
:100B20009FED050A80ED0B0A9FED040A80ED0E0A89
:100B300070470000CC04002000003442000034C2A2
:100B4000280500207CB506460D461446D4ED0A1A49
:100B5000B0EE611AD4ED0D1AF0EE610AD4ED041A6C
:100B6000B0EE610A102000F03DFFA080D4ED0B1A1A
:100B7000B0EE611AD4ED0E1AF0EE610AD4ED051A4A
:100B8000B0EE610A0C2000F02DFFE0800C209FEDFC
:100B9000291ADFED290A9FED280A00F023FF2081A2
:100BA0000C20B1EE041ADFED240AB7EE000A00F0C3
:100BB00019FF6081D4ED0C1AB0EE611AD4ED0F1A52
:100BC000F0EE610AD4ED081AB0EE610A0C2000F0D4
:100BD00009FFA081A08800128DF8000020798DF80F
:100BE0000100E088C0F307108DF80200A07900072B
:100BF000000E218940EA21208DF80300207A8DF82B
:100C000004006089C0F307108DF80500A07A000782
:100C1000000EA18940EA21208DF80600207B8DF886
:100C2000070069462846FFF789FD29463046FFF749
:100C3000B3FD7CBD0000FA43000000001CB56F4806
:100C4000006840F002006D4908600846006840F006
:100C50000800086069481430006840F48050674913
:100C6000143108600020032103460122CDE9001061
:100C700004216348FFF78EFE002003210346022271
:100C8000CDE9001038215F48FFF784FE05220321DB
:100C90005C48FFF75FFE052204215A48FFF75AFE21
:100CA000052211465748FFF755FE574B00220321F6
:100CB000564800F02DF9544B012203215348483087
:100CC00000F026F9022338220121002000F0B6F9B5
:100CD00002233B221946002000F0B0F94A480C38A4
:100CE000008800F4415048490C39088008460088C3
:100CF00040F23731084344490C3908800846808B5C
:100D00004FF2FF71084040490C3988830846008A39
:100D100040F0070008820846008840F04000088044
:100D200001203B490860642000F022FE0020394980
:100D3000C1F88802642000F01BFE80216B2000F0C7
:100D4000ABF84FF47A7000F013FE03216B2000F033
:100D5000A3F80A2000F00CFE10216A2000F09CF895
:100D60000A2000F005FE0021192000F095F80A2065
:100D700000F0FEFD00211A2000F08EF80A2000F09D
:100D8000F7FD00211B2000F087F80A2000F0F0FD9D
:100D900008211C2000F080F80A2000F0E9FD102155
:100DA000372000F079F80A2000F0E2FD0121382018
:100DB00000F072F80A2000F0DBFD0121752000F040
:100DC0002DF8154908700A2000F0D2FD0E480C38A5
:100DD00000884FF6BF7108400B490C39088040F27B
:100DE000173008800846808840F003008880084655
:100DF000008840F0400008801CBD000030380240F0
:100E0000000C0240000402400C300140106402401B
:100E10008882414200804142D800002010B502463D
:100E200000231A4C23601A4CC4F8883200BF194BB7
:100E30001B8903F00203002BF9D002F18003154C4B
:100E4000A38100BF134B1B8903F00103002BF9D0D2
:100E5000104B9B89D8B200BF0E4B1B8903F00203D5
:100E6000002BF9D00B4B998100BF0A4B1B8903F073
:100E70000103002BF9D0074B9B89D8B20123034C07
:100E80002360034CC4F8883210BD000088824142C0
:100E9000008041420030014010B50023194C23600E
:100EA000194CC4F8883200BF184B1B8903F00203A9
:100EB000002BF9D0154B988100BF144B1B8903F010
:100EC0000103002BF9D0114B9B89DAB200BF0F4B05
:100ED0001B8903F00203002BF9D00C4B998100BF52
:100EE0000A4B1B8903F00103002BF9D0074B9B89A8
:100EF000DAB200BF0123034C2360034CC4F88832EC
:100F000010BD000088824142008041420030014013
:100F1000F0B50C4615463D4EB04207D931463C4E21
:100F2000366846F480063A4F3E6006E03949384E4E
:100F3000366846F40016364F3E6000BF066806F07D
:100F40000106002EFAD1461A103E1827B6FBF7F616
:100F5000F2B2062A0DDBCE68971F07EB47077F002A
:100F600010374FF03D0C0CFA07FC46EA0C06CE6039
:100F700027E0042A0BDBCE68171F07EB47074FEA71
:100F8000470C3D2707FA0CF73E43CE6019E0022AD2
:100F90000DDB8E68971E07EB47077F0010374FF079
:100FA0003D0C0CFA07FC46EA0C068E6009E08E68E0
:100FB00002EB42074FEA470C3D2707FA0CF73E4386
:100FC0008E60836000260660066846F010060660A4
:100FD000066846EA851606600668066006680660CA
:100FE000066846F480660660066806600668066065
:100FF000066846F480360660066806600668066085
:10100000066846EA44660660F0BD000000640240DF
:101010003038024000600240036823F0010303609F
:1010200000BF036803F00103002BFAD1C1604260E6
:10103000036843F001030360704700002DE9F041AD
:101040000746884614461D46284600F033F8C5F189
:10105000040007FA00F60F20284100EA08000643C2
:1010600006F00F06E21704EBD2625211920002F171
:10107000E022D2F800212146E31704EBD3635B1191
:10108000A4EB431C012303FA0CF31A432046E31795
:1010900004EBD3635B119B0003F1E023C3F8002151
:1010A0000348005D40EA061001490855BDE8F0819B
:1010B00000E400E00146072323EA01021202054B87
:1010C00018684FF6FF031840034B18431043014BB9
:1010D000186070470CED00E00000FA054A0A520261
:1010E0000243014B1A60704708ED00E01CB58248CE
:1010F000006840F0010080490860081F006840F067
:101100000800091F08600846006840F020000860D9
:1011100079481438006840F00100774914390860B4
:101120000846006840F002000860002003210346E2
:101130000122CDE9001002217048FFF72BFC0020AE
:10114000032103460222CDE9001040F601716B48ED
:10115000FFF720FC0020032103460222CDE9001006
:101160004FF460416648FFF715FC022200216348F6
:10117000FFF7F0FB012208216048FFF7EBFB01229B
:1011800009215E48FFF7E6FB01220A215B48FFF7D1
:10119000E1FB01220B215948FFF7DCFB01220D2165
:1011A0005748FFF7D7FB01220E215548FFF7D2FB26
:1011B00001220F215248FFF7CDFB4FF4FA6051494D
:1011C000C862A72008850846008B40F060000883AD
:1011D0000846008B40F0080008830846008C40F069
:1011E000010008840846808A40F001008882084691
:1011F000008808800846008840F001000880084602
:10120000808940F4007088813E484430008840F670
:10121000084108433B49A1F844000846B0F844009F
:1012200040F40040A1F84400364B3433012206213B
:101230003548FFF76DFE3448006840F400603249DD
:1012400008600846006840F4005008600223392214
:1012500003210846FFF7F2FE44F620602B490860A0
:101260001420091F088029481438008800202749C5
:10127000143908800846008840F00100088023489F
:101280000C38008840F0FF0020490C3908801F48C6
:101290002038008840F002001C49203908801B4893
:1012A0002C38008840F0010018492C3908800223AE
:1012B000322203210020FFF7C1FE4FF47A70144957
:1012C00008605320091F088011482038008840F02A
:1012D00001000F49203908800D482C38008840F063
:1012E00001000B492C3908800223372219460020BF
:1012F000FFF7A4FE1CBD000044380240000002407D
:101300000004024000000140286402402C0C004010
:101310002C14004010B50446422221460448FFF731
:101320007BFE0448008840F001000249088010BD9F
:101330002864024000000140F0B504460D46164600
:101340001F461448006840F0010012490860002060
:101350001049083108600F4800680F4908400D49DE
:1013600008600E48091D0860081F006820F48020EE
:10137000091F0860002007490C3108603B463246CF
:101380002946204600F00CF800210846FFF7A6FE8B
:10139000F0BD000000380240FFFFF6FE10300024D0
:1013A000F0B504460D46002100203D4E366846F457
:1013B00080363B4F3E6001E04E1CB1B2384E36687D
:1013C00006F400361EB941F6FF76B142F4DB41F671
:1013D000FF76B14201D1012060E0314E40363668DF
:1013E00046F080562E4F40373E602E4E366846F40B
:1013F00040462C4F3E602A4E0836366846F4144666
:10140000274F08373E60264E366826F08076244FF8
:101410003E6045EA84160127C7EB520746EA0746B5
:1014200046EA036646F480061D4F3F1D3E603E1FA0
:10143000366846F080763F1F3E6000BF184E366823
:1014400006F00076002EF9D0174E366846F4807606
:10145000154F3E603E46366846F400763E603E4696
:10146000366846F480663E603E46366846F00506BD
:101470003E600B4E0836366826F00306084F0837E4
:101480003E603E46366846F002063E6000BF044EAF
:101490000836366806F00C06082EF8D1F0BD0000BC
:1014A0000038024000700040003C02401A490988A0
:1014B00001F0020121B3184924310868174909686D
:1014C00011B11749086020E015490968884205D91B
:1014D00013490968411A134A116007E01049096865
:1014E00044F62062511A01440E4A11600D49096800
:1014F00041F28832914204DD0B490968094A1160C2
:1015000003E008490968084A11600349098821F085
:101510000201014A11807047100C00400002404255
:10152000780000207C000020800000200748008810
:1015300000F0010040B10548008820F00100034997
:101540000880012002490870704700001014004014
:10155000840000202049098801F0200141B11E4982
:10156000098821F020011C4A118011468988C8B2DF
:10157000A52808D119490968891C21B94FF0FF3104
:10158000164A116026E0FF2807D114490968491C52
:1015900019B90021114A11601CE01049096800299D
:1015A00014DB0E490968142910DA0C490A68096825
:1015B000491C0A4B19600A498854194609681429BC
:1015C00008D16FF001011A46116003E06FF00101CC
:1015D000024A1160704700000010014060000020C6
:1015E000F40000203D49098801F0200141B13B4948
:1015F000098821F02001394A1180111D0988C8B2DB
:10160000A52808D136490968891C21B94FF0FF3156
:10161000334A116060E0FF2807D131490968491C4D
:1016200019B900212E4A116056E02D490968002998
:101630004EDB2B49096806294ADA29490A680968F4
:10164000491C274B196027498854194609680629FF
:1016500042D16FF001011A4611602249497800EE2B
:10166000101AB8EE400A204981ED000A91ED000AF7
:10167000DFED1E0A80EE201A81ED001A1949097863
:1016800041B9194991ED000AFFEE000A20EE200A47
:1016900081ED000A1349C97800EE101AB8EE400A2D
:1016A000134981ED000A91ED000ADFED100A80EE8A
:1016B000201A81ED001A0B49897869B90C4991ED1E
:1016C000000AFFEE000A20EE200A81ED000A03E086
:1016D0006FF00101024A11607047000000440040B1
:1016E00064000020580100206C00002000008043AE
:1016F000700000200CB57549098801F0200141B146
:101700007249098821F02001704A1180111D098851
:10171000C8B2AA2808D16E490968891C21B94FF0BE
:10172000FF316B4A1160CFE0552807D1684909683D
:10173000491C19B90021664A1160C5E0644909686D
:1017400000297CDB62490968092978DA60490A685E
:101750000968491C5E4B19605E498854194609683E
:101760000929E0D16FF00101196019600022002100
:1017700004E0584B5B5C1344DAB2491C0829F8DBDF
:101780005449097A91427DD1524909788DF8041063
:10179000504949788DF805104E4989788DF8061022
:1017A0004C49C9788DF807104A4909798DF800101D
:1017B000484949798DF80110464989798DF8021018
:1017C0004449C9798DF803109DED013AB0EE431AF2
:1017D0009DED003AF0EE431A9FED3F3A61EE833AF9
:1017E000B0EE004A83EE843A31EE433ADFED3B3A05
:1017F00023EE233AB0EE432A9FED373A61EE833A67
:10180000B0EE004A83EE843A33EE013ADFED333A2C
:1018100023EE233AF0EE432A9FED313AC2EE033A2B
:101820009FED303A23EE833AB0EE430ADFED2C3AD7
:1018300082EEA33ADFED2B3A23EE233A00E03FE0BD
:10184000F0EE430A9FED273AB4EEC30AF1EE10FA28
:1018500003DD9FED243AB0EE430A9FED233AB4EE48
:10186000C30AF1EE10FA03D29FED1F3AB0EE430A1D
:101870009FED1C3AF4EEC30AF1EE10FA05DD9FED80
:10188000193A00E01BE0F0EE430A9FED173AF4EE40
:10189000C30AF1EE10FA03D29FED133AF0EE430AB9
:1018A000BDEEC03A13EE101A49B2104B1970BDEEDE
:1018B000E03A13EE101A49B20D4B197000BF03E065
:1018C0006FF00101024A11600CBD000000480040A9
:1018D00068000020BC0100207D3F353F25FFBC444F
:1018E00000803B450000C8420000C8C25C000020E8
:1018F0005D00002010B5A5200A490870FF2048703F
:10190000022088700320C8700420087105204871E7
:10191000062088715A20C87108220348FFF77CFB13
:1019200010BD000084020020A060024000BF70478C
:101930004FF0E021096921F004014FF0E02211612C
:10194000C21700EB5272C2F3C702074B1A70194656
:10195000097801EB4102C2EBC1114FF6FF7202EAB6
:10196000C101024A11807047580000205A0000202F
:1019700070B504464FF4077094FBF0F0C6B24FF414
:10198000077094FBF0F100FB114085B205E04FF4C5
:10199000077000F009F8701EC6B2002EF7D115B11D
:1019A000284600F001F870BD01460D4A12884A43EE
:1019B0004FF0E0235A6100229A6101221A6100BFB0
:1019C0004FF0E022106900F001021AB100F48032F9
:1019D000002AF5D000224FF0E0231A619A61704787
:1019E0005A000020014671EE602AF0EE621AB0EE55
:1019F000602A30EE423A01208840401E02EE900AF2
:101A0000F8EEE22A63EE222A82EEA13AFDEEC32A24
:101A100012EE900A7047000090B0072302220821BE
:101A20004FF4A870FFF788FCA820FFF781FF00F0B3
:101A300069F9FFF75BFBFFF701F9FFF747F80020B3
:101A40000C230722062100900120FEF74FFC002006
:101A500003230722062100900120FEF77DFDFFF7FA
:101A600009F845A103C9CDE90E01082000231A4653
:101A70004FF4C061009009A8FEF76DFE0EA909A8F9
:101A8000FEF75CFE09A93E48FEF786FE6420FFF7DC
:101A90006FFF9FED3C0A3C4880ED050A9FED390A37
:101AA00080ED080A4FF47A70FFF762FF63E0374871
:101AB000007800B95FE00020344908702B208DF8D1
:101AC0001C0000208DF81D008DF81E008DF81F00F1
:101AD0002F4800788DF820002E4800788DF82100DE
:101AE00000208DF822008DF82300082000231A46DC
:101AF0004FF4C061009002A8FEF72DFE07A902A8CE
:101B0000FEF71CFE02A91E48FEF746FE224890ED95
:101B1000000A2248D0ED000A80EE201A1A4880ED13
:101B2000051A1F4890ED000A1C48D0ED000A80EE0F
:101B3000201A1C4880ED051A134A1B491048FFF76C
:101B400001F8184A18491948FEF7FCFF18480088A0
:101B5000401C1749088008460088B0F5FA6F07DD79
:101B600000200880552000F027F81248FFF7D2FB2C
:101B7000FFF7C0FE00BF9AE72B0301000A01000037
:101B80000064004000000000CC040020840000201D
:101B90005C0000205D0000206C000020540000204C
:101BA0007000002028050020840400200068004008
:101BB000520000204C03002010B50146002095E0A3
:101BC0004FF46172002303EB00134D4C24F81320F3
:101BD000012303EB001324F81320022303EB00136B
:101BE00024F81320032303EB001324F81320042309
:101BF00003EB001324F81320052303EB001324F850
:101C00001320062303EB001324F813209622072346
:101C100003EB001324F8132001F0800212B14FF4FB
:101C2000617200E09622082303EB0013344C24F881
:101C3000132001F0400212B14FF4617200E09622CD
:101C4000092303EB00132E4C24F8132001F020028B
:101C500012B14FF4617200E096220A2303EB0013E5
:101C6000274C24F8132001F0100212B14FF46172D6
:101C700000E096220B2303EB0013214C24F81320E1
:101C800001F0080212B14FF4617200E096220C23B9
:101C900003EB00131A4C24F8132001F0040212B1D4
:101CA0004FF4617200E096220D2303EB0013144CF5
:101CB00024F8132001F0020212B14FF4617200E027
:101CC00096220E2303EB00130D4C24F8132001F091
:101CD000010212B14FF4617200E096220F2303EB70
:101CE0000013074C24F81320421CD0B20428FFF63E
:101CF00067AF0022024BA3F88020A3F8822010BD1A
:101D00004C03002030B52DED028B83B09B4800685A
:101D100040F00100994908600846006840F0020060
:101D2000086096481430006840F010009349143160
:101D30000860081F006840F40030091F086008466A
:101D4000006840F4802008600020022103460A4613
:101D5000CDE9001040F20C618948FEF71BFE00201F
:101D6000022103460A46CDE900104FF44061854840
:101D7000FEF710FE072209218148FEF7EBFD07223E
:101D80000A217F48FEF7E6FD072202217C48FEF784
:101D9000E1FD072203217A48FEF7DCFD07220A2134
:101DA0007848FEF7D7FD07220B217648FEF7D2FDD3
:101DB0009FED750AB0EE408ABCEEC80A10EE100A1C
:101DC00084B200EE104AB8EE400A38EE400AF3EE54
:101DD000000A20EE200ABCEEC00A10EE100A85B2FE
:101DE0004FF6FF7000EA0414601984B2674804815A
:101DF000808920F40040654988810846808940F048
:101E000008008881802088820846808940F004008C
:101E100088810846808940F0200088810B1D0122BE
:101E200004215B48FFF774F8022346220321084689
:101E3000FFF704F90223252203210846FFF7FEF8E5
:101E40005248808940F40050504988819FED510AE2
:101E5000B0EE408ABCEEC80A10EE100A84B200EE62
:101E6000104AB8EE400A38EE400AF3EE000A20EEBF
:101E7000200ABCEEC00A10EE100A85B24FF6FF70C1
:101E800000EA0414601984B243480480001D0088ED
:101E900020F400404049091D08800846008840F0B1
:101EA0000800088080203C490C3108803A48001D19
:101EB000008840F004003849091D08800846008861
:101EC00040F020000880344B1B1F012204213348BE
:101ED000FFF71EF80223262201210320FFF7AEF8A8
:101EE0000223112203210846FFF7A8F82A48001D03
:101EF000008840F400502849091D088028480480C3
:101F0000001D008820F400402549091D088008466E
:101F1000008840F008000880802021490C310880AA
:101F20001F48001D008840F004001D49091D08805D
:101F30000846008840F020000880194B1B1F012232
:101F4000042116484838FEF7E3FF022327221946EA
:101F50000320FFF773F802230E2200210320FFF76E
:101F60006DF80F48001D008840F400500C49091D11
:101F7000088003B0BDEC028B30BD00003038024059
:101F80000000024000040240AB4A3642001001400B
:101F9000B864024000B8884308440040A060024092
:101FA000084800404FF04070E1EE100A7047000012
:101FB000D01F000800000020F4000000C401000849
:101FC000C4200008F4000020F4080000E00100082C
:101FD000000000000000F03F0000000000000000D2
:101FE00000000000000000000000000000000000F1
:101FF000000000000000F03F000000000000004072
:102000000000000000000000AE47E17A14AEEF3F90
:102010000000C842CDCC4C3E0000003FDA0FC93F63
:10202000000000000000803F0000000000000100F0
:102030000000000000000000FEFFFFFF00000000A5
:102040000000000000000000000000000000000090
:102050000000000000000000000000000000803FC1
:102060000000000000000000000000000000000070
:10207000000000000000000000000000FFFFFFFF64
:10208000FFFFFFFCFFFFFFFFFFFFFFFD0000000061
:102090000000000000000000BBFFFFFFFFFFFFFF8C
:1020A000FFFFFFFFFFFFFFFF000000000000000038
:1020B0000000000000000000000000000000000020
:0420C000000000001C
:040000050800018965
:00000001FF
