:020000040800F2
:10000000C00800208102000893310008CF290008B1
:10001000913100088D070008573A000800000000E1
:10002000000000000000000000000000AB340008E9
:100030008F0700080000000095310008AD3400086B
:100040009B0200089B0200089B0200089B0200081C
:100050009B0200089B0200089B0200089B0200080C
:100060009B0200089B0200089B0200089B020008FC
:100070009B0200089B0200089B0200089B020008EC
:100080009B020008000000009B0200089B02000881
:100090009B0200089B0200089B0200089B020008CC
:1000A0009B0200089B0200089B0200089B020008BC
:1000B00035350008413500089B0200089B02000806
:1000C0009B0200089B0200089B0200089B0200089C
:1000D0009B0200089B0200089B0200089B0200088C
:1000E0009B0200089B0200089B0200089B0200087C
:1000F0009B0200089B0200089B0200080000000011
:10010000000000009B020008000000009B020008A5
:100110009B020008000000009B0200089B020008F0
:100120009B0200089B0200089B0200089B0200083B
:100130009B02000800000000000000009B02000875
:100140009B0200089B020008000000000000000065
:10015000000000000000000000000000000000009F
:100160000000000000000000000000009B020008EA
:100170009B020008000000000000000000000000DA
:10018000000000009B0200080000000000000000CA
:10019000000000000000000000000000000000005F
:1001A00000000000000000009B0200089B02000805
:1001B0009B0200089B0200089B0200080000000050
:1001C000000000009B02000800000000000000008A
:1001D0009B0200089B02000800F002F800F041F8C2
:1001E0000AA090E8000C82448344AAF10107DA4592
:1001F00001D100F036F8AFF2090EBAE80F0013F0A3
:10020000010F18BFFB1A43F001031847E46D00000B
:10021000046E0000103A24BF78C878C1FAD852079B
:1002200024BF30C830C144BF04680C607047000070
:100230000023002400250026103A28BF78C1FBD8EF
:10024000520728BF30C148BF0B607047642900F0D7
:100250007380002070471FB505F00CFD1FBD10B561
:1002600010BD00F0F5F91146FFF7F5FF04F0B6FEFA
:1002700000F013FA03B4FFF7F2FF03BC00F016FA24
:100280000948804709480047FEE7FEE7FEE7FEE72A
:10029000FEE7FEE7FEE7FEE7FEE7FEE70448054966
:1002A000054A064B7047000019350008D9010008BF
:1002B000C0020020C0080020C0040020C0040020AC
:1002C0000FB41CB5074B06AA7B44694600900598FD
:1002D00000F09DF90020694600F0ACF91CBC5DF807
:1002E00014FB00006903000070B5044685690068CE
:1002F000C10601D5302600E02026C00707D070BD1A
:10030000D4E9012130469047206A401C20626D1ECE
:10031000F6D570BD70B5044685690078C00707D171
:1003200070BDD4E9012120209047206A401C206242
:100330006D1EF6D570BD00002DE9F0410646002483
:1003400010687529314616A510D0AFF3008000283B
:1003500002DA404213A507E031688A0701D512A5E9
:1003600002E0490704D511A5012401E0AFF30080A4
:1003700000210A2206F1240709E0B0FBF2FCB0FBE1
:10038000F2F302FB1C00303078541846491C002858
:10039000F3D123462A463046BDE8F04100F0D9B8F3
:1003A000000000002D0000002B00000020000000D5
:1003B0002DE9F05F894604464FF0000ADFF824B1CA
:1003C000FB44C0F820A02046E168884700287DD083
:1003D000252806D0D4E901219047206A401C2062DC
:1003E000F1E700255F462046E16888472028064659
:1003F00007DB312E05D2B81910F8200C08B10543DF
:10040000F1E7A80701D525F00405C4F81CA00027D2
:10041000C4F818A02A2E09D0304604F03DFA38B3AB
:1004200004EB8708303EC8F8186019E059F8041B3F
:10043000204604EB87029161E1688847012F064658
:1004400018D1E069002820DA25F020051DE0D8F851
:10045000180000EB800006EB40003038C8F81800A8
:100460002046E1688847064604F016FA0028EED1D7
:10047000012F0AD02E2E08D12046E16888477F1C24
:100480000646022F45F02005C4DBA069002803DAE8
:10049000404245F00105A061E80701D025F01005B4
:1004A000A6B1A6F14100192802D8203645F400650E
:1004B0004A463146204625604D46FFF7C7FE60B1EB
:1004C000012807D0ED1D25F0070000E007E000F14E
:1004D000080978E705F1040975E730467AE7206AEC
:1004E000BDE8F09F8A6B00004FF0000200B5134694
:1004F00094469646203922BFA0E80C50A0E80C5044
:10050000B1F12001BFF4F7AF090728BFA0E80C50F4
:1005100048BF0CC05DF804EB890028BF40F8042BED
:1005200008BF704748BF20F8022B11F0804F18BF5A
:1005300000F8012B704770477047704710B500F006
:100540007FF8006810BD10B5044600F079F804602B
:1005500010BD2DE9F0470D4699469246044600F13C
:1005600024080168880604D5E06921F010012160A3
:1005700000E00120A84201DD471B00E00027A1693F
:100580007A1902EB0900081AA0612078C00602D48B
:100590002046FFF7A9FE002608E0D4E901211AF859
:1005A00006009047206A401C761C20624E45F4DB12
:1005B0002078C0060AD52046FFF796FE06E0D4E96B
:1005C000012130209047206A401C2062381EA7F18C
:1005D0000107F4DC07E0D4E9012118F80500904791
:1005E000206A401C2062281EA5F10105F3DC20468C
:1005F000FFF790FE2078000602D50220BDE8F087C4
:100600000120FBE701694A1C02610878704700B5C8
:100610008FB0CDE901310021059105497944CDE93B
:10062000031011466846FFF7C3FE0FB000BD00007F
:10063000E5FFFFFF0A6802F8010B0A60704700003F
:1006400000487047600200200048704760020020A8
:100650007546FFF7F9FFAE4605006946534620F0A0
:100660000700854618B020B5FFF718FEBDE820400A
:100670004FF000064FF000074FF000084FF0000B5E
:1006800021F00701AC46ACE8C009ACE8C009ACE811
:10069000C009ACE8C0098D46704710B50446AFF3F9
:1006A00000802046BDE81040FFF7E4BD0149182056
:1006B000ABBEFEE7260002007047000070B504469E
:1006C000006881688268C1F3400112F0010F24D0F4
:1006D00019BB816801F00D01012910D18168104A10
:1006E0001140891C816021680320086000F010FE21
:1006F00005460EE000F00CFE401B022809D9E06D13
:1007000040F01000E065206E40F0010020660120FE
:1007100070BD20688068C007ECD1002070BD00006B
:10072000C0FFFF7F70B504460068816811F0010FBB
:1007300028D18168144A114215D18168D5432940D6
:10074000491C816000F0E4FD064616E0816811F066
:10075000010F03D181682940491C816000F0D8FD58
:10076000801B022809D9E06D40F01000E065206E82
:1007700040F001002066012070BD20680168C94377
:10078000C907E3D1002070BD3F000080FEE770473D
:10079000002240F6B83306E00021491C89B2994294
:1007A000FBD3521C92B28242F6D3704772B6FEE778
:1007B000F8B500260446009690F858000D4601282A
:1007C0000BD0012084F858002046FFF777FF010086
:1007D000E06D04D040F010002AE00220F8BD20F4C3
:1007E000885040F00200E06520688268134B1A4090
:1007F00005F080431A4342F000428260104A2068AC
:100800000EE0009B5B1C0093934209D3E06D20F047
:10081000020040F01000E06584F858600120F8BD47
:100820008368DB0FEDD1E06D20F0020040F00100A5
:10083000E06584F858600846F8BD0000C0FFFF3F3F
:1008400002DE04002DE9F047044690F858009CB001
:100850000D464FF00008012814D0012084F85800FC
:1008600020684FF0A0474FF00009B8420ED1284E43
:100870000096304602F0B4FA8246206802F0B0FAE0
:1008800060B10EE002201CB0BDE8F087E16D41F0E0
:100890002001E16584F858900120F4E7BAF1000FD7
:1008A0000AD0E06D40F02000E0654FF0010800BF85
:1008B00084F858904046E6E716482A6840F61F71CB
:1008C000002A826822F4604215D094F8383042EA57
:1008D00043326B681A438260BA68B36802F001025F
:1008E00003F001031A43E3D1AB682A681A43836813
:1008F0008B431A430AE08260BA68B36802F00102CF
:1009000003F001031A43D3D182688A438260CFE7A0
:1009100000010050000300502DE9F84F0027044665
:10092000009790F85800DFF8DC930D46B846012890
:1009300011D0012684F85860206802F04DFA60B1A9
:10094000E06D40F02000E0655FF0010784F858801A
:100950003846BDE8F88F0220FBE7D5E900210C23DB
:10096000206803EA91131844036B01F01F014FF054
:100970001F0C0CFA01FCC2F3846223EA0C038A40C8
:1009800013430363206802F027FA8246206802F0CE
:100990001FFA5AEA00003CD1AA6829682068B2F11F
:1009A000004F37D002F020FA2068416921F0004161
:1009B000416120686969C268C2F3C1025200914076
:1009C0002A69042A31D000EB82002B68026EDFF81E
:1009D00038C303F0F84302EA0C020B431A4342F017
:1009E0000041016622682869A96902EB8000026E55
:1009F00022F080720A430266297F20682A69012951
:100A000010D0002100EB8200026E22F000720A4337
:100A100002667DE0002202F0E7F92068416941F0BA
:100A20000041C5E74FF00071ECE7002102F0CAF980
:100A3000400320684FF0000172D002F0C3F990FA31
:100A4000A0F0B0FA80F1286842036ED090FAA0F0CE
:100A5000B0FA80F0814204D100221146206802F0F1
:100A6000D2F90121206802F0ADF9400320684FF06F
:100A700001015DD002F0A6F990FAA0F0B0FA80F181
:100A80002868420359D090FAA0F0B0FA80F0814271
:100A900004D100220121206802F0B5F9022120686A
:100AA00002F090F9400320684FF0020148D002F0B4
:100AB00089F990FAA0F0B0FA80F12868420344D096
:100AC00090FAA0F0B0FA80F0814204D10022022115
:100AD000206802F098F90321206802F073F94003BE
:100AE00020684FF0030133D002F06CF990FAA0F0C7
:100AF000B0FA80F1286842032FD090FAA0F0B0FA43
:100B000080F0814204D100220321206802F07BF9A9
:100B10002068816811F0010F22D0ACE000E004E011
:100B200002F050F9C0F384618DE7C0F3846091E76F
:100B300002F048F9C0F38461A2E7C0F38460A6E73D
:100B400002F040F9C0F38461B7E7C0F38460BBE70B
:100B500002F038F9C0F38461CCE7C0F38460D0E7D9
:100B60002A7B296850F8B03FC1F3120C23EA0C032A
:100B700002F0180C654A22FA0CF20A401343036093
:100B8000E968494577D1286841031CD090FAA0F163
:100B9000B1FA81F1491C01F01F0109294FEA4031E6
:100BA00032D8002912D000BF90FAA0F1B1FA81F139
:100BB00001F1010101F01F0106FA01F609D100BFA0
:100BC000C0F3846109E0C0F38461E3E7C0F38461AA
:100BD000EEE790FAA0F1B1FA81F101F1010101F023
:100BE0001F0146EA816102D1C0F3846003E090FAFC
:100BF000A0F0B0FA80F000F1010000F01F0000EB5F
:100C0000400041EA005132E000290ED090FAA0F1F4
:100C1000B1FA81F101F1010101F01F0106FA01F6BB
:100C200006D100BFC0F3846106E0C0F38461F1E740
:100C300090FAA0F1B1FA81F101F1010101F01F0177
:100C400046EA816102D1C0F3846003E090FAA0F02B
:100C5000B0FA80F000F1010000F01F002C4A00EB18
:100C6000400002EB005041EA000141F00071AA6827
:100C7000206802F0B9F827482A6802423FF466AEBD
:100C800025488168254B01F0E0719A4202D0244B3F
:100C90009A421BD10B0219D42268B2F1A04F7FF403
:100CA00055AE826841F4000122F0E0720A4382608E
:100CB0001C481D490068B0FBF1F000EB40008000CB
:100CC00000E0401E00900028FBD13FE6174D184B76
:100CD000AA4207D1CD0105D422689A42F5D041F04D
:100CE000807109E0134DAA42EFD14A02EDD4226887
:100CF0009A42EAD041F48001826822F0E0720A430D
:100D0000826023E600007F4000F0FF03FFFF070042
:100D1000000020FE0000088000030050000021C3F6
:100D20001000C09010000020400D0300000052C7CA
:100D300000010050000084CB0068006C7047000088
:100D4000F8B54FF0000504002E46009502D0E06D86
:100D500010B107E00120F8BD204600F0EDF826664E
:100D600084F8586020688168C1F3407119B18168C6
:100D7000694A1140816020688168C1F3007179B9C6
:100D80008168664A114041F080518160644865493C
:100D90000068B0FBF1F000E0401E00900028FBD19D
:100DA00020688168C1F3007141B9E16D41F0100123
:100DB000E165216E41F001012166012502F00CF888
:100DC000E16DC90600D430B1E06D40F01000E0657F
:100DD00001252846F8BDE06D20F4807040F0020047
:100DE000E0652068806810F0010F11D14FF0A0403D
:100DF00080684D4900F00100896801F00101084355
:100E000006D14A486168826822F47C120A438260F3
:100E1000E168E06B627F0843A16841EA4231084320
:100E200094F8241040EA0140012904D1218D404A60
:100E300002EB41410843E16A29B101F47871226B68
:100E4000014342EA01002168CA683A4B1A40024352
:100E5000CA6020680169626B21F040611143016141
:100E6000206801F0B9FF0646206801F0B1FF304369
:100E70002ED1207F94F83810800340EA4102206888
:100E8000C16844F2020399431143C16020690028FC
:100E9000206801690AD041F480310161206850F86E
:100EA000C01F22696FF30D01114307E021F4803167
:100EB0000161206850F8C01F6FF30D01016094F8C4
:100EC000400001280CD02068016921F00101016176
:100ED000606901282068016B21F00F0111D013E037
:100EE000D4E911010843D4E91312114308432168DE
:100EF0000A6940F2FC739A43104340F00100086114
:100F0000E6E7226A521E11430163E06D20F0020001
:100F100040F00100E0655CE7C0FFFF5FC0FFFF7FBE
:100F200010000020400D030000010050000300509D
:100F30000000FEFF0740F0FF2DE9F04397B00446A4
:100F4000142111A8FFF7D0FA44216846FFF7CCFA24
:100F50004FF0005021682D4D0327DFF8B490861321
:100F60002C4C4FF00008B1F1A04F10D02A4A91420A
:100F700048D100960F90684600F0C8FA08B1FFF714
:100F800015FC2868401C2860012824D02BE000961E
:100F90000F90684600F0BAFA08B1FFF707FC28681E
:100FA000401C2860012807D1E06C40F40050E06448
:100FB000E06C00F400501690E06C40F00200E06439
:100FC000E06C11A900F0020016904FF4805081E807
:100FD0008101484614E0E06C40F40050E064E06CAD
:100FE00000F400501690E06C40F00200E064E06C09
:100FF00011AA00F00200169082E8C00111A948462B
:1010000000F098F817B0BDE8F08300000000002061
:101010000004004800100240000100502DE9F0419A
:1010200004463848806800F01F05206801F0D4FEAF
:1010300018B102210846BDE8F08194F85800012853
:101040000CD0012084F858002046FFF76BFB01000C
:101050004FF0000304D084F85830EBE70220EAE7B1
:10106000E06D40F60162904340F48070E065264AEE
:1010700020684FF0A046904201D1374600E0074675
:10108000874200D01DB9E76D27F48017E765E76D4B
:10109000FF0404D5276E27F00607276600E02366C5
:1010A0001C27076084F858302068904201D13346ED
:1010B00000E00346834215D0A5B1052D12D0092DBD
:1010C00010D0E36D43F48013E365904200D13046C5
:1010D000C0688001AED5E06D20F4005040F480502F
:1010E000E065A7E7C268920105D5E26D22F40052DF
:1010F00042F48052E2658268044B1A40121D8260FD
:1011000098E700000003005000010050C0FFFF7F7F
:1011100070B5044600F0FCF80546601C02D0044897
:101120004068044400F0F4F8401BA042FAD370BDBC
:10113000040000202DE9FC4FDFF8A0A100230125C9
:101140000AF1040B03244FF00F0C0BF1040EBDE069
:1011500005FA03F632406FD04F68012F05D0022FF9
:1011600003D0112F01D0122F17D1D0F808905F00B3
:1011700004FA07F829EA08090097D1F80C8008FA60
:1011800007F848EA0908C0F808804768B7430E79AD
:10119000C6F300169E403E434660C6684FEA4308C9
:1011A00004FA08F7BE4301978F6807FA08F7374338
:1011B000C7604E68022E01D0122E13D1DE0800EB5C
:1011C00086060096366A5F07FF0E0CFA07F926EAD4
:1011D0000906D1F8109009FA07F949EA0609009EB4
:1011E000C6F820900668019FBE430F7907F00307F9
:1011F00007FA08F7374307604E68F60065D5384EA2
:10120000376E47F001073766366E23F0030706F0A6
:1012100001060096334E3E44B146B6689F074FEA3A
:1012200017780CFA08F7BE43B0F1904F05D02E4F57
:10123000B84204D1012717E047E0002714E02B4F04
:10124000B84201D102270FE0294FB84201D103274C
:101250000AE0284FB84201D1042705E0264FB842E2
:1012600001D1052700E0062707FA08F73743C9F838
:101270000870DAF800605746D1F8048096435FEAB8
:10128000C83800D516433E60DBF800605F46D1F8F1
:10129000048096435FEA883800D516433E60DEF846
:1012A00000607746D1F8048096435FEAC82800D5ED
:1012B00016433E60094F0C373E68D1F804809643D0
:1012C0005FEA882800D516433E605B1C0A6832FA44
:1012D00003F67FF43DAFBDE8FC8F00000004014041
:1012E00000100240000001400004004800080048CF
:1012F000000C004800100048001400480069084035
:1013000000D0012070470AB1816170478162704747
:10131000014880687047000004000020024881688E
:1013200042681144816070470400002010B5002419
:10133000032000F073F80F2000F008F808B1012432
:1013400001E000F025F8204610BD000070B50E4EFB
:1013500005460024706898B14FF47A71B1FBF0F043
:101360000A490968B1FBF0F000F040FD40B9102DCA
:1013700006D200222946501E00F030F8356000E009
:101380000124204670BD0000040000201000002051
:101390000A4882B0016E41F001010166016E01F060
:1013A00001010091816D41F080518165806D00F0F7
:1013B0008050009002B000F0A1B800000010024080
:1013C000002809DB00F01F02012191404009800044
:1013D00000F1E020C0F8001170470000F0B40E4B9F
:1013E0001B680C46C3F30223C3F10705042D00D983
:1013F0000425191D072901D2002300E0DB1E012668
:1014000006FA05F1491E214099409E40761E16407D
:101410003143F0BC02F038BB0CED00E0064900F0AF
:10142000070208684FF6FF03184040EA0220034A0B
:1014300010430860704700000CED00E00000FA0562
:101440002B492C4B0A6832214A432B4940B1B0F555
:10145000007F086829D020F4C06040F480602CE050
:101460000868C0F34120022804D051F8800F20F40E
:10147000807022E0D1F8800020F48070C1F88000F4
:10148000086820F4C06040F400700860B2FBF3F01C
:10149000401C00E0401E4A69520501D50028F9D1E0
:1014A000486940050AD503207047C0F3412002284F
:1014B00006D051F8800F40F480700860002070471B
:1014C000D1F8800040F48070C1F88000086820F4F2
:1014D000C06040F400700860B2FBF3F0401C00E014
:1014E000401E4A695205DBD50028F9D1D8E7000033
:1014F0001000002040420F00007000400248816848
:1015000041F4804181607047007000402DE9F8434C
:101510000446006800269D4D00035ED5A86D002797
:10152000C00008D4A86D40F08050A865A86D0127C0
:1015300000F080500090DFF85892D9F8001041F484
:101540008071C9F80010FFF7E3FE804606E000BF97
:10155000FFF7DEFEA0EB080002282BD8D9F8000028
:10156000C005F5D5D5F8900010F4407014D0216C6A
:10157000814211D0D5F89000D5F8901020F4407039
:1015800041F48031C5F89010D5F8901021F48031E5
:10159000C5F89010C5F89000C00711D0FFF7B8FE4D
:1015A000804641F2883907E0FFF7B2FEA0EB080160
:1015B000494501D903260BE0D5F890008007F3D503
:1015C000D5F89000216C20F440700843C5F89000D5
:1015D0001FB1A86D20F08050A8652078C00707D003
:1015E000D5F88800616820F003000843C5F888003A
:1015F0002078800707D5D5F88800A16820F00C0076
:101600000843C5F888002078400707D5D5F888003A
:10161000E16820F030000843C5F888002078000712
:1016200007D5D5F88800216920F0C0000843C5F827
:1016300088002078800607D5D5F88800616920F4F5
:1016400040600843C5F888002078400607D5D5F8E3
:101650008800A16920F440500843C5F8880020782C
:10166000000607D5D5F88800E16920F4404008431A
:10167000C5F888002088C00507D5D5F88800216AFC
:1016800020F440300843C5F888002088800507D53D
:10169000D5F88800616A20F440200843C5F8880026
:1016A000208840050FD5D5F88800A16A20F44010A5
:1016B0000843C5F88800A06AB0F5801F03D1E86828
:1016C00040F48010E860208800050FD5D5F8880028
:1016D000E16A20F440000843C5F88800E06AB0F5EC
:1016E000800F03D1E86840F48010E8602088C004CF
:1016F0000FD5D5F88800216B20F040700843C5F85D
:101700008800206BB0F1807F03D1E86840F480103E
:10171000E86020884FF0006180040ED5D5F888007D
:10172000626B20F040601043C5F88800606B88420F
:1017300003D1E86840F48010E860208840040ED5AA
:10174000D5F88800A26B20F040601043C5F88800EF
:10175000A06B884203D1E86840F48010E8602088DC
:1017600000040FD5D5F88800E16B20F04050084305
:10177000C5F88800E06BB0F1805F03D1E86840F401
:101780008030E8603046BDE8F88300000010024079
:10179000007000402DE9F0470E4605004FF00007AD
:1017A00025D0DFF8AC81D8F8000000F00F00B0427F
:1017B0000CD2D8F8001021F00F013143C8F8001006
:1017C000D8F8000000F00F00B04210D12968614C39
:1017D000C80741F2883A5AD06868DFF87C9103283C
:1017E00008D0022820682DD0400500282CDB0120DD
:1017F000BDE8F08720688001F9D5E06800F00302B9
:10180000E068C0F30310401C032A19D0534A00BFFC
:10181000B2FBF0F0E268C2F306225043E268C2F382
:101820004162521C5200B0FBF2F0484517D9A06843
:1018300010F0F00F0CD0880711D5A86840B10EE069
:10184000474AE5E78003D0E700F092F8484506D91B
:10185000A06820F0F00040F08000A0608027A06821
:10186000696820F003000843A060FFF751FD81463E
:1018700006E000BFFFF74CFDA0EB090151453AD847
:10188000A068696800F00C00B0EB810FF2D1286805
:10189000810714D5400703D5A06840F4E060A0603C
:1018A0002878000705D5A06820F4605040F4E06077
:1018B000A060A068A96820F0F000084304E0802F31
:1018C00003D1A06820F0F000A060D8F800104046D6
:1018D00001F00F01B14216D9016821F00F01314327
:1018E0000160FFF715FD074607E000BFFFF710FD99
:1018F000C11B514501D903207AE7D8F8000000F058
:101900000F00B042F2D12878400705D5A068E968F9
:1019100020F4E0600843A0602878000706D5A0689E
:10192000296920F4605040EAC100A06000F020F86E
:10193000A1680C4AC1F30311515C01F01F01C840BA
:101940000949086009480068BDE8F047FFF7FEBC98
:10195000002002400010024000B4C4040024F4003F
:1019600000366E016E5D00081000002004000020AB
:10197000184910B58868C0F381021748012A0BD0B6
:101980008A68164BC2F38102022A06D08A68C2F323
:101990008102032A03D0002010BD184610BDCA687A
:1019A00002F00304CA68C2F30312521C032C02D0D3
:1019B000B0FBF2F001E0B3FBF2F0CA68C968C2F311
:1019C00006225043C1F34161491C4900B0FBF1F0CC
:1019D00010BD0000001002400024F40000366E012B
:1019E0002DE9F84304007AD02078FA4DC00747D09B
:1019F000A868E96800F00C0001F003010C2802D08F
:101A0000082817D001E0032914D06068B0F5803FA2
:101A100017D0B0F5A02F286817D020F480302860A8
:101A2000286820F4802028606068E0B1FFF770FC2F
:101A3000064614E02868800322D560680028D2D0CA
:101A40001EE0286840F48030EDE740F480202860F4
:101A5000F7E700BFFFF75CFC801B642870D828689C
:101A60008003F7D50CE0FFF753FC064605E000BF06
:101A7000FFF74EFC801B6428F0D828688003F7D459
:101A8000207880074CD5A868E96800F00C0001F0C8
:101A900003010C2802D004280DD001E002290AD04D
:101AA000E068002828682BD040F480702860FFF799
:101AB0002FFC064619E02868400502D5E06800289A
:101AC00091D06868217C20F0FE4040EA01606860A7
:101AD000C1480068FFF73AFC002800D120E076E119
:101AE000FFF716FC801B0228B8D828684005F7D5F8
:101AF0006868217C20F0FE4040EA016068600FE0E9
:101B000020F480702860FFF703FC064605E000BF64
:101B1000FFF7FEFB801B0228A0D828684005F7D4F9
:101B20002078000729D560690028D5F8940013D0E3
:101B300040F00100C5F89400FFF7EAFB064606E016
:101B400090E000BFFFF7E4FB801B022886D8D5F8A1
:101B500094008007F6D510E020F00100C5F894004D
:101B6000FFF7D6FB064604E0FFF7D2FB801B0228F6
:101B700078D8D5F894008007F6D42078400761D54E
:101B8000A86D0026C00008D4A86D40F08050A8655C
:101B9000A86D012600F08050009090480168C905AA
:101BA00011D40168804641F480710160FFF7B0FBF9
:101BB000074604E0FFF7ACFBC01B022852D8D8F858
:101BC0000000C005F6D5A068012815D00528D5F875
:101BD000900016D020F00100C5F89000D5F89000D4
:101BE00020F00400C5F89000A06841F28838B8B130
:101BF000FFF78EFB07460EE0D5F8900040F001009D
:101C0000F0E740F00400C5F89000F5E7FFF780FB2F
:101C1000C11B414526D8D5F890008007F6D50CE0C9
:101C2000FFF776FB074604E0FFF772FBC11B414557
:101C300018D8D5F890008007F6D41EB1A86D20F012
:101C40008050A8652078800629D5A0690028D5F89D
:101C5000980013D040F00100C5F89800FFF758FB3A
:101C6000064606E077E000BFFFF752FB801B022824
:101C700077D8D5F898008007F6D510E020F001005D
:101C8000C5F89800FFF744FB064604E0FFF740FB69
:101C9000801B022865D8D5F898008007F6D4E06943
:101CA000F0B3A968C1F38101032961D00228286833
:101CB00020F0807028600BD0E86820F00300E86016
:101CC000E86847490840E860FFF722FB04464BE01C
:101CD000FFF71EFB064604E0FFF71AFB801B0228F5
:101CE0003FD828688001F7D4F4E908016FF00F02AB
:101CF00002EB01110843218A5204490802EB4151C9
:101D0000A26841EA02210843217D4FF07E42490842
:101D100002EB41610843217B40EAC160E96800E0D1
:101D200062E0304A11400843E860286840F0807063
:101D30002860E86840F08070E860FFF7E9FA044640
:101D400005E000BFFFF7E4FA001B022809D8286865
:101D50008001F7D548E004E0FFF7DAFA001B02281B
:101D600002D90320BDE8F88328688001F4D43BE061
:101D70000128F7D0E868226A00F00301914226D1D9
:101D8000616A00F0F0020901103991421FD1A26A84
:101D900000F4FE41B1EB022F19D194F82C2000F091
:101DA0007841B1EBC26F12D1218E00F4C002490814
:101DB0004905A1F50011914209D194F8341000F0C1
:101DC000C06049084906A1F1007181420CD0012090
:101DD000C8E700000010024004000020007000402E
:101DE000FFFFEEFE0C809F010020BBE710B5401EF8
:101DF000B0F1807F01D3012010BD4FF0E02460617D
:101E00000F21601701F040FE0020A0610720206133
:101E1000002010BD7047704770470000F0B590F883
:101E20003C20012A4AD0012280F83C20CA688B68F5
:101E300022F440721A434B6822F480621A430B6802
:101E400022F400621A430B6922F480521A434B6950
:101E500022F400521A430B6B22F480421A430B8B7C
:101E600022F4702242EA0342154C03680026154D05
:101E7000A34201D0AB4203D1CF6922F080523A4352
:101E8000A34201D0AB4214D10F8D22F4700242EA7A
:101E900007520F6A22F080723A434F6A22F00072B2
:101EA0003A43A34201D0AB4203D1C96A22F00052A7
:101EB0000A435A6480F83C600020F0BD0220F0BD67
:101EC000002C01400034014070477047704700000B
:101ED000F0B590F83C20012A3AD0012580F83C501A
:101EE000022280F83D2003685A689C68194E1A4FF8
:101EF000B34201D0BB4204D122F4700C4A6842EADA
:101F00000C02DFF858C002EA0C02D1F800C04CEA1B
:101F1000020CC3F804C00268B2420DD0B2F1804F87
:101F20000AD00F4B9A4207D00E4B9A4204D0BA42C5
:101F300002D00D4B9A4204D1896824F080031943E2
:101F4000916080F83D50002180F83C100846F0BDBB
:101F50000220F0BD002C0140003401408FFFFFFD46
:101F6000000400400008004000400140704710B5E8
:101F7000040003D094F83D0010B107E0012010BD2B
:101F8000002084F83C00204600F022F8022084F86B
:101F90003D00211D206801F0D9FA012084F8480095
:101FA00084F83E0084F83F0084F8400084F8410043
:101FB00084F8420084F8430084F8440084F8450023
:101FC00084F8460084F8470084F83D00002010BDE6
:101FD00010B586B0044614216846FEF785FA2168DC
:101FE0002548B1F1804F15D0244A914238D1816DF6
:101FF00041F002018165806D002200F00200059031
:1020000011461D20FFF7EAF95FF01D00FFF7D8F930
:1020100006B010BD816D41F001018165816D01F057
:1020200001010591C16C41F00101C164C06C6946B8
:1020300000F0010005904FF4004000900220019054
:10204000002002900390012004904FF09040FFF791
:1020500071F8002211461C20FFF7C0F91C20D5E7BB
:10206000074A9142D4D1016E41F480210166006E8D
:1020700000F480200590CBE70010024000040040EF
:102080000048014090F83D10012901D0012070471F
:10209000022180F83D100168CA6842F00102CA605E
:1020A0000068104988420ED0B0F1804F0BD00E4925
:1020B000884208D00D49884205D00D49884202D097
:1020C0000C49884207D181680B4A1140062906D085
:1020D000B1F5803F03D0016841F0010101600020AB
:1020E00070470000002C0140000400400008004040
:1020F00000340140004001400700010070B5044673
:1021000090F83C00012814D0012584F83C500220AE
:1021100084F83D0022689068344B184020F47F40DA
:1021200090600868702827D010DC10F00F0F03D0E3
:102130004AE04FF0020070BD4FEA2012072A43D256
:10214000DFE802F05050505048313900284BC21A95
:10215000984247D009DCB0F5805F35D0B0F5005F1C
:1021600015D0B0F1101F2FD13CE0102A3AD0202A10
:1021700038D0502A28D135E0CB68D1E90121206838
:1021800001F049FA2068816841F0770109E0CB68E5
:10219000D1E90121206801F03EFA2068816841F40C
:1021A0008041816010E0CA684968206801F0DEFB68
:1021B0005021206806E0CA684968206801F01EFCCA
:1021C0006021206801F032FA84F83D50002084F844
:1021D0003C0070BDCA684968206801F0C7FB402117
:1021E0002068EFE7226801461046EBE788FFCEFF44
:1021F0002000100001684FF08040814208D1416BFF
:10220000044A491CB2FBF1F1034AD1810021416229
:102210007047000040420F00180000202DE9F041F7
:10222000054690F83C000C46012836D0012085F880
:102230003C008AB3042A42D02868082A51D0D4E945
:102240000023E168066A26F480560662C669076ABA
:1022500026F4407646EA03234FF6FF7606EA01317C
:1022600023F4704319434FF4204627F4204306EA31
:1022700002321A43C16102622868C16921F44061D7
:10228000C1612868C169A26841EA0221C1610020D8
:1022900085F83C00BDE8F08101E00220FAE7D4E9CE
:1022A0000012E368286801F073FB2868816921F057
:1022B0000C01816128688169A26811430FE0D4E9AB
:1022C0000012E368286801F0ABFB2868816921F4FB
:1022D0004061816128688169A26841EA02218161C7
:1022E000D5E7D4E90027267B016A21F480710162D9
:1022F000C169036A21F00301394321F0F007310776
:102300004FF4206647EA116123F4206306EA0222B3
:102310001A43C16102622868C16921F00C01C161E0
:102320002868C169A2681143B0E710B5040003D062
:1023300094F83D0010B107E0012010BD002084F8A2
:102340003C00204600F022F8022084F83D00211DC8
:10235000206801F0FBF8012084F8480084F83E0072
:1023600084F83F0084F8400084F8410084F842007B
:1023700084F8430084F8440084F8450084F846005B
:1023800084F8470084F83D00002010BD704700002D
:1023900010B5044679B1042912D0082915D00C29AA
:1023A00018D0102919D094F8430000BF94F84720A2
:1023B000012817D114E094F83E0094F84420F7E780
:1023C00094F83F0094F84520F2E794F8400094F820
:1023D0004620EDE794F84100E8E794F84200E5E78D
:1023E000012A01D0012010BD022071B1042915D0AD
:1023F00008291CD00C2948D0102949D084F8430062
:1024000084F847000C291BD145E084F83E0084F88D
:1024100044002068C26842F0020210E084F83F00E5
:1024200084F845002068C26842F0040207E084F89E
:10243000400084F846002068C26842F00802C2608A
:102440000122206801F0DAF81549206888420ED090
:10245000B0F1804F0BD01349884208D0124988420E
:1024600005D01249884202D01149884207D18168BB
:10247000104A1140062906D0B1F5803F03D001680B
:1024800041F001010160002010BD84F84100B7E770
:1024900084F84200B4E72068C26842F01002CEE738
:1024A000002C0140000400400008004000340140BE
:1024B000004001400700010070B504460068016952
:1024C0004FF00005C943890715D4C168C94389077E
:1024D00011D4E91E016101202077206880698007FE
:1024E000204602D0FFF786FE04E000F00BF92046FC
:1024F00000F0CAF9257720680169C943490717D454
:10250000C168C943490713D46FF004010161022077
:1025100020772068806910F4407F204602D0FFF7C2
:1025200069FE04E000F0EEF8204600F0ADF92577F2
:1025300020680169C943090716D4C168C94309075E
:1025400012D46FF008010161042020772068C0696F
:102550008007204602D0FFF74DFE04E000F0D2F8DD
:10256000204600F091F9257720680169C943C90622
:1025700017D4C168C943C90613D46FF010010161B3
:10258000082020772068C06910F4407F204602D0E0
:10259000FFF730FE04E000F0B5F8204600F074F9D3
:1025A000257720680169C943C90708D1C168C943B3
:1025B000C90704D1891E0161204600F0E5F92068B1
:1025C0000169C943090609D4C168C943090605D48C
:1025D0006FF0800101612046FFF71DFC2068016952
:1025E000C943C90509D4C168C943090605D46FF4B4
:1025F000807101612046FFF70DFC20680169C94325
:10260000490609D4C168C943490605D46FF04001A1
:102610000161204600F0DAF920680169C9438906A2
:1026200009D4C168C943890605D46FF0200101614E
:102630002046FFF7F1FB20680169C943C90209D4AC
:10264000C168C943C90205D46FF4801101612046F5
:10265000FFF73BFC20680169C943890209D4C168BE
:10266000C943890205D46FF4001101612046FFF7C8
:102670002BFC20680169C943490209D4C168C943D8
:10268000490205D46FF4800101612046FFF71EFC6A
:1026900020680169C94309020BD4C168C943090212
:1026A00007D46FF4000101612046BDE87040FFF7D8
:1026B0005DBC70BD10B586B0044614216846FDF7B8
:1026C00013FF0E492068884216D10D48C16C41F0B5
:1026D0000101C164C06C694600F0010005908020D2
:1026E00000900220019000200290039001200490AD
:1026F0004FF09040FEF71EFD06B010BD00480140AF
:1027000000100240704770B5044690F83C000D463A
:1027100001280BD0012084F83C000C2A45D007DCAE
:102720005AB1042A1BD0082A78D12CE0022070BDAF
:10273000102A4ED0142A71D15DE0206800F080FF8D
:102740002068816941F0080181612068816921F078
:1027500004018161206881692A69114311E02068C0
:1027600000F0BCFF2068816941F40061816120684C
:10277000816921F480618161206881692A6941EA67
:10278000022181614AE0206800F0F0FF2068C16901
:1027900041F00801C1612068C16921F00401C161F3
:1027A0002068C1692A69114311E0206801F026F808
:1027B0002068C16941F40061C1612068C16921F4E8
:1027C0008061C1612068C1692A6941EA0221C16151
:1027D00024E0206801F05AF82068016D41F00801FA
:1027E00001652068016D21F0040101652068016D1B
:1027F0002A69114311E0206801F080F82068016D1A
:1028000041F4006101652068016D21F4806101657A
:102810002068016D2A6941EA02210165002084F8DF
:102820003C0070BD10B5040003D094F83D0010B119
:1028300007E0012010BD002084F83C00204600F095
:1028400022F8022084F83D00211D206800F07EFE61
:10285000012084F8480084F83E0084F83F0084F8A2
:10286000400084F8410084F8420084F8430084F872
:10287000440084F8450084F8460084F8470084F852
:102880003D00002010BD70477047000030B5044681
:10289000022269B1042912D0082917D00C291CD0B2
:1028A000102921D094F84300012824D0012030BD04
:1028B00094F83E000128F9D184F83E201DE094F8F8
:1028C0003F000128F2D184F83F2016E094F8400040
:1028D0000128EBD184F840200FE094F84100012852
:1028E000E4D184F8412008E094F842000128DDD1C9
:1028F00084F8422001E084F843200122206800F09F
:102900007DFE194B20681949194A984209D088421E
:1029100007D0904205D0174DA84202D0164DA842CC
:1029200003D1456C45F400454564206898420CD0BD
:10293000B0F1804F09D0114B984206D0104B98420D
:1029400003D0884201D0904207D181680D4A1140DE
:10295000062906D0B1F5803F03D0016841F001019E
:102960000160002030BD0000002C01400034014017
:102970000040014000440140004801400004004084
:10298000000800400700010000680E49884218D185
:102990000D488178491CC9B281703B2911D90021A9
:1029A00081704278521CD2B242703B2A09D94170E0
:1029B0000278521CD2B20270632A02D901704170AF
:1029C0008170704700040040300000207047FEE72F
:1029D00000B585B014216846FDF786FD4FF6FF70FF
:1029E000009000200321CDE90201019069460248D0
:1029F000FEF7A0FB05B000BD0008004800B585B09B
:102A000014216846FDF770FD4FF6FF70009001201D
:102A10000190032003900020029069460248FEF7CF
:102A200089FB05B000BD0000000800482DE9F04119
:102A30000A4E80463068002485B22146204600F0C8
:102A40001DF900F05BF94FF49637404600F02AF983
:102A5000641CBC42F9D33560BDE8F081140800481D
:102A600001A100F061B800002020202020202020BB
:102A700020202020202020202020202000000000D6
:102A800030B587B014216846FDF72EFD1E48C16C95
:102A900041F00401C164C16C01F004010591C16CF5
:102AA00041F00101C164C16C01F001010591C16CEB
:102AB00041F00201C164C06C012500F002000590E4
:102AC0004FF44870CDE90005002403946946029450
:102AD0000E48FEF72FFB280203940090CDE9015425
:102AE0004FF0904469462046FEF724FBFFF786FF2F
:102AF000A06940F48070A06104481830016841F476
:102B00000871016007B030BD0010024000040048A9
:102B1000203AD2B2034B02EB420203EB021200F066
:102B200019B800007E5D0008F0B50E460746002586
:102B300040F23F1407E021463846FFF7E9FF103C1A
:102B40006D1CA4B2761C3278002A01D0142DF2D369
:102B5000F0BD00002DE9F04791468A460026044664
:102B600000F08CF8DFF84080012700BF00F0C6F8C5
:102B70005FF0000539F8160007FA05F108424046F3
:102B800001D1408800E0008800F08CF86D1C102D09
:102B9000F0D3641CE4B25146204600F06FF8761C76
:102BA000182EE3D3BDE8F0878800002070B50D4EE5
:102BB000306885B2FFF764FF002000F017F80A4C78
:102BC000A080A088A0F50241303907D000F06CFB4E
:102BD000002000F00BF8A080356070BD00F0DBFA3B
:102BE000F6E70000140800488800002070B51D4971
:102BF0000A6842F400720A600A6842F480720A604D
:102C0000184C103C226842F020022260164A1060E4
:102C1000086840F02000086000BF00BF00BF2068C7
:102C200040F020002060206840F480702060FFF7B2
:102C3000CFFE4FF09041886A40F48070886200BFF8
:102C400000BF00BF0848001F006885B2886940F4D3
:102C500080708861FFF7D2FE206840F40070206029
:102C6000284670BD280400481408004801B5BDF886
:102C700000000149488008BD8800002010B50C46BE
:102C80000146202000F068F82146BDE810402120D0
:102C900000F062B801B5BDF800000149088008BD28
:102CA00088000020134A116841F400711160114935
:102CB00010390B6843F480730B600B6843F02003FA
:102CC0000B600D4B1860106840F02000106000BFD2
:102CD00000BF00BF086840F020000860086840F4AA
:102CE0008070086000BF00BF00BF086840F400703B
:102CF0000860704728040048140800481449086810
:102D000040F400700860086840F480700860104863
:102D10001038026842F0200202600E4B22221A6034
:102D20000A6842F020020A6000BF00BF00BF0168CD
:102D300041F020010160016841F48071016000BF31
:102D400000BF00BF016841F40071016070470000DE
:102D50002804004814080048184B10B51A6842F4BB
:102D600000721A601A6842F480721A60134A103AAC
:102D7000146844F020041460114C2060186840F07E
:102D80002000186000BF00BF00BF106840F02000A6
:102D90001060106840F4807010602160186840F086
:102DA0002000186000BF00BF00BF106840F0200086
:102DB0001060106840F48070106010BD2804004856
:102DC0001408004800EB8100006E00F0F8407047E6
:102DD0008068C0F3C00070478068C0F3800070470F
:102DE0008068C0F380007047042303EAD15310B514
:102DF00018444369C1F3045107248C40A3438A401B
:102E00001343436110BD00EB8100016E21F00041CE
:102E1000114301667047000030B58BB00024089460
:102E20000994202168460A94FDF75EFB1C484FF088
:102E3000A041042501604FF40031C0E90114C460D1
:102E40000461C0E90545047744770121016280F8F7
:102E50002440C462046380F83840C46380F8404072
:102E6000FDF76EFF08B1FDF7A1FC08A90C48089416
:102E7000FDF7E8FC08B1FDF799FC0A480090062030
:102E8000CDE901047F200594CDE903056946044896
:102E9000FDF742FD002801D0FDF788FC0BB030BDE6
:102EA000900000200008302E30B589B020216846FF
:102EB000FDF71AFB19481849002401604902C0E9CE
:102EC0000114C46004250461C0E905450477447712
:102ED0000121016280F82440C462046380F8384014
:102EE000C46380F84040FDF72BFF08B1FDF75EFC9E
:102EF0000B4800900620CDE901047F200594CDE920
:102F0000030569460548FDF707FD002801D0FDF7D8
:102F10004DFC09B030BD000000010050FC00002055
:102F20000080F03EF0B587B014216846FDF7DCFA6A
:102F30002D48C16C41F00401C164C16C01F0040171
:102F40000591C16C41F02001C164C16C01F0200108
:102F50000591C16C41F00101C164C16C01F0010136
:102F60000591C16C41F00201C164C16C01F0020124
:102F70000591C16C41F00801C164C06C1B4E00F0AA
:102F800008004FF47F440590012221463046FEF7A9
:102F9000BAF9174F012204213846FEF7B4F901258A
:102FA000CDE9004500240294694630460394FEF7BB
:102FB000C1F8CDE9005469464FF090400295FEF704
:102FC000B9F807208DE8310069460A48FEF7B2F8E3
:102FD00004200090CDE90154694638460394FEF779
:102FE000A9F807B0F0BD000000100240000800483A
:102FF000000C00480004004810B594B01C210DA836
:10300000FDF772FA34216846FDF76EFA1F481E4933
:103010000024016040F21F31C0E901146321C0E9BE
:10302000031444618461FEF7A2FF08B1FDF7BEFB03
:103030001648FFF7F7FB08B1FDF7B8FB6020CDE9B4
:103040000D040F9410941194129400220DA90F48AE
:103050001394FFF758FB08B1FDF7A8FB00944FF459
:103060000050CDE90440019402940394069469460B
:1030700006480C94FEF7D2FE08B1FDF797FB034813
:10308000FFF718FB14B010BD0048014000020020FB
:1030900010B58CB00024059421480494069407943C
:1030A00008940A9409940094019402944FF080418A
:1030B000039401604F21C0E90114611EC0E90314AB
:1030C0008461FEF754FF08B1FDF770FB4FF48050A8
:1030D000049004A91248FFF711F808B1FDF766FB48
:1030E0000F48FFF722F908B1FDF760FB089408A923
:1030F0000B480A94FEF7ECFE08B1FDF757FB0120E0
:10310000CDE9004002940022694605480394FFF788
:1031100085F8002801D0FDF749FB0CB010BD000078
:103120006801002010B588B000241848009401946C
:10313000029403940494059413490694016041F6A3
:103140003F71C0E9011442F20F71C0E903148461B8
:10315000FEF70DFF08B1FDF729FB4FF480500090FA
:1031600069460A48FEF7CAFF08B1FDF71FFB049441
:1031700004A906480694FEF7ABFE002801D0FDF72F
:1031800015FB08B010BD000000040040B401002091
:10319000FEE7FEE7704730B501210020FFF7DCFDB8
:1031A0004FF47A70FDF7F4FA00210120FFF7D4FD07
:1031B00041F290711020FFF7CFFD4FF41C516020B9
:1031C000FFF7CAFD01216120FFF7C6FD022146205D
:1031D000FFF7C2FD48F210011320FFF7BDFD48F2D2
:1031E000FE011220FFF7B8FD4FF4A0610220FFF7A7
:1031F000B3FD41F230010320FFF7AEFD40F203348E
:1032000021463020FFF7A8FD21463120FFF7A4FD1D
:1032100021463220FFF7A0FDE51E29463320FFF7A7
:103220009BFD03213420FFF797FD21463520FFF752
:1032300093FD14213620FFF78FFD21463720FFF73D
:103240008BFD21463820FFF787FD21463920FFF707
:1032500083FD29463A20FFF77FFD03213B20FFF73E
:103260007BFD21463C20FFF777FD4FF4A0513D2028
:10327000FFF772FD4FF400719220FFF76DFD2146BC
:103280009320FFF769FD40F60D019020FFF764FDE4
:1032900041F218010320FFF75FFDBDE8304040F226
:1032A00073110720FFF758BD10B543F20801E32062
:1032B000FFF752FD1221E720FFF74EFD41F23121C9
:1032C000EF20FFF749FD00210120FFF745FD4FF4F6
:1032D000E0610220FFF740FD41F230010320FFF7DB
:1032E0003BFD00210420FFF737FD40F207210820B5
:1032F000FFF732FD00210920FFF72EFD00210A20F3
:10330000FFF72AFD00210C20FFF726FD00210D20EC
:10331000FFF722FD00210F20FFF71EFD00211020E6
:10332000FFF71AFD07211120FFF716FD00211220DB
:10333000FFF712FD00211320FFF70EFDC820FDF757
:10334000E7FE41F290611020FFF706FD40F22721D1
:103350001120FFF701FD3220FDF7DAFE1D211220BA
:10336000FFF7FAFC3220FDF7D3FE4FF40061132083
:10337000FFF7F2FC14212920FFF7EEFC0B212B2094
:10338000FFF7EAFC3220FDF7C3FE00212020FFF703
:10339000E3FC00212120FFF7DFFC07213020FFF7AD
:1033A000DBFC40F207713120FFF7D6FC062132200A
:1033B000FFF7D2FC40F204713520FFF7CDFC41F657
:1033C00004713620FFF7C8FC04213720FFF7C4FC46
:1033D00000213820FFF7C0FC40F206713920FFF7CA
:1033E000BBFC40F201713C20FFF7B6FC0F213D20F1
:1033F000FFF7B2FC00215020FFF7AEFCEF21512077
:10340000FFF7AAFC00215220FFF7A6FC40F23F1173
:103410005320FFF7A1FC4FF41C516020FFF79CFCE8
:1034200001216120FFF798FC00216A20FFF794FC3E
:1034300000218020FFF790FC00218120FFF78CFC09
:1034400000218220FFF788FC00218320FFF784FC05
:1034500000218420FFF780FC00218520FFF77CFC01
:1034600010219020FFF778FC00219220FFF774FCD8
:1034700003219320FFF770FC4FF488719520FFF72C
:103480006BFC00219720FFF767FC00219820FFF7D5
:1034900063FC41F218010320FFF75EFCBDE8104019
:1034A00040F273110720FFF757BC7047FDF736BF96
:1034B00010B594B038216846FDF716F814210EA80F
:1034C000FDF712F84FF40070FDF7BAFF01200090ED
:1034D0000004019002200324CDE907041421CDE962
:1034E0000A100C900D9009946846FEF779FA08B11D
:1034F00072B6FEE70F20CDE90E0400201090119067
:10350000129002210EA8FEF745F9002801D072B6EC
:10351000FEE714B010BD00000548016841F47001D9
:10352000016003494FF00060803908607047000077
:1035300088ED00E00148FEF7BFBF000068010020F1
:103540000148FEF7B9BF0000B40100202DE9F043A7
:103550000268234B234D244E244C4FF0804998425F
:1035600007D0484505D0A84203D0B04201D0A042C0
:1035700003D122F070074A683A431D4FDFF874C048
:10358000DFF8748098420DD048450BD0A84209D08E
:10359000B04207D0A04205D0B84203D0604501D068
:1035A000404503D122F44075CA682A434D6922F090
:1035B00080022A4302608A68C2620A688262984274
:1035C00007D0A04205D0B84203D0604501D04045A5
:1035D00001D10969016301214161BDE8F083000067
:1035E000002C01400004004000080040003401406D
:1035F00000400140004401400048014010B501F086
:103600001F030121046A99408C430462016A9A40B5
:103610001143016210BD10B5846842EA032224F40C
:103620007F440A432243826010BD00008268034B3E
:103630001A400A4342F00701816070478FFFCFFFB5
:103640002DE9F043026A22F001020262056A436832
:1036500082691C4C25F0020522400C6822F003020E
:1036600014438A68194E2A43174D194FDFF864C076
:10367000DFF86490A84207D0B04205D0B84203D02A
:10368000604501D0484506D122F00808CA6842EAE0
:10369000080222F00402A84207D0B04205D0B84286
:1036A00003D0604501D0484505D14D6923F44073EE
:1036B0001D438B692B434360846149684163026207
:1036C000BDE8F0838FFFFEFF002C01400034014075
:1036D000004001400044014000480140F0B5026A4A
:1036E00022F010020262056A42688369194C1B4E7F
:1036F00023400C6823F4407343EA042425F020039C
:103700008D6843EA0513144DA84201D0B04206D19A
:10371000CF6823F0800343EA071323F04003A84255
:103720000AD0B04208D00E4DA84205D00D4DA84297
:1037300002D00D4DA84207D14D6922F4406242EA01
:1037400085028D6942EA850242608461496881632D
:103750000362F0BDFF8FFFFE002C014000340140EA
:10376000004001400044014000480140F0B5026AB9
:1037700022F480720262056A4368C269194C1B4ECA
:1037800022400C6822F00302144325F400728D6875
:1037900042EA0522144DA84201D0B04206D1CF68BA
:1037A00022F4006242EA072222F48062A8420AD090
:1037B000B04208D00E4DA84205D00E4DA84202D00E
:1037C0000D4DA84207D14D6923F4405343EA051338
:1037D0008D6943EA05134360C4614968C1630262AD
:1037E000F0BD00008FFFFEFF002C014000340140BF
:1037F000004001400044014000480140F0B5026A29
:1038000022F480520262056A4268C369194C1B4E59
:1038100023400C6823F4407343EA042425F4005346
:103820008D6843EA0533144DA84201D0B04206D159
:10383000CF6823F4004343EA073323F48043A842CC
:103840000AD0B04208D00E4DA84205D00D4DA84276
:1038500002D00D4DA84207D14D6922F4404242EA00
:1038600085128D6942EA85124260C461496801642B
:103870000362F0BDFF8FFFFE002C014000340140C9
:1038800000400140004401400048014030B5026A58
:1038900022F480320262046A4268036D114D2B40AB
:1038A0000D681D4324F400330C8943EA04430E4C95
:1038B000A0420BD00D4CA04208D00D4CA04205D028
:1038C0000C4CA04202D00C4CA04204D14C6922F412
:1038D000803242EA042242600565496881640362DD
:1038E00030BD00008FFFFEFF002C0140003401407E
:1038F00000400140004401400048014030B5026AE8
:1039000022F480120262046A4268036D114D24F4AD
:1039100000142B400D6843EA05230D8944EA055441
:103920000D4DA8420BD00D4DA84208D00C4DA84219
:1039300005D00C4DA84202D00B4DA84204D14D69D0
:1039400022F4802242EA8522426003654968C1640C
:10395000046230BDFF8FFFFE002C014000340140A7
:1039600000400140004401400048014010B5036A96
:10397000046A24F001040462846924F0F00444EA37
:10398000021423F00A020A438461026210BD00009F
:1039900070B5046A24F0010404628469056A124E59
:1039A000B0420ED0B0F1804F0BD0104EB04208D0D4
:1039B0000F4EB04205D00F4EB04202D00E4EB04274
:1039C00003D124F00304144301E044F001041A0776
:1039D00024F0F00444EA126225F00A0301F00A011F
:1039E00019438261016270BD002C01400004004057
:1039F00000080040003401400040014010B5036A57
:103A000023F0100303628369046A23F4704343EADA
:103A1000023224F0A00343EA01118261016210BD69
:103A200030B5046A24F0100404628469056A24F441
:103A3000407444EA022222F470444FF6FF7202EA14
:103A400003322243A02425F0A00304EA0111194304
:103A50008261016230BDFEE703B401984100009825
:103A600050EAC12018BF04204A0D18BF40F00100E1
:103A700040F2FF72B2EB515F08BF40F00200012834
:103A800008BF052002B070470907090E002804DBB3
:103A900000F1E02080F80014704700F00F0000F102
:103AA000E02080F8141D70472DE9F04D2DED040B3A
:103AB0002DED0E8B96B0DDE92550279CDDF890A00A
:103AC00025F0004624F00048BAF1000F14BF012190
:103AD000002101EB4502FC4953184A1093422AD3B6
:103AE000002814BF0123002303EB44030B44F749D0
:103AF0008B4220D358EA00019FEDF59B76D0DFF88A
:103B0000D8B35D4503D1BAF1000F05D188E0BAF111
:103B1000000F08BF002100D0012101EB450111F584
:103B2000001F08D8002814BF0121002101EB440127
:103B300011F5001F0BD99DED261B9DED240B16B032
:103B4000BDEC0E8B04B0BDE8F04D00F069BE00275F
:103B5000002DBCBFE149884521DAE1498845A8BF6D
:103B600002271CDAC3451ADCDE4901EB285114296F
:103B700008DDC1F1340220FA02F101FA02F28242B8
:103B80000DD108E058B9C1F1140228FA02F101FA86
:103B900002F2424503D101F00101C1F1020756EAE8
:103BA0000A0124D1002C22DA002D18BF022F01D0E7
:103BB000012F0AD00220FCF7C6FC16B0BDEC0E8B1C
:103BC00004B0BDE8F04D00F013BE0220FCF7BBFCD2
:103BD00000F00EFE51EC100B01F09FFA41EC100BBF
:103BE00016B0BDEC0E8B04B0BDE8F08D18E09FED73
:103BF000BEAB9FEDBF8B002871D1B848804522D164
:103C000005F1804010F5801008BFBAF1000F07D011
:103C1000B3450ADC002CA8BF9DED260BE0DA0DE0D1
:103C2000B0EE490AF0EE690ADAE7002C06DA9DEDFB
:103C3000260B51EC100B01F070FA6FE0AE4878449F
:103C400090ED000BCCE7D8454DD1002C48DA2EB1D1
:103C500086423AD1BAF1000F42D126E0BAF1000F04
:103C600013D00220FCF76FFC00F0F6FD8DED020B87
:103C70009DED240B8DED000B10EE900A039961F37E
:103C80001E0003909DED020BAAE78DED02AB9DEDAA
:103C9000240B1AEE901A10EE900A8DED000B61F3D2
:103CA0001E0003909DED020B9AE78DED028B9DEDBA
:103CB000240B18EE901A10EE900A8DED000B61F3B4
:103CC0001E0003909DED020B8AE709DA9DED240B9F
:103CD00051EC190B53EC102B01F0E8FA1EE020E038
:103CE0009DED240B7CE786421BDAB4F1804F0DD0AA
:103CF000A4F10050B0F1FF5013D1002D11DB9DED68
:103D0000240B51EC100B01F0D1F907E09DED240BD1
:103D100053EC102B51EC100B00F0C2BC41EC100B1B
:103D20005EE79DED240B51EC100B00F0BBFEBAF1E9
:103D3000000FCDE90E0142D19FED710B46B3A6F104
:103D4000E040B0F17F600CD05E4538D1002D00DA44
:103D5000A7B3022F0CBF01204FF0FF3001F02DFC64
:103D6000DCE7002D01DD002C0DDA002D01DD002C3B
:103D70001FDB002D16DA002C14DB012F08BF9FED8E
:103D8000620B3FF42DAFB0EE4A0AF0EE6A0A27E765
:103D9000022F18BF002D0CD0012F0AD1002DFFF6E5
:103DA0001FAF06E0002DB8BF002C08DA012F3FF44A
:103DB00017AFB0EE480AF0EE680A11E71BE00120E9
:103DC00000EBE57050EA070115D0791EB0EE498A84
:103DD000F0EE698A084308BF9FED4D8B4E480025E1
:103DE000804570DD4D494E48884514DDB0420DDBFD
:103DF000002C19DB2FE00120FCF7A5FB16B0BDEC71
:103E00000E8B04B0BDE8F04D00F016BDB34502DCEA
:103E1000002C09DC1FE0864202DA002C1BDA03E0EA
:103E20005E452BDD002C16DD0220FCF78CFB00F03C
:103E300013FD8DED020B53EC1A2B51EC180B01F016
:103E400023FCCDE900010399019861F31E00039062
:103E50009DED020BC4E60220FCF775FB00F00CFDA3
:103E600010EE901A18EE900A8DED020B8DED008B7E
:103E700061F31E0003909DED020BB1E69DED0E0B6C
:103E800053EC192B51EC100B01F00AFE9FED260BA1
:103E9000CDE9080153EC102B9DED080B51EC100BF4
:103EA00001F0F2FB9FED221B53EC112B01F020FDE2
:103EB0009DED081B53EC112B01F0E6FB9FED1E1B43
:103EC00053EC112B3CE08CE0FFFF1F00FFFF0F00C5
:103ED000000000000000F03F0000F03F0000F07F15
:103EE0000000404301FCFFFF000000000000F07FE5
:103EF0000000000000000000A633000000000000E9
:103F00000000000000000080000000000000F0FF42
:103F1000000000000000F0BF0000E0410000F0439E
:103F2000FFFFEF3F00000000000000000000D03F56
:103F3000555555555555D53F000000000000E03F50
:103F400001F0D6FC9DED080B41EC1A0B53EC102B45
:103F500051EC100B01F098FB53EC1A2B01F094FB81
:103F600041EC1A0B9FEDFE0B53EC102B9DED080B53
:103F700051EC100B01F088FB41EC1B0B9FEDFA0B91
:103F800051EC1A0B53EC102B01F07EFB41EC1A0B99
:103F90009FEDF70B53EC102B9DED080B51EC100B24
:103FA00001F072FB53EC1A2B01F07AFD41EC1A0B75
:103FB00051EC1B0B53EC1A2B01F0BCF80690CDE929
:103FC00006519DED060B53EC1B2B51EC100B01F031
:103FD00067FD53EC1A2B01F08BFC41EC100B00F049
:103FE000A1B90020B6F5801F0EDA9FEDE30B53EC6C
:103FF000102B9DED0E0B51EC100B01F045FBCDE9A4
:104000000E016FF034000E4600EB2650A0F2FF3791
:10401000C6F31300DA4940F07F6646F04056884206
:10402000D8BF002408DDD7498142C8BF012403DC82
:104030000024A6F580167F1CD348784400EBC4000A
:104040000F9690ED00CB9DED0E0B53EC1C2B51EC1D
:10405000100B01F025FD9DED0E0B41EC1B0B53ECFD
:104060001C2B51EC100B01F065F841EC100B51ECDE
:10407000190B53EC102B01F019F941EC1D0B51EC0D
:104080001B0B53EC1D2B01F0FFFA41EC1A0BBF4840
:104090008DED10AB7844109590ED000B4FF0005073
:1040A00040EA660000EB84408DED080B00F500202F
:1040B00009909DED080B53EC1C2B51EC100B01F0FB
:1040C000EFFC9DED0E1B53EC112B01F011FC41ECAC
:1040D000100B53EC102B9DED100B51EC100B01F05D
:1040E000D3FA9DED080B41EC1C0B53EC102B9DED0E
:1040F000100B51EC100B01F0C7FA53EC1B2B01F025
:10410000F7FB53EC1C2B01F0CBFC53EC1D2B01F007
:10411000BBFA41EC1C0B53EC1A2B51EC1A0B01F0BF
:10412000B3FA41EC1B0B9A480621B0EE4B0AF0EEB5
:104130006B0A784400F0E0FAB0EE401AF0EE601A34
:10414000B0EE41DAF0EE61DA53EC1B2B51EC1B0BB5
:1041500001F09AFA53EC1D2B01F096FA9DED100B2D
:1041600041EC1B0B53EC1A2B51EC100B00F0E2FF4F
:1041700053EC1C2B01F088FA53EC1B2B00F0DAFFF8
:104180009DED100B41EC1B0B53EC102B51EC100B65
:1041900001F07AFA41EC1D0B9FED7FEB53EC1E2BE7
:1041A00000F0C8FF53EC1B2B00F0C4FF0890CDE9D2
:1041B00008519DED080B53EC1E2B51EC100B01F038
:1041C0006FFC53EC1D2B01F06BFC53EC1B2B01F02F
:1041D0008FFB9DED080B41EC1D0B53EC102B9DED5F
:1041E000100B51EC100B01F04FFA41EC1B0B53EC90
:1041F0001A2B51EC1D0B01F047FA9DED080B41EC19
:104200001A0B53EC102B51EC1C0B01F03DFA53EC44
:104210001A2B00F08FFF41EC1A0B51EC1B0B53ECE7
:104220001A2B00F087FF0C90CDE90C519DED0C0B83
:1042300053EC1B2B51EC100B01F032FC53EC1A2BFE
:1042400001F056FB41EC1B0B9FED550B53EC102B73
:104250009DED0C0B51EC100B01F016FA41EC1A0B12
:104260009FED510B51EC1B0B53EC102B01F00CFA92
:1042700041EC1B0B9FED4E0B53EC102B9DED0C0BEB
:1042800051EC100B01F000FA53EC1B2B00F052FF25
:1042900041EC100B4848784400EBC40090ED001B43
:1042A00051EC100B53EC112B00F044FF41EC1B0BB5
:1042B000384601F082F9CDE9080153EC1B2B51EC93
:1042C0001A0B00F037FF41EC100B3C48784400EB30
:1042D000C40090ED00CB51EC100B53EC1C2B00F004
:1042E00029FF9DED081B53EC112B00F023FF0690D6
:1042F000CDE906519DED080B53EC102B9DED060BFF
:1043000051EC100B01F0CCFB53EC1C2B01F0C8FB63
:1043100053EC1A2B01F0C4FB53EC1B2B01F0E8FA11
:1043200041EC100B9DED261B53EC102B8DED001B6B
:1043300000959DED260B51EC100B01F0A5F99DEDBC
:10434000000B41EC1A0B53EC102B9DED260B51EC9E
:10435000100B01F0A5FB9DED061B53EC112B2FE07C
:10436000000000604715F73FFE822B654715F73FB9
:1043700044DF5DF80BAE543E0000000000004043F7
:104380008E9803007AB60B00222F0000502F0000F9
:104390005A2E00000000000000000000000008404D
:1043A000000000E009C7EE3FFD033ADC09C7EE3F1D
:1043B000F5015B14E02F3EBEE62C0000A02C0000AF
:1043C00001F062F953EC1A2B00F0B4FE9DED060BE0
:1043D00041EC1A0B53EC102B9DED000B51EC100B24
:1043E00001F052F9CDE90C019DED0C0B51EC1A0BCB
:1043F00053EC102B00F09EFECDE902010C46AA49B9
:104400008C422FDB611A084318D19DED0C0B53EC45
:10441000102B9DED020B51EC100B01F041FB41EC18
:104420001B0B9FEDA30B51EC1A0B53EC102B00F060
:1044300081FE53EC1B2B01F025FA2DD20220FCF754
:1044400082F800F009FA10EE901A18EE900A8DED3D
:10445000020B8DED008B61F31E0003909DED020BAE
:10446000FFF7BEBB944A24F00041914214D3934914
:10447000214408437FF4EFAC9DED0C0B53EC102B63
:104480009DED020B51EC100B01F00AFB53EC1A2BC3
:1044900001F0F8F97FF6DFAC24F000408849894A42
:1044A000002601EB205182422BDA481C4FF4801188
:1044B00021FA00F02044844AC0F30A517A44A1F260
:1044C000FF3192ED000B814A8DED080BCA4020EAC6
:1044D0000202C0F3130040F48010C1F1140120FA6D
:1044E00001F60992002CB8BF76429DED080B53EC03
:1044F000102B9DED0C0B51EC100B01F0D1FACDE916
:104500000C019DED0C0B51EC1A0B53EC102B00F031
:1045100011FE9FED6F0B0890CDE9085153EC102B65
:104520009DED080B51EC100B01F0AEF841EC1B0BAC
:104530009FED690B53EC102B9DED080B51EC100B0C
:1045400001F0A2F89DED0C0B41EC1C0B53EC102B71
:104550009DED080B51EC100B01F0A2FA53EC1A2B55
:1045600001F0C6F99FED5E1B53EC112B01F08CF8A6
:1045700053EC1C2B00F0DEFD41EC1A0B51EC1B0B35
:1045800053EC1A2B00F0D6FDCDE902019DED020B94
:1045900053EC1B2B51EC100B01F082FA53EC1A2B4D
:1045A00001F0A6F99DED020B41EC1A0B53EC102B18
:1045B00051EC100B01F068F8CDE908014A489DED77
:1045C000080B0521784400F097F89DED081B51EC8D
:1045D000100B53EC112B01F057F89DED021B53EC1F
:1045E000112B01F085F9CDE906019DED020B53EC8D
:1045F0001A2B51EC100B01F047F853EC1A2B00F07A
:1046000099FD9FED3B0B41EC1A0B53EC102B9DEDEC
:10461000060B51EC100B01F043FA9DED060B41EC3B
:104620001B0B53EC102B9DED020B51EC100B01F00A
:104630002BF853EC1B2B00F039FE53EC1A2B01F036
:104640002FFA9DED021B53EC112B01F029FA53ECCC
:10465000192B01F04DF9CDE9020101EB06500115CE
:104660000029C8BF039015DC9DED020B324651ECCA
:10467000100B01F036FBFFF7EFF9042808BF00F03C
:10468000FBF832469DED020B51EC100B01F029FBBB
:10469000CDE902019DED020B51EC180B53EC102BF0
:1046A00000F0F2FFFFF73ABB00009040000000006E
:1046B000FE822B654715973C00CC904000346F3F3D
:1046C00001FCFFFF0000E03F282B0000FFFF0F0070
:1046D00000000000432EE63F396CA80C615C20BE50
:1046E000EF39FAFE422EE63FF829000000000000F4
:1046F000000000000000004070B504462DED028B64
:104700004D1E00EBC500B0EE408AF0EE608A90EDE1
:10471000000B35F0060017D053EC182B51EC100BA2
:1047200000F0B2FF41EC100B6D1E04EBC50090EDE4
:10473000001B51EC100B53EC112B00F0FBFC41EC77
:10474000100B35F00600E7D1022D36D0042D1CD019
:10475000062D1CBFBDEC028B70BD53EC182B51EC29
:10476000100B00F091FF94ED0A1B53EC112B00F09D
:10477000E1FC53EC182B00F087FF94ED081B53EC81
:10478000112B00F0D7FC41EC100B53EC182B51EC23
:10479000100B00F079FF94ED061B53EC112B00F089
:1047A000C9FC53EC182B00F06FFF94ED040B53EC95
:1047B000102B00F0BFFC41EC100B53EC182B51EC0C
:1047C000100B00F061FF94ED021B53EC112B00F075
:1047D000B1FC53EC182B00F057FF94ED001B53EC89
:1047E000112B00F0A7FCBDEC028B41EC100B70BD4F
:1047F0009FED070B10B553EC102B9FED070B51EC01
:10480000100B00F053FD41EC100B10BD0000000038
:104810000000000000000000000000000000F03F69
:1048200010B553EC112B51EC100B00F083FC41EC54
:10483000100B10BD000000009FED050B10B553ECF0
:10484000102B51EC100B00F031FD41EC100B10BDA2
:1048500000000000000000009FED050B10B553ECB8
:10486000102B51EC100B00F00FFF41EC100B10BDA2
:1048700000000000000000709FED050B10B553EC28
:10488000102B51EC100B00F0FFFE41EC100B10BD93
:10489000000000000000001030380A2801D201207A
:1048A000704700207047000010B50446FCF7B6FBC7
:1048B0002046FCF741FA00F097FE9FED071B53ECF2
:1048C000112B00F0E1FE9FED061B53EC112B00F0C5
:1048D000DBFE41EC100B10BD6666666666660A403C
:1048E000000000000000303F2DE9F04766482DED44
:1048F000048BFFF7D9FF654C654884ED0C0BFFF77F
:10490000D3FF84ED0E0B607800287CD104F15005B4
:10491000D5E900100A3890FBF1F087B2781C00F05E
:1049200063FE41EC100B53EC102B9FED5A9B51ECA6
:10493000190B00F0BBFC002641EC180BDFF85CA162
:104940007F1C22E0304600F038FE53EC182B00F0BC
:104950009BFE94ED0C1B53EC112B00F059FE13D869
:10496000701C00F02AFE53EC182B00F08DFE94ED25
:104970000C1B53EC112B00F085FF05D22868704307
:104980000A30CAF8000002E0761CBE42DADBD5E944
:104990000210A0F57A7090FBF1F087B2781C00F05D
:1049A00023FE41EC100B51EC190B53EC102B00F0D3
:1049B0007DFCDFF8E880002641EC180BDFF8E09082
:1049C000A8F10C087F1C28E0304600F0F6FD53ECFF
:1049D000182B00F059FE94ED0E1B53EC112B00F038
:1049E00017FE19D8701C00F0E8FD53EC182B00F0EE
:1049F0004BFE94ED0E1B53EC112B00F043FF0BD23A
:104A0000A868704300E021E000F57A7099FBF0F0AF
:104A1000401EC8F8000002E0761CBE42D4DBD8F885
:104A20000000401CB9FBF0F081B22182DAF80000EE
:104A30004FF4FA65C2B2A272207B58B1E089401AE5
:104A400000F57A70A84201D800202073BDEC048BD9
:104A5000BDE8F087E389581A00F57A76AE42F5D9B9
:104A6000012525736182E272E382002800DA404268
:104A7000064AA08200201832D11C135C0B54401C43
:104A80000328FADBE2E70000FC0000201800002009
:104A9000900000206666666666660A4034480140FB
:104AA00000350C0082B0CDE9000121F000400190FA
:104AB0009DED000B02B051EC100B70472DE9F04753
:104AC0007E4E2DED048B30687D4C216A401A0A28F9
:104AD0007ED330687B4D206201212846FCF70EFC16
:104AE000A07002212846FCF709FCE070042128464A
:104AF000FCF704FC207101214FF09040FCF7FEFB15
:104B00006071A07880B10020A1796D4D08424FF00E
:104B1000000105F140053FD0637A05F12000A0F1C6
:104B20001009012B02D00DE00120EDE70768C9F85C
:104B300000704768C9F804708768C9F80870C768CA
:104B4000C9F80C705B1CDAB26272022A24D9617255
:104B50006173D5E9003CACEB03029A4205DDD5E96F
:104B60000227A7EB0208904511DCD9F800C0C0F875
:104B700000C0D9F804704760D9F808308360D9F8CC
:104B80000C20C260C5E90232C5E900C769E0C0E98E
:104B90000227C0E9003C64E0607A022801D0E8B353
:104BA0007FE0E078D8B300202278104206D0607B06
:104BB000401CC0B26073032800D96173207978B3B8
:104BC0000020E17908429FED409B1DD0607B00E012
:104BD0006FE000F009FD41EC110BB0EE490AF0EE78
:104BE000690AFEF761FF667BB0EE408AF0EE608AEC
:104BF00055F8260000F0E1FC53EC182B00F09AFA6F
:104C000000F0ACFC45F82600607940B30020217A22
:104C1000084246D0607B00F0E7FC02E021E01AE0A9
:104C20001BE041EC110BB0EE490AF0EE690AFEF709
:104C30003BFF667BB0EE408AF0EE608A55F82600B6
:104C400000F0BBFC53EC182B00F02AFF00F086FCB0
:104C500045F8260025E00120A6E70120B1E7012064
:104C6000D5E7E078A8B100232278134201D0336859
:104C7000636282B10022024213D03068626A801AF5
:104C8000B0F5FA6F09D30E48183001704170817089
:104C900007E00123E8E70122EDE7607880F00100FA
:104CA0006070A078A071E07820702079E071607960
:104CB0002072BDEC048BBDE8F08700000C000020E2
:104CC00018000020000400480000000000002440FC
:104CD000F8B558480168584CA26A891A63293AD332
:104CE0000068564EA062306885B2607A002833D0E2
:104CF000012863D052A15848FBF7E2FA5649182020
:104D0000FDF712FF403455A153482268FBF7D8FA4B
:104D100051494820FDF708FF56A14F486268FBF74C
:104D2000CFFA4D496020FDF7FFFE58A14A48A2681E
:104D3000FBF7C6FA48497820FDF7F6FE59A1464828
:104D4000E268FBF7BDFA44499020FDF7EDFEA8208C
:104D5000FDF786FE3560F8BD58A13F48FBF7B0FA75
:104D60003D491820FDF7E0FE228A5AA13A48FBF798
:104D7000A7FA39494820FDF7D7FEA27A5BA1364849
:104D8000FBF79EFA34496020FDF7CEFEE2895DA173
:104D90003148FBF795FA30497820FDF7C5FE607879
:104DA00050B15EA12C48FBF78BFA2B499020FDF700
:104DB000BBFE214818302FE05EA1F3E763A126482F
:104DC000FBF77EFA24491820FDF7AEFE628A41A166
:104DD0002148FBF775FA20494820FDF7A5FEE27A45
:104DE00042A11D48FBF76CFA1B496020FDF79CFEB1
:104DF000E28A44A11848FBF763FA17497820FDF7C7
:104E000093FEA28A57A11448FBF75AFA1249902040
:104E1000FDF78AFE08481B308178009143780278BC
:104E200056A10D48FBF74CFA0B49A820FDF77CFE74
:104E300090E700000C000020180000201408004833
:104E400020202020202020504152412020202020BE
:104E500020202020000000004C02002020202044C0
:104E6000533D2564487A2020202020202020202027
:104E70000000000020202044523D2564487A202074
:104E8000202020202020202000000000202020467C
:104E9000533D2564487A20202020202020202020F7
:104EA0000000000020202046523D2564487A202042
:104EB0002020202020202020000000002020202072
:104EC00020202050574D202020202020202020204E
:104ED0000000000020202043463D2564487A202021
:104EE000202020202020202000000000202020431F
:104EF000443D25642525202020202020202020201E
:104F00000000000020202044463D2564487A2020EF
:104F100020202020202020200000000020202053DE
:104F2000543D4C4F434B2020202020202020202087
:104F30000000000020202053543D554E4C4F434B61
:104F400020202020202020200000000020202020E1
:104F500020202052454344202020202020202020B3
:104F60000000000020202058463D2564487A20207B
:104F700020202020202020200000000020202025AC
:104F800030326448253032644D253032645320205D
:104F9000202020202020000070B50E4E0D46044633
:104FA000012204213046FCF7AEF94FF48070641EF4
:104FB000A040094B81B20DB1002200E00122184649
:104FC000FCF7A1F93046BDE8704000220421FCF74F
:104FD0009AB90000000C004800080048FCF7A6F948
:104FE000FEF766FAFDF79EFFFDF716FFFDF75CFF83
:104FF000FEF74EF8FEF700F8FEF794F8FDF7D6FD41
:105000000020FDF713FD0020FDF730FE4FF6FF7086
:10501000FDF740FE7F210C48FBF7CAFB7F210B48C0
:10502000FBF7C6FB00210A48FDF730FC0949322096
:10503000086000210848FDF7ABF90848FDF722F8A1
:1050400000F00EF8FCE7000090000020FC000020BB
:10505000000200203448014068010020B401002013
:1050600010B5114C607AC8B100210120FFF794FF00
:105070006078012814D000210220FFF78DFF207BEB
:1050800001280FD000210320FFF786FFFFF72CFC3B
:10509000FFF71EFEBDE81040FFF710BD0121E4E759
:1050A0000121E9E70121EEE71800002000B52DED10
:1050B000048B83B041EC190B00F026FC41EC180B7B
:1050C00018EE100A18EE901A8DED008B002818BF0C
:1050D0000120084320F00040C0F17F6000F1E04073
:1050E000C00F14D019EE101A19EE900A8DED009B26
:1050F000002918BF0121084320F00040C0F17F6063
:1051000000F1E040C00F04BF0120FBF71CFA51EC96
:10511000180B03B0BDEC048B00BD81F0004170475B
:1051200080F00040704721F00041704720F00040BF
:105130007047000010B591EA030F48BF83F00043A9
:1051400000F1B684841A71EB030C05D2121943EBFB
:105150000C03001B61EB0C01DFF824E14FEA115452
:10516000A4EB135C1EEA430F18BF9EEA445F73D0A2
:1051700023EA0E03DCF1200E21EA045143F48013EC
:1051800032D322FA0CFE10EB0E0023FA0CFE41EB98
:105190000E01CCF1200E03FA0EFE10EB0E0051F1C1
:1051A0000001B1F5801FCCF1200E32D201EB045189
:1051B00012FA0EF2BDE8104058BF7047401C38BFCD
:1051C0005FEA420218BF7047002814BF20F00100B8
:1051D00041F100014FEA410313F5001F38BF70474A
:1051E000A1F1C04100F048BB012A43EB0302ACF13E
:1051F000200CDCF11F0E32BF4FF0000E23FA0CF32F
:1052000010EB030041EB0451B4EB115FD0D0A1EBE4
:10521000045101F5801149085FEA300001EB0451A7
:105220000ED350F1000038BF12FA0EFE08D1BDE8CF
:105230001040C9E7401C38BF5FEA4202CAD1C3E749
:10524000BDE810404FEA410313F5001F38BF704717
:10525000A1F1C04100F010BB9EEA445F08D011EA02
:105260005E0FBDE8104004BF01F000410020704710
:10527000BDE8104070B500F0B1FA00BF64FBBE3E5F
:105280000000E0FF02494FF0000000F0F8BC00BF52
:105290000000F87F491058BFC1F140415B1058BF72
:1052A000C3F140438B42EFF3008070472DE9C041CA
:1052B00030B4DFF8A0C23CEA111418BF3CEA131462
:1052C00000F0EC8081EA03051CEA111444EAD5746D
:1052D00018BF1CEA131500F0C780A4EB05044FF0BB
:1052E000004545EAC12145EAC32341EA505143EA5A
:1052F000525304F17F74994204F500344FEAC02000
:105300004FEAC22208BF904200F09C804FEA13652A
:105310000FF24016765D4FEA134506FB05F7C7F11D
:10532000807706FB07F74FEAD737A7FB036876427B
:10533000C8F58038A7FB06CE38BFA8F1010807FBE7
:1053400008E64FF0000EA6FB028CE6FB03CEDCF174
:10535000000CCEF1004E38BFAEF1010EA6FB0C588A
:105360004FF000074FF00005E6FB0E87A1FB08C6D3
:10537000A0FB07CE16EB0E0645F10005E1FB076525
:1053800015F1E04E7EBFA4F580345FEA46066D411C
:1053900016F1800745F100054FEA17274FEA066628
:1053A00047EA0567A6F1DE46B6F1805F4FEA1525AC
:1053B0001FD9384624F0010C05EBC471BCF1FE6F17
:1053C00001EB0C1102D8F0BCBDE8008124425CBFA7
:1053D00001F5801E9EEAC47F02D4F0BCBDE80081C6
:1053E000244238D4F0BCA1F1C041BDE8004100F036
:1053F00043BA4FEAD22242EA43524FEAD323A7FBF1
:1054000002864FEAD02040EA415007FB03661EEABD
:105410000E0F4FEAD12105FB026658BFA6EB0056DE
:10542000B6EB00564FEA520E4EEAC37E18EB0E0E54
:1054300056EB530EBDD518EB02085E417F1C55F1AB
:105440000005B6E74FF480154FF000074FF0000657
:105450004FF00008ADE7F0BC4FF0000001F1C04193
:1054600001F00041BDE8008111EA0C1F0CEA1315A0
:1054700000D00CE013EA0C1F00F025804FF0000074
:10548000F0BC81EA030101F00041BDE80081F0BCFD
:10549000BDE8004181EA030100F0EEB9F0BCBDE8CF
:1054A000004170B500F09AF9097EFC3E00F007B8A3
:1054B00081EA03014FF0000001F00041704781EAEA
:1054C000030100F0D9B9F0BCBDE800414FF0000085
:1054D00021497047FFFDFBF9F7F5F4F2F0EEEDEB33
:1054E000E9E8E6E4E3E1E0DEDDDBDAD8D7D5D4D3E2
:1054F000D1D0CFCDCCCBCAC8C7C6C5C4C2C1C0BF2E
:10550000BEBDBCBBBAB9B8B7B6B5B4B3B2B1B0AF33
:10551000AEADACABAAA9A8A8A7A6A5A4A3A3A2A117
:10552000A09F9F9E9D9C9C9B9A99999897979695D2
:1055300095949393929191908F8F8E8E8D8C8C8B6E
:105540008B8A8989888887878685858484838382F6
:10555000828181800000FF070000F87F4FEA41034D
:105560004FEA5353A3F58063D3F11E03C8BFD3F1B1
:10557000210C0CDD4FF0004242EAC12242EA5052B7
:1055800032FA03FC8CEAE17CACEBE1707047102B43
:10559000C4BF0020704703F5787CBCF1FF3F04D006
:1055A0006FF0004282EA2100704770B500F016F9F2
:1055B0004992248000207047F2E710F0004248BF73
:1055C0004042B0FA80F310FA03F10AD0C3F11D0390
:1055D00003F580634FEA415002EB035202EBD12105
:1055E00070474FF000007047B0FA80F310FA03F1F3
:1055F0000AD0C3F11D0303F580634FEA41504FEA1F
:10560000035202EBD12170474FF0000070470000B9
:1056100051EA030C17D41CF5801F58BFBCF5801F3E
:1056200000F10680994218BF704708BF904270474A
:1056300007D711F5801F58BF13F5801F19D4994261
:105640007047894270471CF5801F08D5BCF5801F44
:10565000F7D58B4218BF704708BF824270474FF49E
:10566000001C1CEB410F38BF1CEB430F01D28B42D7
:10567000704770B500F0B2F8922449004FF0005125
:105680004FF08053FFF706BEDFF848C170B51CEA43
:10569000111E1EBF1CEA13159EEA0C0F95EA0C0F93
:1056A00000F06F8081EA030423EA4C134EEAD47EB3
:1056B00021EA4C1141F4801143F48013AE44A1FB64
:1056C000024CA0FB0365AEF17F7E361955EB0C054D
:1056D000A1FB034C4CF10003A0FB021C16EB0C06D3
:1056E000654153F10003094218BF46F0010613F467
:1056F000007F0BD14FEA03314FEA0530340341EA12
:10570000155140EA16506FF003020AE04FEAC32138
:105710004FEAC520F40241EA555140EA56506FF075
:10572000020202EB2E4201EB025585EACE710AD04D
:105730005FEA440C18BF24F0004450F1000041F12E
:10574000000120EAD47040F2FE7C624500D270BDB8
:10575000A84214BF4FF080444FF04044002E08BFD1
:105760000024BEF1806FA8BFA1F1C041BDE8704028
:1057700080F282804FF0000001F1C04101F0004151
:1057800070479EEA0C0F0CEA131518BF95EA0C0F30
:1057900006D04FF0000081EA030E0EF0004170BD0C
:1057A00000F01CF88900013E00F007B800F009B8CD
:1057B0004FEA430C5FEA5C5C08D081EA030100F029
:1057C0005BB84FEA410C5FEA5C5CF6D14FF0000039
:1057D000014970470000FF070000F87F0EF1020E3C
:1057E0002EF0030E5EF8046B364205D4012A43EB1B
:1057F000030515F5001F12D8012841EB010C1CF51B
:10580000001F0CD80ED14FEAD17C15F5001F0CEB10
:105810004C0C0CF1020C08BF4CEBD37C04E04FF0B5
:10582000080C01E04FEAD37C0CEB4C0526FA05F698
:1058300006F00706B6F1040C06D20EEB860CBDE8A6
:1058400070404CF0010C6047DFE80CF0090B0202DD
:105850004FF000414FF00000A1F5002170BD194646
:105860001046012851EB010418BFD4F5001484BF81
:10587000002001F0004170BD0808A0F500114FEABA
:105880003101704753EA010C17D41CF5801F58BF33
:10589000BCF5801F00F106808B4218BF704708BF1F
:1058A0008242704707D713F5801F58BF11F5801F3C
:1058B00019D48B4270479B4270471CF5801F08D556
:1058C000BCF5801FF7D5994218BF704708BF9042BA
:1058D00070474FF4001C1CEB430F38BF1CEB410F0B
:1058E00001D2994270470FB40CBC03BCFFF7C1BE94
:1058F00091EA030F10B581F000413FF523AC83F02E
:10590000004300F0D5B800002DE9F04101F5801CFE
:10591000BCF5001FC0F2A9804FEA115C21EA0C51CE
:105920000CF1FD0C41F480115FEA5C0C0CF5C07CBD
:1059300001D34000494130A4890241EA90518702D5
:105940008E0E0A0CA45D04FB04F602FB06F6C6F1FB
:105950004046A4FB0662F60D46EA422606FB06F424
:10596000A4FB01235242C3F1404338BF5B1EA6FB98
:1059700002420024E6FB0324D20B42EA4446A6FB83
:105980000623A1FB02E2A3FB07E4E3FB61426442BE
:10599000C2F1404E38BFAEF1010EA6FB04234FF01A
:1059A0000002E6FB0E32A2FB03463400E2FB626417
:1059B000A1FB06E6A4FB07E8E4FB61687642C8F1B8
:1059C000405838BFA8F10108A2FB06E4A3FB08E594
:1059D000E2FB6854A1FB05E6A7FB04E8E1FB648653
:1059E00018F1200556F10006A809A8F11B08B10915
:1059F00008F03F08B8F10A0F40EA86601CD901EBB5
:105A00000C51BDE8F08100BFFCF5EEE8E2DDD8D333
:105A1000CFCBC7C3C0BDB9B6B4B1AEACA9A7A5A31F
:105A2000A19F9D9B9A9896959392908F8D8C8B8930
:105A30008887868584838281A0FB006800FB01F251
:105A400008EB4208B8EB872807D5341858EB010457
:105A5000D5D5401C51F10001D1E7341A78EB01048F
:105A6000CDD4401E71F10001C9E75FEA4C0C5FEA3A
:105A70009C5C0DD105D34FF0000001F00041BDE862
:105A8000F081BDE8F04170B5FFF7A8FE6DDBFFBE09
:105A9000BDE8F0414FF00000004970470000F87F7A
:105AA00010B591EA030F48BF83F000433FF54AABBE
:105AB000841A71EB030C07D212198CF0004C43EBE3
:105AC0000C03001B61EB0C01DFF8A4E14FEA115459
:105AD000A4EB135C1EEA430F18BF9EEA445F00F07C
