:020000040800F2
:10000000204B00208503000843290008BF26000874
:100010004129000851080008BF2E00080000000018
:100020000000000000000000000000009102000835
:10003000B10F000800000000ED020008A52C000828
:100040009F0300089F0300089F0300089F03000808
:100050009F0300089F0300089F0300089F030008F8
:100060009F0300089F0300089F0300089F030008E8
:100070009F0300089F0300089F0300089F030008D8
:100080009F0300089F0300089F0300086108000801
:10009000550800089F0300089F0300089F030008FD
:1000A0009F030008612D00089F0300089F030008BC
:1000B0009F0300089F0300089F0300089F03000898
:1000C0009F0300089F0300089F0300089F03000888
:1000D0009F0300089F0300089F0300089F03000878
:1000E0009F0300089F0300089F0300089F03000868
:1000F0009F0300089F0300089F0300089F03000858
:100100009F0300089F0300089F0300089F03000847
:100110009F0300089F0300089F0300089F03000837
:100120009F0300089F0300089F0300089F03000827
:100130009F0300089F0300089F0300087908000838
:100140006D0800089F0300089F0300089F03000834
:100150009F0300089F0300089F0300089F030008F7
:100160009F0300089F0300089F0300089F030008E7
:100170009F0300089F0300089F0300080000000081
:100180009F0300089F0300089F0300089F030008C7
:100190009F0300089F0300089F0300089F030008B7
:1001A00000000000000000009F03000800F002F8BB
:1001B00000F05EF80AA090E8000C82448344AAF1A3
:1001C0000107DA4501D100F053F8AFF2090EBAE8A1
:1001D0000F0013F0010F18BFFB1A43F0010318477B
:1001E000504E0000704E00000A444FF0000C10F812
:1001F000013B13F0070408BF10F8014B1D1108BFA5
:1002000010F8015B641E05D010F8016B641E01F844
:10021000016BF9D113F0080F1EBF10F8014BAD1C94
:100220000C1B09D16D1E58BF01F801CBFAD505E0B2
:1002300014F8016B01F8016B6D1EF9D59142D6D30C
:10024000704700000023002400250026103A28BF34
:1002500078C1FBD8520728BF30C148BF0B60704738
:100260001FB504F05AFA00F03AF91FBD10B510BDE1
:1002700000F09EF91146FFF7F3FF03F0DEF800F0FF
:10028000BCF903B4FFF7F2FF03BC00F0BFF90000B4
:100290002C4B19680868B0E8F04F80F30988BFF369
:1002A0006F8F4FF0000080F311887047000000004E
:1002B00008480068006880F308884FF0000080F369
:1002C000148862B661B6BFF34F8FBFF36F8F00DF44
:1002D00000BF00BF08ED00E0DFF80C00016841F44A
:1002E00070010160704700BF88ED00E0EFF3098006
:1002F000BFF36F8F134B1A681EF0100F08BF20ED6D
:10030000108A20E9F04F106009B44FF0500080F3DC
:100310001188BFF34F8FBFF36F8F03F03BFE4FF099
:10032000000080F3118809BC19680868B0E8F04F34
:100330001EF0100F08BFB0EC108A80F30988BFF3DD
:100340006F8F7047F0000020EFF3058070470000CA
:100350000B49D1F800C04A685CF8043B10681844A7
:1003600042F8040B8C4528BFA1F1DC0C8A4228BF5F
:10037000A1F1DC02C1F800C04A6020F000407047E3
:10038000B44400200948804709480047FEE7FEE7DB
:10039000FEE7FEE7FEE7FEE7FEE7FEE7FEE7FEE735
:1003A00004480549054A064B70470000512D0008D6
:1003B000AD01000820450020204B002020470020F0
:1003C0002047002053EA020C00F069802DE9F04B31
:1003D0004FF00006002B1FBFB3FA83F503FA05F4B4
:1003E00024FA05F65E4012BF1643B2FA82F502FA0D
:1003F00005F4C5F120051EBF22FA05FC44EA0C04F1
:10040000203556EA044C4FEA144418BF641C4FF0E0
:1004100000084FF00009904271EB030C39D300291A
:1004200019BFB1FA81F701FA07F6B0FA80F700FABE
:1004300007F6C7F120071EBF20FA07FC46EA0C06A4
:100440002037B6FBF4FCA7EB0507103F07F01F0BA6
:10045000CBF120060CFA0BFB2CFA06F644BFB34690
:100460000026202FA4BF5E464FF0000B5BEA060C6F
:1004700008BF4FF0010B19EB0B09ABFB027C48EBFB
:100480000608C01B06FB02CC0BFB03CC71EB0C0176
:10049000C1E70B46024641464846BDE8F08B13B51E
:1004A0004FF000004FF00001AFF30080BDE81C40AA
:1004B000704700000B4910B5A1F17C020A4CC2E95B
:1004C0003712372106E000EB104342F82130074B8A
:1004D00000FB03400B1EA1F10101F4DC10BD012063
:1004E000E8E7000054440020E119D666CD0D010074
:1004F00010B5203AC0F00B80B1E81850203AA0E8BF
:100500001850B1E81850A0E81850BFF4F5AF5FEAF2
:10051000027C24BFB1E81850A0E8185044BF18C9A5
:1005200018C0BDE810405FEA827C24BF51F8043B4C
:1005300040F8043B08BF7047D20728BF31F8023BA0
:1005400048BF11F8012B28BF20F8023B48BF00F834
:10055000012B70474FF0000200B5134694469646B3
:10056000203922BFA0E80C50A0E80C50B1F12001C6
:10057000BFF4F7AF090728BFA0E80C5048BF0CC074
:100580005DF804EB890028BF40F8042B08BF7047D2
:1005900048BF20F8022B11F0804F18BF00F8012B44
:1005A000704770477047704700487047BC44002050
:1005B0007546FFF7F9FFAE4605006946534620F041
:1005C0000700854618B020B5FFF7EAFEBDE82040D9
:1005D0004FF000064FF000074FF000084FF0000BFF
:1005E00021F00701AC46ACE8C009ACE8C009ACE8B2
:1005F000C009ACE8C0098D46704710B50446AFF39A
:1006000000802046BDE81040FFF73BBE014918209E
:10061000ABBEFEE726000200704700009FED201AE7
:100620009FED202A20EE010ABDEEC01A11EE100A3D
:10063000B5EE400AF1EE10FAB8BF013801EE100A2B
:10064000B8EEC11A30EE410A20EE020ABDEEC01A21
:100650009FED152A11EE100A002130EE021AB1EBBF
:10066000502F44F62C011CBF0020B0EE410AC0F60A
:10067000000101EE100A01EB8001B8EE411A30EEE4
:10068000410A91ED001A91ED012AB7EE003A33EEDE
:10069000403A23EE011A20EE020A31EE000A7047BA
:1006A00083F9223E00000044000000C4164B10B540
:1006B00019205871154800240068A0F2011005287F
:1006C00008D2DFE800F003080E141A00104802F008
:1006D000D7FC1C7010BD0E48083002F0D1FC5C70D5
:1006E00010BD0B48103002F0CBFC9C7010BD0848C8
:1006F000183002F0C5FCDC7010BD0548203002F057
:10070000BFFC1C7110BD0000D4000020700600204A
:100710003002002070B5364D364CA889401C80B29E
:100720000526B0FBF6F1A88106FB110058B9D4E903
:100730000C01C5E916010823012205F1580140F218
:10074000013000F059F8A889B0FBF6F106FB110062
:1007500001280BD1D4E90E01C5E91601244908236B
:100760000122583140F2023000F046F8A889B0FB6F
:10077000F6F106FB110002280BD1D4E91001C5E9FE
:1007800016011B4908230122583140F2033000F0C2
:1007900033F8A889B0FBF6F106FB110003280BD152
:1007A000D4E91201C5E91601114908230122583183
:1007B0004FF4417000F020F8A889B0FBF6F106FB79
:1007C000110004280BD1D4E91401C5E91601084928
:1007D00008230122583140F2053000F00DF8A889B5
:1007E00047F23051884201D30020A88170BD00003B
:1007F00000000020D801002030B589B00024029408
:100800000090CDE903430B788DF818304B788DF8C4
:1008100019308B788DF81A30CB788DF81B300B7926
:100820008DF81C304B798DF81D308B798DF81E308A
:10083000C9798DF81F10012A05D108AB6946034814
:1008400006AA00F0CAFB09B030BD0000C4040020B5
:10085000FEE70000014800F02ABD0000C4040020AB
:10086000014800F024BD0000C4040020014800F04D
:100870001EBD0000EC040020014800F018BD00007F
:10088000EC04002070B50E4C154606462160002190
:100890006160A160C4E903130123214600F09DFBC0
:1008A00060B102232A462146304600F096FB28B16B
:1008B00004232A462146304600F08FFB002070BDFD
:1008C000AC0400209FED092A9FED091ADFED092AEB
:1008D000F0EE423AB0EE413ADFED071AF7EE000AC9
:1008E0009FED060A064802F045BF000000007A4668
:1008F0000000000000803B4600007A4566664641E5
:100900009006002070B52B4CDFED2B0A2DED048BEB
:1009100094ED070A30EE200A84ED070A10EE100A63
:1009200003F006FFC4E91401A278244DDFED249AF8
:10093000244CA2B3F7EE008A9FED238A9FED239A01
:1009400003F075FE00EE100A20EE090AFFF766FEBE
:1009500008EE808A9FED1E0A28EE000A10EE100AAB
:1009600003F03AFE41EC110BB5F95200F0EE690AC2
:1009700000EE100AB8EEC00A164801F0E3FF84ED5D
:10098000000ABDEEC00ABDEC048B002310EE100A75
:10099000BDE8704000B21A46194602F067B9B5F9D1
:1009A0005200F0EE690A00EE100A9FED0B1BB8EE44
:1009B000C00AE1E7000000206F12833A1806002009
:1009C0000000C842580100201F858B3F9A99F93FCB
:1009D000336341449006002000000000005089402D
:1009E0002DED048B00249FEDFB9AF7EE008A9FED1E
:1009F000FA8ADFF8E883012640F6C41B2546DFF8B3
:100A0000E0930421484600F0E5FF012802D1F54FAC
:100A1000787828B10421484600F0DCFF58B123E083
:100A20007E7000F0E1FF3969401A05281CD900F0FA
:100A3000DBFF786118E0EB4F7878012814D100F0E3
:100A4000D3FF3969401A05280ED900F0CDFFB861EF
:100A50007969401A052807D900F0C6FF3861B878CF
:100A6000C0F10100B8707D70DE4FDFF87093A9F11E
:100A70002809387889F8040089F80C0089F81400EE
:100A800089F81C0089F82400B878494678B397EDB6
:100A90000C0AD54930EE280A10EE100A87ED0C0A30
:100AA000884201DD87ED0C8AD049386BBA4688420E
:100AB0000BDA89F8035089F80B5089F8135089F83C
:100AC0001B5089F8235003F0C3F802F01DFE0746BF
:100AD000002C75D0012C74D0022C73D0032C72D052
:100AE000042C71D0052C70D0062C6FD05AE2FFE791
:100AF000CD71CD73CD75CD7700248A4681F827500E
:100B0000FFF708FE1E2002F0F3FD02F0FDFD814616
:100B1000B448406A401C1ED0B249896AA9EB010161
:100B2000594518D98AF80B508AF813508AF81B5087
:100B30008AF823500027FFF7EDFD022002F0D8FDD0
:100B40007F1C052FF7DBA74845628AF80360C0F8D1
:100B5000289080ED0C8AA34FA34997ED0C0A30EE44
:100B6000280A10EE100A87ED0C0A884201DD87ED95
:100B70000C8A786A411C05D008EBC001CA78012AAA
:100B800013D035E09949386B884203DB7D628AF8DF
:100B9000036012E00020514601EBC002401CD570FA
:100BA0000528F9DB03F054F822E0401CCD7005283D
:100BB0000DDA78620AEBC000C670C7F8289017E01B
:100BC00043E066E0AAE0F4E043E187E1CEE14FF0E4
:100BD000FF30786287ED0C9A4FF47A7002F088FD4E
:100BE0000020514601EBC002401CD5700528F9DBFE
:100BF000F979404608EBC101C978002924D0397A37
:100C000000EBC101C9780029F8D0797A00EBC10165
:100C1000C9780029F2D0B97A00EBC101C97800295E
:100C2000ECD0F97A08EBC100C0780028E6D087ED57
:100C30000C9A0020514601EBC002401CD5700528DB
:100C4000F9DB4FF0FF307862ACE188F8235088F888
:100C50001B5088F8135088F80B5088F8035089F817
:100C6000275089F81F5089F8175089F80F5089F8D4
:100C7000075089F8036089F80B6089F8135089F8E8
:100C80001B5089F82350FFF745FD01248AF80350D3
:100C90000DE09AF80300514610B1012811D081E10E
:100CA00098F80300424601287ED10020E1E0CAF80E
:100CB0002C7077E1DAF82C00391A5945C4D9002490
:100CC00070E19AF8040038B3002008EBC000C17846
:100CD000012905D0DAF82C10791AB1F57A7FB3D949
:100CE000C57089F8076089F80F6089F8176089F87E
:100CF0001F6089F8276089F8035089F80B5089F83C
:100D0000235089F8136089F81B60FFF703FD1E204C
:100D100002F0EEFC022441E00120D6E79AF803003D
:100D2000514610B101280DD03CE198F8130042461D
:100D3000012803D0D07E012802D0BBE7022098E032
:100D4000032096E09AF80400022830D0022008EB35
:100D5000C000C178012905D0DAF82C10791AB1F554
:100D60007A7F23D9C570022189F8071089F80F10FE
:100D700089F8171089F81F1089F8271089F80B5087
:100D800089F8135089F81B5089F8236089F80360AB
:100D9000FFF7C0FC1E2002F0ABFC032457468AF884
:100DA000035002F0B1FC00E060E0F862FAE00320DA
:100DB000CDE79AF80300514610B101281AD0F1E0AE
:100DC00098F823004246012812D0D0780128B4D1E7
:100DD0006BE70000000000000000FA433002002032
:100DE000000402400000002000409C460000FA433E
:100DF00004203EE09AF80400042828D0042008EBE0
:100E0000C000C178012905D0DAF82C10791AB1F5A3
:100E10007A7F24D9C570032189F8071089F80F104B
:100E200089F8171089F81F1089F8271089F80350DE
:100E300089F81B5089F8235089F8136089F80B60F2
:100E4000FFF768FC1E2002F053FC0424A6E70020F4
:100E5000D5E79AF80300514610B101280FD0A1E060
:100E600098F81300424601283FF468AFD07A012871
:100E7000ADD1087108EBC000C570CE7017E79AF8C5
:100E80000400022828D0022008EBC000C178012904
:100E900005D0DAF82C10791AB1F57A7F24D9C5700B
:100EA000042189F8071089F80F1089F8171089F8BC
:100EB0001F1089F8271089F8035089F80B5089F81A
:100EC000135089F8236089F81B60FFF723FC1E206C
:100ED00002F00EFC052461E70120D5E79AF8030033
:100EE000514610B101280CD05CE098F81B00424636
:100EF00001283FF425AF92F8230001283FF478AF92
:100F0000D8E6087903282FD0032008EBC000C27868
:100F1000012A05D0DAF82C10791AB1F57A7F41D977
:100F2000C570052189F8071089F80F1089F8171086
:100F300089F81F1089F8271089F8035089F80B5099
:100F400089F8135089F81B5089F823500024FFF7C3
:100F5000E1FB022002F0CCFB641C052CF7DB1E2019
:100F600002F0C6FB06241DE00420CEE74FF47A70A1
:100F700002F0BEFB062189F8071089F80F1089F8E6
:100F8000171089F81F1089F827100024FFF7C2FBFB
:100F9000022002F0ADFB641C052CF7DB00241E20B0
:100FA00002F0A6FBFFF7B6FB1E2002F0A1FB26E530
:100FB000704772B6FEE790F82020012A07D0022A77
:100FC00005D0416A41F480214162012070470068E8
:100FD00042690A43426100207047F0B590F8205002
:100FE0000468A468012D05D0022D03D0416A41F4A4
:100FF000802157E014F0406F01D1E5004FD5C4F3D4
:1010000001640125A5401D608B684FF4C0759BB13C
:10101000CE6833434E6843EAC603066805EB0417FF
:10102000F3514FF4C273076803EB04130E69FE50CB
:10103000097D012905D009E00E88CB6843EA4653B3
:10104000EBE70168CE5846F48076CE501179D3791B
:10105000567941EA036193791B0443EA0623194355
:101060004FF4C676036806EB041699511178D378CD
:1010700041EA0361937852781B0443EA0222114348
:101080004FF4C473026803EB0413D150006805EBFE
:101090000411425842F0010242500020F0BD416A62
:1010A00041F4001141620120F0BD000010B590F83C
:1010B0002020012A07D0022A05D0416A41F480216C
:1010C0004162012010BD3B48D0F8002242F00102ED
:1010D000C0F80022D0F8002222F47C52C0F800228E
:1010E000D0F800224B6A42EA0322C0F800220A7DAF
:1010F00002F01F0301229A40D0F81C329343C0F83B
:101100001C32CB69B3B9D0F80C329343C0F80C321F
:101110008C894B6864F31F434C6900EBC404C4F82A
:1011200040320C890B6864F31F434C6900EBC40424
:10113000C4F84432CB69012B16D1D0F80C321343DA
:10114000C0F80C320C884B6864F31F434C6900EB09
:10115000C404C4F840320C89CB6864F31F434C6963
:1011600000EBC404C4F844328B69002BD0F804327D
:101170000ED01343C0F804320B69002BD0F81432A0
:1011800008D01343C0F81432096A012904D008E0DA
:101190009343EFE79343F5E7D0F81C121143C0F8EF
:1011A0001C12D0F8001221F00101C0F8001200203A
:1011B00010BD000000640040704770B590F82040FA
:1011C000012C05D0022C03D0416A41F4802128E093
:1011D000046809B32469A40720D04FF4D8740568C3
:1011E00004EB01142D5915F00405956005682D597F
:1011F0001AD0ED08556005682C5904F00204D4603B
:101200004FF4DA74056804EB01142E5906F00F064A
:10121000082E0CD308250DE0E468DCE7416A41F4B0
:1012200000114162012070BD6D0D1560E3E72D597D
:1012300005F00F05156105682D59C5F30725956162
:1012400005682C59240C54614FF4DC72046802EBDD
:101250000112A4581C700468A458240A5C70046825
:10126000A458240C9C700468A258120EDA704FF433
:10127000DE72046802EB0112A4581C710468A458C1
:10128000240A5C710468A458240C9C710468A25858
:10129000120EDA71006829B1016941F02001016183
:1012A000002070BDC16841F02001C160F8E72DE960
:1012B000F05F0546006800244669D0F8049087680E
:1012C000D0F80CB0D0F810A0D0F81880F10748D0B2
:1012D000F90714D001218160B80703D5284600F032
:1012E0006AFA0CE0780702D54FF4006407E038078B
:1012F00002D54FF4805402E0284600F05BFAF8056E
:1013000016D529684FF480708860B80503D5284643
:1013100000F053FA0CE0780502D544F4005407E0DD
:10132000380502D544F4804402E0284600F044FA2F
:10133000F80316D529684FF480308860B80303D5C8
:10134000284600F03CFA0CE0780302D544F400444F
:1013500007E0380302D544F4803402E0284600F068
:101360002DFA300707D55FEACB6004D52968102035
:1013700044F40074C86070074FF0080707D55FEAAF
:101380000B7004D52868C760284600F0A7F9B0079D
:1013900006D52868C068800702D0284600F0A0F96A
:1013A000700607D55FEACA6004D52968102044F4A6
:1013B00080640861B00607D55FEA0A7004D5286822
:1013C0000761284600F0C8F9F00606D528680069CC
:1013D000800702D0284600F0C0F9B00308D55FEAC4
:1013E000C96005D5296810204860284600F0B6F984
:1013F000F00307D55FEA097004D5286847602846DE
:1014000000F0DEF9300446D55FEA497040D5F005BA
:1014100004D55FEAC87001D044F00104B00504D5DA
:101420005FEA887001D544F00204700504D55FEAD4
:10143000487001D544F00404300529D518F0700F28
:1014400026D008F07000402815D006DC102809D0FE
:1014500020280AD0302816D10AE050280ED0602863
:1014600011D10EE044F008040DE044F010040AE04D
:1014700044F0200407E044F0400404E044F0800419
:1014800001E044F480742868816921F07001816171
:10149000296804204860002C05D0686A20436862EF
:1014A0002846FFF789FEBDE8F09F70B5040003D021
:1014B00094F8200010B104E0012070BD204600F037
:1014C00081F82068016841F00101016000F08CFAA8
:1014D0000546052604E000F087FA401B0A2811D8CB
:1014E00020684068C007F6D02068016821F002013A
:1014F000016000F079FA05460BE000F075FA401B38
:101500000A2806D9606A40F40030606284F82060DE
:10151000D2E7206840688007EFD4207E0128206849
:1015200001683DD021F080010160607E01282068C3
:10153000016838D021F040010160A07E01282068B8
:10154000016833D021F020010160E07E012820688D
:1015500001682ED041F010010160207F0128206831
:10156000016829D021F008010160607F012820680E
:10157000016824D021F004010160D4E9020108438C
:10158000D4E90412114308436168491E08432168E5
:10159000C86100206062012084F82000002070BD36
:1015A00041F08001C0E741F04001C5E741F0200172
:1015B000CAE721F01001CFE741F00801D4E741F07C
:1015C0000401D9E7F0B587B0044614216846FEF758
:1015D000C1FF3D493D4ADFF8ECE00868D4F800C09F
:1015E0003A4B03240225092610320027401CF445FB
:1015F00029D10860012807D1106840F00070106000
:10160000106800F000700590186840F0080018603D
:1016100018688DE8B00000F00800CDE90460694664
:1016200003942B4800F0E0F800220521132000F07D
:101630004DFA132000F03CFA00220521142000F09E
:1016400045FA14203AE0DFF88CE0F44538D1D2F8BE
:1016500000C04CF0806CC2F800C0D2F800C0012875
:101660000CF0806CCDF814C0086007D1106840F011
:1016700000701060106800F000700590186840F06D
:10168000020018601868694600F0020005904FF4E7
:1016900040508DE8A100CDE903460F4800F0A4F8C2
:1016A000002205213F2000F011FA3F2000F000FA4F
:1016B00000220521402000F009FA402000F0F8F94E
:1016C00007B0F0BD006400406C00002030380240DC
:1016D000000C024000680040000402407047000017
:1016E00070B5044600681649164D884212D1164B53
:1016F0002A4600211548FFF760FD2868A0F5007014
:10170000013803D1A5F1580001F03AFC0E49A86850
:10171000FEF7CCFF0E492068884210D10A4B094AD7
:1017200000210C48FFF749FD2868A0F5007001383A
:1017300005D1BDE870400348583801F021BC70BDA8
:101740000064004070060020DB000020C40400207C
:1017500000680040EC04002070477047704770B587
:10176000044690F82000012804D0606A40F400206C
:10177000606217E0022084F820002068016821F0F0
:101780000101016000F030F905460DE000F02CF990
:10179000401B0A2808D9606A40F4003060620520C6
:1017A00084F82000012070BD20684068C007EDD19A
:1017B000606270BD704770477047704770477047F0
:1017C0007047000070B5044600F00EF90546601C35
:1017D00002D004480078044400F006F9401BA042FF
:1017E000FAD370BDE40000202DE9F84FDFF8B09186
:1017F0000022A9F1040B03274FF00F0C09F1040A92
:10180000ABF1040E01250B6895402B40AB426ED125
:101810000C7904F00304012C01D0022C15D1866848
:10182000540007FA04F826EA0806D1F80C8008FAF2
:1018300004F848EA0608C0F808804468AC430D790B
:10184000C5F300159540254345600C79E443A40792
:1018500008D0C568540007FA04F6B5438E68A64060
:101860002E43C6600C7904F00304022C11D1D40875
:1018700000EB8406356A5407E40E0CFA04F825EAF6
:101880000805D1F8108008FA04F848EA0508C6F8F7
:1018900020800568540007FA04F6B5430E7906F077
:1018A0000306A6402E4306604C6814F4403F70D0F7
:1018B0003C4C256845F480452560246822F00305EA
:1018C00004F480440094384C05EB0408D8F8085818
:1018D0009407260F0CFA06F4A543344CA04201D11C
:1018E00000242EE0324CA04202D1012429E050E035
:1018F000304CA04201D1022423E02F4CA04201D160
:1019000003241EE02D4CA04201D1042419E02C4CEC
:10191000A04201D1052414E02A4CA04201D10624A2
:101920000FE0294CA04201D107240AE0274CA04235
:1019300001D1082405E0264CA04201D1092400E091
:101940000A24B4402C43C8F80848D9F800404D4652
:101950004E689C43F60200D51C432C60DAF8004028
:1019600055464E689C43B60200D51C432C60DBF8FC
:1019700000405D464E689C43B60300D51C432C6076
:10198000DEF8004075464E689C43F60300D51C43C4
:101990002C60521C102AFFF435AFBDE8F88F000010
:1019A000083C014044380240003001400000024041
:1019B0000004024000080240000C024000100240F7
:1019C0000014024000180240001C024000200240A7
:1019D000002402400069084000D0012070470AB18D
:1019E000816170470904FBE7014880687047000087
:1019F000E400002002488168027811448160704749
:101A0000E40000200B4810B5016841F4007101604A
:101A1000016841F480610160016841F480710160F6
:101A2000032000F073F80F2000F006F800F024F80F
:101A3000002010BD003C024070B50D4D04464FF42F
:101A40007A712878B1FBF0F00A490968B1FBF0F02F
:101A500000F06DFC48B9102C07D200222146501E20
:101A600000F034F800206C6070BD012070BD0000F3
:101A7000E4000020700000200C4882B0016841F4AE
:101A800080410160006800F4804000900748001F1A
:101A9000016841F0805101600068002200F0805030
:101AA00000900F21901E02B000F010B844380240A0
:101AB000002809DB00F01F0201219140400980004D
:101AC00000F1E020C0F8001170470000F0B40E4BA8
:101AD0001B68C3F30223C3F10704042C00D90424B8
:101AE0001D1D072D01D2002300E0DB1E012606FA92
:101AF00004F56D1E0D409D409E40761E164045EA41
:101B00000601F0BC01F0DCB90CED00E0064A00F083
:101B1000070110684FF6FF03184040EA012003490F
:101B200008431060704700000CED00E00000FA056B
:101B30002DE9F0470D46040065D0DFF81491D9F87F
:101B40000000EFB200F00F00A84207D289F8007041
:101B5000D9F8000000F00F00A84254D120683D4E93
:101B6000810712D5400703D5306840F4E05030605B
:101B70002078000703D5306840F46040306030685A
:101B8000A16820F0F000084330602078C0072DD015
:101B9000304960680839012812D0022813D0032880
:101BA00011D00968890700292DDA316821F0030175
:101BB00001433160FFF718FF804641F2883A0EE09A
:101BC00009688903EFE709688901ECE7FFF70CFF73
:101BD000A0EB0801514502D90320BDE8F087306829
:101BE000616800F00C00B0EB810FEFD1D9F8001064
:101BF000484601F00F01A94207D90770006800F0BC
:101C00000F00A84201D00120E7E72078400705D562
:101C10003068E16820F4E050084330602078000725
:101C200006D53068216920F4604040EAC100306088
:101C300000F018F83168084AC1F30311515CC8403C
:101C40000649086006480068FFF7F6FE0020C4E772
:101C5000003C024008380240E047000870000020C5
:101C6000E8000020154810B5006810F00C01144879
:101C700013D0144B04290FD008290ED10F4C241F68
:101C8000216801F03F022168490207D52068C0F3AE
:101C90008810A0FB030106E0184610BD2168C1F3BF
:101CA0008811A1FB00010023FEF78CFB2168C1F322
:101CB0000141491C4900B0FBF1F010BD0838024059
:101CC0000024F400001BB7002DE9F84F040075D084
:101CD0002078DFF838A3C007AAF1040548D00AF13C
:101CE00004000168C1F38101012908D00068C0F334
:101CF000810002280AD1DAF80000400206D52868DF
:101D0000800335D560680028E1D031E06068B0F527
:101D1000803F10D0B0F5A02F286810D020F480307C
:101D20002860286820F4802028606068A0B1FFF750
:101D30005BFE06460CE0286840F48030F4E740F48F
:101D400080202860F7E7FFF74FFE801B642871D8DA
:101D500028688003F7D50BE0FFF746FE064604E04F
:101D6000FFF742FE801B6428F1D828688003F7D46F
:101D70002078DFF89C9280074FF0000B3DD5A348F8
:101D8000001D016811F00C0F08D00068C0F381003D
:101D900002280AD1DAF80000400206D42868800739
:101DA00015D5E068012809D111E0E068B8B101203B
:101DB000C9F80000FFF718FE064605E022E1FFF72C
:101DC00013FE801B0228C2D828688007F7D5286830
:101DD000216920F0F80040EAC10028600DE0C9F850
:101DE00000B0FFF701FE064604E0FFF7FDFD801B93
:101DF00002281FD828688007F7D42078000722D54A
:101E0000824F84486169703771B101210160FFF729
:101E1000EBFD064604E0FFF7E7FD801B022809D82A
:101E200038688007F7D50EE0C0F800B0FFF7DCFD9A
:101E3000064605E082E0FFF7D7FD801B02287DD82B
:101E400038688007F7D42078400765D56F484FF091
:101E500000083C300068C0000BD46C483C3001687E
:101E600041F08051016000684FF0010800F080509F
:101E70000090694F3868C0050FD4386840F480700E
:101E80003860FFF7B1FD064604E0FFF7ADFD801BAB
:101E9000022853D83868C005F7D55C4FA0686C3766
:101EA00001280FD00528386810D020F001003860D4
:101EB000386820F004003860A068B0B1FFF794FDE6
:101EC00006460EE0386840F00100F4E740F00400F8
:101ED0003860F7E7FFF788FD811B41F288308142C7
:101EE00063D838688007F5D50DE0FFF77DFD06461D
:101EF00006E0FFF779FD811B41F28830814254D81A
:101F000038688007F5D4B8F1000F05D03F483C3061
:101F1000016821F080510160A069B8B33B49091DF7
:101F20000968C1F38101022946D00228584606D02B
:101F3000C9F86000FFF758FD044639E035E04F4628
:101F4000C9F86000FFF750FD064604E0FFF74CFDBE
:101F5000801B022829D828688001F7D4D4E907011A
:101F60000843A16A2D4A490802EB0141626A41EA2D
:101F70008211084394F82C1040EA0161CAF800105D
:101F800001203866FFF730FD044605E03CE0FFF72E
:101F90002BFD001B022808D828688001F7D533E004
:101FA000FFF722FD001B022802D90320BDE8F88FAD
:101FB00028688001F4D427E00128F7D0DAF800007F
:101FC000E26900F4800191421CD1226A00F03F01D5
:101FD000914217D147F6C071626A0140B1EB821F8E
:101FE00010D1A26A4FF0FF3300F4403103EB5202EC
:101FF000B1EB024F06D194F82C1000F07060B0EBFA
:10200000016F01D00120D1E70020CFE70438024062
:1020100000004742800E4742007000400000FFFF72
:1020200070B5040009D0606A002540B12561656182
:10203000A56294F8510040B10CE0012070BD6068C9
:10204000B0F5827FF4D0E561F2E784F85050204685
:1020500000F044F8022084F851002068016821F063
:1020600040010160A088218900F4827001F40441DC
:102070000843A18901F400610843217C01F00201B9
:102080000843217D01F001010843218B01F4007117
:102090000843217F01F03801084394F8201001F033
:1020A00080010843218D01F4005108432168086034
:1020B000A069042101EA104094F8241001F01001F5
:1020C0000843216848602068C16921F40061C1614A
:1020D0006565012084F85100002070BD10B586B000
:1020E000044614216846FEF735FA144920688842F0
:1020F00021D113480021026842F480120260006876
:1021000000F4801005900E481438026842F0200256
:102110000260006800F0200005904FF460700090AD
:102120000220CDE9010103200390052004906946B7
:102130000448FFF759FB06B010BD000000500140F5
:1021400044380240001402402DE9FF4F81B01F4681
:102150009346044601250E9EFFF746FC804694F800
:1021600051006168012806D0B1F5827F3CD1A16899
:10217000C9BB042838D10298002870D0BBF1000FE9
:10218000FBD0002FF9D094F8500001282CD04FF04C
:10219000010A84F850A094F85100042802D00520C8
:1021A00084F851004FF00009C4F85490C4F838B0D6
:1021B000E787A78702992163E786A786C4F840903E
:1021C000C4F8449020680168490603D4016841F0CE
:1021D00040010160E068B0F5006F606808D0E8B3C6
:1021E000012F47D07DE0FFE7022005B0BDE8F08F6A
:1021F00008B1012F37D1206B21680088C860206B9F
:10220000801C2063E08E401EE0862CE02068816800
:1022100089070DD5E18E59B1012D09D1216B0988AE
:10222000C160206B801C2063E08E401EE08600258C
:1022300020688168C9070BD0E18F49B1C068A16BE4
:102240000880A06B801CA063E08F401EE087012502
:10225000FFF7CAFBA0EB0800B04201E00AE064E02F
:1022600001D3701C4ED1E08E0028CFD1E08F002822
:10227000CCD13CE0206B216800780873206B401CB7
:102280002063E08E401EE0862BE02068816889078D
:102290000DD5E18E59B1012D09D1216B097801735A
:1022A000206B401C2063E08E401EE08600252068E5
:1022B0008168C9070BD0E18F49B1C068A16B087074
:1022C000A06B401CA063E08F401EE0870125FFF754
:1022D0008BFBA0EB0800B04202D3701C01D011E0D0
:1022E00086B1E08E0028D0D1E08F0028CDD14246C3
:1022F0003146204600F026FC50B12020606584F86D
:10230000509012E084F851A084F8509003206CE7BC
:10231000A06818B92068C1688068009084F851A04E
:1023200084F85090606D0028F1D001205DE710B571
:10233000401EB0F1807F01D3012010BD4FF0E0249A
:1023400060610F21601700F0BBFD0020A061072035
:102350002061002010BD70477047000070B590F8F4
:102360003C20012A32D0012580F83C50022280F81E
:102370003D2002685368946823F070060B6833436D
:102380005360134B02689A4214D0B2F1804F11D0BF
:10239000104B9A420ED0104B9A420BD00F4B9A42E0
:1023A00008D00F4B9A4205D00E4B9A4202D00E4BEA
:1023B0009A4204D1496824F080031943916080F85F
:1023C0003D50002180F83C10084670BD022070BDD1
:1023D000000001400004004000080040000C0040E4
:1023E00000040140004001400018004010B5040006
:1023F00003D094F83D0010B107E0012010BD00208B
:1024000084F83C00204600F01FF8022084F83D00CC
:10241000211D206800F0B6FC012084F8460084F8F5
:102420003E0084F83F0084F8400084F8410084F8BE
:10243000420084F8430084F8440084F8450084F89E
:102440003D00002010BD000008B500680B4988421F
:1024500012D10B48016841F00101016000680022BF
:1024600000F00100009005211920FFF72FFBBDE8C7
:1024700008401920FFF71CBB08BD00000000014008
:102480004438024070B5044690F83C00002501280D
:1024900017D0012684F83C60022084F83D002068B3
:1024A000826822F0770222F47F4282600868502816
:1024B00038D00DDC20284FD005DC90B3102811D186
:1024C0004AE0022070BD302846D040280AD13BE0C7
:1024D00060282FD070280DD0B0F5805F03D0B0F504
:1024E000005F12D0012584F83D60002084F83C0094
:1024F000284670BDCB68D1E90121206800F0AAFC14
:102500002068816841F0770109E0CB68D1E90121B9
:10251000206800F09FFC2068816841F48041816060
:10252000E1E719E0CA684968206800F0A5FC50217D
:10253000206806E0CA684968206800F0AEFC6021A7
:10254000206800F091FCCEE7CA684968206800F076
:1025500093FC40212068F4E7226801461046F0E72A
:1025600070472DE9F04104460068C66805694FF0E0
:102570000007A90713D5B10711D5F91E0161012084
:102580002077206880698007204602D0FFF7E8FFA7
:1025900004E000F07EF8204600F07CF8277768071A
:1025A00016D5700714D521686FF004000861022069
:1025B00020772068806910F4407F204602D0FFF722
:1025C000CFFF04E000F065F8204600F063F82777BD
:1025D000280715D5300713D521686FF0080008616A
:1025E000042020772068C0698007204602D0FFF7CA
:1025F000B7FF04E000F04DF8204600F04BF82777D5
:10260000E80616D5F00614D521686FF010000861B1
:10261000082020772068C06910F4407F204602D04F
:10262000FFF79EFF04E000F034F8204600F032F897
:102630002777E80708D0F00706D021686FF001007F
:102640000861204600F028F8280608D5300606D58F
:1026500021686FF0800008612046FFF77CFE680665
:1026600008D5700606D521686FF040000861204645
:1026700000F024F8A8060AD5B00608D521686FF046
:10268000200008612046BDE8F041FFF765BEBDE8C7
:10269000F08170477047000000680649884208D101
:1026A0000548F7EE000A90ED070A30EE200A80EDAB
:1026B000070A704700000140000000207047FEE755
:1026C000012240210148FFF78AB9000000140240AE
:1026D000002240210148FFF782B9000000140240A7
:1026E000104810B50E4901600321416000214FF4EC
:1026F00000228160C0E903124FF44012426101766A
:10270000012242768276C17601774177FEF7CDFECF
:10271000002803D0BDE81040FEF74BBC10BD000000
:1027200000640040C4040020104810B50E49016048
:102730000321416000214FF400228160C0E90312AF
:102740004FF4401242610176012242768276C176D0
:1027500001774177FEF7A9FE002803D0BDE81040BD
:10276000FEF727BC10BD000000680040EC0400200C
:1027700010B596B01C2211496846FDF7B9FE00213C
:10278000684600F0CDFF0E4C0C491C2220601C3125
:1027900007A8FDF7ADFE002107A800F0C1FF07491B
:1027A00060601C2238310EA8FDF7A2FE00210EA8A1
:1027B00000F0B6FFA06016B010BD00008C47000806
:1027C000600000202DE9F04186B014216846FDF735
:1027D000C1FE2A480024016841F00101016001683E
:1027E00001F001010591016841F0080101600168F3
:1027F00001F008010591016841F080010160016864
:1028000001F080010591016841F02001016001683B
:1028100001F020010591016841F0020101600068AA
:10282000174F00F002000590012214213846FFF7EF
:10283000D6F8DFF85080002240214046FFF7CFF85D
:10284000142001250226CDE90005CDE9024669469E
:102850003846FEF7C9FF40200090CDE90154694693
:1028600040460394FEF7C0FF04208DE851006946FE
:102870000548FEF7B9FF06B0BDE8F08130380240E8
:10288000001C02400014024000040240104810B531
:102890000E4901604FF48271416000210222816083
:1028A000C0E9031201224261520282613022C0E972
:1028B0000721416281620A21C162FFF7B1FB002852
:1028C00003D0BDE81040FEF774BB10BD00500140BE
:1028D0001405002010B586B0002418480094019417
:1028E00002940394049414490594016042F2CF01C8
:1028F000C0E9011442F20F71C0E903148021C0E95C
:102900000541FFF773FD08B1FEF753FB4FF480500C
:10291000009069460948FFF7B5FD08B1FEF749FB8D
:10292000049404A905480594FFF718FD002801D078
:10293000FEF73FFB06B010BD000001406C05002013
:10294000FEE7FEE710B504462DED048BB0EE609A6D
:10295000B0EE408A51EC110B01F024FD00EE900A1C
:10296000C4ED140A30EEC80A84ED158A84ED100A0D
:10297000D4ED130A70EE800AC4ED130AD4ED090AEF
:1029800020EE800A84ED0D0A10EE100A01F024FEFC
:1029900094ED002B53EC122B01F0E8FD06D294EDE0
:1029A000001B51EC110B01F0FDFC606394ED001B6A
:1029B00051EC110B01F0EAFC41EC180B606B01F0DB
:1029C0000BFE53EC182B01F041FD0BD294ED001BD4
:1029D00051EC110B01F0E6FC00EE100AB1EE400ADA
:1029E00084ED0D0A94ED100AF0EEC00AF4EEC90A67
:1029F000F1EE10FA7ED2D4ED130A30EE800A84EDA7
:102A0000130AD4ED0A0A20EE800A84ED0E0A10EEB5
:102A1000100A01F0E1FD94ED021B53EC112B01F0C3
:102A2000A5FD06D294ED020B51EC100B01F0BAFC9F
:102A3000A06394ED020B51EC100B01F0A7FC41ECEC
:102A4000180BA06B01F0C8FD53EC182B01F0FEFC35
:102A50000BD294ED020B51EC100B01F0A3FC00EE35
:102A6000100AB1EE400A84ED0E0A94ED100AD4ED7E
:102A7000110A30EE600AD4ED0B0A20EE200A84ED34
:102A80000F0A10EE100A01F0A7FD94ED041B53ECA1
:102A9000112B01F06BFD06D294ED040B51EC100BE1
:102AA00001F080FCE06394ED040B51EC100B01F09D
:102AB0006DFC41EC180BE06B01F08EFD53EC182B14
:102AC00001F0C4FC0BD294ED040B51EC100B01F09F
:102AD00069FC00EE100AB1EE400A84ED0F0A94ED95
:102AE0000D0AD4ED0E0A30EE200AD4ED0F0A70EE76
:102AF000200A00E01EE0C4ED0C0A94ED080AF4EE92
:102B0000C00AF1EE10FA01DD84ED0C0AD4ED0C0AD6
:102B1000B1EE400AF4EEC00AF1EE10FA01D284EDF3
:102B20000C0A94ED100A84ED110A94ED0C0ABDEC28
:102B3000048B10BD9FED020A84ED130A93E7000099
:102B400000000000F8B515460E460B4600920446FC
:102B50000122022100F02CF8A0B9134813490068A3
:102B6000B0FBF1F04FF47A71484300906068B0F523
:102B7000827F0DD13346002280212046009500F04F
:102B800017F870B1606D40F0200060650320F8BD5B
:102B9000009830B1401E009020688068C043000655
:102BA000F6D50020F8BD00007000002000366E0150
:102BB0002DE9F8431E46914688460446089DFEF7D7
:102BC00013FF401B351AFEF70FFF07462648006823
:102BD000C0F3CB3068430AE0701C09D0FEF704FF55
:102BE000C01BA8420FD275B10098B8B3401E009028
:102BF0002068816838EA010033D000204845EBD1D5
:102C00000020BDE8F8832068416821F0E0014160C0
:102C10006068B0F5827F0BD1A068B0F5004F02D09C
:102C2000B0F5806F04D12068016821F04001016097
:102C3000A06AB0F5005F09D12068016821F4005155
:102C400001602068016841F400510160012084F8AE
:102C50005100002084F850000320D2E7FFE7002550
:102C6000C6E70120CAE70000700000201CB5010A79
:102C70008DF800108DF8010008236A46990102487A
:102C8000FDF700FE1CBD0000C4040020012000F080
:102C90002FFDFBE7FDF716FEFDF734FE012000F0E7
:102CA00027FDF9E710B5FEF7A5FE01F08BFA012824
:102CB00003D0BDE8104001F015BA10BD30B593B097
:102CC00030216846FDF746FC14210CA8FDF742FCB4
:102CD0001D480025016841F080510160006800F046
:102CE000805011901948016841F44041016000682A
:102CF000022400F440401190012000900004019053
:102D00008001CDE9064006200890A820CDE90904FD
:102D100004200B906846FEF7D7FF08B172B6FEE7B5
:102D20000CA90F2081E831004FF4A0500F904FF410
:102D30008050109005210CA8FEF7FAFE002801D063
:102D400072B6FEE713B030BD40380240007000405C
:102D50000248016841F470010160704788ED00E0AD
:102D600010B50648FFF7FDFB0548F7EE000A90EDA9
:102D7000000A30EE200A80ED000A10BD6C0500202C
:102D80001C000020F0B50268274D284E284FDFF8C0
:102D9000A4C0294B4FF0804EA84209D0704507D0FF
:102DA000B04205D0B84203D0604501D0984203D16B
:102DB00022F070044A682243A8421BD0704519D003
:102DC000B04217D0B84215D0604513D0984211D008
:102DD0001A4CA0420ED01A4CA0420BD0194CA04263
:102DE00008D0194CA04205D0184CA04202D0184C73
:102DF000A04203D122F44074CA6822434C6922F0F5
:102E0000800222438C68C4620C688462A84201D0AC
:102E1000984201D109690163016841F00401016030
:102E2000012141610260F0BD00000140000400404A
:102E300000080040000C0040000401400040014038
:102E4000004401400048014000180040001C0040C0
:102E50000020004010B5846842EA032224F47F4435
:102E60000A432243826010BD826822F070020A4346
:102E700042F007018160704710B5046A036A23F0CD
:102E800001030362836923F0F00343EA021324F091
:102E90000A020A438361026210BD10B5036A046A24
:102EA00024F010040462846923F0A00324F4704425
:102EB00044EA023243EA01118261016210BDFEE779
:102EC0000907090E002804DB00F1E02080F8001457
:102ED000704700F00F0000F1E02080F8141D7047EB
:102EE0002DED020B019820F0004001909DED000BAC
:102EF00002B0704710B500F017F80848FEF72FFC35
:102F00000748FEF72CFC02210448FEF754F8BDE800
:102F1000104002210248FEF74EB80000C404002011
:102F2000EC040020FFF7E6BF00B58BB000200121C4
:102F3000CDE9060108910090019002900390059060
:102F4000049069460C48FEF7B1F80B48FEF707FC01
:102F500002210948FEF72FF80E20099005906946D6
:102F60000648FEF7A3F80548FEF7F9FB02210348DF
:102F7000FEF721F80BB000BDC4040020EC040020D3
:102F800070B5002103680A4643603A4B1C8864BA56
:102F9000046004684568641BC460C46814F5805FFD
:102FA00006DA846B641C8463C46804F500540BE087
:102FB000C468B4F5805F06DD846B641E8463C468F6
:102FC000A4F5005400E0C468C4610468856B04EB98
:102FD0004534846004688569DFED270A641B00EED0
:102FE000104A846BB8EEC00A60EE200A4FF4B47544
:102FF0006C4300EE104A9FED211AB8EEC00A00EEB5
:10300000810A80ED110AC569047D00EB8406641C09
:1030100004753562047D062C01D10024047500EB93
:103020008104246A491C22440629F8DB062192FB0C
:10303000F1F1C163016C00EE101AC16BB8EEC00A69
:10304000F0EEC00A00EE101AB8EEC00AB0EEC00AE8
:10305000F4EEC00AF1EE10FA01D2C16B0164598896
:1030600049BAA0F85210998849BA20F84C1F9979AA
:10307000017270BDDB0000200000B4430000003985
:1030800008490A7802704A7842708A788270CA7851
:10309000C2700A7902714A7942718A798271C9795A
:1030A000C1717047DB000020EFF30580002800D0DD
:1030B0000120704710B562482DED068BB0F906105F
:1030C000B0F908009FED5F8B9FED609A604C00297E
:1030D0005ADA9FED60AADFED609A002822DA91FBB0
:1030E000F0F001F09CF941EC100BFFF7F9FE53EC06
:1030F000182B51EC100B01F039FA06D884ED019A27
:1031000084ED02AA9FED550A26E09FED550A84ED55
:10311000010A84ED02AA9FED530A84ED030A9FED94
:10312000520A2EE01CDD91FBF0F001F078F941EC41
:10313000100BFFF7D5FE53EC182B51EC100B01F0E0
:1031400015FA10D89FED490A84ED010A9FED480A4F
:1031500084ED020A9FED470A84ED030AC4ED049A48
:10316000BDEC068B10BD9FED440A84ED010A9FED76
:10317000430A84ED020A9FED420A84ED030A9FEDA3
:10318000410A84ED040AEBE7EADD0028DFED3E9A10
:103190002ADD91FBF0F001F042F941EC100BFFF752
:1031A0009FFE53EC182B51EC100B01F0DFF90ED8F9
:1031B0009FED360A84ED010A9FED350A84ED020A7F
:1031C0009FED340A84ED030A84ED049AC8E79FED6D
:1031D000320A84ED010A9FED310A84ED020AC4ED42
:1031E000039A9FED2F0ACCE7BADA91FBF0F001F0D9
:1031F00016F941EC100BFFF773FE53EC182B51EC52
:10320000100B01F0B3F90CD89FED260A84ED010AEA
:103210009FED250A84ED020AC4ED039A9FED230A6F
:10322000AFE79FED230A84ED010A9FED220A84EDAA
:10323000020A9FED210A84ED030A9FED200AA0E710
:10324000B4050020000000000000F03F14AE473E2F
:10325000740000208FC275BCBE9F7A3F04E78C3B90
:103260007B140E3FA69BC43B5839543FCBA145BEAF
:10327000BC7413BCA69BC4BBDF4F0DBF52499DBBA2
:103280007F6A3CBC14D0543F70CE88BCFA7E7ABFB3
:103290006F12033C0AD7A3BCC8987BBF6F12033BD5
:1032A0005B420E3FBE9F7ABFED0D3E3C14AE47BE63
:1032B000E17A54BF4260653CA69B44BC04560EBFF5
:1032C00010B530216A2000F0F1F90A20FEF77AFAF1
:1032D0000D21242000F0EAF90A20FEF773FA0E21EE
:1032E000282000F0E3F90A20FEF76CFA8E21312045
:1032F00000F0DCF90A20FEF765FA01210B2000F04E
:103300007BF80A20FEF75EFA002000F059F810283A
:1033100001D0012010BD01210B2000F06DF80A2022
:10332000FEF750FA00210A2000F066F80A2000F0AB
:1033300047F808B1022010BD0A20FEF743FA002129
:103340000B2000F059F80B2000F03AF808B10320E8
:1033500010BD0A20FEF736FA2421412000F04CF877
:10336000412000F02DF8242801D0042010BD0A20AF
:10337000FEF728FAC021422000F03EF8422000F07B
:103380001FF8C02801D0052010BD0A20FEF71AFA48
:1033900000212A2000F08AF90A20FEF713FA002102
:1033A000342000F083F90A20FEF70CFA06220321EC
:1033B0000E2000F091F86420FEF704FA002010BD02
:1033C00010B50146322000F071F90A20FEF7FAF933
:1033D0008021342000F06AF90A20FEF7F3F9352045
:1033E00000F014F904460021342000F05FF90A20AF
:1033F000FEF7E8F9204610BD70B50D4604460021E1
:103400002A2000F053F90220FEF7DCF9214629209A
:1034100000F04CF90220FEF7D5F92946642000F0AF
:1034200045F90220FEF7CEF981212A2000F03EF96D
:10343000BDE870400A20FEF7C5B9FEF7E3FAFFF7D2
:103440003DFCFFF7BFF9FFF721FAFFF749F9FFF756
:103450006BF9FFF73FFA00F00FF8FFF72BFEFFF7CD
:1034600061FDFFF785F900F04AF9FEE7014600200B
:10347000842900D0C81C704730B585B06420FEF7A1
:10348000A1F9752000F0C2F81149002414228870B7
:1034900010496846FDF72CF86D4605EB440041786D
:1034A00015F8140000F002F90120FEF78BF9641CF6
:1034B000E4B20A2CF1D3032000F0F3F8022000F06C
:1034C000EBF8FFF7FDFE00F04FF805B0002030BD2F
:1034D00074000020F047000870B50E46044601460F
:1034E0001546282000F0E2F80220FEF76BF90A21C9
:1034F000292000F0DBF80220FEF764F901216420A6
:1035000000F0D4F80220FEF75DF944F08001252098
:1035100000F0CCF80220FEF755F93146262000F0E5
:10352000C5F80220FEF74EF90321342000F0BEF862
:103530000220FEF747F90321672000F0B7F80220C8
:10354000FEF740F981212A2000F0B0F80620FEF7AE
:1035500039F945F08001272000F0A8F8BDE8704057
:103560000220FEF72FB900002DE9F041264F00257B
:1035700007F10E044FF496760E2223493B2000F00B
:1035800065F83988A08A49BA0844A0827988E08A17
:1035900049BA0844E082B988208B49BA084420839C
:1035A0003989608B49BA084460837989A08B49BA0C
:1035B0000844A083B989E08B49BA0844E083052018
:1035C000FEF700F96D1CB542D6DBB4F9140090FB90
:1035D000F6F0A082B4F9160090FBF6F0E082B4F9A0
:1035E000180090FBF6F02083B4F91A0090FBF6F077
:1035F00000B2608390FBF6F0A083B4F91E0090FB4C
:10360000F6F0E083BDE8F081E805002038B5044617
:10361000FFF75EF844F080000A4C3725621C2070EA
:103620000123511E08480095FEF78EFD621C012300
:10363000511E05480095FEF787FDFFF741F86078B9
:1036400038BD00007400002014050020F8B51446B1
:103650000D460646FFF73CF80D4946F08000372638
:1036600008705231A1F15102087001235239094802
:103670000096FEF769FD064923462A465231054861
:103680000096FEF761FDFFF71BF80020F8BD000073
:103690007400002014050020C006010E1C2000F05C
:1036A00005B8C006010E1B20AFF30080F8B50C462C
:1036B0000546FFF70DF80C4E05F07F0037253070FA
:1036C000721C0123511E09480095FEF73DFD347020
:1036D000721C0123511E05480095FEF735FDFEF7CB
:1036E000EFFF0020F8BD000074000020140500204A
:1036F00010B500B9012000F0E9FB002010BD10B5A5
:1037000000F00AFC002010BD10B5FFF7CDFC18B189
:10371000BDE8104000F06ABDBDE8104000F060BD9B
:103720007FB50D4604464169B0F9080081B1A16931
:1037300071B1FFF79BFED4E905128DE80700D4E9CB
:1037400000102B46226900F010FD039004B070BDFC
:10375000FFF78CFE03A9CDE90001208A2B4682B237
:10376000D4E9001000F0D4FC012801D00020EDE7DE
:103770000398EBE710B504462DED068BF0EE438A77
:10378000B0EE628AB0EE619AC0ED083AF0EE41AA5E
:10379000B0EE60AAF0EE409A12EE100A00F01CFFA4
:1037A000C4E9000118EE100A00F016FFC4E9020196
:1037B00018EE900A00F010FFC4E9040119EE100A97
:1037C00000F00AFF9FED0D0AC4E9060184ED0C0A22
:1037D00084ED0D0A84ED0E0A84ED0F0A84ED100AC3
:1037E00084ED110A84ED120A84ED140A84ED150AA1
:1037F0002434C4EC039ABDEC068B10BD000000001D
:103800002DE9F041184E0F460446F5683068001D5A
:1038100000F06AFA38B9306890F82C10012088401E
:10382000316981433161601C07D137B13168BDE82E
:10383000F0410E48091D00F09BBA30682C44AC42A0
:103840004460316805D2B06BBDE8F041091D00F05D
:1038500077BA706B091D00F073FAB06A844200D227
:10386000B462BDE8F0810000F0000020C407002031
:103870002DE9F041054600F087FA2E4EB068401C55
:10388000B06030682C4F10B1706940B32DE03560E6
:10389000B068012829D1002404EB840007EB8000E4
:1038A00000F040FA641C072CF6D323488C3000F05B
:1038B00039FA2148A03000F035FA1F48B43000F042
:1038C00031FA1D48C83000F02DFA1B48DC3000F0FA
:1038D00029FA19488C3070631430B06305E0306801
:1038E000E96AC06A884200D83560706A0121401CCC
:1038F0007062E86A326981401143316100EB8000F7
:1039000007EB8000291D00F033FA00F05DFA7069C2
:1039100000280CD03068E96AC06A884207D207499B
:103920004FF080500860BFF34F8FBFF36F8FBDE83B
:10393000F0810000F0000020E806002004ED00E027
:1039400010B5044690F8510058B101280CD0022857
:103950000FD0502080F31188BFF34F8FBFF36F8FCC
:10396000FEE7206B00F044FA2046BDE8104000F06E
:103970003FBA10BD10484FF47051420706D0C01D29
:103980000D4920F00700411AC1F570510B4A002380
:103990000144C2E900030839183A21F00701116017
:1039A0004B600B600B1AC0E9001393604FF00040AE
:1039B0005360506170470000D80700204401002088
:1039C000134E144DA6F1C8074FF08058DFF8489009
:1039D00011E000F0D9F9F068C468201D00F084F906
:1039E000A868401EA8606868401E686000F0ECF996
:1039F0002046FFF7A5FF68680028EAD1386801284B
:103A0000F9D9C9F80080BFF34F8FBFF36F8FF2E78A
:103A1000B0070020F000002004ED00E02DE9F047A1
:103A20009A46DDE9098481466FF00303206B03EBBE
:103A300082021044089D20F00706700707D050202E
:103A400080F31188BFF34F8FBFF36F8FFEE700271E
:103A500061B1002023180A5C83F834200A5C12B19B
:103A6000401C1028F6D384F8437001E084F83470C9
:103A7000072D00D30625E562C4E91157201D00F08B
:103A80005CF904F1180000F058F92461C5F1070051
:103A90006462A061E76484F850705246494630463B
:103AA00000F0C0F82060B8F1000F01D0C8F8004065
:103AB000BDE8F08730B5114900E011460A6882423E
:103AC000FBD34B685C18844203D1406818444860BB
:103AD000084643681C18944209D1084C183C2468D5
:103AE000A24209D052681A4442600A681268026011
:103AF000814200D0086030BD0460F9E74401002035
:103B00000648416B096829B1416BC968C9684968B1
:103B1000816270474FF0FF31FAE70000F0000020AB
:103B200008484068401C4FF0500080F3118804D0D2
:103B3000BFF34F8FBFF36F8FFEE7BFF34F8FBFF31E
:103B40006F8FFEE74C0100202DE9F041054600266D
:103B500000F018FA324F386808B9FFF70BFF7869A0
:103B600005424ED1C5B3083568070ED005F00700F1
:103B7000C0F108000544680707D0502080F3118881
:103B8000BFF34F8FBFF36F8FFEE72DB37868854289
:103B900037D8234918310846046801E02146044615
:103BA0006068A84202D220680028F7D138688442B1
:103BB00027D00E682068086060680836411B10290D
:103BC0000FD96019420708D0502080F31188BFF345
:103BD0004F8FBFF36F8FFEE713E041606560FFF723
:103BE00069FF61687868401A7860BA68904200D2CC
:103BF000B860786901430020C4E90001F868401CFE
:103C0000F86000F061FB700707D0502080F3118846
:103C1000BFF34F8FBFF36F8FFEE73046BDE8F081F3
:103C20002C01002010B5031F4FF080741C601B1F77
:103C300021F001011960191F044B0B6014390A604F
:103C4000091F6FF0020244380A6010BD213B0008D2
:103C500070B5FCF77DFB052490FBF4F1214D04FBCE
:103C60001100E871FCF774FB90FBF4F104FB110008
:103C70002872E979C0B28842F4D0FCF769FB90FB66
:103C8000F4F104FB11006872E979C0B28842F4D003
:103C9000297A8842F1D0FCF75BFB90FBF4F104FB3E
:103CA0001100A872E979C0B28842F4D0297A88421A
:103CB000F1D0697A8842EED0FCF74AFB90FBF4F130
:103CC00004FB1100E872E979C0B28842F4D0297A85
:103CD0008842F1D0697A8842EED0A97A8842EBD046
:103CE00070BD000000000020D0E9013201699A6037
:103CF000D0E901235A604A68824201D182684A6051
:103D0000002202610868401E0860086870470000D1
:103D1000034B036003F1540008608020106070477B
:103D20005802002000F108014FF0FF32C0E90112F3
:103D3000C16001610021016070470021016170478D
:103D400030B50C68621C02D000F1080202E0026982
:103D500004E01A4653681D68A542FAD953684B60BF
:103D600099608A60516008610168491C016030BD3A
:103D700042684A6093688B609368596091600861FB
:103D80000168491C01607047502080F31188BFF31F
:103D90004F8FBFF36F8F0A494868401C4860012865
:103DA0000CD10848006810F0FF0F07D0502080F3B6
:103DB0001188BFF34F8FBFF36F8FFEE7704700008E
:103DC0004C01002004ED00E00849486828B1401E7D
:103DD000486001D180F311887047502080F311882A
:103DE000BFF34F8FBFF36F8FFEE700004C01002041
:103DF00070B500282AD0164DA0F1080460686969E2
:103E0000084207D1502080F31188BFF34F8FBFF3D2
:103E10006F8FFEE722683AB1502080F31188BFF31C
:103E20004F8FBFF36F8FFEE78843606000F0AAF802
:103E300060686968084468602046FFF73BFE2869AF
:103E4000401C2861BDE8704000F03EBA70BD000023
:103E50002C0100204FF0E020002101618161054923
:103E60004FF47A720968B1FBF2F1491E41610721F2
:103E7000016170477000002010B5FCF765FA114928
:103E800010280ED300F1E02090F8F0030A78904259
:103E900007D2502080F31188BFF34F8FBFF36F8F8D
:103EA000FEE709480068896800F4E060884207D9A5
:103EB000502080F31188BFF34F8FBFF36F8FFEE761
:103EC00010BD00004C0100200CED00E010B5020018
:103ED00014D00F48006B38B1502080F31188BFF325
:103EE0004F8FBFF36F8FFEE700F04CF800211046B4
:103EF000FFF786FC00F0E8F9002807D105494FF0EC
:103F000080500860BFF34F8FBFF36F8F10BD00006C
:103F1000F000002004ED00E010B586B0002403940A
:103F200005AA04A903A80494FFF7F2FEDDE9030142
:103F30000094CDE9011000230EA11048059A00F06D
:103F400014F90F490028C86211D0502080F311885D
:103F5000BFF34F8FBFF36F8F4FF0FF3088620120A8
:103F60004861CC6006B0BDE8104000F041B806B032
:103F700010BD000049444C4500000000C139000854
:103F8000F00000200248016B491C016370470000EB
:103F9000F0000020144A106B10B10120D06170476E
:103FA0000020D06110691149B0FA80F0C0F11F0003
:103FB00000EB800051F820306BB101EB800000F184
:103FC0000803416849684160994201D149684160EC
:103FD000C86810607047502080F31188BFF34F8F7E
:103FE000BFF36F8FFEE70000F0000020E80600201E
:103FF0001CB537480168374A914207D1502080F3F9
:104000001188BFF34F8FBFF36F8FFEE70068314910
:10401000491E884207D1502080F31188BFF34F8F8B
:10402000BFF36F8FFEE72C4908780190FF200870DE
:1040300008788DF800009DF800009DF8002000F041
:10404000F000904207D0502080F31188BFF34F8FCB
:10405000BFF36F8FFEE79DF80000204C00F050008A
:1040600020700720A06006E0401EA0609DF80000C0
:1040700040008DF800009DF800000006A068F3D411
:10408000032807D0502080F31188BFF34F8FBFF370
:104090006F8FFEE74FF44070A060019808700C48E5
:1040A0002030016841F470010160016841F0704105
:1040B0000160FFF7CFFE00206060FCF70DF90848B3
:1040C000016841F040410160FCF7F2F800201CBD9E
:1040D00000ED00E071C20F4100E400E04C0100205F
:1040E00034EF00E010B5502080F31188BFF34F8FFC
:1040F000BFF36F8F00F082F818B104494FF0805081
:104100000860002080F3118810BD000004ED00E07D
:104110002DE9FF5F8346DDE90E87994616468A46FC
:104120009000FFF711FD05001CD05420FFF70CFD97
:10413000040014D00020256384F85100CDE902402A
:10414000CDE900874B46324651465846FFF766FC9C
:104150002046FFF78DFB012004B0BDE8F09F284604
:10416000FFF746FE4FF0FF30F6E7F0B585B00546A5
:10417000DDE90B040A9EA8B1E4B15427009720633F
:10418000022084F851000020CDE9024004AF284607
:10419000CDE90067FFF742FC2046FFF769FB049872
:1041A00005B0F0BD502080F31188BFF34F8FBFF3EF
:1041B0006F8FFEE7502080F31188BFF34F8FBFF35E
:1041C0006F8FFEE70548416919B1006B18B10020F7
:1041D000704701207047022070470000F000002067
:1041E0000148C06870470000F000002010B5FFF7DC
:1041F00043FE0148C06810BDF00000202DE9F041E9
:104200002F4F0026386B28B1B869401CB861304682
:10421000BDE8F081FD686D1CFD6013D1786B00680E
:1042200038B1502080F31188BFF34F8FBFF36F8FE9
:10423000FEE7786BB96B7963B863386A401C386203
:10424000FFF75EFCB86ADFF87C80854209D3786BA3
:104250000068A0B1786BC068C4686068854211D2FC
:10426000B8623868C06A00EB800158F82100012864
:1042700000D90126F8690028C9D00126C7E74FF008
:10428000FF30EDE7201DFFF72FFDA06A18B104F104
:104290001800FFF729FDE06A01213A6981401143C6
:1042A000396100EB800108EB8100211DFFF760FD03
:1042B000E06A3968C96A8842C9D30126C7E70000A5
:1042C000F0000020E80600202DE9F0472C4D0024E6
:1042D0002746286B38B1FFF757FD286B401E28632F
:1042E000286B40B146E0502080F31188BFF34F8F18
:1042F000BFF36F8FFEE7A86822490126D0B3A1F172
:10430000B4098846D8F80010E9B1D8F80C00C468A0
:1043100004F11800FFF7E8FC201DFFF7E5FCE06A58
:104320002A6906FA00F11143296100EB800109EBCB
:104330008100211DFFF71CFDE06A2968C96A8842D7
:10434000E0D3EE61DEE70CB1FFF7DAFBAC693CB11C
:10435000FFF754FF00B1EE61641EF9D10020A8619F
:10436000E86938B10849012738070860BFF34F8F63
:10437000BFF36F8FFFF728FD3846BDE8F0870000D8
:10438000F00000209C07002004ED00E081F00041D7
:10439000704780F00040704721F00041704720F0E6
:1043A0000040704721F00042A2F16052B2F5801F38
:1043B00001F0004328BFD2F17F6C0BD95FEA001CEB
:1043C00043EAC20242EB507018BF704728BF20F08A
:1043D00001007047B2F5801FBCBF184670474FEA16
:1043E000410C1CF5001F02D2084600F09BB970B5C5
:1043F00000F068F800000089FFF7F6BF4FF00040BA
:10440000A0F580007047491058BFC1F140415B10D2
:1044100058BFC3F140438B42EFF30080704710F068
:10442000004248BF4042B0FA80F310FA03F10AD0CC
:10443000C3F11D0303F580634FEA415002EB0352C1
:1044400002EBD12170474FF00000704751EA030C96
:1044500017D41CF5801F58BFBCF5801F00F10680E3
:10446000994218BF704708BF9042704707D711F5AF
:10447000801F58BF13F5801F19D499427047894295
:1044800070471CF5801F08D5BCF5801FF7D58B42FF
:1044900018BF704708BF824270474FF4001C1CEBE6
:1044A000410F38BF1CEB430F01D28B42704770B5F0
:1044B00000F008F8922449004FF000514FF080536B
:1044C000FFF7A1BF0EF1020E2EF0030E5EF8046B93
:1044D000364205D4012A43EB030515F5001F12D817
:1044E000012841EB010C1CF5001F0CD80ED14FEA3E
:1044F000D17C15F5001F0CEB4C0C0CF1020C08BF25
:104500004CEBD37C04E04FF0080C01E04FEAD37C85
:104510000CEB4C0526FA05F606F00706B6F1040C7E
:1045200006D20EEB860CBDE870404CF0010C6047E3
:10453000DFE80CF0090B02024FF000414FF00000E1
:10454000A1F5002170BD19461046012851EB010468
:1045500018BFD4F5001484BF002001F0004170BDE5
:104560000808A0F500114FEA3101704753EA010C29
:1045700017D41CF5801F58BFBCF5801F00F10680C2
:104580008B4218BF704708BF8242704707D713F5A8
:10459000801F58BF11F5801F19D48B4270479B4272
:1045A00070471CF5801F08D5BCF5801FF7D59942D0
:1045B00018BF704708BF904270474FF4001C1CEBB7
:1045C000430F38BF1CEB410F01D2994270470FB423
:1045D0000CBC03BCFFF76BBF43004FEAD30C4FEAA0
:1045E0003C0C43401FBF40070CF1605113F0FE4FDD
:1045F00070471CF0006F03D100200CF000417047A1
:104600000CF0004343EA507010B540EACC0000F0D3
:104610003EF800BF000000924FEA0001FFF7A0BF84
:104620004FF000414FF00000A1F5002170474FF01E
:104630007E5209E011F0004204D54042C1F1000170
:1046400038BF491E42F07E520B0002F1706212BF69
:1046500020235FEA00017047B1FA81FCA3EB0C0351
:1046600001FA0CF120FA03FC02EBC352C3F1200360
:1046700041EA0C0110FA03FC5CEA416C42EB1120A8
:1046800018BF5FF0806C28BF20F0010070470EF16A
:10469000020E2EF0030E5EF8044B244204D44FEABF
:1046A0004102B2F17F4F11D84FEA4003B3F17F4F7F
:1046B0000CD80ED14FEAD07CB2F17F4F0CEB4C0CF2
:1046C0000CF1020C08BF4CEBD17C04E04FF0080C5D
:1046D00001E04FEAD17C0CEB4C0324FA03F404F024
:1046E0000704B4F1040C06D20EEB840CBDE81040B4
:1046F0004CF0010C6047DFE80CF0070802024FF0B5
:104700000040A0F5800010BD0846420018BFD2F15D
:10471000807288BF00F0004010BD4FF04070E1EEA5
:10472000100A7047FF2141EAD050C00570470000D1
:10473000C2154FEA002318BF43F000430ED4D2F154
:10474000BE0215D323FA02F1B2F1200C2EBF23FAD8
:104750000CF0C2F1200C03FA0CF070474FEA400C49
:10476000BCF1FE4F04D24FF000004FF00001704743
:1047700010B5FFF78CFF00BF9224498000204FF056
:10478000000170476FEAE070014670471448000866
:104790008D2C0008000000000000000080000000D8
:1047A000000000000000000004480008952C0008EC
:1047B000FDFF00000000000080000000000000007D
:1047C0000000000020480008E1090008FDFF00008B
:1047D0000000000080000000000000000000000059
:1047E00000000000000000000102030406070809A1
:1047F0006B806B036C001A041B181C101D026A20CE
:1048000000000000436861737369735F5461736BE8
:104810000000000064656661756C745461736B0020
:10482000646174615F747261696E00000000000071
:10483000920E493CB10AC93C2BC3163D2EFB483DA4
:10484000752B7B3D04A9963D80B6AF3D36BDC83D76
:104850002FBCE13D73B2FA3D87CF093E8340163E3F
:10486000B5AB223EA2102F3ECF6E3B3EC2C5473EA7
:104870000115543E135C603E7F9A6C3ECCCF783E6F
:10488000C07D823E938E883E229A8E3E32A0943E18
:1048900086A09A3EE59AA03E128FA63ED47CAC3EFE
:1048A000EF63B23E2A44B83E491DBE3E15EFC33EFB
:1048B00053B9C93ECA7BCF3E4136D53E80E8DA3E89
:1048C0004F92E03E7533E63EBBCBEB3EEA5AF13EFB
:1048D000CBE0F63E275DFC3EE4E7003F3D9C033F16
:1048E000824B063F9BF5083F6B9A0B3FDA390E3F30
:1048F000CDD3103F2A68133FD9F6153FC07F183F2C
:10490000C6021B3FD17F1D3FCBF61F3F9967223F59
:1049100025D2243F5636273F1594293F4AEB2B3F9B
:10492000DE3B2E3FBB85303FC9C8323FF304353FE5
:10493000233A373F4268393F3B8F3B3FF9AE3D3F1B
:1049400067C73F3F70D8413F01E2433F03E4453F23
:1049500065DE473F12D1493FF8BB4B3F029F4D3FB9
:10496000207A4F3F3D4D513F4918533F31DB543F73
:10497000E595563F5348583F6AF2593F1A945B3FBA
:10498000532D5D3F05BE5E3F2146603F97C5613FA9
:104990005A3C633F59AA643F880F663FD86B673F14
:1049A0003CBF683FA7096A3F0C4B6B3F5E836C3F7F
:1049B00093B26D3F9ED86E3F73F56F3F0809713F0C
:1049C0005213723F4714733FDD0B743F0BFA743F71
:1049D000C6DE753F07BA763FC58B773FF853783F01
:1049E0009812793F9DC7793F02737A3FBE147B3F8F
:1049F000CDAC7B3F283B7C3FC9BF7C3FAC3A7D3F81
:104A0000CCAB7D3F23137E3FB0707E3F6DC47E3FB5
:104A1000580E7F3F6D4E7F3FAB847F3F0FB17F3F8E
:104A200097D37F3F43EC7F3F11FB7F3F0000803FE8
:104A300011FB7F3F43EC7F3F97D37F3F0FB17F3F19
:104A4000AB847F3F6D4E7F3F580E7F3F6DC47E3FEE
:104A5000B0707E3F23137E3FCCAB7D3FAC3A7D3FB1
:104A6000C9BF7C3F283B7C3FCDAC7B3FBE147B3F26
:104A700002737A3F9DC7793F9812793FF853783F88
:104A8000C58B773F07BA763FC6DE753F0BFA743F9A
:104A9000DD0B743F4714733F5213723F0809713F97
:104AA00073F56F3F9ED86E3F93B26D3F5E836C3F50
:104AB0000C4B6B3FA7096A3F3CBF683FD86B673F11
:104AC000880F663F59AA643F5A3C633F97C5613FD0
:104AD0002146603F05BE5E3F532D5D3F1A945B3F0C
:104AE0006AF2593F5348583FE595563F31DB543FF2
:104AF0004918533F3D4D513F207A4F3F029F4D3F54
:104B0000F8BB4B3F12D1493F65DE473F03E4453FC9
:104B100001E2433F70D8413F67C73F3FF9AE3D3F99
:104B20003B8F3B3F4268393F233A373FF304353FE1
:104B3000C9C8323FBB85303FDE3B2E3F4AEB2B3F9F
:104B40001594293F5636273F25D2243F9967223FA7
:104B5000CBF61F3FD17F1D3FC6021B3FC07F183FD2
:104B6000D9F6153F2A68133FCDD3103FDA390E3FEF
:104B70006B9A0B3F9BF5083F824B063F3D9C033FE2
:104B8000E4E7003F275DFC3ECBE0F63EEA5AF13E0B
:104B9000BBCBEB3E7533E63E4F92E03E80E8DA3E1B
:104BA0004136D53ECA7BCF3E53B9C93E15EFC33E11
:104BB000491DBE3E2A44B83EEF63B23ED47CAC3EB3
:104BC000128FA63EE59AA03E86A09A3E32A0943E61
:104BD000229A8E3E938E883EC07D823ECCCF783E18
:104BE0007F9A6C3E135C603E0115543EC2C5473E41
:104BF000CF6E3B3EA2102F3EB5AB223E8340163E09
:104C000087CF093E73B2FA3D2FBCE13D36BDC83DAA
:104C100080B6AF3D04A9963D752B7B3D2EFB483DEC
:104C20002BC3163DB10AC93C920E493C000000005E
:104C3000920E49BCB10AC9BC2BC316BD2EFB48BDA0
:104C4000752B7BBD04A996BD80B6AFBD36BDC8BD72
:104C50002FBCE1BD73B2FABD87CF09BE834016BE3B
:104C6000B5AB22BEA2102FBECF6E3BBEC2C547BEA3
:104C7000011554BE135C60BE7F9A6CBECCCF78BE6B
:104C8000C07D82BE938E88BE229A8EBE32A094BE14
:104C900086A09ABEE59AA0BE128FA6BED47CACBEFA
:104CA000EF63B2BE2A44B8BE491DBEBE15EFC3BEF7
:104CB00053B9C9BECA7BCFBE4136D5BE80E8DABE85
:104CC0004F92E0BE7533E6BEBBCBEBBEEA5AF1BEF7
:104CD000CBE0F6BE275DFCBEE4E700BF3D9C03BF12
:104CE000824B06BF9BF508BF6B9A0BBFDA390EBF2C
:104CF000CDD310BF2A6813BFD9F615BFC07F18BF28
:104D0000C6021BBFD17F1DBFCBF61FBF996722BF55
:104D100025D224BF563627BF159429BF4AEB2BBF97
:104D2000DE3B2EBFBB8530BFC9C832BFF30435BFE1
:104D3000233A37BF426839BF3B8F3BBFF9AE3DBF17
:104D400067C73FBF70D841BF01E243BF03E445BF1F
:104D500065DE47BF12D149BFF8BB4BBF029F4DBFB5
:104D6000207A4FBF3D4D51BF491853BF31DB54BF6F
:104D7000E59556BF534858BF6AF259BF1A945BBFB6
:104D8000532D5DBF05BE5EBF214660BF97C561BFA5
:104D90005A3C63BF59AA64BF880F66BFD86B67BF10
:104DA0003CBF68BFA7096ABF0C4B6BBF5E836CBF7B
:104DB00093B26DBF9ED86EBF73F56FBF080971BF08
:104DC000521372BF471473BFDD0B74BF0BFA74BF6D
:104DD000C6DE75BF07BA76BFC58B77BFF85378BFFD
:104DE000981279BF9DC779BF02737ABFBE147BBF8B
:104DF000CDAC7BBF283B7CBFC9BF7CBFAC3A7DBF7D
:104E0000CCAB7DBF23137EBFB0707EBF6DC47EBFB1
:104E1000580E7FBF6D4E7FBFAB847FBF0FB17FBF8A
:104E200097D37FBF43EC7FBF11FB7FBF000080BFE4
:104E300011FB7FBF43EC7FBF97D37FBF0FB17FBF15
:104E4000AB847FBF6D4E7FBF580E7FBF6DC47EBFEA
:104E5000B0707EBF23137EBFCCAB7DBFAC3A7DBFAD
:104E6000C9BF7CBF283B7CBFCDAC7BBFBE147BBF22
:104E700002737ABF9DC779BF981279BFF85378BF84
:104E8000C58B77BF07BA76BFC6DE75BF0BFA74BF96
:104E9000DD0B74BF471473BF521372BF080971BF93
:104EA00073F56FBF9ED86EBF93B26DBF5E836CBF4C
:104EB0000C4B6BBFA7096ABF3CBF68BFD86B67BF0D
:104EC000880F66BF59AA64BF5A3C63BF97C561BFCC
:104ED000214660BF05BE5EBF532D5DBF1A945BBF08
:104EE0006AF259BF534858BFE59556BF31DB54BFEE
:104EF000491853BF3D4D51BF207A4FBF029F4DBF50
:104F0000F8BB4BBF12D149BF65DE47BF03E445BFC5
:104F100001E243BF70D841BF67C73FBFF9AE3DBF95
:104F20003B8F3BBF426839BF233A37BFF30435BFDD
:104F3000C9C832BFBB8530BFDE3B2EBF4AEB2BBF9B
:104F4000159429BF563627BF25D224BF996722BFA3
:104F5000CBF61FBFD17F1DBFC6021BBFC07F18BFCE
:104F6000D9F615BF2A6813BFCDD310BFDA390EBFEB
:104F70006B9A0BBF9BF508BF824B06BF3D9C03BFDE
:104F8000E4E700BF275DFCBECBE0F6BEEA5AF1BE07
:104F9000BBCBEBBE7533E6BE4F92E0BE80E8DABE17
:104FA0004136D5BECA7BCFBE53B9C9BE15EFC3BE0D
:104FB000491DBEBE2A44B8BEEF63B2BED47CACBEAF
:104FC000128FA6BEE59AA0BE86A09ABE32A094BE5D
:104FD000229A8EBE938E88BEC07D82BECCCF78BE14
:104FE0007F9A6CBE135C60BE011554BEC2C547BE3D
:104FF000CF6E3BBEA2102FBEB5AB22BE834016BE05
:1050000087CF09BE73B2FABD2FBCE1BD36BDC8BDA6
:1050100080B6AFBD04A996BD752B7BBD2EFB48BDE8
:105020002BC316BDB10AC9BC920E49BC000000805A
:10503000505000080000002058010000E80100085E
:105040007050000858010020C849000044020008C0
:1050500041021CFF1D804A44FF0101496B24F459A1
:10506000024A3F091C9F32010267101AAA0141003F
:04000005080001AD41
:00000001FF
